:1000000078FFE4B8200118F6D8F99000007F007E50
:1000100007E4F0A3DFFCDEFA75812002268C900154
:10002000CFE0248F601C24F37005122BFE80139008
:1000300001CFE0FF122C8E7F0312297AEF60037F3D
:1000400002227F0322122B682200000222D4EFD367
:100050009403500D12120BF583E5822D1210B9E4B2
:10006000F0220002288375F002121B3DE0FCA3E0A1
:10007000FD75F088EFA42434F582E5F03400F583B3
:10008000EE75F002021B3DF583E0FCA3E0FDEE758A
:10009000F002A42416F582E5F03400F583229003E3
:1000A000B1E0FF9003B0E0FE75F088A42497F582DC
:1000B000E5F03400F583E5822FF582E43583F5839E
:1000C000229003B2E0FEA3E0FF9003B0E0FD75F0E4
:1000D00088A4246AF582E5F03400F58322E0FCA3CD
:1000E000E0FDEF75F088A42446F582E5F0340022A7
:1000F000FDEC541FF0EDA3F0EB75F002A42410F515
:1001000082E5F03400F5832275F002EBA4240AF5B1
:1001100082E5F03400F583E0FCA3E0FDEB75F0022E
:10012000A42404F582E5F03400F5832275F004126E
:100130001B3DE0F8A3E0F9A3E0FAA3E0FB90028BFB
:10014000E0FCA3E0FDA3E0FEA3E022F583E493FC42
:10015000740193FD75F002EFA422C39DFFEE9CFE97
:10016000E075F088A42458F582E5F03400F5832288
:1001700075F088A4247CF582E5F03400F583EC75F5
:10018000F002021B3D9003B0E0FF75F088A424222A
:10019000F582E5F03400F583229003B0E0FF75F0BE
:1001A00088A42434F582E5F03400F58322F0A3F02E
:1001B000A3F0A3F0A3F0A3F0A32224C0F582E5F0FE
:1001C0003401F583ECF0A3EDF0EF25E02275F002A9
:1001D000EBA4240AF582E5F03400F583229003B005
:1001E000E0FD75F088A4247CF582E5F03400F58309
:1001F00022C39BFBEE9AFAED99F9EC98F8E493FE92
:10020000740193FFE4FCFDC3021AEFEF75F009A43B
:10021000248FF582E4340222EF75F009A42404F55A
:1002200082E43402229003B1E0FF9003B0E075F065
:1002300088A4248EF582E5F0340022E4F075F0887D
:10024000EEA424A0F582E5F03400229003B4E0FD92
:10025000EF9D7480F86E98229003B0E0FFA3E0FD5C
:100260002275F088EEA424A9F582E5F0340022E09E
:10027000FEA3E0FFD32274D32BF582E43401F5838F
:1002800022FFEE34FEFE7C007D0A021A5CE0FF25B0
:10029000E024A4F582E43403F58322EB25E024B4C2
:1002A000F582E43422F58322E0248EF582E43400E2
:1002B000F583E0640122EF25E024AAF582E434030B
:1002C000F58322241CF582E5F03400F583ECF0A3DD
:1002D000EDF00F22E4F0A3F075F08822E0FCA3E03B
:1002E000FD75F08822E0FEA3E0C39DFFEE9CFE2298
:1002F000EE8FF0121AC375F088ED22C3EF94F6EE7C
:100300006480947F2224BAF582E5F034012224C669
:10031000F582E5F034012225E025E024DCF582E4D5
:100320003401F5832275F024A424AAF582E4340272
:10033000F5832275F024A4241FF582E43402F583AA
:10034000229003B0E0FFA3E0FD22A42497F582E50C
:10035000F03400F583E58222E0FF9003A4E0FEEF95
:10036000C8EEC80822F582E43402F58322940AEE2E
:100370006480948022902EC6F0902EC57401F022E5
:10038000EDF0CBEFCBEBD394032275F004121B3DC1
:10039000021B00ECF0A3EDF09003B0E0229003A369
:1003A000E004F022ECF0A3EDF09003A2E022900133
:1003B000D0E0FE75F002A422FFEE3401FE75F002DB
:1003C000EB229003B0EFF0A3EDF09003B47403F0D0
:1003D000ED70037402F09003B0E0FF1210E3F583B8
:1003E000C083C0829003B1E0FED082D08312106639
:1003F0001212E59003B2F0A3EFF0122D41C31212D6
:100400004B40030214B71210C1C083C0829003B1E5
:10041000E0FCD082D0831210811212F01210D1ECC5
:1004200012108112126F12136D40241210C9C08372
:10043000C0829003B1E0FCD082D083121081E4F03E
:10044000A3F0ED1210E312117CE475F001802B1281
:1004500012FB50299003B0E0FF1210CEC083C0827F
:100460009003B1E0FED082D083121081E4F0A3F0BB
:100470001210E212107E74FFF5F0121AC312125815
:1004800012104E121258122B2312125812292AEF50
:1004900070030215E39003B1E0FF9003B0E0FE1299
:1004A000122E1210B4E4F0EF60030215E312126191
:1004B000F583E4F00215E39003B1E0703EA3E0FEA3
:1004C000A3E0FF122D419003B4E02402FDE433FCCD
:1004D000D3EF9DEC6480F8EE6480984009121225F9
:1004E0001210B47401F012161CD312124B402C904F
:1004F00003B0E075F088121265801B12161C900381
:10050000B4E0FDD31212504012121225F583E58299
:100510002FF582E43583F5837401F01210C1C08396
:10052000C0829003B1E0FCD082D0831210811212FD
:10053000F01210D112117E12126F9464EE64809446
:100540008040231210C9C083C0829003B1E0FCD068
:1005500082D0831210811212D4ED1210E612117C97
:10056000E475F0018031C3EF949CEE6480947F5079
:10057000299003B0E0FF1210CEC083C0829003B177
:10058000E0FED082D083121081E4F0A3F01210E2DA
:1005900012107E74FFF5F0121AC3C39003B2E06428
:1005A0008094805032121258122AEA1212581228DD
:1005B000DAEF60299003B012119CC083C0829003CF
:1005C000B1E0FED082D0831210811210DD12107EB5
:1005D000ECF0A3EDF0800612125812104E121258D1
:1005E000122D009003B0E0FF1210E3F583C083C02A
:1005F000829003B1E0FED082D083121066E0FEA3A9
:10060000E09003B012115AC083C0829003B1E0D0D1
:1006100082D083121081EEF0A3EFF0229003B2E0BB
:10062000FEA3E0FF122D4122CBEFCB1211CDE0FE55
:10063000A3E0FF12111CE0FCA3E0FDC39FEC9E5061
:10064000030216E8E42DFFEC3404FE1211CDE0FCA9
:10065000A3E0FDC3EF9DFFEE9CFE1210F8EEF0A3A9
:10066000EFF01211CDE0FEA3E0FF12111CE0FCA39D
:10067000E0C39FFFEC9EFE75F002EB121092EEF0CD
:10068000A3EFF012129BE493FE740193FF75F00246
:10069000EB121092E0FCA3E0FDD39FEC9E402412ED
:1006A000129BE493FE740193FFC3ED9FFFEC9EC386
:1006B00013FEEF13FF12129B7401932FFFE4933E7E
:1006C000FE801775F002EB121092E0FEA3E0FF7CB3
:1006D000007D63121A5C0D121A6E75F002EB121097
:1006E00092EEF0A3EFF0803812111CE0FEA3E0FFC1
:1006F0001211CDE0FCA3E0C39FEC9EC3940475F0FF
:1007000002EB5010121092E4F01210F67404F0A3F1
:10071000E4F0800C121092E4F01210F6E4F0A3F072
:10072000EB6401707675F002EB12109212126F9466
:10073000A4EE94014019EF245C1212817D32121A4A
:100740006EEF24A41213B8121092EEF0A3EFF0751E
:10075000F002EB121092E0FCA3E09003261210F0DE
:1007600012126F94DCEE9405401FEF2424FFEE3448
:10077000FA1212857D1E121A6EEF24DCFFEE34058C
:10078000FE1210F8EEF0A3EFF01210F8E0FCA3E078
:10079000FDEC541F90032AF0EDA3F0EB6402707699
:1007A00075F002EB12109212126F94AEEE940140AB
:1007B00019EF24521212817D32121A6EEF24AE12FA
:1007C00013B8121092EEF0A3EFF075F002EB1210D6
:1007D00092E0FCA3E09003281210F012126F94E64E
:1007E000EE9405401FEF241AFFEE34FA1212857DB5
:1007F0001E121A6EEF24E6FFEE3405FE1210F8EE1C
:10080000F0A3EFF01210F8E0FCA3E0FDEC541F9011
:10081000032CF0EDA3F0229003B0EFF0A3EDF090E5
:1008200003B47407F0ED603F90008EE06401700245
:1008300080089003B11212A8702D121185C083C0D8
:10084000829003B1E0FED082D0831210661213931F
:100850001211E2C083C0829003B1E0D082D0831233
:100860001081E4F0A3F0229003B012119CC083C069
:10087000829003B1E0FED082D0831210811212DC8C
:10088000EFA42422F582E5F0340012107E1212E566
:100890009003B2F0A3EFF0122D419003B4E0FDC33A
:1008A000121250400302196B12109EE0640170375F
:1008B00075F088EE121164EF12117FE0FEA3E0C321
:1008C000941EEE6480948040030219B1121185C019
:1008D00083C0829003B1E0FED082D083121066EC18
:1008E000F0A3EDF00219B19003B2E0FEA3E0FF1215
:1008F00011DDC083C0829003B1E0FCD082D08312AE
:100900001081EE8FF0121AC3ED12117012126F12D5
:10091000136D40291211DDC083C0829003B1E0FC49
:10092000D082D0831210811212D4EDA42434F58227
:10093000E5F0340012117CE475F00180281212FBFE
:10094000506F9003B0E0FF1211E2C083C0829003A9
:10095000B1E0FED082D083121081E4F0A3F0121037
:100960007174FFF5F0121AC30219B1121185C08318
:10097000C0829003B1E0FED082D0831210661213C1
:1009800093FF121161C083C0829003B1E0FED08258
:10099000D083121081E0FCA3E0C3941EEC64809429
:1009A00080400E75F088EF12134A2E1210B97401B0
:1009B000F012109EE06401702812123D1210B4E093
:1009C0000412123C1210B4E0D3940540149003B109
:1009D000E0FF75F088EE1210AB12123B1210B4E477
:1009E000F022BB010689828A83E0225002E722BB03
:1009F000FE02E32289828A83E49322BB010CE58212
:100A000029F582E5833AF583E0225006E92582F84C
:100A1000E622BBFE06E92582F8E222E58229F5827C
:100A2000E5833AF583E49322BB010689828A83F049
:100A3000225002F722BBFE01F322F8BB010DE58232
:100A400029F582E5833AF583E8F0225006E925820C
:100A5000C8F622BBFE05E92582C8F222EF8DF0A47C
:100A6000A8F0CF8CF0A428CE8DF0A42EFE22BC00DE
:100A70000BBE0029EF8DF084FFADF022E4CCF875B9
:100A8000F008EF2FFFEE33FEEC33FCEE9DEC9840C8
:100A900005FCEE9DFE0FD5F0E9E4CEFD22EDF8F564
:100AA000F0EE8420D21CFEADF075F008EF2FFFEDC4
:100AB00033FD4007985006D5F0F222C398FD0FD5BC
:100AC000F0EA22C5F0F8A3E028F0C5F0F8E58215B9
:100AD0008270021583E038F022A3F8E0C5F025F01B
:100AE000F0E582158270021583E0C838F0E822EB49
:100AF0009FF5F0EA9E42F0E99D42F0E89C45F02225
:100B0000ECF0A3EDF0A3EEF0A3EFF022A882858332
:100B1000F0D083D082121B23121B23121B23121B23
:100B200023E473E493A3C583C5F0C583C8C582C815
:100B3000F0A3C583C5F0C583C8C582C822A4258299
:100B4000F582E5F03583F58322EF4E6012EF600108
:100B50000EEDBB010B89828A83F0A3DFFCDEFA2253
:100B600089F05007F709DFFCA9F022BBFEFCF3096E
:100B7000DFFCA9F022E49003A3F09003A3E0FFC3FD
:100B800094094003021CFEEF902EC87014E0545FDD
:100B9000F0A3746AF0902EC3744AF0A37401F0803D
:100BA00012E044F0F0A3742AF0902EC37420F0A356
:100BB0007409F09003A3E090217793902ECAF0E49B
:100BC0009003A2F0900003E0FF9003A2E0FEC39F19
:100BD0004003021CF574012E121365E0FF9003A47C
:100BE000F0E4F5E2EFC39408503A7415121375C09F
:100BF00083C0821213588002C333D8FCD082D083C2
:100C0000F0902ECD7401F0C083C082E0FFC8EEC822
:100C1000088002C333D8FCD082D083F0902EC074F9
:100C2000C1F0805D9003A4E024F8F07416121375EF
:100C3000C083C0821213588002C333D8FCD082D044
:100C400083F0902ECE7401F0C083C082E0FFC8EE26
:100C5000C8088002C333D8FCD082D083F0EEB4053C
:100C600006902EC97429F0EEB40606902EC97421A0
:100C7000F0EEB40706902EC97420F0902EC074C216
:100C8000F0E4FF900000742EF0A3E4F09003A2E0E3
:100C90002401121365E09003A4F0E5E220E2050FC1
:100CA000EFB4C8DF9003A4E0FD75F002A4FFAEF03E
:100CB000900001E02FF0900000E03EF0ED9021A4C4
:100CC00093FF900000E475F002121AD985F082F5C6
:100CD000831212DCEF12118DC083C0829003A3E057
:100CE000D082D083121081ECF0A3EDF09003A2E04B
:100CF00004F0021BC49003A3E004F0021B7A9001ED
:100D0000CC7401F0229003B0EFF0A3EDF09003B4A7
:100D10007407F0ED70037404F090008EE0640170CD
:100D20000280089003B11212A87038121199C08382
:100D3000C0829003B1E0FED082D0831210811210E5
:100D4000DD12107EECF0A3EDF09003B0121160C044
:100D500083C0829003B1E0D082D083121081E4F08E
:100D6000A3F0229003B0E0FF1210E3F583C083C02C
:100D7000829003B1E0FED082D0831210661212E599
:100D80009003B2F0A3EFF0122D419003B4E0FDC345
:100D90001212504003021E239003B2E0FEA3E0FFB4
:100DA0009003B01210CCC083C0829003B1E0FCD09D
:100DB00082D0831210811212F01210D112117E1201
:100DC000126F12136D40269003B01210CCC083C076
:100DD000829003B1E0FCD082D0831210811212D431
:100DE000ED1210E612117CE475F001802B1212FB5B
:100DF00050299003B0E0FF1210CEC083C082900350
:100E0000B1E0FED082D083121081E4F0A3F0121082
:100E1000E212107E74FFF5F0121AC3121341121081
:100E20004E8038C39003B2E064809480502D12133A
:100E300041122AEA1213411228DAEF601E121199A8
:100E4000C083C0829003B1E0FED082D083121081B3
:100E50001210DD12107EECF0A3EDF09003B0E0FF75
:100E60001210E3F583C083C0829003B1E0FED0820C
:100E7000D083121066E0FEA3E09003B012115AC0B6
:100E800083C0829003B1E0D082D083121081EEF053
:100E9000A3EFF0229001D2E024FE60181470030248
:100EA0001F69240260030220079001D27402F0E45B
:100EB000900200F0121B759001CCE07003021F47F6
:100EC000900200E004F0E49003A1F0900003E0FF42
:100ED0009003A1E0C39F506FE4FF9003A1E0FE12D6
:100EE000118A75F002EF121B3D1212DCEE1210E6B1
:100EF000F58375F002EF121B3D1212CDEFB409DA43
:100F00009003A1E0FF12108FE4F0A3F0EF1210F9AC
:100F10007404F0A3E4F0EFB40110E4900326F0A30E
:100F2000F090032A7404F0E4A3F0EFB40210E4900C
:100F30000328F0A3F090032C7404F0E4A3F09003D2
:100F4000A1E004F0021ECB900200E0C39403500322
:100F5000022007900002747EF0E49001CDF0900230
:100F600000F09001D27403F022121B759001CCE0C6
:100F70007003022007122008E49003A1F090000300
:100F8000E0FE9003A1E0FFC39E5016122AAE122A83
:100F9000639003A1E0FF1216289003A1E004F08003
:100FA000DC122BCB12275112101E9001D2EFF064ED
:100FB000037054900002E0FFD394104015EF647E5C
:100FC000704590031CE04408F0900200E06038E4B3
:100FD000802A90031CE054F0F0900002E0B4010776
:100FE00090031CE04401F0900002E0B4020790037B
:100FF0001CE04402F0900200E0700C04F0C28A0091
:101000000000000000D28A22E49003A3F09003A322
:10101000E0FDC394095023E0FF75F00212118DE04A
:10102000FAA3E0FB75F002EF1211A1EAF0A3EBF0D6
:10103000E4FF1213C212139D80D3E49003A2F09038
:101040000003E0FF9003A2E0C39F4003022171125E
:10105000128DE4F0A3F01212B6E4F0A3F0EF7003E7
:10106000022149E49003A3F09003A3E0FDC3940997
:1010700050189003A2E0FF1218179003A2E0FFA3FC
:10108000E0FD121D0512139D80DEE49003A3F09095
:1010900003A3E0FFC394094003022149748E2F1279
:1010A00012AB60109003A2E075F088121265F58310
:1010B000E0B401239003A2E0FF1211611212DCEFF1
:1010C000121164C083C0829003A3E0D082D0831247
:1010D0001081ECF0A3EDF09003A3E060669003A212
:1010E000E0FF1210E3F583C083C0829003A3E0FE0B
:1010F000D082D083121081E0FCA3E0FD1212B6EC86
:101100008DF0121AC39003A2E0FF75F088A4245852
:10111000F582E5F0340012107E1210DDF583C083F5
:10112000C0829003A3E0D082D083121081E0FEA39E
:10113000E02DFFEE3CFE9003A2E012128FEE8FF046
:10114000121AC312139D02208F9003A212128DE077
:10115000FCA3E0FDEF12111D1213A4FF1212B7E061
:10116000FCA3E01211531211D21213A404F00220B6
:101170003FE49001CCF0223F3F3F3F3F3F3F3F3FA6
:1011800000320032177009C4001E0032000A0064E9
:10119000000A000A0000000000000000000000003B
:1011A000000101010D0E0F030405060708090A0BD3
:1011B0000C000102003700370037003700370037D6
:1011C0000037003700370037003700370037003767
:1011D00000370037005000500050005000500050C1
:1011E000005000500050005000500050005000507F
:1011F00000500050001E001E001E001E001E001E9B
:10120000001E001E001E001E001E001E001E001EEE
:10121000001E001E002D002D002D002D002D002D84
:10122000002D002D002D002D002D002D002D002D56
:10123000002D002D006E006E006E006E006E006EC0
:10124000006E006E006E006E006E006E006E006E2E
:10125000006E006E00870087008700870087008788
:101260000087008700870087008700870087008746
:101270000087008700550055005500550055005562
:1012800000550055005500550055005500550055B6
:1012900000550055002D002D002D002D002D002D96
:1012A000002D002D002D002D002D002D002D002DD6
:1012B000002D002D00FA00FA00FA00FA00FA00FAF8
:1012C00000FA00FA00FA00FA00FA00FA00FA00FA4E
:1012D00000FA00FAC0E0C083C082C0D0E8C0E0E9F4
:1012E000C0E0EAC0E0EBC0E0EFC0E0D2AFE5DB3049
:1012F000E415E5DB30E102802890031BE5DFF09088
:10130000039CE4F00223A3E5DB30E50812104590CE
:101310000318802BE5DB30E119E5DB20E003022335
:10132000A390039E122B5F122B781219FBF5DF029C
:1013300023A390039CE0700DA3E5DFF090039C7461
:1013400001F00223A390039DE09026D193FFB4FF08
:101350000E90031BE5DFF090039DE004F0803EEF6C
:10136000640F90039E702B122B5F90039DE0FF1281
:101370002B8C540F121A2890039E122B5F90039D02
:10138000E0FF04F0122B8CFFE5DF54F04F121A2817
:10139000800B122B5F122B78E5DF121A3A90031A9A
:1013A000E004F075DBFFD0E0FFD0E0FBD0E0FAD046
:1013B000E0F9D0E0F8D0D0D082D083D0E0329003F2
:1013C0002FE0FE6410704EFF900003E0FDEFC39D20
:1013D0004003022465EF25E02454F582E434221210
:1013E000114B1211BA2434F582E4342212114B123B
:1013F00013051211C22474F582E4342212114B1227
:10140000130E1211C22494F582E4342212114B12ED
:1014100012C30223C8EE6420705DFF900003E0FE5B
:10142000EFC39E5040EF25E024D4F582E43421122E
:10143000114B1211BA24B4F582E4342112114B126B
:1014400013051211C224F4F582E4342112114B1257
:10145000130E1211C22414F582E4342212114B121D
:1014600012C302241B9001BCA3E0900320F0900162
:10147000BEA3E0900321F022E49003A2F0FF9003CA
:10148000A1F0EF14601E14603514604C14605B24EE
:101490000470749003A37401F0A3742FF0A3745824
:1014A000F0022501122B5C9000011219FBFED3946F
:1014B0001F4003122B851219E26E704B8043122BD2
:1014C0005C9000021219FBFED394064003122B8598
:1014D0001219E26E70318029122B5C9000031219F0
:1014E000FBFE1219E26E701F8017122B5C90000435
:1014F0001219FBFE648B6003122B851219E26E70C9
:10150000069003A1E004F00FEF640560030224825B
:101510009003A1E0B40504A37401F09003A2E0FDE0
:101520006007900330E0547FF0CFEDCF22758A50F2
:10153000538AEF9003BA7411F09003B87422F090BC
:1015400003BB7433F075997F759A80E4FFFEC296F1
:1015500020970AD296309705E49003BAF00FBF00A7
:10156000010EEF640A4E70E675993F759AC0E4FE6D
:10157000FF2097069003B87427F020960C9003B8CC
:101580007426F02097037428F00FBF00010EEF645B
:101590000A4E70DDE4F5AD75AEF075AF09F5AC75CA
:1015A00089FF75913F75991FF59675931FF59BF50A
:1015B00095F592F59A75800CF588F590D28A90038E
:1015C000B904F0227E017FCD7D007B017A00790491
:1015D000121B4912282B90032F7410F01223BEE423
:1015E000FE900003E0FFEEC39F5056E4FC75F088C8
:1015F000EE1210D112117E1212D4EE121231F583B6
:10160000E5822C1210B9E4F0EE1211701212D4EE31
:1016100012134A2C1210B912123BF583E5822C12D8
:1016200010B9E4F0CFEECFCDECCD12104E122D005C
:101630000CEC640970B7121261F583E4F00E022518
:10164000E19001CF747EF0900002F0E49001CEF0C2
:1016500022022B95E493A3F8E493A34003F68001C0
:10166000F208DFF48029E493A3F85407240CC8C3DC
:1016700033C4540F4420C8834004F456800146F616
:10168000DFE4800B0102040810204080902C24E449
:101690007E019360BCA3FF543F30E509541FFEE474
:1016A00093A360010ECF54C025E060A840B8E49336
:1016B000A3FAE493A3F8E493A3C8C582C8CAC58378
:1016C000CAF0A3C8C582C8CAC583CADFE9DEE780FD
:1016D000BE0FFFFF00000000000000FFFFFFFFFF44
:1016E000FFFFFFFF000000000000000000000000FE
:1016F00000000000000000000000000000000000EA
:1017000000000000000000000000000000000000D9
:1017100000000000000000000000000000000000C9
:1017200000000000000000000000000000000000B9
:1017300000000000000000000000000000000000A9
:101740000000000000000000000000000000000099
:1017500000900002E0FFC394105028A3E0FEEFC306
:101760009E5020900002E075F002A412130EF58343
:10177000E0FCA3E0FDEF12108FE0FEA3E0C39DEEBE
:101780009C50457F7E9001CEE0701C04F01213AE99
:1017900024C0F582E5F03401121087E0FAA3E0C31B
:1017A0009DEA9C401A80131213AE12130512108783
:1017B000E0FAA3E0C39DEA9C40059001D0E0FF90D1
:1017C00001CFE06F6002EFF022902EC0E4F0902E87
:1017D000CB74F1F0902F58E0540F24F0902EC8F005
:1017E000902ECC7448F0902EC97429F0A37408F0A0
:1017F000902E4074811211ADF0A3F0A3041211AD2C
:101800007401F0A37481F0902EC67414F0902EC170
:101810007490F0A37401F0A37420F0A37409F04352
:10182000E310122C4A900003EFF0227E007F807DAF
:10183000007B017A03791C121B4990031C7408F089
:1018400090031E7401F090032E74ABF0900330747B
:1018500084F09003BAE0900322F09003B8E0900384
:1018600023F09003BBE0900324F012247890031936
:10187000E0600890031D7406F08005E490031DF0FD
:10188000022A18C0E0C0F0C083C082C0D0E8C0E027
:10189000ECC0E0EDC0E0EEC0E0EFC0E0D2AF900100
:1018A000D1E004F0C3940A4017E4F012113D240182
:1018B000FFE43EFEE43DFDE43CFC90028B121B0085
:1018C000D0E0FFD0E0FED0E0FDD0E0FCD0E0F8D0EA
:1018D000D0D082D083D0F0D0E0329003B6EDF0903B
:1018E00003B5EFF0A3E0FE12120BF583E5822E1292
:1018F00010B9E060329003B5E0121325C083C082B6
:101900009003B6E0D082D08312112C90218A12115C
:10191000F140149003B6E0FF9003B5E012120C12F0
:1019200010B4E4F07F01227F00229003B6EDF09026
:1019300003B5EFF0A3E0FE121218F583E5822E1234
:1019400010B9E060329003B5E0121333C083C08257
:101950009003B6E0D082D08312112C90218C12110A
:10196000F140149003B6E0FF9003B5E01212191293
:1019700010B4E4F07F01227F00229003A2EFF0C3B5
:1019800094095042E0FF24D3121279E06038EF123C
:101990001317121132C39BFBEE9AFAED99F9EC98EA
:1019A000F89003A2E025E02480F582E43421F58359
:1019B0001211FD400E9003A2E024D3121279E4F03C
:1019C0007F01227F00227F00229003A17410F0A3E8
:1019D000E4F0A3743FF0A374FFF0E4FDFCF990037E
:1019E000A1E0FEA3E02DF582EE3CF583E493FF69D0
:1019F000F90DBD00010CBC2FE5BDFFE29003A3E093
:101A0000FEA3E0F5828E83E49369700690031904C7
:101A1000F022E4900319F0229001C2A3E090037435
:101A2000F09001C4A3E0900375F09001BCA3E09096
:101A30000376F09001BEA3E0900377F09001C8A375
:101A4000E0900378F09001CAA3E0900379F090222F
:101A5000B674019390037AF09022B87401939003C6
:101A60007BF0229003B9E06044900006E0FEA3E022
:101A7000FFC39470EE941750069003BB7426F0C316
:101A8000900009E09470900008E0941750129003C1
:101A9000BB7427F0C3EF9470EE941750037428F0D2
:101AA000E49003B9F09003BBE0900324F022CBEF65
:101AB000CBEB64017017121108E090036CF0121167
:101AC0001CA3E090036DF0ECA3F0EDA3F0EB640237
:101AD0007017121108E0900370F012111CA3E0902F
:101AE0000371F0ECA3F0EDA3F0229003B512138084
:101AF00050309003B5E0FFEB12120C1210B4E070FE
:101B000021EB12120C1210B47401F012113DFFEB14
:101B1000121325C083C0829003B5E0D082D0831217
:101B2000138A229003B512138050309003B5E0FF62
:101B3000EB1212191210B4E07021EB1212191210EC
:101B4000B47401F012113DFFEB121333C083C08255
:101B50009003B5E0D082D08312138A229003A3E0D1
:101B6000FBA3E0FAA3E0F922E4F5DA75DA4043DA00
:101B70002075D74075DA582290039DE0FF04F08F5E
:101B800082758300229003A27401F022E92FF9E408
:101B90003AFA0219E27520011229C953A87F1225C9
:101BA0002D122D35122D14122CCC43A880122CAFDF
:101BB000EF24E0600A2410700AC283C2828004D23B
:101BC00083D2821223BE121E9480E2E4FFFE9000B4
:101BD00003E0FDEEC39D502075F002EFA42416F53E
:101BE00082E5F03400121087E0FAA3E0D39DEA9C6E
:101BF0004003CFEECF0E80D69001D0EFF0229000C0
:101C000002747EF07F03122D269001CDE060147FD8
:101C100001122C6D7F0112297AEF6007E49001CD4B
:101C2000F0A3F022410200004101D10041039C00D9
:101C300041039D0042031600004103180041031AAE
:101C4000004103190041031B1000902EC5E4F090E1
:101C50002ECDF0A3F0FFFEEE902194936009740165
:101C60002F121365EEF00F0EEEB410EB22CBEFCB7C
:101C7000EBD394095017121276E070111212767499
:101C800001F012113DFFEB121317121B0022CAEFD5
:101C9000CAEAC394105017900002E06A60107F03F4
:101CA000122C6D900002EAF09001CD7401F022E454
:101CB000FD900318E0601190031CE0FE54F0FDEE6F
:101CC000540FF0E4900318F0CFEDCF2290039E74F0
:101CD00001F0A37403F0A3741CF0122B6843A9084D
:101CE00075B80875F8082290028B121B0C000000D2
:101CF000007E007F097D007B017A0179D3021B49B8
:101D0000EFD39403500D121218F583E5822D1210B3
:101D1000B9E4F02275B28E75B6F9E4F5B743B201B5
:101D200043AA01022CE7EFD39409500874D32F1271
:101D30001279E4F0221227C99001D27401F0022531
:101D4000C4EE30E707C3E49FFFE49EFE22000000DC
:101D50000000000000000000000000000000000083
:101D60000000000000000000000000000000000073
:101D70000000000000000000000000000000000063
:101D80000000000000000000000000000000000053
:102FF0000000000000000000000000000000004D84
:00000001FF
