:1000000078FFE4B8200118F6D8F99000007F007E50
:1000100007E4F0A3DFFCDEFA758121022A3A122EF2
:100020004F900248E06F6002EFF0220223B6E4FD39
:1000300090024BE0601190024FE0FE54F0FDEE5450
:100040000FF0E490024BF0CFEDCF2202259A75B26B
:100050008E75B6F9E4F5B743B20143AA01023150F7
:10006000000000022D627F01122E03EF60061227AE
:10007000567F02227F0022122F1F22022C4990025B
:10008000D4EBF0A3EAF0A3E9F09001D9E024FE60FC
:100090001314700302111C14700302131224037052
:1000A000E81230AE9001CFE0605D900217E004F0FE
:1000B000E49002D7F0121DAFC39F5048E0FB121C22
:1000C0007F1221CB00000000EBB4010DE490025937
:1000D000F0A3F0900264121F7F9002D7E0FFB402F9
:1000E0000DE490025BF0A3F0900266121F7FEFB464
:1000F000030DE490025DF0A3F0900268121F7F12DE
:100100001E9180B1122756900217E0C3940150034C
:10011000021089122E959001D97403F09001CFE05E
:100120007003021089E49002D7F0121DAFFBC39F49
:1001300040030211EF121CD2121DCAF583E475F0C0
:10014000011220A1EF121DC6121D4D64014E700B4D
:10015000121BACFF121DA1F5838029121D99121DDF
:10016000A5F583C083C082121BBBFF121E98121F0D
:1001700086121C03EF2BFFEE3AFEED39FDEC38FC46
:10018000D082D0831221BF121BC6121E20FB121B6D
:10019000ADFF121C15121F55121C7F121E2CFFEBF7
:1001A000121CA6121E20FB701A121CD2121E7712ED
:1001B0001CC6EF121C7F121E2C241EFFE43E900270
:1001C000DA8014121C7E121E2CFF9002DA121DB966
:1001D000EB121E73F583EEF0A3EFF09002D7E0125E
:1001E0001C7F1221CB00000000121E9102112AE494
:1001F0009001CFF0C39000A6E0940A9000A5E0948F
:1002000000500302130CE49002D7F0121DAFFBC3A1
:100210009F40030212E075F02FEBA424A1F582E5C4
:10022000F03400F5831221CB0000000075F02FEBB5
:10023000A424B5F582E5F03400121CC6121D9912F3
:100240001DC9121D4DFBCAEECAE4F9F8121D991220
:100250001DA5121BB9FF122109121D0624ADF5823E
:10026000E5F03400121F3575F012ED121C39E4F080
:10027000A3F0ED121DA2F5831221CB0000000012A5
:100280001CCF121DCA121CC675F02FEF121E33E4CC
:10029000F075F022EF121CF2E4F075F022EFA424C6
:1002A00022F582E5F03400F583E4121D737405F045
:1002B00075F022EFA42424F582E5F03400F5837470
:1002C0000AF075F02FEFA4121D10740AF0EF121B44
:1002D000ADFF121CD9F5831221BF121E9102120B21
:1002E000900002E075F00AA49001D3F043A90890B1
:1002F00001D97404F0E4FF12303C900218E070025F
:10030000A3E060057F0A12303C021B7012275B02DB
:1003100010891231819001CFE070030210899001A1
:10032000D3E0D394004006E014F002183BE49002BE
:10033000D7F0121DAFF9C39F400302183BE9121C0E
:1003400016121E2AFBCAEECA75F022E9121C82128E
:100350001E2CC39BFFEE9A9002D8F0A3EFF0E97039
:10036000030215459002D8E0FEA3E0FF1231C690CB
:1003700002D7E0FB75F008A42495F582E5F034017E
:10038000121DE3C39FEC9E5022121CEA7401121D41
:10039000737405F075F022EF121BB0FF121C15F5F7
:1003A000831221BF75F02FEB02142F121CEAE070AC
:1003B0000302143575F022EF121CE0121C0375F0D5
:1003C00022EF121BB0FFC312219B9002D7E0FF75F2
:1003D000F0225024121CE0121C0375F022EF121BB5
:1003E000B0121D84121CD9F583E0F8A3E0F9A3E054
:1003F000FAA3E0121F608027121F86121C0375F0FB
:1004000022EF121CE0121BB9121D84121F00121CD5
:10041000D9121BB9C39BFFEE9AFEED99FDEC98FC37
:100420009002D7E0121C16F5831221BF121D9912FB
:100430001CBD121F909002D7E0FB121C16121BD796
:10044000121DB91231C69002D7E0FB75F002A42448
:10045000C7F582E5F03401121DE3D39FEC9E5003F3
:10046000021526121BE0E0FEA3E0FFE4FCFD121BD8
:10047000F6D312219B121E98405D121C19F583C001
:1004800083C082121BBBFFECC0E0EDC0E0EEC0E019
:10049000EFC0E09002D7E0121BE1E0FEA3E0FBCA50
:1004A000EECAE49002D7E0121C16121BB9C39BFFE0
:1004B000EE9AFEED9400FDEC9400121D8F121F00C9
:1004C000D0E0FFD0E0FED0E0FDD0E0FC121EA0EDB9
:1004D00099FDEC98021514121C19F583C083C08293
:1004E000121C05E8C0E0E9C0E0EAC0E0EBC0E09023
:1004F00002D7E0FB121BE1121BF0121EA0E499FDD3
:10050000E4121D8ED0E0FBD0E0FAD0E0F9D0E0F8A4
:10051000EB121F60FCD082D0831221BF9002D7E083
:10052000121CBA121F90121CEAE06019121D74E02E
:10053000D39400121E984008121D78E014F0800534
:10054000121CF2E4F0121CFE121EB7121ED275F03D
:100550002FED121EB6121D4DD3940AEE64809480C6
:100560004018121CB575F022EF121C19F583C083D8
:10057000C082121BBB121F3D8035121D99121EB680
:10058000121D4DC394F6EE6480947F502A121CB560
:1005900075F022EF121C19F583C083C082121BBBB9
:1005A000C39401FFEE9400FEED9400FDEC9400FC7A
:1005B000D082D0831221BF121BC6121DB99002D85F
:1005C000F0A3EFF01231C675F008121D092495F55D
:1005D00082E5F03401F583E0FAA3E0D39FEA9E4080
:1005E0006475F02FED121E4CE0600B121BC6EEF08E
:1005F000A3EFF0021674121CFE121EDA121ED212A3
:100600001D40D3940AEE648094804013121CCF12D4
:100610001EDA121CC6EF121BE1E475F001802112F4
:100620001D40C394F6EE6480947F5017121CCF12C5
:100630001EDA121CC675F02FEF121BE474FFF5F0E2
:100640001220A1802F9002D7E0FF6030C3A3E064A6
:10065000809480501F1230629002D7E0FF122F4C1E
:10066000EF6019121BC6EEF0EF121CCD121D1074B4
:100670000AF080089002D7E0FF123191121CCF12CD
:100680001E4DE06019121D1DE0D39400121D99400B
:1006900008121D21E014F08005121E4CE4F09002B7
:1006A000D7E0FF121CA6E0FCA3E0FD75F02FEF12CF
:1006B0001BE4121E3FFFEE9C9002D8121E21FF7019
:1006C0000302174E75F02FA4121EE3121D4DD39492
:1006D0000FEE64809480402A121D99121E3374011B
:1006E000F0C39002D8E064809480501475F02FEF2E
:1006F000121BE4E0FCA3E0FD121CA5ECF0A3EDF05E
:100700008036121CCF121EE3F583E0FCC3EC64803C
:10071000948050329002D9E094009002D8E0648036
:100720009480401475F02FEF121BE4E0FCA3E0FD71
:10073000121CA5ECF0A3EDF0121D99121DEE121C77
:10074000C6121F908008121D99121E33E4F0121C6D
:10075000FE121DEF121ED2121DEA121D4DD394FA85
:10076000EE648094804009121C8EE475F0018017BD
:10077000121DEA121D4DC39406EE6480947F500A48
:10078000121C8E74FFF5F01220A19002D7E0FF1228
:1007900024AC9002E7E07003021835121DD39000DC
:1007A0006D121C05C312219B50069002EA7425F0BD
:1007B000121DD390004B121C05C312219B500690B2
:1007C00002EA7427F0121DD3900029121C05C312EF
:1007D000219B50549002EA7426F0121DD390004BD6
:1007E000121C05C312219B50069002EA7428F012D5
:1007F0001DD390006D121C05C312219B5006900260
:10080000EA7429F0121DD390006D121C05C3122149
:100810009B5015121DD390004B121C05C312219B37
:1008200050069002EA7430F0E49002E7F09002EA99
:10083000E0900257F0121E91021332E49002D7F0BA
:10084000121DAFFEC39F40030219BDEE121E7312AC
:100850001DE3FD9000B2E02DFD9000B1E03CFCEE08
:10086000121E66F583ECF0ED121CCD121E6A121DED
:10087000E3FD121CA5121E3FFFEE9CFE121D061288
:100880001EE3121F3575F02FED121BE4E0FEA3E00E
:10089000FFE4FCFD121E98121BFAC312219B5003A9
:1008A0000219439002D7E0FB121C16121E2A2400E4
:1008B000FFEE3404FE121BE0121DB99002D7E0FDDA
:1008C00075F022121E00121F3575F022ED121C1950
:1008D000F583A3A3E0FEA3121DB2FD121BE1E0FA13
:1008E000A3E0FB121EA075F012ED121C39121E209F
:1008F000FF121C23E0FEA3E0D39DEE9C9002D7E004
:10090000401E121C23121E3FFFEE9CC313FEEF136A
:10091000FFED2FFFEC3EFE9002D7E075F01280183D
:10092000FB121C36E0FEA3E0FF7C007D6312203A40
:100930000D12204C75F012EB121C39EEF0A3EFF003
:100940000219849002D7E0FB121BE1121BF0121E69
:10095000A0E499FDE498FCE4FB7A04F9F8D31221B1
:100960009B9002D7E0FF75F0124010121C39121D47
:10097000F8F5837404F0A3E4F08009121C39121D09
:10098000F8121CC69002D7E0FB121BADFF75F022D7
:10099000EB121CE0121F55121C7F1221CB0000002D
:1009A0000075F022EBA4240FF582E5F03400F58306
:1009B0001221CB00000000121E9102184090016924
:1009C000E0541F900259F0900169A3E090025AF0A0
:1009D00090017BE0541F90025BF090017BA3E090BC
:1009E000025CF090018DE0541F90025DF090018D4B
:1009F000A3E090025EF0900041E0541F900264F08A
:100A0000900041A3E0900265F0900063E0541F90D5
:100A10000266F0900063A3E0900267F0900085E02A
:100A2000541F900268F0900085A3E0900269F012D4
:100A30002756900218E07002A3E0600302108912AA
:100A4000297712101E122CAC9001D9EFF0640460CB
:100A500003021B70900001E0FF121D57EF122006E9
:100A60009002E4E07003021AEA900001E0FDD394E2
:100A700010404B121D54121F9E647E703E121F497F
:100A80006036E4F0900234E06402702C900001744F
:100A900004F0E4900234F0900238F09002E4F09018
:100AA000024F7404121F97000000000000D28A4316
:100AB000A8809002307401F07F01227F0022EDC3F4
:100AC00094105008121D577401121FE4900230E078
:100AD000701504F0900001E0B4030C900234E004BF
:100AE000F09002E47403F0021B6A900001E0FDD371
:100AF00094104024121D54121F9E647E7017121F02
:100B000049600FE4121F97000000000000D28A43E2
:100B1000A8807F01227F0022EDC394105008121D8F
:100B2000577401121FE490024FE054F0F09000015E
:100B3000E0FDB4010790024FE04401F0EDB402077C
:100B400090024FE04402F0900001E0B403079002ED
:100B50004FE04403F0900230E0700F04121F970042
:100B60000000000000D28A43A88012275B7F012288
:100B700012275B7F002275F02FEBA424B1F582E5EC
:100B8000F03400F583E0FFA3E09002DCCFF0A3EFA8
:100B9000F075F02FEBA424AFF582E5F03400F58377
:100BA000E0FFA3E09002DECFF0A3EFF0EB75F022C0
:100BB000A42407F582E5F03400F583E0FCA3E0FD12
:100BC000A3E0FEA3E0229002D7E0FB75F022A4246C
:100BD00007F582E5F03400F583A3A3E0FEA3E0FF70
:100BE000EB75F02FA424AFF582E5F03400F58322F5
:100BF000E0FEA3E0FFE475F022EBA4240BF582E510
:100C0000F03400F583E0F8A3E0F9A3E0FAA3E0FBF9
:100C100022FFE4EFF0EB75F022A4240BF582E5F05F
:100C200034002225E02476F582E43423F583E4932E
:100C3000FC740193FDEF75F012A42457F582E5F0E2
:100C40003401F58322F583E493FC740193FD75F080
:100C500008EFA42495F582E5F03401F583ECF0A3C8
:100C6000EDF0EF25E02496F582E43423F583E49358
:100C7000FC740193FD75F002EFA422E4EFF0EB7534
:100C8000F022A42407F582E5F03400F583229002D7
:100C9000D7E0FF75F02FA4248FF582E5F03400F53E
:100CA00083E4F0A3F0EF75F02FA424B1F582E5F012
:100CB0003400F583229002D7E0FF75F02FA4248B37
:100CC000F582E5F03400F583E4F0A3F022A3F09080
:100CD00002D7E0FF75F02FA4229002D7E075F02232
:100CE000A42403F582E5F03400229002D7E0FF75DA
:100CF000F022A42421F582E5F03400F5832290024D
:100D0000D8E0FEA3E0FF75F02F9002D7E0FDA4220B
:100D100024B8F582E5F03400F5837401F075F02F06
:100D2000EFA424B9F582E5F03400F5832224B7F569
:100D300082E5F03401F583ECF0A3EDF0EF25E0223D
:100D400075F02FEDA4248DF582E5F03400F583E0F5
:100D5000FEA3E02212275B9002D4E0FBA3E0FAA3FB
:100D6000E0F922FDECF0EDA3F09002DEE0FCA3E060
:100D7000FDEC22F075F022EFA42423F582E5F03497
:100D800000F58322C39BFFEE9AFEED99FDEC98FCE3
:100D9000E47B02FAF9F80221099002D7E075F02FFE
:100DA00022EB75F02FA4249DF582E5F0340022900B
:100DB0000002E0FF9002D7E022E0FCA3E0FDC3EFD9
:100DC0009DFFEE9CFE2275F02FA424A5F582E5F090
:100DD000340022E47F587E1BFDFC22A3F0A3F0A385
:100DE000F0A322F583E0FCA3E02275F02FEDA4240C
:100DF0008FF582E5F0340022E4F0A3F075F022EFE5
:100E0000A4241FF582E5F034002274E02BF582E47F
:100E10003401F58322741A2BF582E43402F583221F
:100E2000EEF0A3EFF09002D7E022F583A3A3E0FE5B
:100E3000A3E022A424B7F582E5F03400F58322E094
:100E4000FEA3E0C39D22FF78080221ACA424B8F5DC
:100E500082E5F03400F58322900232E0243BF582F3
:100E6000E43402F5832275F02FA424A7F582E5F07F
:100E700034002275F02FA424B3F582E5F03400226B
:100E800024C7F582E5F03401F583ECF0A3EDF00F13
:100E9000229002D7E004F0229002D7E075F02222DF
:100EA000C3EF9BFFEE9AFE22E493FE740193FFE4EE
:100EB000FCFDC302219BA4248BF582E5F0340022C3
:100EC00024AFF582E5F034012224BFF582E5F03449
:100ED0000122F583EE8FF00220A1248DF582E5F04A
:100EE00034002224A9F582E5F0340022C39BFBEEF6
:100EF0009AFAED99F9EC98F822E0FEC8EFC80822BA
:100F0000C8ECC8C9EDC9CAEECACBEFCB2225E02593
:100F1000E024EBF582E434012225E025E0241EF5EF
:100F200082E4340222E4900243F0A3F022F583A38A
:100F3000A3A3E0FF22F583EEF0A3EFF0222401FF4C
:100F4000E43EFEE43DFDE43C2290024FE04408F024
:100F5000900230E022F5831221BF9002D7E0FB22FD
:100F60002FFFEA3EFEE93DFDE83C229001DFE0FF75
:100F700075F002A422EFF09002DCE0FCA3E0227402
:100F800004F0E4A3F022A42407F582E5F034002263
:100F90009002D8F0A3F022F053A87FC28A22BB01AE
:100FA0000689828A83E0225002E722BBFE02E32206
:100FB00089828A83E49322BB010CE58229F582E5CC
:100FC000833AF583E0225006E92582F8E622BBFE4B
:100FD00006E92582F8E222E58229F582E5833AF5E1
:100FE00083E49322BB010989828A83F8E028F022F6
:100FF000500327F722BBFE05F8E328F3228A8389F2
:1010000082F8E4932822BB010689828A83F0225069
:1010100002F722BBFE01F322F8BB010DE58229F5A0
:1010200082E5833AF583E8F0225006E92582C8F686
:1010300022BBFE05E92582C8F222EF8DF0A4A8F0BC
:10104000CF8CF0A428CE8DF0A42EFE22BC000BBEC7
:101050000029EF8DF084FFADF022E4CCF875F008A4
:10106000EF2FFFEE33FEEC33FCEE9DEC984005FCD9
:10107000EE9DFE0FD5F0E9E4CEFD22EDF8F5F0EEA1
:101080008420D21CFEADF075F008EF2FFFED33FD8C
:101090004007985006D5F0F222C398FD0FD5F0EA2C
:1010A00022C5F0F8A3E028F0C5F0F8E582158270BB
:1010B000021583E038F022A3F8E0C5F025F0F0E552
:1010C00082158270021583E0C838F0E82275F008B6
:1010D000758200EF2FFFEE33FECD33CDCC33CCC580
:1010E0008233C5829BED9AEC99E58298400CF5829B
:1010F000EE9BFEED9AFDEC99FC0FD5F0D6E4CEFB0D
:10110000E4CDFAE4CCF9A88222B800C1B90059BAFA
:10111000002DEC8BF084CFCECDFCE5F0CBF9781828
:10112000EF2FFFEE33FEED33FDEC33FCEB33FB1022
:10113000D703994004EB99FB0FD8E5E4F9FA22783C
:1011400018EF2FFFEE33FEED33FDEC33FCC933C94E
:1011500010D7059BE99A4007EC9BFCE99AF90FD858
:10116000E0E4C9FAE4CCFB2275F010EF2FFFEE3378
:10117000FEED33FDCC33CCC833C810D7079BEC9AB7
:10118000E899400AED9BFDEC9AFCE899F80FD5F040
:10119000DAE4CDFBE4CCFAE4C8F922EB9FF5F0EAFF
:1011A0009E42F0E99D42F0E89C45F022E8600FEC99
:1011B000C313FCED13FDEE13FEEF13FFD8F122EC89
:1011C000F0A3EDF0A3EEF0A3EFF022A8828583F068
:1011D000D083D0821221E21221E21221E21221E216
:1011E000E473E493A3C583C5F0C583C8C582C8F082
:1011F000A3C583C5F0C583C8C582C822EF4E60125F
:10120000EF60010EEDBB010B89828A83F0A3DFFC46
:10121000DEFA2289F05007F709DFFCA9F022BBFEB5
:10122000FCF309DFFCA9F0223F3F3F3F3F3F3F3F38
:101230000032000A0032177009C4001E0064003238
:101240000032000A000A0100000000000000000057
:10125000000000010101010000000000000000008A
:10126000000000000001000405060708090A0B0C35
:101270000D0E0F010203003700370037003700372B
:1012800000370037003700370037003700370037A6
:101290000037003700370050005000500050005019
:1012A00000500050005000500050005000500050BE
:1012B000005000500050001E001E001E001E001EA8
:1012C000001E001E001E001E001E001E001E001E2E
:1012D000001E001E001E002D002D002D002D002DD3
:1012E000002D002D002D002D002D002D002D002D96
:1012F000002D002D002D005A005A005A005A005AA5
:10130000005A005A005A005A005A005A005A005A0D
:10131000005A005A005A0073007300730073007380
:101320000073007300730073007300730073007325
:10133000007300730073004100410041004100410F
:101340000041004100410041004100410041004195
:10135000004100410041002D002D002D002D002DE9
:10136000002D002D002D002D002D002D002D002D15
:10137000002D002D002D00FA00FA00FA00FA00FA04
:1013800000FA00FA00FA00FA00FA00FA00FA00FA8D
:1013900000FA00FA00FA00140014001400140014FB
:1013A000001400140014001400140014001400149D
:1013B000001400140014C0E0C0F0C083C082C0D08C
:1013C000E8C0E0E9C0E0EAC0E0EBC0E0ECC0E0ED7E
:1013D000C0E0EEC0E0EFC0E0D2AF9001CFE060032C
:1013E0000224899002E2742EF0A3E4F0121E58E069
:1013F0009001DEF09001D0E004F0E05407F0E090BE
:10140000222893902ECAF09001DEE0FD75F002A430
:10141000FFAEF09002E3E02FF09002E2E03EF0ED4C
:1014200090226693900231F0121C7FC083C082121A
:101430001C05E8C0E09002E2E475F0021220B785D6
:10144000F082121D4DFFE4FCFDD0E0F8EB2FFFEA27
:101450003EFEED39FDEC38FCD082D0831221BF90E6
:1014600001D0E07021900232E004F0E0FF90000231
:10147000E0FEEF8EF084AFF0900232EFF070079054
:1014800001CF04F0800312275BD0E0FFD0E0FED054
:10149000E0FDD0E0FCD0E0FBD0E0FAD0E0F9D0E015
:1014A000F8D0D0D082D083D0F0D0E032CBEFCB12C6
:1014B0001BE0E0FEA3E0FF75F02FEBA424ADF58266
:1014C000E5F03400121DE3C39FFFEC9E9002E0F0B4
:1014D000A3EFF0EB64017039121B76121E469002E6
:1014E0009F121C7BA3A3A3E09002A0121C11121B4D
:1014F000B9121E46E49002A1121C13121F2D900275
:10150000A2121F759002A3121D639002A5F0EDA315
:10151000F0EB6402703DEB121E66121B83121E4636
:101520009002A7121C7BA3A3A3E09002A8121C1197
:10153000121BB9121E46E49002A9121C13121F2D91
:101540009002AA121F759002AB121D639002ADF0BB
:10155000EDA3F0EB64037041121B76121E46E4907B
:1015600002AF121C7CA3A3A3E0FFE49002B0121C04
:1015700013121BB9121E46E49002B1121C13121F63
:101580002D9002B2EFF09002DC121D6C9002B312AB
:101590001D659002B5F0EDA3F022C0E0C083C082CB
:1015A000C0D0E8C0E0E9C0E0EAC0E0EBC0E0EFC0D6
:1015B000E0D2AFE5DB30E415E5DB30E102802890D6
:1015C000024EE5DFF09002CFE4F0022669E5DB3061
:1015D000E50812107790024B802BE5DB30E119E52E
:1015E000DB20E0030226699002D1122F16122F2F62
:1015F000121FB7F5DF0226699002CFE0700DA3E558
:10160000DFF09002CF7401F00226699002D0E090E2
:101610002A7F93FFB4FF0E90024EE5DFF09002D0D8
:10162000E004F0803EEF640F9002D1702B122F1671
:101630009002D0E0FF122F43540F1220069002D1E7
:10164000122F169002D0E0FF04F0122F43FFE5DFC7
:1016500054F04F122006800B122F16122F2FE5DFA9
:1016600012201890024DE004F075DBFFD0E0FFD0AF
:10167000E0FBD0E0FAD0E0F9D0E0F8D0D0D082D0D2
:1016800083D0E032758A50538AEF9002E87411F0EB
:101690009002E67422F09002EA7433F075995F7557
:1016A0009AA0E4FFFEC29620970AD296309705E4EE
:1016B0009002E8F00FBF00010EEF640A4E70E6E4FE
:1016C000FEFFC29620950AD296309505E49002E876
:1016D000F00FBF00010EEF640A4E70E675991F759A
:1016E0009AE0E4FEFF2095069002E67425F020972C
:1016F000069002E67427F02096219002E67426F008
:101700002097037428F02095069002E67429F020B3
:1017100097092095069002E67430F00FBF00010E85
:10172000EF640A4E70BFE4F5AD75AEF075AF19F514
:10173000AC7589FE75913E75991FF59675931EF5EA
:101740009BF595F592F59A75800EF588F590D28AFD
:101750009002E704F022E49001CFF0121E58E0FF5F
:10176000C394085048902EC6E054FCF0E04401F0C9
:10177000902EC57401F0C083C082121EF98002C38E
:1017800033D8FCD082D083F0902ECD7401F0C0838A
:10179000C082121EF98002C333D8FCD082D083F0FD
:1017A000902EC97429F0902EC074C1F02274F82FC5
:1017B000FF902EC6E054FCF0E04402F0902EC57479
:1017C00001F0C083C082121EF98002C333D8FCD05E
:1017D00082D083F0902ECE7401F0C083C082121E9E
:1017E000F98002C333D8FCD082D083F0EFB4050671
:1017F000902EC97420F0EFB40606902EC9742AF01A
:10180000EFB40706902EC9742AF0902EC074C2F06F
:1018100022E49002D5F0FF9002D4F0EF14601E1481
:10182000603514604C14605B240470749002D674AC
:1018300001F0A3742FF0A37458F002289A122F130A
:10184000900001121FB7FED3941F4003122F3C12C9
:101850001F9E6E704B8043122F13900002121FB711
:10186000FED394064003122F3C121F9E6E703180EF
:1018700029122F13900003121FB7FE121F9E6E70C5
:101880001F8017122F13900004121FB7FE648B6085
:1018900003122F3C121F9E6E70069002D4E004F0DB
:1018A0000FEF6405600302281B9002D4E0B4050426
:1018B000A37401F09002D5E0FD6007900263E0544C
:1018C0007FF0CFEDCF22900261E0FE6410704EFFFA
:1018D000900002E0FDEFC39D400302296DEF25E07B
:1018E0002416F582E43423121C6C121D2D24F6F507
:1018F00082E43422121C6C121EC0121D352436F5EF
:1019000082E43423121C6C121EC9121D352456F5B4
:1019100082E43423121C45121E800228D0EE64207B
:101920007054FF900002E0FEEFC39E5040EF25E0B0
:101930002496F582E43422121C6C121D2D2476F5B7
:1019400082E43422121C6C121EC0121D3524B6F51E
:1019500082E43422121C6C121EC9121D3524D6F5E5
:1019600082E43422121C45121E800229239001B108
:10197000A3E0900253F022E4FFFE9002DCF0A3F01B
:10198000A3F0F9FDFC900002E0FBECC39B5051EC8E
:10199000121C36E0FAA3E0FBD3940FEA9400400651
:1019A0009002DDE004F0D3EB942DEA940040069021
:1019B00002DEE004F0D3EB9437EA9400400109D34F
:1019C000EB9441EA940040010DD3EB9FEA9E400D59
:1019D0009002DCECF0121C36E0FEA3E0FF0C80A5C8
:1019E0009002DDE0900233F09002DEE0900235F0EC
:1019F000A3E9F0A3EDF09002DCE09001DFF0220219
:101A00002B6FE493A3F8E493A34003F68001F2085C
:101A1000DFF48029E493A3F85407240CC8C333C42B
:101A2000540F4420C8834004F456800146F6DFE496
:101A3000800B0102040810204080902ED9E47E0122
:101A40009360BCA3FF543F30E509541FFEE493A309
:101A500060010ECF54C025E060A840B8E493A3FA1B
:101A6000E493A3F8E493A3C8C582C8CAC583CAF0A7
:101A7000A3C8C582C8CAC583CADFE9DEE780BE0F36
:101A8000FFFF00000000000000FFFFFFFFFFFFFF5F
:101A9000FFFF000000000000000000000000000048
:101AA0000000000000000000000000000000000036
:101AB0000000000000000000000000000000000026
:101AC0000000000000000000000000000000000016
:101AD0000000000000000000000000000000000006
:101AE00000000000000000000000000000000000F6
:101AF0000000000000000000000000000000009056
:101B000001B9A3E09002BFF09001BBA3E09002C036
:101B1000F09001BDA3E09002C1F09001B1A3E0906C
:101B200002C2F09001B3A3E09002C3F09001B5A30C
:101B3000E09002C4F09001C1A3E09002C5F09001D2
:101B4000C3A3E09002C6F09001C5A3E09002C7F0E5
:101B50009023787401939002C8F090237A740193D3
:101B60009002C9F090237C7401939002CAF0227510
:101B70002001122DB453A87F1226841231BA1210FC
:101B80004E1231A012313543A88012102EEF24E0FE
:101B9000601024A0600E24707016C283C282C281BD
:101BA000800E80069002E47401F0D283D282D2814A
:101BB0001228C69002E4E0FF6017B4010C1231163F
:101BC0007587030000001231AD9002E4E0B4020119
:101BD000007B017A0279E512107EEF80AD902EC075
:101BE000E4F0902ECB74F7F0902F58E0540F24F0CF
:101BF000902EC8F0902ECC7448F0902EC97429F025
:101C0000A3743FF0902E407402F07484121DDBF038
:101C1000121DDBF0A3F07402121DDB7482F0A3141A
:101C2000F0A37401F0902EC67415F0902EC174903C
:101C3000F0A37401F0A37490F0A3740AF043E310CE
:101C4000123088900002EFF022C0E0C083C082C052
:101C5000D0EFC0E09002E4E024FE601514601A2486
:101C600002703D9002E47402F0758DA0758E0380C1
:101C70002F9002E47401F08027900234E0602190FC
:101C80000238E0FFC394285005E004F08012EFB45E
:101C9000280E900238E4F0900234F09002E404F050
:101CA000D0E0FFD0D0D082D083D0E032121066EFE7
:101CB000600122122F84EF600122900248E0248FFD
:101CC000600C24F3702A123012123169803B1230FA
:101CD000F79001DAE07002A3E070057F0312303C58
:101CE0009001DBE004F070219001DAE004F080194B
:101CF000123169900248E0FF1230D47F04122E03A3
:101D0000EF60061227567F02227F04227E007F802A
:101D10007D007B017A02794F1221FC90024F7408FA
:101D2000F09002517401F090026274ABF0A37486DB
:101D3000F09002E8E0900255F09002E6E090025642
:101D4000F09002EAE0900257F012281190024CE065
:101D500060089002507407F08005E4900250F00291
:101D60002AFFC0E0C0F0C083C082C0D0E8C0E0EC71
:101D7000C0E0EDC0E0EEC0E0EFC0E0D2AF9001D631
:101D8000E004F0C3940A4012E4F090023F121BBB3F
:101D9000121F3DFC90023F1221BFD0E0FFD0E0FEB9
:101DA000D0E0FDD0E0FCD0E0F8D0D0D082D083D01D
:101DB000F0D0E0329002D47410F0A3E4F0A3743FAA
:101DC000F0A374FFF0E4FDFCF99002D4E0FEA3E080
:101DD0002DF582EE3CF583E493FF69F90DBD00011A
:101DE0000CBC2FE5BDFFE29002D6E0FEA3E0F58239
:101DF0008E83E49369700690024C04F022E4900212
:101E00004CF0229002DCEFF0C3940B503FE0FF2433
:101E1000E0121E0DE06035EF121F0D121C03900240
:101E20003F121BBB121EEC9002DCE025E02430F5D3
:101E300082E43422F583121EA8400E9002DCE024D6
:101E4000E0121E0DE4F07F01227F00227F0022E4D9
:101E50009002DCF0122FB9EF647F6001229001DD67
:101E6000E0701B04F0121F6B24B7F582E5F034011B
:101E7000121DE3121C34121E3FEE9C401522121F4D
:101E80006B121EC0121DE3121C34121E3FEE9C404A
:101E900001227F7E22E49001DAF0A3F0900246F066
:101EA000A3F09001D7F0A3F0900239F0A3F09000D6
:101EB00001747EF0121F25FB900002E0FFEBC39F30
:101EC0005016121DA1F5831221CB00000000EB1269
:101ED0001DC6121CC60B80E02241023000410232B6
:101EE000004101D60041000000C1094101DC00C1F0
:101EF00008410245004102CF004102D000420249A0
:101F0000000041024B0041024D0041024C004102E1
:101F10004E10009002D6E0FBA3E0FAA3E0F922E421
:101F2000F5DA75DA4043DA2075D74075DA58229031
:101F300002D0E0FF04F08F82758300229002D574F6
:101F400001F022E92FF9E43AFA021F9E9002DCEF39
:101F5000F0E0FF241A121E18E06026EF121F19127B
:101F60001C0390023F121BBB121EEC90223A121E61
:101F7000A8400E9002DCE0241A121E18E4F07F0143
:101F8000227F0022D3900219E09400900218E0947E
:101F9000004023D39001D8E0940A9001D7E0940048
:101FA000500E9001DBE0940A9001DAE094004006C4
:101FB0001227567F02227F0022900001E0FFC39487
:101FC000105021A3E0FEEFC39E5019900001E07570
:101FD000F002A4121EC9121DE3121C34121E3FEEA1
:101FE0009C4001227F7F227E017FD37D007B017A8E
:101FF0000079031221FC122D0C9002617410F01272
:1020000028C6900248747EF0900001F0E49001DD53
:10201000F022900001747EF07F041231729002432E
:10202000E07002A3E060147F0212303C7F02122EA7
:1020300003EF6007121F259001DDF022CBEFCBEB01
:10204000D3940B501C121E0AE07016121E0A740163
:10205000F090023F121BBBFFEB121F0DF583122104
:10206000BF22CBEFCBEBD39404501C121E15E070B3
:1020700016121E157401F090023F121BBBFFEB12EB
:102080001F19F5831221BF22902EC5E4F0902ECDAA
:10209000F0A3F0FFFEEF902246936009743B2E12EE
:1020A0001E5EEFF00E0FEFB410EBCFEECF229001DB
:1020B000D97402F053A87F12275B43A82043A8805D
:1020C000E4900218F0A3F0900218F0A304F0E4905A
:1020D0000217F022CAEFCAEAC39410501990000107
:1020E000E06A60127F0412303C900001EAF0900236
:1020F00043E4F0A304F022900243E07002A3E06006
:10210000147F0212303C7F02122E03EF6007121F71
:10211000259001DDF022758B03758DA0758E1590CD
:102120002ECBE4F0902ECDF0A3F0438A80F586F517
:102130008F43AA08229002D17401F0A37402F0A385
:10214000744FF0122F1F43A90875B80875F80822BC
:1021500090023F1221CB000000007E007F0B7D002B
:102160007B017A0179E00221FCE49001DAF0A3F02E
:102170007F03EFD3940B500874E02F121E0DE4F090
:10218000227F0A122E03EF6007E4900218F0A3F0FA
:1021900022EFD394045008741A2F121E18E4F02270
:1021A00075BA9275BEF9E4F5BF43AA0222902ECB10
:1021B00074F7F0538A7F75860122122BDD9001D9C6
:1021C0007401F0022FE7EE30E707C3E49FFFE49EBF
:1021D000FE220000000000000000000000000000DF
:1021E00000000000000000000000000000000000EF
:1021F00000000000000000000000000000000000DF
:1022000000000000000000000000000000000000CE
:1022100000000000000000000000000000000000BE
:102FF000000000000000000000000000000000F5DC
:00000001FF
