:1000000078FFE4B8200118F6D8F99000007F007E50
:1000100007E4F0A3DFFCDEFA758121022821122B10
:10002000CC9001B9E06F6002EFF02202235FE4FDA3
:100030009001BCE060119001C0E0FE54F0FDEE5470
:100040000FF0E49001BCF0CFEDCF2202245675B240
:100050009275B6F9E4F5B743B20143AA01022E74D2
:10006000000000022A05900245EBF0A3EAF0A3E9A4
:10007000F0900166E024FE601014607414700302B6
:1000800012F0240370EB122DD790015CE0604F90CA
:10009000019FE004F0E4900248F012201CC39F503E
:1000A0003A121EEA121DA200000000EBB40110E497
:1000B0009001CAF0A3F09001CE7404F0E4A3F09094
:1000C0000248E0B40210E49001CCF0A3F09001D01B
:1000D0007404F0E4A3F012212280BF1226009001E4
:1000E0009FE0C39401408A122B439001667403F091
:1000F00090015CE07003021071E4900248F012205D
:100100001CFBC39F40030211D3122026F583E47524
:10011000F001121C6A75F02FEF12202B121EDD6405
:10012000014E700B121E28FF121FFBF583802B124D
:100130001FBD121FFFF583C083C082121E37FF90C0
:100140000248E0121EEC121F06FBEF2BFFEE3AFEF8
:10015000ED39FDEC38FCD082D083121D96121E4280
:10016000EE121FF2FB121E29FF75F022EB121E8702
:10017000121EE41220CFFF75F02FEB121F2CF58317
:10018000EE121FF2FB701CE0FF1220D6121F477503
:10019000F022EF121EEF1220CF241EFFE43E900249
:1001A0004F801875F022EB121EEF1220CFFF900245
:1001B0004F12208BEB1220D6F583EEF0A3EFF090D8
:1001C0000248E0121EEC121DA200000000122122C3
:1001D0000210FEE490015CF0C3900084E0940A9069
:1001E0000083E0940050030212EAE4900248F01207
:1001F000201CFBC39F40030212BE75F02FEBA4240A
:100200007FF582E5F03400F583121DA200000000A6
:1002100075F02FEBA42493F582E5F03400121F470C
:10022000121FBD12202B121EDDFBCAEECAE4F9F824
:10023000121FBD121FFF121E35FF121CD2121F9873
:10024000248BF582E5F03400122129121FAF121F12
:1002500047ED121FFCF583121DA200000000900262
:1002600048122026121F4775F02FEF122098E4F055
:1002700075F022EF121F66E4F075F022EFA424223D
:10028000F582E5F03400F583E4121FC57405F075BE
:10029000F022EFA42424F582E5F03400F583740AFB
:1002A000F075F02FEF121F72740AF0EF121E29FF83
:1002B000122047F583121D961221220211EF9000A1
:1002C00002E075F00AA4900160F043A9089001666D
:1002D0007404F0E4FF122D8B9001A0E07002A3E003
:1002E00060057F09122D8B0219E01226050210719C
:1002F000122EB690015CE07003021071900160E074
:10030000D394004006E014F0021737E4900248F05E
:1003100012201CF9C39F400302173775F022E9121F
:100320001E871220CFFBCAEECA75F022E9121EEF1B
:100330001220CFC39BFFEE9A90024BF0A3EFF0E99F
:1003400070030215091219E6C39FEC9E5024121F78
:100350005E7401121FC57405F075F022EF121E2C99
:10036000FF75F022EB121E87121D9675F02FEB021F
:1003700013E5121F5EE0607675F022EF121EFBFBA4
:1003800075F022EF121E2CFFC3121D72900248E07E
:10039000FF75F0225019121EFBFB75F022EF121EA2
:1003A0002C121FD6122131121EFB1221C7802812D7
:1003B0001EEF121F06FB75F022EF12204E121E35A3
:1003C000121FD612216D122047121E35C39BFFEE5D
:1003D0009AFEED99FDEC98FC900248E0121E841202
:1003E0001D96121FBD122058121F4712217A90022B
:1003F00048E0FB75F02212203D121E5312208B1292
:100400002EEF900248E0FB75F002A4122155122055
:1004100015D39FEC9E50030214EA121E5C12218138
:10042000FCFD75F022EB121E87121F06FBD3121D76
:1004300072122131405A121E87C083C082121E37A9
:10044000FFECC0E0EDC0E0EEC0E0EFC0E09002489D
:10045000E0121E5DE0FEA3E0FBCAEECAE412213109
:1004600012203D121E35C39BFFEE9AFEED9400FD57
:10047000EC9400121FE112216DD0E0FFD0E0FED01D
:10048000E0FDD0E0FC12210DED99FDEC980214D6B0
:10049000121E87C083C082121F06FBE8C0E0E9C0BD
:1004A000E0EAC0E0EBC0E0900248E0FB121E5D1203
:1004B000218175F022EB121E87121F0612210CE417
:1004C00099FDE4121FE0D0E0FBD0E0FAD0E0F9D0D3
:1004D000E0F8EB1221C7FCD082D083121D96121FC8
:1004E000BD122058121F4712217A121F5EE06019B8
:1004F000121FC6E0D394001221314008121FCAE037
:1005000014F08005121F66E4F0121F901220591299
:10051000215E75F02FED122058121EDDD3940AEEE5
:1005200064809480400F121E6CC083C082121E37FC
:100530001221A4802C121FBD122058121EDDC3945C
:10054000F6EE6480947F5021121E6CC083C082122C
:100550001E37C39401FFEE9400FEED9400FDEC9471
:1005600000FCD082D083121D96121E42E0FCA3E054
:10057000FDC3EF121FEB70030216081219E6C39FAA
:10058000EC9E5026122139501575F022EB121E4AAE
:10059000EE121FF2FF75F02F121F72740AF0900214
:1005A00048E0121F3B12217A803790024BE0FEA3F5
:1005B000E0FF122EEF75F008121F9B2432F582E542
:1005C000F03401F583E0FAA3E0C39FEA9E40127580
:1005D000F02FED1220A4E06008121E42EEF0A3EF0F
:1005E000F0900248E0FF75F02F1220A4E06019128D
:1005F0001F80E0D39400121FBD4008121F84E01436
:10060000F080051220A4E4F0121F901220E81221BD
:100610005E1220E3121EDDD3940AEE6480948040C3
:1006200010121F3675F02FEF121E60E475F0018076
:100630001E1220E3121EDDC394F6EE6480947F50F8
:1006400011121F3675F02FEF121E6074FFF5F012B5
:100650001C6A900248E0FF121F29122015FD75F058
:100660002FEF121E60E0FEA3E0C3121FEBFF6079C4
:10067000122115121EDDD3940FEE64809480402267
:10068000121FBD1220987401F0122139501275F01A
:100690002FEF121E60E0FCA3E0FD121F28121F5670
:1006A0008031900248E0FF122115F583E0FCC3EC95
:1006B00064809480502B90024CE0940012213A40C8
:1006C0001275F02FEF121E60E0FCA3E0FD121F2850
:1006D000121F56121FBD122066121F4712217A8068
:1006E00008121FBD122098E4F0121F90122067120A
:1006F000215E122062121EDDD394FAEE6480948093
:10070000400B121F11F583E475F00180191220626D
:10071000121EDDC39406EE6480947F500C121F11EC
:10072000F58374FFF5F0121C6A900248E0FF122670
:10073000AF122122021310E4900248F012201CFE96
:10074000C39F40030218E6EE1220D6122015FD903A
:100750000090E02DFD90008FE03CFCEE1220C212D4
:100760001F56900248E0FF1220C2122015FD121FF2
:1007700028121EDDC39DFFEE9CFE121F9812211948
:1007800012212975F02FED121E60122181FCFD90BF
:100790000248E0121E84121F06FBC3121D72500392
:1007A000021842900248E0FB121E841220CF24005F
:1007B000FFEE3404FE121E5C12208B900248E0FD16
:1007C0001220F112212975F022ED121E87A3A3E059
:1007D000FEA312201FFD121E5DE0FAA3E012210C01
:1007E000121FAFF583EE121FF2FF1221B075F01247
:1007F000121EBF121ED5D39DEE9C900248E0401FF2
:100800001221B0E493FC740193121ECFC39DFFEE3E
:100810009CC313FEEF13FFED2FFFEC3EFE80191279
:100820001FB0122015FDE4121B147BA47A70797D91
:10083000783F121A09121B4D900248E0121FB002B5
:10084000189C900248E0FB121E5D12218175F02277
:10085000EB121E87121F0612210CE499FDE498FC8E
:10086000E4FB7A04F9F8D3121D72900248E0FF7598
:10087000F012402D121FB3121E7DA3A3E0FEA3129F
:10088000201FFD121E5DE0FAA3E0C39FFFEA9EFE5B
:10089000C3E49FFF74049EFEED1220F11221298013
:1008A0000D121FB3121F47EF1220F1121F479002C3
:1008B00048E0FB121E29FF75F022EB12204EF58353
:1008C000121EE4121DA20000000075F022EBA42409
:1008D0000FF582E5F03400F583121DA20000000040
:1008E00012212202173C900118E0541F9001CAF017
:1008F000900118A3E09001CBF090012AE0541F90E2
:1009000001CCF090012AA3E09001CDF0900041E0ED
:10091000541F9001CEF0900041A3E09001CFF090E1
:100920000063E0541F9001D0F0900063A3E09001B9
:10093000D1F01226009001A0E07002A3E060030253
:10094000107112275D12101E122947900166EFF0F8
:10095000640460030219E0900001E0FF1220B0EF90
:10096000121C36900001E0FDD39410402C12260595
:100970001220B0121BCE647E701C9001C0E04408AF
:10098000F09001A4E0600CE4F0C2940000000000CC
:1009900000D2947F01227F0022EDC39410500812F0
:1009A00020B07401121C149001C0E054F0F09000CB
:1009B00001E0FDB401079001C0E04401F0EDB40294
:1009C000079001C0E04402F09001A4E0700C04F034
:1009D000C294000000000000D2941226057F01227C
:1009E0001226057F002290024BE0FEA3E0FF122EAC
:1009F000EF900248E0FB75F008A42432F582E5F0A0
:100A00003401F583E0FCA3E022EC4D6011E849706D
:100A100017ED33EC3304600DE4FCFFFEFD22E933F7
:100A2000E8330470F8021BB9121B8458046009E40F
:100A3000CC24815006285009021BC3284003021B06
:100A4000C0C0E0EB4A7044B98006D0E0FB021BAFA7
:100A5000EF4E701CBD8008EBFFEAFEE9FD80EBE97C
:100A60008DF0A4FEE5F0021AF2E9CDF9EAFEEBFF03
:100A7000EF89F0A4FCE5F0CE89F0A42EFFE435F078
:100A8000CD89F0A42DFEE435F08067EF4E7005BDF2
:100A900080D780C3EF8BF0A4ACF0EE8BF0A42CFCDD
:100AA000E435F0F8EF8AF0A42CE5F038FCE433CB21
:100AB0008DF0A42CFCE5F03BF8EE8AF0A42CFCE5CC
:100AC000F038F8E433CF89F0A42CFCE5F038CF34CB
:100AD00000CE89F0A42FFFE5F03EFEE433C98DF08F
:100AE000A42EFEE5F039CD8AF0A42FFFE5F03EFEFE
:100AF000E43DFD33D0E0FB50070BBB000F021BC3EE
:100B0000EC2CFCEF33FFEE33FEED33FD021B9B7547
:100B1000F020800E75F010800575F0087D007E00D5
:100B20007F003392D530D503121D64EC334010EFB3
:100B300033FFEE33FEED33FDEC33FCD5F0ED22E573
:100B4000F0247EA2D513CC92E7CDCEFF22EDD2E7E2
:100B5000CD33EC3392D524814006E4FFFEFDFC2228
:100B6000FCE4CFCECDCC24E0501174FF80EDC3CC9B
:100B700013CCCD13CDCE13CECF13CF0470F030D520
:100B8000DE021D64E9D2E7C933E833F892D5EDD22D
:100B9000E7CD33EC33FC5002B2D522EC30E7100F36
:100BA000BF000C0EBE00080DBD00040BEB6014A2CC
:100BB000D5EB13FCED92E7FD2274FFFCFDFEFF2256
:100BC000E480F8A2D574FF13FC7D80E480EFBB01C4
:100BD0000689828A83E0225002E722BBFE02E322DA
:100BE00089828A83E49322BB010CE58229F582E5A0
:100BF000833AF583E0225006E92582F8E622BBFE1F
:100C000006E92582F8E222E58229F582E5833AF5B4
:100C100083E49322BB010989828A83F8E028F022C9
:100C2000500327F722BBFE05F8E328F3228A8389C5
:100C300082F8E4932822BB010689828A83F022503D
:100C400002F722BBFE01F322F8BB010DE58229F574
:100C500082E5833AF583E8F0225006E92582C8F65A
:100C600022BBFE05E92582C8F222C5F0F8A3E028E0
:100C7000F0C5F0F8E582158270021583E038F022A5
:100C8000A3F8E0C5F025F0F0E58215827002158327
:100C9000E0C838F0E82275F008758200EF2FFFEE0B
:100CA00033FECD33CDCC33CCC58233C5829BED9A98
:100CB000EC99E58298400CF582EE9BFEED9AFDECF6
:100CC00099FC0FD5F0D6E4CEFBE4CDFAE4CCF9A83C
:100CD0008222B800C1B90059BA002DEC8BF084CF44
:100CE000CECDFCE5F0CBF97818EF2FFFEE33FEED1B
:100CF00033FDEC33FCEB33FB10D703994004EB9945
:100D0000FB0FD8E5E4F9FA227818EF2FFFEE33FE57
:100D1000ED33FDEC33FCC933C910D7059BE99A408C
:100D200007EC9BFCE99AF90FD8E0E4C9FAE4CCFBA4
:100D30002275F010EF2FFFEE33FEED33FDCC33CCF8
:100D4000C833C810D7079BEC9AE899400AED9BFD81
:100D5000EC9AFCE899F80FD5F0DAE4CDFBE4CCFA94
:100D6000E4C8F922C3E49FFFE49EFEE49DFDE49CF9
:100D7000FC22EB9FF5F0EA9E42F0E99D42F0E89CF0
:100D800045F022E8600FECC313FCED13FDEE13FEFB
:100D9000EF13FFD8F122ECF0A3EDF0A3EEF0A3EFF8
:100DA000F022A8828583F0D083D082121DB9121D53
:100DB000B9121DB9121DB9E473E493A3C583C5F03C
:100DC000C583C8C582C8F0A3C583C5F0C583C8C59F
:100DD00082C822EF4E6012EF60010EEDBB010B895D
:100DE000828A83F0A3DFFCDEFA2289F05007F7093C
:100DF000DFFCA9F022BBFEFCF309DFFCA9F022F521
:100E000083E0FFA3E0900251CFF0A3EFF075F02F45
:100E1000EBA4248DF582E5F03400F583E0FFA3E038
:100E2000900253CFF0A3EFF0EB75F022A42407F566
:100E300082E5F03400F583E0FCA3E0FDA3E0FEA32F
:100E4000E022900248E0FB75F022A42407F582E539
:100E5000F03400F583A3A3E0FEA3E0FFEB75F02FD1
:100E6000A4248DF582E5F03400F58322900248E059
:100E7000FF75F02FA42469F582E5F03400F583E4D2
:100E8000F0A3F0EF75F022A4240BF582E5F0340016
:100E9000F58322F583E493FC740193FD75F008EF6C
:100EA000A42432F582E5F03401F583ECF0A3EDF0F3
:100EB000EF25E0243FF582E43423F58375F002E466
:100EC00093FC740193FDEFA422F583E0FCA3E0FD05
:100ED00075F012EFA42406F582E5F03401F583E005
:100EE000FEA3E022121D96900248E0FB75F022A4BA
:100EF0002407F582E5F03400F58322A42403F5826B
:100F0000E5F03400F583E0F8A3E0F9A3E0FAA3E00C
:100F100022900248E0FF75F02FA4246DF582E5F0E1
:100F20003400F583E4F0A3F0EF75F02FA4248FF5DF
:100F300082E5F0340022900248E0FF75F02FA424EF
:100F40006BF582E5F03400F583E4F0A3F022244A47
:100F5000F582E5F03401F583ECF0A3EDF022900288
:100F600048E0FF75F022A42421F582E5F03400F575
:100F70008322A42496F582E5F03400F5837401F011
:100F800075F02FEFA42497F582E5F03400F5832265
:100F900090024BE0FEA3E0FF75F02F900248E0FDC9
:100FA000A422F0A3F0A3F0A3F0A3F0A3F0A322EDFA
:100FB00075F012A42406F582E5F03401229002486F
:100FC000E075F02F22F075F022EFA42423F582E5DE
:100FD000F03400F58322C39BFFEE9AFEED99FDEC01
:100FE00098FCE47B02FAF9F8021CD29DFFEE9C907B
:100FF000024BF0A3EFF0900248E022EB75F02FA433
:10100000247BF582E5F034002275F02FA4248BF5C3
:1010100082E5F03400F583E0FCA3E022900002E0DA
:10102000FF900248E022E0FF75F02FA42483F582B0
:10103000E5F0340022FFE4EFF075F022EBA4240B7E
:10104000F582E5F0340022900248E075F022A424F5
:1010500003F582E5F0340022A42469F582E5F0343A
:10106000002275F02FEDA4246DF582E5F034002206
:10107000746D2BF582E43401F58322FDECF0EDA3D1
:10108000F0900253E0FCA3E0FDEC22E0FCA3E0FDC5
:10109000C3EF9DFFEE9CFE22A42495F582E5F0347B
:1010A00000F58322A42496F582E5F03400F583222E
:1010B000900245E0FBA3E0FAA3E0F922FF780802E2
:1010C0001D8375F02FA42485F582E5F0340022A35A
:1010D000A3E0FEA3E02275F02FA42491F582E5F0B1
:1010E00034002275F02FEDA4246BF582E5F0340076
:1010F0002275F022A4241FF582E5F034002290012D
:10110000A6E024ADF582E43401F58322FBC3EF9B16
:10111000FFEE9AFE2275F02FA42487F582E5F034C5
:101120000022900248E004F022F583EEF0A3EFF0F5
:1011300022900248E075F02222C390024BE06480C6
:101140009480222444F582E5F03401222450F58273
:10115000E5F03401222456F582E5F0340122F583CE
:10116000EE8FF0021C6AE0FEC8EFC80822C8ECC887
:10117000C9EDC9CAEECACBEFCB2290024BF0A3F067
:1011800022E0FEA3E0FFE42225E025E02477F582BB
:10119000E4340122E49001B4F0A3F022E4EFF0750E
:1011A000F022EB222401FFE43EFEE43DFDE43C227C
:1011B00025E0241FF582E43423F58322FFEFF0902D
:1011C0000251E0FCA3E0222FFFEA3EFEE93DFDE8EC
:1011D0003C22902EC97429F02290016CE0FF75F03A
:1011E00002A4223F3F3F3F3F3F3F3F0032000A0003
:1011F00032177009C4006400320032000A000A008D
:101200000000000000000000000000000101010DCE
:101210000E0F030405060708090A0B0C0001020063
:101220003700370037003700370037003700370006
:1012300037003700370037003700370037003700F6
:10124000500050005000500050005000500050001E
:10125000500050005000500050005000500050000E
:101260001E001E001E001E001E001E001E001E008E
:101270001E001E001E001E001E001E001E001E007E
:101280002D002D002D002D002D002D002D002D00F6
:101290002D002D002D002D002D002D002D002D00E6
:1012A000960096009600960096009600960096008E
:1012B000960096009600960096009600960096007E
:1012C000AF00AF00AF00AF00AF00AF00AF00AF00A6
:1012D000AF00AF00AF00AF00AF00AF00AF00AF0096
:1012E0007D007D007D007D007D007D007D007D0016
:1012F0007D007D007D007D007D007D007D007D0006
:101300002D002D002D002D002D002D002D002D0075
:101310002D002D002D002D002D002D002D002D0065
:10132000C800C800C800BE00BE00BE00BE00BE00AF
:10133000BE00BE00BE00BE00BE00BE00BE00BE00BD
:1013400014001400140014001400140014001400FD
:10135000140014001400140014001400140014C02D
:10136000E0C0F0C083C082C0D0E8C0E0E9C0E0EADD
:10137000C0E0EBC0E0ECC0E0EDC0E0EEC0E0EFC0EC
:10138000E0D2AF90015CE060030224339002577416
:101390002EF0A3E4F01220FEE090016BF090015DCE
:1013A000E004F0E05407F0E09021E393902ECAF0BF
:1013B00090016BE0FD75F002A4FFAEF0900258E0E2
:1013C0002FF0900257E03EF0ED90220F939001A590
:1013D000F0121EECC083C082121F06FBE8C0E09032
:1013E0000257E475F002121C8085F082121EDDFFA8
:1013F000E4FCFDD0E0F8EB2FFFEA3EFEED39FDEC1A
:1014000038FCD082D083121D9690015DE07021904F
:1014100001A6E004F0E0FF900002E0FEEF8EF08411
:10142000AFF09001A6EFF0700790015C04F080032C
:10143000122605D0E0FFD0E0FED0E0FDD0E0FCD0E9
:10144000E0FBD0E0FAD0E0F9D0E0F8D0D0D082D004
:1014500083D0F0D0E032C0E0C083C082C0D0E8C00A
:10146000E0E9C0E0EAC0E0EBC0E0EFC0E0D2AFE509
:10147000DB30E415E5DB30E10280259001BFE5DFDC
:10148000F0900240E4F002251AE5DB30E508122E68
:10149000FB9001BC8029E5DB30E117E5DB30E07A29
:1014A000122D6104F08F82758300121BE7F5DF02B5
:1014B000251A900240E0700DA3E5DFF09002407421
:1014C00001F002251A900241E090286693FFB4FFD4
:1014D0000E9001BFE5DFF0900241E004F08035EFAF
:1014E000640F900242701E122D64122D82540F124E
:1014F0001C36122D6104F0122D82FFE5DF54F04FEF
:10150000121C36800F122D6404F08F82758300E563
:10151000DF121C489001BEE004F075DBFFD0E0FF55
:10152000D0E0FBD0E0FAD0E0F9D0E0F8D0D0D08223
:10153000D083D0E0329001D3E0FE6410705BFF9066
:101540000002E0FDEFC39D40030225F6EF25E024F5
:10155000BFF582E43422121EBA121F4EEF25E0249A
:101560009FF582E43422121EBA122143121F56EF55
:1015700025E024DFF582E43422121EBA12214C1237
:101580001F56EF25E024FFF582E43422121E931249
:101590002155121F560F02253FEE64207061FF9007
:1015A0000002E0FEEFC39E504DEF25E0243FF582A0
:1015B000E43422121EBA121F4EEF25E0241FF582DA
:1015C000E43422121EBA122143121F56EF25E024E2
:1015D0005FF582E43422121EBA12214C121F56EF1C
:1015E00025E0247FF582E43422121E931221551245
:1015F0001F560F02259F900144A3E09001C4F022E2
:10160000E490015CF01220FEE0FFC3940850429089
:101610002EC6E054FCF0E04401F0902EC57401F0B9
:10162000C083C0821221668002C333D8FCD082D02E
:1016300083F0902ECD7401F0C083C08212216680A9
:1016400002C333D8FCD082D083F0902EC074C1F096
:101650002274F82FFF902EC6E054FCF0E04402F014
:10166000902EC57401F0C083C0821221668002C32F
:1016700033D8FCD082D083F0902ECE7401F0C0839A
:10168000C0821221668002C333D8FCD082D083F09E
:10169000EFB405031221D2EFB406031221D2EFB446
:1016A0000706902EC97439F0902EC074C2F022CB78
:1016B000EFCB121E5CE0FEA3E0FFEB122009C39FFC
:1016C000FFEC9E900255F0A3EFF0EB64017044EB49
:1016D000121F29121DFF1220BC90021012219C1211
:1016E0001EEFA3A3A3E0900211122035121E3512A3
:1016F00020BCE4900212EFF0EB121E84A3A3A3E03F
:101700009002131221BC90021412207B900216F05A
:10171000EDA3F0EB64027044EB1220C2121DFF1225
:1017200020BC90021812219C121EEFA3A3A3E090EC
:101730000219122035121E351220BCE490021A1232
:10174000219D121E87A3A3A3E090021B1221BC902F
:10175000021C12207B90021EF0EDA3F022E4FFFE9B
:10176000900251F0A3F0A3F0F9FDFC900002E0FB21
:10177000ECC39B5052EC121FB0F583E0FAA3E0FBE0
:10178000D3940FEA94004006900252E004F0D3EBA9
:10179000942DEA94004006900253E004F0D3EB94B9
:1017A00037EA9400400109D3EB9441EA94004001E8
:1017B0000DD3EB9FEA9E400C900251ECF075F012B5
:1017C000121ED4FF0C80A4900252E09001A7F0906A
:1017D0000253E09001A8F0A3E9F0A3EDF0900251CC
:1017E000E090016CF022022A57E493A3F8E493A35B
:1017F0004003F68001F208DFF48029E493A3F85453
:1018000007240CC8C333C4540F4420C8834004F4D5
:1018100056800146F6DFE4800B01020408102040E8
:1018200080902C0AE47E019360BCA3FF543F30E516
:1018300009541FFEE493A360010ECF54C025E0605D
:10184000A840B8E493A3FAE493A3F8E493A3C8C52B
:1018500082C8CAC583CAF0A3C8C582C8CAC583CA1C
:10186000DFE9DEE780BE0FFFFF00000000000000A0
:10187000FFFFFFFFFFFFFFFFFF0000000000000071
:101880000000000000000000000000000000000058
:101890000000000000000000000000000000000048
:1018A0000000000000000000000000000000000038
:1018B0000000000000000000000000000000000028
:1018C0000000000000000000000000000000000018
:1018D0000000000000000000000000000000000008
:1018E000000000000000900251EFF0C3940A505431
:1018F000E0FF246D122073E0604AEF122188121F6E
:1019000004FB9001B0121E37C39BFBEE9AFAED99CF
:10191000F9EC98F8900251E025E024EBF582E434EC
:1019200021F583E493FE740193FFE4FCFDC3121DD3
:1019300072400E900251E0246D122073E4F07F019A
:10194000227F00227F0022122EA5EF600122122C9E
:101950007BEF6001229001B9E0248F600C24F370CA
:101960002A122D37122E8D803B122E20900167E017
:101970007002A3E070057F03122D8B900168E004D4
:10198000F07021900167E004F08019122E8D900113
:10199000B9E0FF122DFD7F041228E6EF6006122643
:1019A000007F02227F0422902EC0E4F0902ECB74A0
:1019B000F7F0902F58E0540F24F0902EC8F0902E9E
:1019C000CC7448F01221D2A3743FF0902E40748161
:1019D000121FA2F0A3F0A304121FA27402F0A3141A
:1019E000F0902EC67415F0902EC17490F0A374017F
:1019F000F0A37490F0A37407F043E310122DB1909C
:101A00000002EFF022C0E0C0F0C083C082C0D0E886
:101A1000C0E0ECC0E0EDC0E0EEC0E0EFC0E0D2AF6F
:101A2000900163E004F0C3940A4012E4F09001B026
:101A3000121E371221A4FC9001B0121D96D0E0FFB7
:101A4000D0E0FED0E0FDD0E0FCD0E0F8D0D0D082F5
:101A5000D083D0F0D0E032752001122AA953A87F9C
:101A6000122CB0122EE312104E122ED6122E3F431D
:101A7000A88012102EEF24E0600E24A060102470C5
:101A80007018C283C2828012D283D282800C122E3E
:101A9000C6758703758601122EE31225357B017A00
:101AA00002795B121066EF80C99002457410F0A3B2
:101AB000E4F0A3743FF0A374FFF0E4FDFCF990029E
:101AC00045E0FEA3E02DF582EE3CF583E493FF694B
:101AD000F90DBD00010CBC2FE5BDFFE2900247E00F
:101AE000FEA3E0F5828E83E4936970069001BD0445
:101AF000F022E49001BDF02290014CA3E090021886
:101B0000F090014EA3E0900219F0900146A3E090FE
:101B1000021AF0900148A3E090021BF0900152A33A
:101B2000E090021CF0900154A3E090021DF090237D
:101B30002174019390021EF090232374019390026C
:101B40001FF022E4900167F0A3F09001B7F0A3F03A
:101B5000900164F0A3F09001ABF0A3F09000017449
:101B60007EF0122194FB900002E0FFEBC39F50191E
:101B7000121FFBF583121DA20000000075F02FEB71
:101B800012202B121F470B80DD22CBEFCBEBB401D1
:101B90001B900029121E371220BC9001F0EFF0902C
:101BA0000029A3A3A3E0FF9001F1EFF0EBB4021B27
:101BB00090004B121E371220BC9001F2EFF0900003
:101BC0004BA3A3A3E0FF9001F3EFF022E4900251B6
:101BD000F0122D0DEF647F60012290016AE0701712
:101BE00004F01221D9244AF582E5F03401121EC90D
:101BF000C39DEE9C4011221221D9122143121EC90D
:101C0000C39DEE9C4001227F7E224101A400410140
:101C1000A6004101630041000000C10941016900C3
:101C2000C1084101B60041024000410241004201A9
:101C3000BA00004101BC004101BE004101BD0041AC
:101C400001BF10007E007F807D007B017A0179C09A
:101C5000121DD39001C07408F09001C27401F0907D
:101C600001D274ABF09001BDE060089001C1740234
:101C7000F08005E49001C1F0022AF8D39001A1E0C0
:101C800094009001A0E094004023D3900165E0947B
:101C90000A900164E09400500E900168E0940A906C
:101CA0000167E0940040061226007F02227F002296
:101CB000758A50538AEFE4F5AD75AEF075AF09F54E
:101CC000AC7589FF75913F75991FF59675931F75D2
:101CD0009B10F595F592F59A75800CF588F590D2E4
:101CE00094227E017F607D007B017A007903121DC2
:101CF000D3122C449001D37410F01225359001B901
:101D0000747EF0900001F0E490016AF022900001EE
:101D1000E0FFC39410501DA3E0FEEFC39E5015904A
:101D20000001E075F002A412214C121EC9C39DEE01
:101D30009C4001227F7F22900001747EF07F04127C
:101D40002E969001B4E07002A3E060147F02122D81
:101D50008B7F021228E6EF600712219490016AF04F
:101D600022900242E0FBA3E0FAA3E0F9900241E0F6
:101D7000FF22E4F5DA75DA4043DA2075D74C75DADC
:101D80005822E92FF9E43AFA021BCECBEFCBEBD382
:101D9000940A501C122070E070161220707401F02A
:101DA0009001B0121E37FFEB122188F583121D96A9
:101DB00022902EC5E4F0902ECDF0A3F0FFFEEF9020
:101DC00021FF93600974AD2E122104EFF00E0FEF86
:101DD000B410EBCFEECF229001667402F053A87FCF
:101DE00012260543A82043A880E49001A0F0A3F0A8
:101DF0009001A0F0A304F0E490019FF022CAEFCA82
:101E0000EAC394105019900001E06A60127F041236
:101E10002D8B900001EAF09001B4E4F0A304F022CD
:101E20009001B4E07002A3E060147F02122D8B7F5A
:101E3000021228E6EF600712219490016AF02290C6
:101E400002427401F0A37401F0A374C0F0122D7269
:101E500043A90875B80875F80822EF122009FDEFAC
:101E6000121E5DE0FEA3E0C39DFFEE9C900259F0C0
:101E7000A3EFF0229001B0121DA2000000007E002E
:101E80007F0A7D007B017A01796D021DD3E4900108
:101E900067F0A3F07F03EFD3940A5008746D2F12FC
:101EA0002073E4F0227F011228E6EF60061226007C
:101EB0007F02227F00227F091228E6EF6007E4906C
:101EC00001A0F0A3F022E4F58D902ECBF0902ECE61
:101ED000F0F586F58F2275BA9275BEF9E4F5BF4329
:101EE000AA02221229A79001667401F0022CE2EEE8
:101EF00030E707C3E49FFFE49EFE22122D7222000A
:101F000000000000000000000000000000000000D1
:101F100000000000000000000000000000000000C1
:101F200000000000000000000000000000000000B1
:101F300000000000000000000000000000000000A1
:102FF0000000000000000000000000000000007958
:00000001FF
