:1000000078FFE4B8200118F6D8F99000007F007E50
:1000100007E4F0A3DFFCDEFA758120022D2D9003AA
:10002000FDEFF0E0FF2402121353E0601AEF121408
:100030000B1210B512114C400E9003FDE024021279
:100040001353E4F07F01227F002200022921EFD325
:100050009403500D12126CF583E5822D1210E9E421
:10006000F02200022E5475F0021225FBE0FCA3E002
:10007000FD75F088EFA42444F582E5F03400F583A3
:10008000EE75F0020225FB9003FCE0FF75F002A480
:1000900024CAF582E5F03401F583E0FCA3E0FDEF2E
:1000A00075F002A42426F582E5F03400F58322756C
:1000B000F0041225FBE0F8A3E0F9A3E0FAA3E0FBCB
:1000C0009002E3E0FCA3E0FDA3E0FEA3E0229004A5
:1000D0000AE0FF900409E0FE75F088A424A7F582E9
:1000E000E5F03400F583E5822FF582E43583F5836E
:1000F0002290040BE0FEA3E0FF900409E0FD75F000
:1001000088A4247AF582E5F03400F58322EF2424D4
:10011000FFEE34FAFE7C007D0A12251A7D1E1225A0
:100120002CEF24DCFFEE3405FEEB75F002A4242056
:10013000F582E5F03400F58322E0FCA3E0FDEF75E5
:10014000F088A42456F582E5F03400229027D1C32C
:100150009BFBEE9AFAED99F9EC98F8E493FE7401A2
:1001600093FFE4FCFDC30225AD75F002EBA4241A55
:10017000F582E5F03400F583E0FCA3E0FDEB75F0DB
:1001800002A42414F582E5F03400F58322C39DFF18
:10019000EE9CFEE075F088A42468F582E5F034005A
:1001A000F58322F583E493FC740193FD75F002EF6F
:1001B000A422900409E0FF75F088A42432F582E5BA
:1001C000F03400F5832275F088A4248CF582E5F0E4
:1001D0003400F583EC75F0020225FB900409E0FF82
:1001E00075F088A42444F582E5F03400F58322E01C
:1001F0004401F0E4900013F09002D32275F002EB7A
:10020000A4241AF582E5F03400F583229003FCE083
:10021000FF24DCF582E43401F58322F074E22EF54C
:1002200082E43401F58322F0A3F0A3F0A3F0A3F05D
:10023000A3F0A32224D0F582E5F03401F583ECF09D
:10024000A3EDF0EF25E0229003FBE0FF25E024FD85
:10025000F582E43403F58322900409E0FD75F0880B
:10026000A4248CF582E5F03400F58322EF75F009C3
:10027000A424E7F582E4340222EF75F009A4244CAB
:10028000F582E434022290040AE0FF900409E0754C
:10029000F088A4249EF582E5F0340022E4F075F0A5
:1002A00088EEA424B0F582E5F034002290040DE03D
:1002B000FDEF9D7480F86E9822900409E0FFA3E0A2
:1002C000FD22EF245CFFEE34FEFE7C007D0A122549
:1002D0001A7D3212252CEF24A4FFEE3401FE75F0B6
:1002E00002EB229003FCE024DFF582E43401F58385
:1002F000229003FCE0FF75F002A424D6F582E5F01D
:10030000340122EDF0CBEFCBEBD394032275F088D0
:10031000EEA424B9F582E5F0340022E04406F09022
:1003200000137401F02275F002EF1225FBE0FCA32C
:10033000E0FD75F08822E0FEA3E0FFD32290037574
:10034000E054F0F02274F02BF582E43401F58322BE
:1003500074022BF582E43400F58322740A2BF582B3
:10036000E43402F5832274D42BF582E43402F5835D
:1003700022C39BFBEE9AFAED99F9EC98F822E0FE85
:10038000A3E0C39D22EB25E02401F582E43429F5A6
:100390008322E0249EF582E43400F583E0640122A8
:1003A000242CF582E5F03400F583ECF0A3EDF00F9A
:1003B00022E4F0A3F075F08822E0FCA3E0FDEC5409
:1003C0001F22EE8FF012258175F088ED22C3EF9485
:1003D000F6EE6480947F22E49001E6F0900246F00D
:1003E0002275F024A42402F582E43403F5832275F7
:1003F000F024A42467F582E43402F5832225E02565
:10040000E024F3F582E43401F5832225E025E0249D
:1004100005F582E43400F5832225E025E02439F552
:1004200082E43402F5832225E025E024D7F582E436
:100430003402F58322900409E0FFA3E0FD22A42406
:10044000A7F582E5F03400F583E58222E0FEA3E023
:100450002DFFEE3CFE9003FBE0229003FCE09003B6
:10046000FBF022F074E32EF582E43401F583E4F02E
:1004700022902EC3F0A37407F022E0FF9003FDE06A
:10048000FEEFC8EEC80822900375E0440A22902EC1
:10049000C5E4F0902ECDF0A3F022F582E43402F50D
:1004A0008322940AEE648094802275F002EF022584
:1004B000FB902EC6F0902EC57401F022F09001E55D
:1004C000747EF0E4A3F02275F0041225FB0225BE31
:1004D000ECF0A3EDF0900409E022902EC97420F016
:1004E000229003FCE004F022F09001E7F090024734
:1004F000F022900409EFF0A3EDF090040D7403F0E6
:10050000ED70037402F0900409E0FF12113FF583CF
:10051000C083C08290040AE0FED082D083121066AD
:1005200012137EFFEE9CFE90040BF0A3EFF012344A
:1005300008C31212AC40030215EB1210F1C083C0C5
:100540008290040AE0FCD082D0831210811213C280
:10055000121101EC1210811213361214A24024124F
:1005600010F9C083C08290040AE0FCD082D08312CC
:100570001081E4F0A3F0ED12113F1211D2E475F0F6
:1005800001802B1213CD5029900409E0FF1210FEB8
:10059000C083C08290040AE0FED082D08312108112
:1005A000E4F0A3F012113E12107E74FFF5F0122554
:1005B000811212B912104E1212B912317F1212B9F1
:1005C000122F57EF700302171790040AE0FF9004F0
:1005D00009E0FE12128F1210E4E4F0EF600302173C
:1005E0001712130DF583E4F002171790040AE07058
:1005F0003EA3E0FEA3E0FF12340890040DE02402C5
:10060000FDE433FCD3EF9DEC6480F8EE6480984009
:10061000091212861210E47401F0121750D312124C
:10062000AC402C900409E075F088121311801B1265
:10063000175090040DE0FDD31212B1401212128631
:10064000F583E5822FF582E43583F5837401F0129A
:1006500010F1C083C08290040AE0FCD082D08312E3
:1006600010811213C21211011211D41213369464A4
:10067000EE6480948040231210F9C083C0829004FD
:100680000AE0FCD082D0831210811213B1ED121156
:10069000421211D2E475F0018031C3EF949CEE64F4
:1006A00080947F5029900409E0FF1210FEC083C09F
:1006B0008290040AE0FED082D083121081E4F0A37D
:1006C000F012113E12107E74FFF5F0122581C390D6
:1006D000040BE06480948050321212B91231461239
:1006E00012B9122FAAEF60299004091211DEC083FB
:1006F000C08290040AE0FED082D0831210811211D1
:100700003912107EECF0A3EDF080061212B912102F
:100710004E1212B912339A900409E0FF12113FF5FC
:1007200083C083C08290040AE0FED082D08312107E
:1007300066E0FEA3E090040912118DC083C0829090
:10074000040AE0D082D083121081EEF0A3EFF022F1
:1007500090040BE0FEA3E0FF123408229001EDE0CC
:10076000FE703B9001EFE06402705B90024804F081
:100770009001DDE0B4010312131F9001DEE0B4012B
:10078000069002D37401F0900388E0B4200890032F
:100790006E7401F08005E490036EF07F0222EEB4E7
:1007A00001249001EFE0B4021D9002487401F09022
:1007B0000388E0B4200890036E7401F08005E49093
:1007C000036EF07F0222E4FE900012E0FFEEC39F72
:1007D00040030219989001EDE0FC705612121CE0E3
:1007E0006401704E74DC2E121213E0FF70161213A7
:1007F0003DEEB40104E04409F0EE640270211214ED
:1008000087F0801BEF6401701612133DEEB40104F3
:10081000E04401F0EEB40207900375E04402F012E8
:10082000121CE4F0C28AC294000000000000D28AC8
:10083000D294EC6401600302199412121CE064016A
:10084000600302199474DC2E121213E0FC600302A0
:1008500018DD12133DEE6401703A900247E0FD642A
:1008600001701B900246E0900375B40109E0440951
:100870001211F20480151211EF1214E88016ED9097
:100880000375B4020BE044051211F21214638004E4
:100890001211EFF0EE64026003021981900247E04A
:1008A000FF6401701C900246E0900375B4010612CB
:1008B000131BE48021E044041211F21214E802191F
:1008C00081EF900375B40205E044058003E0440421
:1008D000F0E4900013F09002D3F0021981EC64016F
:1008E000600302198112133DEE64017049900246C3
:1008F000E0FFB4020812148712131E8013EF640184
:1009000070269001E7E0900375B4010C12131BE40C
:100910009002D3121463801EE0440212131EE4906E
:1009200002D3F01213D8800E900375E04402121324
:100930001EE49002D3F0EE64027046900246E0B4EA
:100940000210121487F09002D37401F0900013F09B
:10095000802F9001E6E06401701C900247E0900354
:1009600075B40105E044098013E044081211F20453
:10097000F01213D7800B900375E044081211F204B3
:10098000F012121CE4F0C28AC294000000000000C1
:10099000D28AD2940E0217C87F04229003FB747E81
:1009A000F09001EDE06003021AB29003FCF09000B9
:1009B00012E0FF9003FCE0FEC39F4003021A917413
:1009C000DC2E121213E06003021A6974DF2E121279
:1009D000E9E0FF70289003FCE075F002A424D0F554
:1009E00082E5F03401F583E0FCA3E0FD75F002EE52
:1009F0001210A3E0FAA3E0C39DEA9C500FEF64013C
:100A0000705B12108712137EEE9C40519003FCE045
:100A1000FF9003FBF01212E77401F074DC2F121246
:100A2000137401F09001E5E0FFB47E149003FCE044
:100A3000FE9001E5F0A3740112121B7401F0800D09
:100A40009003FCE06F60069001E67402F09003FCF6
:100A5000E0FF1233C09003FCE0FF123311121BB011
:100A600060261212E3E4F0801F1212F112109812A5
:100A7000137EEE9C400C12145A123223EF600902CE
:100A80001B5C12120C1232B09003FCE004F002194D
:100A9000AE9001DDE0701BA3E070179001E6E0D39B
:100AA0009400400E9001E5E024E212121F7401123E
:100AB00014BC9001EDE064016003021BA19003FCF3
:100AC000F0900012E0FE9003FCE0FFC39E400302A2
:100AD0001BA112101EEF60031213D79003FCE0124B
:100AE0001211E0706112108712137EEE9C403B12CF
:100AF000145A1212117401F09001E6E004F0900211
:100B000046F09003FCE0FF24E212121F7401F01281
:100B100033C09003FCE0FF1233CF9003FCE0FF12E0
:100B200032D79003FCE0FF123311121BB0600512A4
:100B300012E3E4F09003FCE0FF123284EF6059E42A
:100B40009001E7021B931212F112109812137EEE1D
:100B50009C401912145A123223EF603C9001EF743A
:100B600002F09003FCE0121211E4F02212120C12B7
:100B700032B09003FCE0FF1233DE9003FCE0FF1282
:100B800032F49003FCE024E212121F7401F0900191
:100B9000E7E004F0900247F09003FCE004F0021A52
:100BA000C19003FBE0FF9001EBE06F6002EFF022E9
:100BB0009003FCE0FF1231F1EF229001EFE024FE00
:100BC000601E147003021C9C147003021D5A24033F
:100BD0006003021D9D9001EF7402F0E4900245F065
:100BE0009001EF7403F0900248E064016003021C7E
:100BF00099F09001EDE0FD702CC28AC294000000D3
:100C0000000000D28AD29412133D900013E06009D4
:100C1000E4F0900375E04409F09002D3E06006E44C
:100C2000F0121487F0ED64016003021D9D12133D64
:100C3000900013E0FF70099002D3E07003021D9D45
:100C4000EF60129002D3E0600C1211F3F090037584
:100C5000E044058034900013E060129002D3E0700D
:100C60000C1211F4F0900375E04401801C90001305
:100C7000E06003021D9D9002D3E07003021D9D12EF
:100C800011F3F0900375E04404F0C28AC2940000AE
:100C900000000000D28AD29422022AE71226339062
:100CA00001E8E07003021D3B900245E004F0E4908F
:100CB00003FAF0900012E0FF9003FAE0C39F507B2C
:100CC000E4FF9003FAE0FE1211B7121326EE1211A0
:100CD00042F5831214AAECF0A3EDF09003FAE0FEC3
:100CE0001211B7121326EE1211E31214AA1213AA4C
:100CF000EFB409CE9003FAE0FF1210A0E4F0A3F0E5
:100D0000EF12112A7404F0A3E4F0EFB40110E490A0
:100D1000037FF0A3F09003837404F0E4A3F0EFB436
:100D20000210E4900381F0A3F09003857404F0E4D2
:100D3000A3F09003FAE004F0021CB3900245E0C374
:100D400094034059900011747EF0E49001E9F09012
:100D50000245F09001EF7404F0221226339001E86E
:100D6000E0603A121F6DE49003FAF0900012E0FE8A
:100D70009003FAE0FFC39E50161230D0122F02905B
:100D800003FAE0FF1221349003FAE004F080DC1251
:100D9000325512199B12175C9001EFEFF02290046C
:100DA00009EFF0A3EDF090040D7407F0ED603F90B3
:100DB000009EE064017002800890040A1213927091
:100DC0002D1211B2C083C08290040AE0FED082D0FE
:100DD000831210661214D012125DC083C082900478
:100DE0000AE0D082D083121081E4F0A3F0229004B4
:100DF000091211DEC083C08290040AE0FED082D0C6
:100E00008312108112132DEFA42432F582E5F03401
:100E10000012107E12137EFFEE9CFE90040BF0A3D6
:100E2000EFF012340890040DE0FDC31212B140033C
:100E3000021EF61210CEE06401703775F088EE12D3
:100E40001197EF1211D5E0FEA3E0C3941EEE64806B
:100E500094804003021F3C1211B2C083C0829004F0
:100E60000AE0FED082D083121066ECF0A3EDF0020F
:100E70001F3C90040BE0FEA3E0FF121258C083C099
:100E80008290040AE0FCD082D083121081EE8FF0B1
:100E9000122581ED1211C61213361214A240291226
:100EA0001258C083C08290040AE0FCD082D0831222
:100EB00010811213B1EDA42444F582E5F034001240
:100EC00011D2E475F00180281213CD506F900409FF
:100ED000E0FF12125DC083C08290040AE0FED0825F
:100EE000D083121081E4F0A3F012107174FFF5F0BA
:100EF000122581021F3C1211B2C083C08290040AE5
:100F0000E0FED082D0831210661214D0FF1211942A
:100F1000C083C08290040AE0FED082D08312108188
:100F2000E0FCA3E0C3941EEC64809480400E75F056
:100F300088EF12143E2E1210E97401F01210CEE068
:100F40006401702812129E1210E4E00412129D1225
:100F500010E4E0D39405401490040AE0FF75F08893
:100F6000EE1210DB12129C1210E4E4F022E4900363
:100F7000FCF09003FCE0FDC394095023E0FF75F002
:100F8000021211BAE0FAA3E0FB75F002EF1211E3CE
:100F9000EAF0A3EBF0E4FF1214F21214E180D3E4C0
:100FA0009003FBF0900012E0FF9003FBE0C39F4032
:100FB0000302212E12124AE4F0A3F0EF25E02403ED
:100FC000F582E43404F583E4F0A3F0EF700302212A
:100FD00025E49003FCF09003FCE0FDC39409501855
:100FE0009003FBE0FF121D9E9003FBE0FFA3E0FDDA
:100FF0001222F61214E180DEE49003FCF09003FC70
:10100000E0FFC3940940030220D4749E2F1213956D
:1010100060109003FBE075F088121311F583E0B4C3
:1010200001199003FB121193C083C0829003FCE06E
:10103000D082D083121081E4F0A3F09003FCE0FF93
:1010400070030220CE9003FBE0FE1211941214AA4A
:10105000E0FCA3E0C39403EC64809480501A75F024
:1010600088EE121197C083C0829003FCE0D082D03A
:1010700083121081E4F0A3F0900412E0602A900340
:10108000FBE0FF121194C083C0829003FCE0FED00D
:1010900082D08312108112113912107E12144C1258
:1010A000124CEE8FF01225819003FBE0FF12119499
:1010B000C083C0829003FCE0D082D083121081E014
:1010C000FCA3E0FDEF12124CEC8DF01225811214FE
:1010D000E1021FFD900412E06011121247E0FCA330
:1010E000E0FDEF12117EECF0A3EDF09003FBE0FFCA
:1010F00075F088A42458F582E5F03400F583E0FC0F
:10110000A3E01211AB121201ECF0A3EDF0121247A2
:10111000E0FCA3E01211AB12120112144C12117E6A
:10112000EEF0A3EFF09003FBE004F0021FA4E490C4
:1011300001E8F022CBEFCB1211FCE0FEA3E0FF129E
:10114000117DE0FCA3E0FDC39FEC9E50030221F360
:10115000E42DFFEC3404FE1211FCE0FCA3E0FDC31F
:10116000EF9DFFEE9C121128EEF0A3EFF01211FCA0
:10117000E0FEA3E0FF12117DE0FCA3E0C39FFFECC3
:101180009EFE75F002EB1210A3EEF0A3EFF0121327
:1011900085E493FE740193FF75F002EB1210A3E057
:1011A000FCA3E0FDD39FEC9E4024121385E493FE44
:1011B000740193FFC3ED9FFFEC9EC313FEEF13FF7B
:1011C0001213857401932FFFE4933EFE801775F090
:1011D00002EB1210A3E0FEA3E0FF7C007D6312256A
:1011E0001A0D12252C75F002EB1210A3EEF0A3EFEE
:1011F000F0803C12117DE0FEA3E0FF1211FCE0FC48
:10120000A3E0C39FEC9EC3940475F002EB5012124E
:1012100010A3E4F0A3F01211297404F0A3E4F08009
:101220000E1210A3E4F0A3F0121129E4F0A3F0755C
:10123000F002EB1210A3E0FEA3E0C3941EEE9400B4
:10124000500B75F002EB1210A3E4F0A3F0EB640175
:10125000704F75F002EB1210A312133694A4EE94A3
:1012600001400B1212C21210A3EEF0A3EFF075F0C2
:1012700002EB1210A31213B990037FF0EDA3F0124A
:10128000112912133694DCEE9405400812110DEE6C
:10129000F0A3EFF01211291213B9900383F0EDA31C
:1012A000F0EB6402704F75F002EB1210A3121336CC
:1012B00094A4EE9401400B1212C21210A3EEF0A3FC
:1012C000EFF075F002EB1210A31213B9900381F046
:1012D000EDA3F012112912133694DCEE94054008A8
:1012E00012110DEEF0A3EFF01211291213B99003B1
:1012F00085F0EDA3F022900409EFF0A3EDF0900447
:101300000D7407F0ED70037404F090009EE064012A
:101310007002800890040A12139270381211DBC018
:1013200083C08290040AE0FED082D0831210811222
:10133000113912107EECF0A3EDF090040912119314
:10134000C083C08290040AE0D082D083121081E46E
:10135000F0A3F022900409E0FF12113FF583C0834F
:10136000C08290040AE0FED082D08312106612136D
:101370007EFFEE9C90040BF0A3EFF0900409121294
:10138000E6E06007E490040BF0A3F090040BE0FEAD
:10139000A3E0FF12340890040DE0FDC31212B14027
:1013A0000302242F90040BE0FEA3E0FF9004091237
:1013B00010FCC083C08290040AE0FCD082D083126B
:1013C00010811213C21211011211D4121336121409
:1013D000A240269004091210FCC083C08290040A27
:1013E000E0FCD082D0831210811213B1ED121142B1
:1013F0001211D2E475F001802B1213CD5029900404
:1014000009E0FF1210FEC083C08290040AE0FED003
:1014100082D083121081E4F0A3F012113E12107EEC
:1014200074FFF5F012258112143512104E8038C366
:1014300090040BE064809480502D121435123146D4
:10144000121435122FAAEF601E1211DBC083C08266
:1014500090040AE0FED082D083121081121139125A
:10146000107EECF0A3EDF0900409E0FF12113FF5BF
:1014700083C083C08290040AE0FED082D083121021
:1014800066E0FEA3E090040912118DC083C0829033
:10149000040AE0D082D083121081EEF0A3EFF02294
:1014A000BB010689828A83E0225002E722BBFE024A
:1014B000E32289828A83E49322BB010CE58229F529
:1014C00082E5833AF583E0225006E92582F8E62298
:1014D000BBFE06E92582F8E222E58229F582E58352
:1014E0003AF583E49322BB010689828A83F0225075
:1014F00002F722BBFE01F322F8BB010DE58229F5BC
:1015000082E5833AF583E8F0225006E92582C8F6A1
:1015100022BBFE05E92582C8F222EF8DF0A4A8F0D7
:10152000CF8CF0A428CE8DF0A42EFE22BC000BBEE2
:101530000029EF8DF084FFADF022E4CCF875F008BF
:10154000EF2FFFEE33FEEC33FCEE9DEC984005FCF4
:10155000EE9DFE0FD5F0E9E4CEFD22EDF8F5F0EEBC
:101560008420D21CFEADF075F008EF2FFFED33FDA7
:101570004007985006D5F0F222C398FD0FD5F0EA47
:1015800022C5F0F8A3E028F0C5F0F8E582158270D6
:10159000021583E038F022A3F8E0C5F025F0F0E56D
:1015A00082158270021583E0C838F0E822EB9FF5BF
:1015B000F0EA9E42F0E99D42F0E89C45F022ECF012
:1015C000A3EDF0A3EEF0A3EFF022A8828583F0D084
:1015D00083D0821225E11225E11225E11225E1E4F2
:1015E00073E493A3C583C5F0C583C8C582C8F0A3BF
:1015F000C583C5F0C583C8C582C822A42582F582EB
:10160000E5F03583F58322EF4E6012EF60010EEDB9
:10161000BB010B89828A83F0A3DFFCDEFA2289F00A
:101620005007F709DFFCA9F022BBFEFCF309DFFC41
:10163000A9F022E49003FCF09003FCE0FFC39409BE
:1016400040030227B9EF902EC87014E0545FF0A356
:10165000746AF0902EC3744AF0A37401F08009E01C
:1016600044F0F074201214719003FCE09027C093B2
:10167000902ECAF0E49003FBF0900012E0FF90037C
:10168000FBE0FEC39F40030227B074492E12149A58
:10169000E0FF9003FDF0E4F5E2EFC39408503B74E3
:1016A000151214B1C083C08212147A8002C333D8D9
:1016B000FCD082D083F0902ECD7401F0C083C08224
:1016C000E0FFC8EEC8088002C333D8FCD082D083C4
:1016D000F0902EC074C1F00227369003FDE024F88C
:1016E000F074171214B1C083C08212147A8002C33E
:1016F00033D8FCD082D083F0902ECE7401F0C0831A
:10170000C082E0FFC8EEC8088002C333D8FCD08294
:10171000D083F0EEB405031214DAEEB40606121408
:10172000DA121471EEB407081214DA74701214711C
:10173000902EC074C2F0E4FF900000742EF0A3E479
:10174000F09003FBE0244912149AE09003FDF0E5C9
:10175000E220E2050FEFB4C8DF53E2FB12148E90D3
:1017600003FDE0FD75F002A4FFAEF0900001E02F54
:10177000F0900000E03EF0ED9027F193FF90000024
:10178000E475F00212259785F082F58312132DEF90
:101790001211BAC083C0829003FCE0D082D08312C1
:1017A0001081ECF0A3EDF09003FBE004F002267949
:1017B0009003FCE004F00226389001E87401F02266
:1017C0003F3F3F3F3F3F3F3F3F00320032177009EE
:1017D000C40004001E000A000A000F0064000A0092
:1017E0000A000000000000000000000000000101ED
:1017F000010D0E0F030405060708090A0B0C000172
:101800000200370037003700370037003700370055
:101810003700370037003700370037003700370010
:101820003700500050005000500050005000500051
:101830005000500050005000500050005000500028
:1018400050001E001E001E001E001E001E001E0076
:101850001E001E001E001E001E001E001E001E0098
:101860001E002D002D002D002D002D002D002D001F
:101870002D002D002D002D002D002D002D002D0000
:101880002D007800870078007800780078007800D4
:101890007800780078007800780078007800780088
:1018A00078009100A00091009100910091009100BA
:1018B00091009100910091009100910091009100A0
:1018C00091005F006E005F005F005F005F005F00DF
:1018D0005F005F005F005F005F005F005F005F0010
:1018E0005F002D002D002D002D002D002D002D005E
:1018F0002D002D002D002D002D002D002D002D0080
:101900002D00FA00FA00FA00FA00FA00FA00FA00D4
:10191000FA00FA00FA00FA00FA00FA00FA00FA00F7
:10192000FAC0E0C083C082C0D0E8C0E0E9C0E0EA0D
:10193000C0E0EBC0E0EFC0E0D2AFE5DB30E415E59E
:10194000DB30E1028028900374E5DFF09003F5E4DA
:10195000F00229F0E5DB30E50812341490037180C1
:101960002BE5DB30E119E5DB20E0030229F09003F1
:10197000F71231BB1231D41224B9F5DF0229F090ED
:1019800003F5E0700DA3E5DFF09003F57401F002BC
:1019900029F09003F6E0902D7293FFB4FF0E9003B0
:1019A00074E5DFF09003F6E004F0803EEF640F9002
:1019B00003F7702B1231BB9003F6E0FF1231E854AD
:1019C0000F1224E69003F71231BB9003F6E0FF04F8
:1019D000F01231E8FFE5DF54F04F1224E6800B12DD
:1019E00031BB1231D4E5DF1224F8900373E004F028
:1019F00075DBFFD0E0FFD0E0FBD0E0FAD0E0F9D01B
:101A0000E0F8D0D0D082D083D0E032900388E0FEDE
:101A100064107053FF900012E0FDEFC39D4003027D
:101A20002ABCEF25E024A1F582E434281211A31288
:101A300012342481F582E434281211A324CAF582D9
:101A4000E5F0340112123C24C1F582E4342812116D
:101A5000A31212FA12123C24E1F582E43428121186
:101A6000A31213A0022A15EE64207062FF900012E8
:101A7000E0FEEFC39E5045EF25E02421F582E434DB
:101A8000281211A31212342401F582E43428121111
:101A9000A324CAF582E5F0340112123C2441F582F8
:101AA000E434281211A31212FA12123C2461F582B6
:101AB000E434281211A31213A0022A6D9001CCA3C2
:101AC000E0900379F09001CEA3E090037AF09003C8
:101AD0008BE0FEB410079001ED7401F022EEB4200B
:101AE00005E49001EDF0227E017FD97D007B017A33
:101AF000007914122607122EAB90036EE090038833
:101B000070057410F080037420F0122A0BE4FE902C
:101B10000012E0FFEEC39F507BE4FC75F088EE12EC
:101B200011011211D41213B1EE121292F583E58253
:101B30002C1210E9E4F0EE1211C61213B1EE1214D9
:101B40003E2C1210E912129CF583E5822C1210E94A
:101B5000E4F0CFEECFCDECCD12104E12339A0CEC58
:101B6000640970B712130DF583E4F0CFEECF123392
:101B7000C01233DE1233CF1233ED74DC2E12121387
:101B8000E412121BE41214BCA3F0900246F0A3F07E
:101B90000E022B0F9001EB747EF0900011F0E49098
:101BA00001EAF022E49003FCF0FF9003FBF0EF1455
:101BB000601E14603514604C14605B2404707490D3
:101BC00003FD7401F0A3742FF0A37458F0022C2DC0
:101BD0001231B89000011224B9FED3941F400312B1
:101BE00031E11224A06E704B80431231B890000294
:101BF0001224B9FED3940640031231E11224A06EE0
:101C0000703180291231B89000031224B9FE1224D9
:101C1000A06E701F80171231B89000041224B9FE14
:101C2000648B60031231E11224A06E70069003FBF6
:101C3000E004F00FEF64056003022BAE9003FBE0BD
:101C4000B40504A37401F09003FCE0FD6007900369
:101C500089E0547FF0CFEDCF22758A50538AEF9000
:101C600004137411F09004117422F090041474336E
:101C7000F075997F759A80E4FFFEC29620970AD28C
:101C800096309705E4900413F00FBF00010EEF6447
:101C90000A4E70E67590FF75993F759AC0E4FEFF95
:101CA0002097069004117427F020960C900411746C
:101CB00026F02097037428F00FBF00010EEF640A8E
:101CC0004E70DDE4F5AD75AEF075AF09F5AC758914
:101CD000FF75913F75991FF59675931F759B10F5CC
:101CE00095F592F59A75800CD28AD29490041204DC
:101CF000F022023094E493A3F8E493A34003F68027
:101D000001F208DFF48029E493A3F85407240CC8F7
:101D1000C333C4540F4420C8834004F456800146A2
:101D2000F6DFE4800B010204081020408090310CA3
:101D3000E47E019360BCA3FF543F30E509541FFECD
:101D4000E493A360010ECF54C025E060A840B8E43E
:101D500093A3FAE493A3F8E493A3C8C582C8CAC5C1
:101D600083CAF0A3C8C582C8CAC583CADFE9DEE753
:101D700080BE0F00FF00000000000000FFFFFFFF1B
:101D8000FFFFFFFFFF000000000000000000000058
:101D90000000000000000000000000000000000043
:101DA0000000000000000000000000000000000033
:101DB0000000000000000000000000000000000023
:101DC0000000000000000000000000000000000013
:101DD0000000000000000000000000000000000003
:101DE00000000000000000000000000000000000F3
:101DF0000000902EC0E4F0902ECB74F1F0902F589C
:101E0000E0540F24F0902EC8F0902ECC7448F0903F
:101E10002EC9742AF0A37408F0902E407481121217
:101E200027F0A3F0A3041212277402F0A37481F028
:101E3000902EC67415F0902EC17490F0A37401F02A
:101E4000A37420F0A37407F043E31012334B900007
:101E500012EFF022C0E0C0F0C083C082C0D0E8C062
:101E6000E0ECC0E0EDC0E0EEC0E0EFC0E0D2AF904B
:101E700001EEE004F0C3940A4017E4F01210C0240D
:101E800001FFE43EFEE43DFDE43CFC9002E312254C
:101E9000BED0E0FFD0E0FED0E0FDD0E0FCD0E0F826
:101EA000D0D0D082D083D0F0D0E0327E007F807D51
:101EB000007B017A037975122607E4900375F09090
:101EC00003777405F090038774ABF09003897481F5
:101ED000F0900413E090037BF0900411E090037CF9
:101EE000F0900414E090037DF0122BA4900372E0B4
:101EF00060089003767415F08005E4900376F00294
:101F00003049900412E0604E900016E0FEA3E0FF1E
:101F1000C39470EE941750069004147426F0C39086
:101F20000019E09488900018E09413501290041463
:101F30007427F0C3EF9470EE941750037428F0E404
:101F4000900016F0A3F0A3F0A3F0900412F0900418
:101F500014E090037DF02290040FEDF090040EEF5A
:101F6000F0A3E0FE121279F583E5822E1210E9E06B
:101F7000603590040EE01213EFC083C08290040F0E
:101F8000E0D082D0831210AF1213719027D71211B4
:101F90005B401490040FE0FF90040EE012127A12DE
:101FA00010E4E4F07F01227F002290040FEDF09016
:101FB000040EEFF0A3E0FE12126CF583E5822E1200
:101FC00010E9E0603290040EE01213E1C083C08299
:101FD00090040FE0D082D0831210AF9027D5121159
:101FE0004F401490040FE0FF90040EE012126D12A7
:101FF00010E4E4F07F01227F00229003FA7410F0D5
:10200000A3E4F0A3743FF0A374FFF0E4FDFCF990A7
:1020100003FAE0FEA3E02DF582EE3CF583E493FFA6
:1020200069F90DBD00010CBC2FE5BDFFE29003FC7A
:10203000E0FEA3E0F5828E83E4936970069003725C
:1020400004F022E4900372F0229001D2A3E0900306
:10205000CDF09001D4A3E09003CEF09001CCA3E0AA
:102060009003CFF09001CEA3E09003D0F09001D880
:10207000A3E09003D1F09001DAA3E09003D2F090B6
:1020800029037401939003D3F09029057401939070
:1020900003D4F022752001122FFA53A87F122C5975
:1020A0001233FC1233AE12336643A880758DE012F2
:1020B000332EEF24E0600A2410700AC283C28280AB
:1020C00004D283D282122A0B438D20121BBA80DFE6
:1020D000CBEFCBEB64017017121169E09003C5F0F0
:1020E00012117DA3E09003C6F0ECA3F0EDA3F0EB9A
:1020F00064027017121169E09003C9F012117DA3F8
:10210000E09003CAF0ECA3F0EDA3F02241024500F9
:102110004101EE0041024800410013004102D3009A
:1021200041036E004101ED004103F5004103F6005B
:1021300042036F00004103710041037300410372C9
:1021400000410374100090040E12130350309004E9
:102150000EE0FFEB12126D1210E4E07021EB121290
:102160006D1210E47401F01210C0FFEB1213E1C005
:1021700083C08290040EE0D082D0831214C72290D4
:10218000040E121303503090040EE0FFEB12127A8B
:102190001210E4E07021EB12127A1210E47401F0D4
:1021A0001210C0FFEB1213EFC083C08290040EE048
:1021B000D082D0831214C7229003FDE0FBA3E0FA83
:1021C000A3E0F922E4F5DA75DA4043DA2075D74066
:1021D00075DA58229003F6E0FF04F08F82758300D1
:1021E000229003FC7401F022E92FF9E43AFA022468
:1021F000A09003FDEFF0E0FF24F0121348E0602010
:10220000EF1213FD1210B51213719027CB12115B50
:10221000400E9003FDE024F0121348E4F07F012209
:102220007F00229003FDEFF0E0FF24D4121369E059
:102230006020EF1214271210B51213719027CF12DD
:10224000115B400E9003FDE024D4121369E4F07F8B
:1022500001227F0022E4FFFE900012E0FDEEC39D0C
:10226000501C12109FE0FCA3E0FDEE1210A0E0FA5B
:10227000A3E0D39DEA9C4003CFEECF0E80DA90011D
:10228000ECEFF0229003FDEFF0E0FF240A12135E62
:10229000E0601AEF1214191210B512114C400E9092
:1022A00003FDE0240A12135EE4F07F01227F002286
:1022B000E4F01233ED9003FCE0FF12130550171207
:1022C0001345E070111213457401F01210C0FFEBBA
:1022D0001213FD1225BE221213055017121350E0DF
:1022E00070111213507401F01210C0FFEB12140B96
:1022F0001225BE22121305501712135BE070111243
:10230000135B7401F01210C0FFEB1214191225BEFA
:10231000221213055017121366E07011121366741F
:1023200001F01210C0FFEB1214271225BE22E4FDAB
:10233000900371E06011900375E0FE54F0FDEE54DF
:102340000FF0E4900371F0CFEDCF2212148EFFFE58
:10235000EE9027E193600974492F12149AEEF00F62
:102360000EEEB410EB229003F77401F0A37403F0A7
:10237000A37475F01231C443A90875B80875F8083C
:10238000229002E31225CA000000007E007F0B7D30
:10239000007B017A0179FF022607EFD39403500DE9
:1023A000121279F583E5822D1210E9E4F02275B25C
:1023B0008E75B6F9E4F5B743B20143AA0102338141
:1023C000EFD39403500874F02F121348E4F022EF77
:1023D000D39403500874022F121353E4F022EFD366
:1023E00094035008740A2F12135EE4F022EFD39482
:1023F00003500874D42F121369E4F022122DF290C6
:1024000001EF7401F0022AE7EE30E707C3E49FFF13
:10241000E49EFE221231C4220000000000000000F1
:1024200000000000000000000000000000000000AC
:10243000000000000000000000000000000000009C
:10244000000000000000000000000000000000008C
:10245000000000000000000000000000000000007C
:102FF000000000000000000000000000000000735E
:00000001FF