:1000000001101C0000000000601F0000FFD700006E
:10001000020F0DFFFFFFFFFFFFFFFF0218B77E0378
:100020009000DDE06F6005EFF0E4A3F09000DDE00C
:100030007001FE9000DEE004F0C39E50037F0022BA
:100040009000DE7403F07F0122FFFF021A46E4F500
:10005000E3439F08439F02FF0FBF0FFC539FF775B9
:10006000BE0EE4F5BFF5B9759276220214888F1B97
:10007000EF25E02410F8E2F51E08E2F51FE51BC3AA
:100080009404500302017FEF25E02407F582E43455
:1000900017F583E493FA740193FBD3951FEA951E39
:1000A0004019AE1EAF1F7C007D501205DBAD03ACC6
:1000B000021205ED8E1C8F1D0205BDE51B25E024F7
:1000C00017F582E43417F583E493FA740193FBD3B4
:1000D000951FEA951E4054E51B25E02407F582E4B0
:1000E0003417F583E493FE740193FFC3E51F9FFF6C
:1000F000E51E9EFE7C007D0A1205DBE51B25E02443
:1001000007F582E43417F583E493FC740193FDC38F
:10011000EB9DFDEA9CFC1205ED8E1C8F1D74502595
:100120001DF51DE4351CF51C0205BDE51B25E0246D
:1001300017F582E43417F583E493FE740193FFC34B
:10014000E51F9FFFE51E9EFE7C007D0A1205DBE594
:100150001B25E02417F582E43417F583E493FC743F
:100160000193FDE51B25E02427F582E43417F58390
:10017000C37401939DFDE4939CFC1205ED8E1C8FCE
:100180001D745A251DF51DE4351CF51C0205BDE541
:100190001B25E02497F582E43416F583E493FC7480
:1001A0000193FDECC313FEED13FFC3E51F9FE51E96
:1001B0009E5008E4F51CF51D0205BDD3ED951FEC1E
:1001C000951E4029AE1EAF1F7C007D0A1205DBE59F
:1001D0001B25E02497F582E43416F583E493FC7440
:1001E0000193FD1205ED8E1C8F1D0205BDE51B253B
:1001F000E024A7F582E43416F583E493FA740193BE
:10020000FBD3951FEA951E4054E51B25E02497F586
:1002100082E43416F583E493FE740193FFC3E51F73
:100220009FFFE51E9EFE7C007D0A1205DBE51B2577
:10023000E02497F582E43416F583E493FC7401938B
:10024000FDC3EB9DFDEA9CFC1205ED8E1C8F1D7419
:100250000A251DF51DE4351CF51C0205BDE51B2511
:10026000E024B7F582E43416F583E493FA7401933D
:10027000FBD3951FEA951E4054E51B25E024A7F506
:1002800082E43416F583E493FE740193FFC3E51F03
:100290009FFFE51E9EFE7C007D0A1205DBE51B2507
:1002A000E024A7F582E43416F583E493FC7401930B
:1002B000FDC3EB9DFDEA9CFC1205ED8E1C8F1D74A9
:1002C00014251DF51DE4351CF51C0205BDE51B2597
:1002D000E024C7F582E43416F583E493FA740193BD
:1002E000FBD3951FEA951E4054E51B25E024B7F586
:1002F00082E43416F583E493FE740193FFC3E51F93
:100300009FFFE51E9EFE7C007D0A1205DBE51B2596
:10031000E024B7F582E43416F583E493FC7401938A
:10032000FDC3EB9DFDEA9CFC1205ED8E1C8F1D7438
:100330001E251DF51DE4351CF51C0205BDE51B251C
:10034000E024D7F582E43416F583E493FA7401933C
:10035000FBD3951FEA951E4054E51B25E024C7F505
:1003600082E43416F583E493FE740193FFC3E51F22
:100370009FFFE51E9EFE7C007D0A1205DBE51B2526
:10038000E024C7F582E43416F583E493FC7401930A
:10039000FDC3EB9DFDEA9CFC1205ED8E1C8F1D74C8
:1003A00028251DF51DE4351CF51C0205BDE51B25A2
:1003B000E024E7F582E43416F583E493FA740193BC
:1003C000FBD3951FEA951E4054E51B25E024D7F585
:1003D00082E43416F583E493FE740193FFC3E51FB2
:1003E0009FFFE51E9EFE7C007D0A1205DBE51B25B6
:1003F000E024D7F582E43416F583E493FC7401938A
:10040000FDC3EB9DFDEA9CFC1205ED8E1C8F1D7457
:1004100032251DF51DE4351CF51C0205BDE51B2527
:10042000E024F7F582E43416F583E493FA7401933B
:10043000FBD3951FEA951E4054E51B25E024E7F504
:1004400082E43416F583E493FE740193FFC3E51F41
:100450009FFFE51E9EFE7C007D0A1205DBE51B2545
:10046000E024E7F582E43416F583E493FC74019309
:10047000FDC3EB9DFDEA9CFC1205ED8E1C8F1D74E7
:100480003C251DF51DE4351CF51C0205BDE51B25AD
:10049000E02407F582E43417F583E493FA740193BA
:1004A000FBD3951FEA951E4054E51B25E024F7F584
:1004B00082E43416F583E493FE740193FFC3E51FD1
:1004C0009FFFE51E9EFE7C007D0A1205DBE51B25D5
:1004D000E024F7F582E43416F583E493FC74019389
:1004E000FDC3EB9DFDEA9CFC1205ED8E1C8F1D7477
:1004F00046251DF51DE4351CF51C0205BDE51B2533
:10050000E02417F582E43417F583E493FA74019339
:10051000FBD3951FEA951E4053E51B25E02407F504
:1005200082E43417F583E493FE740193FFC3E51F5F
:100530009FFFE51E9EFE7C007D0A1205DBE51B2564
:10054000E02407F582E43417F583E493FC74019307
:10055000FDC3EB9DFDEA9CFC1205ED8E1C8F1D7406
:1005600050251DF51DE4351CF51C8061E51B25E0BB
:100570002417F582E43417F583E493FE740193FFA6
:10058000C3E51F9FFFE51E9EFE7C007D0A1205DB72
:10059000E51B25E02417F582E43417F583E493FC8A
:1005A000740193FDE51B25E02427F582E43417F55B
:1005B00083C37401939DFDE4939CFC1205ED8E1C96
:1005C0008F1D745A251DF51DE4351CF51CAE1CAF9E
:1005D0001D22BB010689828A83E0225002E722BBEA
:1005E000FE02E32289828A83E49322EF8DF0A4A89D
:1005F000F0CF8CF0A428CE8DF0A42EFE22BC000BF0
:10060000BE0029EF8DF084FFADF022E4CCF875F048
:1006100008EF2FFFEE33FEEC33FCEE9DEC98400527
:10062000FCEE9DFE0FD5F0E9E4CEFD22EDF8F5F0ED
:10063000EE8420D21CFEADF075F008EF2FFFED33F5
:10064000FD4007985006D5F0F222C398FD0FD5F073
:10065000EA22E88FF0A4CC8BF0A42CFCE98EF0A465
:100660002CFC8AF0EDA42CFCEA8EF0A4CDA8F08B33
:10067000F0A42DCC3825F0FDE98FF0A42CCD35F079
:10068000FCEB8EF0A4FEA9F0EB8FF0A4CFC5F02E0A
:10069000CD39FEE43CFCEAA42DCE35F0FDE43CFC73
:1006A0002275F008758200EF2FFFEE33FECD33CDBB
:1006B000CC33CCC58233C5829BED9AEC99E5829808
:1006C000400CF582EE9BFEED9AFDEC99FC0FD5F007
:1006D000D6E4CEFBE4CDFAE4CCF9A88222B800C17E
:1006E000B90059BA002DEC8BF084CFCECDFCE5F0EB
:1006F000CBF97818EF2FFFEE33FEED33FDEC33FC32
:10070000EB33FB10D703994004EB99FB0FD8E5E4DA
:10071000F9FA227818EF2FFFEE33FEED33FDEC33BC
:10072000FCC933C910D7059BE99A4007EC9BFCE94B
:100730009AF90FD8E0E4C9FAE4CCFB2275F010EF87
:100740002FFFEE33FEED33FDCC33CCC833C810D7CA
:10075000079BEC9AE899400AED9BFDEC9AFCE8991E
:10076000F80FD5F0DAE4CDFBE4CCFAE4C8F922EBDB
:100770009FF5F0EA9E42F0E99D42F0E89C45F022A8
:10078000E8600FECC313FCED13FDEE13FEEF13FF57
:10079000D8F122E8600FEFC333FFEE33FEED33FDF7
:1007A000EC33FCD8F122E6FC08E6FD08E6FE08E69C
:1007B000FF22E6FB08E6F908E6FA08E6CBF822ECA9
:1007C000F608EDF608EEF608EFF622ECF208EDF288
:1007D00008EEF208EFF222D083D082E493F6087498
:1007E0000193F608740293F608740393F674047385
:1007F000D083D082E493F208740193F208740293D8
:10080000F208740393F27404738A838982E473E4B4
:10081000F519F518E51825E025E02485F81207E01C
:10082000000000000518E518B406E9121BC4E4F541
:1008300018E51825E025E02485F8C000E2FC08E270
:10084000FD08E2FE08E2FFE51825E025E0244FF868
:100850001207A2EF2BFFEE3AFEED39FDEC38FCD08B
:10086000001207BB0518E518B406C60519E519C33B
:10087000940540B7E4F518AF19E4FCFDFEC004A9E7
:1008800005AA06AB07E51825E025E02485F8E2FC7B
:1008900008E2FD08E2FE08E2FFD0001206CD8F1D3F
:1008A0008E1C8D1B8C1AAB1DAA1CA91BA81AC0007C
:1008B000E51825E0246FF8E6FE08E6FFE4FCFDD02D
:1008C000001206428F1D8E1C8D1B8C1A7807120792
:1008D000708F1D8E1C8D1B8C1AE47FB87E0BFDFC67
:1008E000AB1DAA1CA91BA81AD312075F4030E51D37
:1008F0002448FFE51C34F4FEE51B34FFFDE51A3403
:10090000FFFCE51825E025E0242FF81207AFE518D5
:1009100025E02430F8740BF20874B8F2801EE51854
:1009200025E025E0242FF81207C700000000E51895
:1009300025E02430F8E51CF208E51DF2E51825E075
:100940002430F8E2FE08E2FFE51825E02450F8EE36
:10095000F208EFF2E51825E02430F8E2FE08E2FFA5
:10096000E4FCFDE51825E025E02460F81207BBE56E
:100970001825E025E02460F8C000E2FC08E2FD084C
:10098000E2FE08E2FF7807120783D0001207BBE5FA
:100990001825E02430F8E2FE08E2FFE51825E024FF
:1009A00040F8EEF208EFF2E51825E02410F8E4F242
:1009B00008F2E51825E025E02485F81207E000009C
:1009C0000000E51825E024B5F8E4F208F20518E582
:1009D0001864066003020867228E198F1AE4F51C5A
:1009E000F51DF51EF51B9000F2E070089000DEE0AA
:1009F0006403601EE51B25E024B5F8E4F208F2E587
:100A00001B25E025E02485F81207E0000000000225
:100A10000ADFE51B25E02497F582E43416F583E42C
:100A200093F51C740193F51DE51B25E024B6F9E34D
:100A3000700219E3701AE51B25E02430F8E2FE0885
:100A4000E2FFE51B25E024A5F8EEF208EFF280575F
:100A5000E51B25E024A5F8E2FE08E2FFE51B25E002
:100A60002430F8E2FC08E2FD121E07D3EF951DEEDC
:100A7000951C4033E51B25E02430F8E2FE08E2FF38
:100A8000E51B25E024A5F8EEF208EFF2E51B25E0D2
:100A900024B5F8E4F208F2E51B25E025E02485F80A
:100AA0001207E000000000E51B25E02430F8E2FE1C
:100AB00008E2FFE51B25E025E02485F8C000E2FB05
:100AC00008E2F908E2FA08E2CBF8E4FCFDEB2FFFBC
:100AD000EA3EFEED39FDEC38FCD0001207BBE51B09
:100AE00025E024B5F808E22401F218E23400F2050A
:100AF0001BE51BC3940650030209D6E4F51BE51B56
:100B000025E024B6F9C3E3951A19E39519400205C7
:100B10001E051BE51BB406E6E51E64067063F51BA7
:100B2000E51B25E024B5F8E2FE08E2FF4E604BE449
:100B3000FCFDC004A905AA06AB07E51B25E025E0DE
:100B40002485F8E2FC08E2FD08E2FE08E2FFD0009E
:100B50001206CDE51B25E02440F8EEF208EFF2E5A1
:100B60001B25E024B5F8E4F208F2E51B25E025E0BA
:100B70002485F81207E000000000051BE51BB40601
:100B80009F2285BA1E53BA0F43BA10E4F518E51830
:100B900025E025E0244FF81207C7000000000518E3
:100BA000E518B406E975180A75ABFF121D61E4F586
:100BB00019E51925E025E0244FF8C000120796C07A
:100BC00004C005C006C00774C32519F8E675F00314
:100BD000A4243BF582E4341EF583E493FB74019373
:100BE000FA740293F91207F9A804A905AA06AB073B
:100BF000D007D006D005D004EF2BFFEE3AFEED393A
:100C0000FDEC38FCD0001207AF0519E519C39406B6
:100C1000409FE4F5AB121D61E4F519E51925E025C7
:100C2000E0244FF8C000120796C004C005C006C0FB
:100C30000774C32519F8E675F003A4243BF582E494
:100C4000341EF583E493FB740193FA740293F91252
:100C500007F9A804A905AA06AB07D007D006D00556
:100C6000D004C3EF9BFFEE9AFEED99FDEC98FCD00B
:100C7000001207AF0519E519C39406409E1518E543
:100C8000186003020B98E4F519E4751D20751C4EDD
:100C9000F51BF51AAF1DAE1CAD1BAC1A7807120779
:100CA000838F1D8E1C8D1B8C1AE51925E025E024F1
:100CB0004FF81207A21206CD8F1D8E1C8D1B8C1AA9
:100CC000E51925E0246FF8A60608A6070519E51919
:100CD000B406B6851EBA22E4F518E51825E025E02D
:100CE000244FF8C000120796C006C007E51825E09B
:100CF000246FF8E6FE08E6FFFBAA06E4F9F8D00741
:100D0000D006120642D0001207AFE51825E025E014
:100D1000244FF8C0001207967807120770D000120F
:100D200007AFE51825E025E0244FF8120796EC4DB3
:100D30004E4F7003020DD9E51825E025E0242FF869
:100D4000120796E51825E025E0244FF81207A2C304
:100D500012075F50037F0322E51825E025E0242FCA
:100D6000F81207A2C000E51825E025E0244FF8128C
:100D70000796D000C3EF9BF51CEE9AF51BED99F595
:100D80001AEC98F519E47FFF7EFFFDFCAB1CAA1B53
:100D9000A91AA819C312075F40037F0322E518258B
:100DA000E02430F8E51BF208E51CF2E51825E02404
:100DB00040F8E2FE08E2FFE51825E02430F8E2FC06
:100DC00008E2FDD39FEC9E4013ED9FFFEC9EF8E5FB
:100DD0001825E02410C8F208EFF2801BE51825E082
:100DE0002410F8E4F208F2800EE51825E02410F84B
:100DF000E4F208F27F03220518E518640660030296
:100E00000CCA7F07227518077D0774017E00A81899
:100E1000088005C333CE33CED8F9FFACACECFBE48D
:100E2000EF5B7003D518E3ED601D74017E00A8052B
:100E3000088005C333CE33CED8F9FFACAEECFBE46B
:100E4000EF5B70031D80E0AF187401A807088002F3
:100E5000C333D8FCF5AC7401A805088002C333D8AD
:100E6000FCFFF5AD8FAE53AACF85BA2153BA0F431D
:100E7000BA10E4F51CF51BF51AF519121D61E4F51D
:100E80001874C32518F8E675F003A4243BF582E432
:100E9000341EF583E493740193FA740293F91207F4
:100EA000F98F208E1F8D1E8C1DAB1CAA1BA91AA8A2
:100EB00019C312075F500C85201C851F1B851E1A45
:100EC000851D190518E518C3940640B5AF1CAE1B67
:100ED000AD1AAC197803120770E51C2FF51CE51B41
:100EE0003EF51BE51A3DF51AE5193CF519AF1CAEA8
:100EF0001BAD1AFC78101207708FB3AF1CAE1BAD80
:100F00001AAC1978081207708FB2851CB143AA3049
:100F10008521BA75AC0375ADC075AEC022E453C669
:100F2000DFE5C600B5C6F675830075820775FD0D51
:100F3000E4E5FEF4FF75830075820675FD0DE4E5BA
:100F4000FEB50704F59E8003759E0078100000D85A
:100F5000FC53C6E043C60843C680759603759703E5
:100F600075830075820375FD0DE4E5FEF4FF75835E
:100F70000075820275FD0DE4E5FEB50704F5958068
:100F80000375958375BE0E5392FE9001007F007E1F
:100F900002E4F0A3DFFCDEFA78007F00E4F208DF71
:100FA000FC78FFE4F6D8FD7581CE020FDB0200006D
:100FB0000215EEE493A3F8E493A34003F68001F254
:100FC00008DFF48029E493A3F85407240CC8C33342
:100FD000C4540F4420C8834004F456800146F6DF11
:100FE000E4800B0102040810204080901B82E47E04
:100FF000019360BCA3FF543F30E509541FFEE49306
:10100000A360010ECF54C025E060A840B8E493A3CC
:10101000FAE493A3F8E493A3C8C582C8CAC583CAF7
:10102000F0A3C8C582C8CAC583CADFE9DEE780BEAF
:10103000121B3A8F199000F2E060030210C4F51AF7
:10104000E51A25E02430F8E2FE08E2FFE48F1E8E68
:101050001DF51CF51BAD1CAC1B78071207838F1EFA
:101060008E1D8D1C8C1BE51A25E025E02460F8E21E
:10107000FC08E2FD08E2FE08E2FFE47B1FFAF9F853
:10108000120642EF251EFFEE351DFEED351CFDEC70
:10109000351BFC7805120770E51A25E025E0246071
:1010A000F81207BBE51A25E025E02460F8E2FC0809
:1010B000E2FD08E2FE08E2FF7807120770E51A2554
:1010C000E02450F8EEF208EFF2051AE51A64066023
:1010D00003021030E49000EEF0A3F0751A01E51A57
:1010E00025E02450F8E2FE08E2FF9000EEE025E063
:1010F0002451F9C3E39F19E39E5003E51AF09000D1
:10110000EFE025E02451F9D3E39F19E39E4003E586
:101110001AF0051AE51AB406C5AF1912000EEF70E1
:1011200002FF227F0122E4F519E51925E025E024DC
:101130002FF8120796E4FBFAF9F8C312075F700361
:101140000211F5E51925E025E0242FF8C00012076B
:1011500096C006C007E51925E02440F8E2FE08E243
:10116000FFFBAA06E4F9F8D007D006EF2BFFEE3A12
:10117000FEE93DFDE83CFCD0001207AFE51925E093
:1011800025E0242FF8C000120796C3EF94B8FFEEB5
:10119000940BFEED9400FDEC9400FCD0001207AF20
:1011A000E51925E02440F8740BF20874B8F2E5194B
:1011B00025E02430F8740BF20874B8F2E51925E044
:1011C0002450F8740BF20874B8F2E51925E025E014
:1011D0002460F81207E000000BB8E51925E025E0CF
:1011E0002460F8C000E2FC08E2FD08E2FE08E2FF2D
:1011F0007807120783D0001207BBE51925E02410F9
:10120000F8E4F208F20519E5196406600302111901
:10121000227518081219F0121020BF012E7F01123A
:101220001CA0AD07AC06ECC313FCED13FDD390007E
:10123000E6E094009000E5E094004006EC13FCED3D
:1012400013FDAF05AE041209C98003AF1822900048
:10125000F2E0602FE49000E9F0A3F09000E8E004F1
:10126000F070069000E7E004F07F05121CA0D39018
:1012700000E8E09F9000E7E09E4069E4FF1213BCA5
:101280007F0322E49000E7F0A3F09000EEE025E079
:101290002450F8E2FE08E2FFA3E025E02450F8E243
:1012A000FC08E2FD121E079000F0E0FDD3EF9DEE7A
:1012B000940040109000EAE004F070069000E9E02D
:1012C00004F08007E49000E9F0A3F07F07121CA06F
:1012D000D39000EAE09F9000E9E09E4007E4F0A38D
:1012E000F01211169000DDE0FF1213BCAF1822754A
:1012F00021FFE4F5209000EEE0FD65207063A3E09F
:1013000025E02450F8E2FE08E2FFED25E02450F845
:10131000E2FC08E2FD121E078E228F239000EFE010
:1013200025E02430F8E2FE08E2FF9000EEE025E040
:101330002430F8E2FC08E2FD121E079000F0E07C89
:10134000002523FDEC3522FCC3EF9DEE9C506AAFD7
:10135000207401A807088002C333D8FCF45221800E
:1013600058E52025E02430F8E2FE08E2FF9000EE88
:10137000E025E02451F9D3E39F19E39E4010AD200E
:101380007401A805088002C333D8FCF45221E5207B
:1013900025E02451F89000F0E0FDE22DFD18E23444
:1013A00000FCC3EF9DEE9C5010AF207401A807080D
:1013B0008002C333D8FCF452210520E520C39404F5
:1013C00050030212E59000F6E521F022E4F51A75CB
:1013D0001C01F51DF51E788EE630E008751A0475BF
:1013E0001B0F8006751A02751B03EFD3951B501354
:1013F0009000DFE06F600CE49000E7F0A3F0900055
:10140000DFEFF09000DFE0FFA3E06F7003021487CE
:10141000E4F519E519C3951A50779000DFE0551CE3
:10142000FFA3E0551C6F605FEF701374C52519F5BD
:1014300082E43400F583E02408788BF6800F74C5CD
:101440002519F582E43400F583E0788BF6E4788A98
:10145000F6FF121F35E4F51DF51E00051EE51E7092
:1014600002051D64A0451D70F17F01121F35788AA9
:10147000E660FBE4F51DF51E00051EE51E70020585
:101480001D64A0451D70F1E51C25E0F51C051980C3
:10149000829000DFE0A3F022C0E0C0F0C083C082F1
:1014A000C0D075D008C2CF30CD0D788AE660030277
:1014B0001535760102153530CB4920CC46787FA60C
:1014C000CEE6FF54F0FEBE8031EF540F75F003A45A
:1014D0002407F582E4341DF583E493FB740193FA49
:1014E0007402938B268A27F5280528E528700205C3
:1014F0002714F91205C2F5CE8009787FE62525F874
:10150000E6F5CE30CC2A787FE654F0FFBF8015ABED
:10151000260528E528AA277002052714F91205C216
:10152000F5CE8021787F06E62525F8E6F5CE8015F4
:1015300020CB12787FE6FFC3940A500674802FF800
:10154000A6CE787F06D0D0D082D083D0F0D0E03243
:10155000E4F520FB79FFFEEE25E02400F8E2FC082C
:10156000E2C3789296EC18964049788EE630E00F08
:101570007401A806088002C333D8FC42038027EE1A
:10158000C39402500F7401A806088002C333D8FC2C
:1015900042038012EE24FEFD7401A805088002C3F8
:1015A00033D8FCF452017401A806088002C333D872
:1015B000FC42200EBE04A0788EE630E0079000F4D6
:1015C000E9F08030EB20E014E930E0099000F4E02D
:1015D0004401F080079000F4E054FEF0EB20E114A9
:1015E000E930E1099000F4E04402F080079000F453
:1015F000E054FDF09000F2E520F0A3EBF0221200A1
:101600003E7D01E4FF121C007F01121DCD7F0112FF
:101610001E21121F35121F28121D87121A9C121C20
:1016200036121C6BD2AF752D01E52D24FD601C1404
:10163000602424FE60291460301460602407705F09
:10164000121AEF121922752D048054121AEF121972
:1016500022752D048049E52E70FC752D0680401200
:101660000CC78F2D121E538036D39000E6E09400F5
:101670009000E5E09400400CA3E024FFF09000E52A
:10168000E034FFF09000E2E004F070069000E1E04A
:1016900004F01212018F2D1217C98003752D04D288
:1016A000D812198A80832200190019002800280006
:1016B000080008000000000028002800500050002A
:1016C0000A000A00000000004B004B007D007D0076
:1016D0000C000C00000000007D007D00FA00FA0004
:1016E0001000100000000000DC00DC01B801B800B0
:1016F0001300130000000001400140027602760052
:101700001E001E0000000001C201C20334033400A9
:101710002D002D000000000212021205000500003D
:10172000500050000000000258025805280528000B
:1017300078007800000000027602760564056400F7
:10174000DC00DC00000000001900177BFFE4FAEA6F
:1017500025E02437F582E43417F583E493FE740121
:1017600093FFEA25E02401F9C3E39F19E39E505A51
:10177000EA25E02410F909E325E0FF19E333FE7CB4
:10178000007D071205ED8E208F21EA25E02410F858
:10179000E2FE08E2FF7C007D051205EDEF240AFF62
:1017A000E43EFEEA25E02418F8E2FC08E2FDC39FCF
:1017B000EC9E5016ED9521EC9520400E7401A80288
:1017C000088002C333D8FCF452030AEA64026003BF
:1017D00002173F9000F5EBF022E4F518E51875F0DC
:1017E00006A42493FFE51825E02420F8E2FC08E293
:1017F000FD121E68E51875F006A42495FFE518256E
:10180000E02410F8E2FC08E2FD121E68E51875F00D
:1018100006A42497FBC003E51825E02430F8E2FE77
:1018200008E2FFE4FCFDE51825E025E0242FF8128E
:1018300007A2EF2BFFEE3AFEED39FDEC38FC780401
:10184000120770AD07AC06D007121E680518E51820
:10185000C39406408722AC07E4F9F520EC60657874
:101860008EE630E02FE4FD74017E00A805088005B7
:10187000C333CE33CED8F9FFECFBE4EF5B600F74DB
:1018800001A805088002C333D8FC29F905200DBD45
:1018900004D5802DE4FD74017E00A805088005C3F1
:1018A00033CE33CED8F9FFECFBE4EF5B600F74016D
:1018B000A805088002C333D8FC29F905200DBD0214
:1018C000D5AF01227F0022C0E0C0F0C083C082C03B
:1018D000D075D000C000C004C005C006C007C28DCE
:1018E000758CD8758AF0052CE52C7002052BAE2B73
:1018F000FF7C007D641205EDED4C70219000E1E06D
:10190000FEA3E0FFD3940AEE94004006A3EEF0A3FA
:10191000EFF09000E1E4F0A3F0F52BF52CD007D028
:1019200006D005D004D000D0D0D082D083D0F0D063
:10193000E032E4FBFA121DECE49000DDF09000DFF1
:10194000F0A3F09000DEF09000E7F0A3F0A3F0A386
:10195000F07884F2FFEF25E024D7F582E43416F521
:1019600083E493FC7401932BFBEC3AFA0FBF02E57E
:101970007C007D14AF03AE021205ED9000F0EFF095
:10198000120B72120DF51207FF7F0A121CA09000B5
:10199000E5EEF0A3EFF0121E53227880E6FF605FC1
:1019A000E4F6EF24E0601E24F0602024F0602A2496
:1019B000F0603424F0603724F0603A24607040E432
:1019C000FF121DCD227F01121DCD227891760008D5
:1019D000760F788EE64410F6227891760008761E0F
:1019E000788EE654EFF622788EE64401F622788E61
:1019F000E654FEF622121CD4788FA60608A607220B
:101A0000E4FF12005E8E198F1A7820E519F208E5BE
:101A10001AF27901AF0112005EE925E02420F8EE08
:101A2000F208EFF2D3E51A9FE5199E40048E198F54
:101A30001A09B906DFE4F9E925E02421F8C3E295A3
:101A40001AFF18E29519F8E925E02400C8F208EF1A
:101A5000F209B906E222C0E0C0F0C083C082C0D063
:101A600075D01053B9FD75240074C32524F8E675AC
:101A7000F003A4243BF582E4341EF583E49374015F
:101A800093FA740293F91207F9E52425E025E0247E
:101A90004FF81207AF0524E524C3940640CB752EFA
:101AA00000D0D0D082D083D0F0D0E032E4788BF672
:101AB000121D37BFFF0508761C8004788C76FFE482
:101AC000788DF608F674FF08F608F60876000876B2
:101AD0001EE4FFEF75F006A42493F8E4F608F6EF91
:101AE00075F006A42495F8E4F608F6EF75F006A460
:101AF0002497F8E4F608F60FBF06D875258B22E484
:101B0000FFFE74C32EF8E6901F3E9342070EBE06FA
:101B1000F1EF42D4EF42F4EF42E4EFF452DC75BA55
:101B20000C43BA2043B92053B9BF8FB4E4F5B37561
:101B3000B22775B11075BBFF75A95075AA3BF5ABFF
:101B400075AC0375ADC075AEC0229000DFE0702F9C
:101B50001215401212DF12173B9000F2E0FF9000C6
:101B6000F6E0FEEF5E9000F2F0A3E0F51FA3E05276
:101B70001F9000F6E0521F9000F5E0521F800D12FA
:101B800015409000F3E0F51FA3E0521FAF1F12189D
:101B9000462208C3020503040106000704CB000027
:101BA0000000602D00C501020304050607080000BF
:101BB0000000000000000000000000000000000025
:101BC0000000000000000000000000000000000015
:101BD00000000000121D61E4F51E74C3251EF8E626
:101BE00075F003A4243BF582E4341EF583E493747A
:101BF0000193FA740293F91207F9E51E25E025E036
:101C0000244FF81207AF051EE51EC3940640CB22F1
:101C1000E4FE7C0674C32CF8E6901F3E9342060C4B
:101C2000BC08F1EF6005EE42D48004EEF452D4EE2D
:101C3000F4FF52F4EE42E4ED6005EE42EC8003EF77
:101C400052ECEF52DC227E007FCDE4FDED25E02456
:101C5000ADF582E4341DF583E493F4601DED25E0D9
:101C600024AEF582E4341DF583E493FCEF2DF58278
:101C7000E43EF583ECF00DBD10D22243F80875CD9B
:101C8000C053CC7F43CC4043CC2043CC1043CC0446
:101C900053CCFD43CB0243CB0153CBBF43E80853A6
:101CA000E5FC43E30243F503439003788A7601227F
:101CB000751900751ACD7B017A00BFFF057F017E83
:101CC0000022E51A2FF582E43519F583E07A00FB4E
:101CD0009000E3E0FCA3E0FDAF037E001205DBAA69
:101CE00006AB0722E4F518F519FFFEFD7C20ED1D7B
:101CF000AA0470011C4A601E0519E519AA18700291
:101D0000051814F5828A83E493F4FBE4F4FAEB2FCC
:101D1000FFEA3EFE80D822FE0030FE0038FE004082
:101D2000FE0048FE0050FE005800006F00007701E2
:101D300000F20100F30100F40100E10100DD010007
:101D4000DFFE0020FE0028E4F518F519FFFD7C20D9
:101D5000ED1DAA0470011C4A60160519E519AA18A0
:101D60007002051814F5828A83E493F42FFF80E053
:101D70002275BF0F000000000000000000000000FE
:101D8000000000000000D2D853B9FD43B901E5B905
:101D900030E1FBE4F5BF22438901C28DD2A953B8DB
:101DA000FDE4F52BF52C9000E1F0A3F0A3F0A37473
:101DB00064F0758CD8758AF0D28CD2AF2200020103
:101DC00001020103010401050606050702080A09CC
:101DD000020A020B280C3C0D030E01FF01E4FE7DFC
:101DE0000674C32DF8E6901F3E9342060DBD08F120
:101DF000EF6004EE428022EEF452802253BAFEE5F8
:101E0000B920E004E52E6005E5B930E1FBE4F5BF5B
:101E100053B9FE53B9FD22AB07AA06D3EB9DEA9C4A
:101E20004007EB9DFFEA9CFE22C3ED9BFFEC9AFE70
:101E300022EF600543D504800353D5FB53F5FB53D4
:101E4000E5FB43E304E49000F1F022FF1E90FF1E47
:101E5000A3FF1EB6FF1EC9FF1EDCFF1EEFFF1F0201
:101E6000FF1F1575BF0F43B92053B9FD43BA017564
:101E70002E0143B901D2D822AB07AF04AE05C2AFE1
:101E8000A803A607E804F8A606D2AF22ED6008EF83
:101E9000901F3E93428022EF901F3E93F452802287
:101EA00053B9EF78CCA6B708A6B608A6B578CB127A
:101EB00007962253B9EF78CCA6EB08A6EA08A6E964
:101EC00078CB1207962253B9EF78CCA6F308A6F286
:101ED00008A6F178CB1207962253B9EF78CCA6FB6F
:101EE00008A6FA08A6F978CB1207962243B910780B
:101EF000CCA6B708A6B608A6B578CB12079622439B
:101F0000B91078CCA6EB08A6EA08A6E978CB1207A8
:101F1000962243B91078CCA6F308A6F208A6F17869
:101F2000CB1207962243B91078CCA6FB08A6FA0874
:101F3000A6F978CB12079622C2DA53D80F43D8D02D
:101F4000D2D8D2D922EF6003D29222C292220102C9
:101F5000040810204080A1FFFFFFFFFFFFFFFFFFED
:101F6000FFFFFFFFFFFFFFFFFFFFFFFFFFFFFFFF81
:00000001FF
