:100000005555AAAAD403000000000000000000001B
:1000100021960100000000000000000007D5880DB7
:10002000002810002D110000590200006F0200008E
:10003000850200009B020000B102000000000000E9
:10004000000000000000000000000000B5280000D3
:10005000C528000000000000C7280000D7280000C5
:10006000DB280000FF260000F528000039270000EB
:10007000F7280000FB2800000B2900001B290000C6
:10008000C7020000392900003B2900003D2900007B
:100090003F29000041290000432900000000000022
:1000A0000000000000000000000000000000000050
:1000B0000000000000000000000000000000000040
:1000C0000000000000000000000000000000000030
:1000D0000000000000000000000000000000000020
:1000E000D403000000F002F800F062F80AA090E8E3
:1000F000000C82448344AAF10107DA4501D100F0E3
:1001000057F8AFF2090EBAE80F0013F0010F18BF4D
:10011000FB1A43F001031847D4F30000F4F3000086
:100120000A444FF0000C10F8013B13F0070408BF1D
:1001300010F8014B1D1108BF10F8015B641E05D0BB
:1001400010F8016B641E01F8016BF9D113F0080F70
:100150001EBF10F8014BAD1C0C1B09D16D1E58BF02
:1001600001F801CBFAD505E014F8016B01F8016B39
:100170006D1EF9D59142D6D37047000000230024AC
:1001800000250026103A28BF78C1FBD8520728BFA7
:1001900030C148BF0B6070471FB5024802490EF0DE
:1001A000A7FF1FBD000810000028100010B510BDEB
:1001B000DFF80CD0FFF7F0FF02F0D9FC0FF099F850
:1001C0000028100003B4FFF7F1FF03BC0FF0C4F8E0
:1001D0001A4B19680868B0E8F00F80F309884FF0EF
:1001E000000080F311884EF00D0E704700000000F3
:1001F00003480068006880F3088862B600DF00BF2B
:1002000008ED00E0EFF309800C4B1A6820E9F00FCD
:10021000106008B54FF0200080F3118800F02FFD2A
:100220004FF0000080F31188BDE8084019680868A5
:10023000B0E8F00F80F30988704700BF0428100071
:1002400001B44FF0200080F3118801BC704701B465
:100250004FF0000080F3118801BC704740BA70472E
:10026000C0BA7047401E0028FCDC704700BE7047D3
:1002700040BA7047C0BA70471EF0040F0CBFEFF3CE
:100280000880EFF309804FF0010102F080BA1EF000
:10029000040F0CBFEFF30880EFF309804FF0020169
:1002A00002F075BA1EF0040F0CBFEFF30880EFF3F5
:1002B00009804FF0030102F06ABA1EF0040F0CBF70
:1002C000EFF30880EFF309804FF0040102F05FBA0A
:1002D0001EF0040F0CBFEFF30880EFF309804FF01E
:1002E000050102F054BA1EF0040F0CBFEFF30880B2
:1002F000EFF309804FF0000102F049BA10B504464F
:1003000000F029FC20460EF099FD044600F0BAFBEF
:10031000204610BD10B5040008D000F01CFC20469B
:100320000EF0BBFDBDE8104000F0ACBB10BD00F10D
:1003300008014FF0FF32C0E90112C16001610021E4
:1003400001607047002101617047426853684B604B
:1003500043688B605368996051604160086101682F
:10036000491C0160704710B50B685A1C02D000F19F
:10037000080202E0026904E05268546824689C4262
:10038000FAD953684B6099608A60516008610168CE
:10039000491C016010BDD0E901128A60D0E9011248
:1003A000516001694A68824201D182684A60002234
:1003B00002610868401E08607047000010B5031F06
:1003C0004FF0807420381C6081610021416140F849
:1003D000202910BD1D4810B5016841F47F0101605E
:1003E000016841F07F4101604FF0E0201849416110
:1003F00007210161174900200860FFF7F9FE00207E
:1004000010BD704711494FF080501C39086070478B
:1004100010B5FFF715FF0F480168491C016010BDBA
:100420000C490868401E086001D1FFF710BF7047F3
:10043000064910B51C394FF080500860FFF700FFE7
:1004400000F0D5FABDE81040FFF701BF20ED00E055
:1004500098990300002810002DE9F0410E46050090
:100460004FF000072AD05020FFF748FF040025D0A6
:10047000B84605FB06F0401CC4F84C80FFF73EFF71
:100480002060C0B105FB0601C4F838806160A0603F
:10049000691E01FB0600E563E060781EC4E9106098
:1004A000A06404F11000FFF742FF04F12400FFF7FD
:1004B0003EFF274602E02046FFF72CFF3846BDE806
:1004C000F08170B50446FFF7A3FF04F12405A06C8A
:1004D0000AE0606A50B1284600F0E6FC08B100F07E
:1004E00035FDA06C401EA0640028F2DC4FF0FF3602
:1004F000A664FFF795FFFFF78BFF04F11005606C12
:100500000AE0206950B1284600F0CEFC08B100F0A6
:100510001DFD606C401E60640028F2DC6664BDE86E
:100520007040FFF77DBF10B51346026C04466AB1F8
:1005300083B1E0680EF0FCFCE168206C091AE16010
:100540002268914202D26168081AE060A06B401CE8
:10055000A06310BDA0680EF0EBFC216CA0680844FD
:10056000A06061688842F1D32068A060EEE72DE9C1
:10057000FF41002582B01F46884604464FEA050623
:10058000FFF746FFA16BE06B814213D23A4641462A
:100590002046FFF7C8FF606A38B104F1240000F07C
:1005A00083FC012801D1FFF72DFFFFF739FF012060
:1005B00006B084E7049808B11DB106E0FFF730FFEC
:1005C0001DE0684600F098FC0125FFF729FF00F0C8
:1005D000C2FAFFF71DFF606C401C00D16664A06C7E
:1005E000401C00D1A664FFF71BFF04A9684600F079
:1005F00089FC30B12046FFF764FF00F043FA002089
:10060000D6E7FFF705FFA06BE16B884210D1FFF73B
:1006100007FF04F11000049900F02DFC2046FFF7BD
:1006200050FF00F02FFA0028AAD1FFF7EBFEA7E752
:10063000FFF7F6FE2046FFF744FF00F023FA9FE79E
:10064000944AC16C1268914201D000207047002387
:100650001A4619468BE72DE9F0411E4615460F460E
:100660000446FFF7EDFDA06BE16B884217D23246DE
:1006700039462046FFF757FFA06C411C03D0401CB1
:10068000A06401240CE0606A0028FAD004F1240080
:1006900000F00AFC0028F4D001202860F1E70024D3
:1006A000FFF7D5FD20460AE730B403680D46002B5E
:1006B0000CD0026CC1688C18C46041688C4200D3B5
:1006C000C360C168284630BC0EF032BC30BC7047F5
:1006D0002DE9FF43002683B09846894604463746F5
:1006E00000F12405FFF794FEA06B30B36948E6687B
:1006F0000068E06449462046FFF7D6FFB8F1000FD6
:100700000ED0E660606A28B1284600F0CDFB08B143
:10071000FFF778FEFFF784FE012007B0BDE8F08305
:10072000A06B401EA06320690028F3D004F11000E4
:1007300000F0BAFB0128EBD0ECE7059808B11EB138
:1007400006E0FFF76DFE1DE0684600F0D5FB0126D0
:10075000FFF766FE00F0FFF9FFF75AFE606C401CE1
:1007600000D16764A06C401C00D1A764FFF758FE5D
:1007700005A9684600F0C6FB30B12046FFF7A1FE90
:1007800000F080F90020C8E7FFF742FEA06B38B107
:10079000FFF746FE2046FFF794FE00F073F9A1E74D
:1007A000FFF73EFE2846059900F065FB2046FFF75F
:1007B00088FE00F067F9002894D1FFF723FE91E747
:1007C00070B515460E460446FFF73AFDA06BC8B15A
:1007D00031462046FFF768FFA06B401EA063606CA7
:1007E000411C03D0401C606401240CE020690028F7
:1007F000FAD004F1100000F057FB0028F4D00120DB
:100800002860F1E70024FFF722FD204670BD10B5F7
:100810000446FFF7FDFDA46BFFF702FE204610BD66
:10082000806B704710B504461B48002100EBC102E5
:100830005368A34203D1002240F8312002E0491C52
:100840000A29F3D32068FFF765FD2046BDE8104074
:10085000FFF760BD806B08B1002070470120704732
:10086000816BC06B814201D101207047002070472D
:1008700010B5094B002200BF53F832401CB1521C86
:100880000A2AF9D310BD43F8321003EBC2014860C5
:1008900010BD000004281000942A10002DE9F05F1C
:1008A0008346DDE90A6815469A46894648200C9F2A
:1008B000FFF724FD04004AD01FB9A800FFF71EFD72
:1008C0000746676338003FD0A900A5220EF075FBEC
:1008D0006FF0030101EB8501606B3546084420F0A1
:1008E00007074946102204F138000EF0B7FB00203C
:1008F00084F847000F2D00D30E25E5622086608620
:10090000201DFFF71FFD04F11800FFF71BFDC5F1C7
:100910000F012461A1615246594638466462FFF7CF
:100920004DFD2060B8F1000F01D0C8F80040FFF77E
:100930006FFDFB4D6868401C68602868DFF8E48341
:1009400040B1686968B331E02046FFF7E3FC4FF03F
:10095000FF3449E02C606868012827D15FF0000768
:1009600007EB870108EB8100FFF7E1FC7F1C0F2FED
:10097000F6D3ED48FFF7DBFCEB481430FFF7D7FC6C
:10098000E9482830FFF7D3FCE7483C30FFF7CFFCBD
:10099000E5485030FFF7CBFCE34828631430686328
:1009A00004E02868C06AB04200D82C60E06AE968B8
:1009B000884200D9E860A96A491CA962296988426D
:1009C00000D9286100EB800108EB8100211DFFF7B1
:1009D000BCFC0124FFF724FD686928B12868C06ABF
:1009E000B04201D2FFF70EFD2046BDE8F09F2DE991
:1009F000F041CB4CA06920B1E069401CE061BDE84A
:100A0000F081A068401CA060A0684FF0FF3570B96D
:100A1000206B616B21636063606A401C6062206BC5
:100A20000068A8B1206BC068C0684068E062A06838
:100A3000E16A8842E3D3BB4F206B006850B1206B62
:100A4000C068C668A1687068814205D2E062D6E7D6
:100A5000E562ECE7E562D2E7301DFFF79CFCB06A87
:100A600018B106F11800FFF796FCF06A2169884278
:100A700000D9206100EB800007EB8000311DFFF7FB
:100A800064FCD9E72DE9F0470026FFF7C1FCA44C30
:100A9000A069401EA061A069A8BB606898B3DFF898
:100AA0008882002508F12808DFF878921AE0C068EB
:100AB000C76807F11800FFF76EFC381DFFF76BFCE5
:100AC000F86A2169884200D9206100EB800109EBB6
:100AD0008100391DFFF739FCF86A2168C96A88422C
:100AE00000D30125D8F8001040460029DFD1E06985
:100AF00028B909E0FFF77BFFE069401EE061E0698B
:100B00000028F7D105E009E0012D02D0206A012874
:100B100004D1002001262062FFF774FCFFF780FC5F
:100B20003046BDE8F08770B57D4C054620684560CD
:100B3000A0682168854201F1040104D2606BBDE820
:100B40007040FFF710BC206BFFF70DFCE06A854298
:100B500000D2E56270BD72488169491C81617047AD
:100B600010B50B460246FFF7F6FF10686C49C41833
:100B70008B68984205D9A0420ED98868844202D871
:100B80000AE0A042F9D914600868001DFFF703FCD1
:100B90002046FFF7C8FF00E01460FFF773FF00284E
:100BA00003D1BDE81040FFF72DBC10BD10B5020009
:100BB0000FD0FFF7D0FF5A48816800688C18001DDD
:100BC000FFF7E9FB2046FFF7AEFFFFF75BFF0028CA
:100BD00003D1BDE81040FFF715BC10BD10B50446A9
:100BE000FFF716FC0CB94E480468E46AFFF718FCDE
:100BF000204610BD2DE9F04100270D4606460F297D
:100C000000D30E25FFF704FCDFF81481D8F80000AC
:100C1000864201D1002608E03EB13446E06AA8428F
:100C200029D0854204D926B904E0D8F80040F5E778
:100C300006B90127C5F10F01E562A161394D00EB4D
:100C40008000616905EB8000814210D1201DFFF713
:100C5000A2FBE06AD8F810204146904200D9086112
:100C600000EB800005EB8000211DFFF76EFB012FDC
:100C700001D1FFF7C7FBBDE8F041FFF7D1BB284822
:100C80008269284922B1012101627047521E026126
:100C9000026902EB820251F82220002A0269F5D093
:100CA00002EB820201EB82014A68526801F10803FB
:100CB0004A609A4201D152684A60D1680160704727
:100CC00070B50646FFF7A4FB154D2868864201D192
:100CD000002619E0C6B13446201DFFF75CFBA06A70
:100CE00018B104F11800FFF756FB0F48211D3C30E6
:100CF000FFF72BFBFFF794FB002E0FD1686928B19B
:100D0000BDE87040FFF77EBB2C68E5E706483C3045
:100D100000686968884209D10020286070BD000021
:100D200004281000E42A1000102C1000BDE87040C8
:100D3000A5E7F04B426900219A4206D1806AA3F1EF
:100D40001402904201D000B901210846704770B5E5
:100D50000400E3D0E84D28688442DFD0FFF758FB59
:100D60002046FFF7E6FF012816D1201DFFF713FBF1
:100D7000E06A2969884200D92861E04900EB8000D7
:100D800001EB8000211DFFF7E0FAE06A2968C96ADB
:100D9000884201D3FFF736FBBDE87040FFF740BB48
:100DA000BCE770B500260446FFF7C3FF01281FD13A
:100DB000D14DA86920B1CF4804F11801143815E0CD
:100DC000E06A2968C96A884201D3012600E000264A
:100DD000201DFFF7E0FAE06A2969884200D92861FE
:100DE000C64900EB800001EB8000211DFFF7ADFA42
:100DF000304693E7C14C2068012801D9FFF702FB78
:100E00000DF064FCF7E71FB50024009401940294F0
:100E100023464022BAA1BC480394FFF73FFD0128B6
:100E200009D1FFF70DFAB448012141618460BDE8A2
:100E30001F40FFF7CFBA1FBD10B5FFF701FAAE494B
:100E400000204861BDE81040FFF7DBBA10B5FFF79E
:100E5000DFFAA9488468FFF7E3FA204610BD10B511
:100E6000FFF7EEF9A4488468FFF7F1F9204610BDBA
:100E7000A1484068704770B59F4D0C4629681831ED
:100E8000FFF771FA2868001DFFF785FA601C04D08F
:100E9000A8682044BDE8704045E62968BDE8704078
:100EA000091D9448FFF751BA70B5C068C46804F1D1
:100EB00018000646FFF76FFA8F4DA86918B18D48E4
:100EC000314614380DE0201DFFF765FAE06A296904
:100ED000884200D92861894900EB800001EB80003D
:100EE000211DFFF732FAE06A2968C96A884201D3F6
:100EF000012013E7002011E77F494A6A02608968F0
:100F00004160704770B50D460446FFF781FA2868C6
:100F1000411C14D0784A2168536A994203D0616811
:100F2000936899420DD9616893685B1A834208D22D
:100F30009268511A401A28602046FFF7DDFF00240E
:100F400000E00124FFF76CFA2046E7E66A49012039
:100F5000086270476848006870476748416919B17E
:100F6000806918B102207047002070470120704747
:100F700070B5614D064639B14FEA0104FFF748FAF2
:100F8000208E304211D101E02C68F7E7201DFFF7D9
:100F900002FAA06A18B104F11800FFF7FCF95548ED
:100FA000211D1430FFF7D1F96686FFF739FA686919
:100FB00018B1BDE87040FFF725BA6868012802D073
:100FC000BDE870405BE600202860A7E670B50546E6
:100FD00009B9494801680C46FFF71AFA608EA84320
:100FE0006086208EA8432086BDE87040FFF718BABF
:100FF000404B4269002114339A4206D1806AA3F122
:101000002802904201D000B901210846704770B50E
:1010100006460C002BD0384D2868844227D0FFF7B5
:10102000F7F9208E30432086608E30421BD0204658
:10103000FFF7DEFF012816D1201DFFF7ACF9E06AAB
:101040002969884200D928612C4900EB800001EB16
:101050008000211DFFF779F9E06A2968C96A884292
:1010600001D3FFF7CFF9BDE87040FFF7D9B955E6D6
:1010700070B5002605460C000DD0FFF7E1F8208E74
:1010800028432086608E284227D02046FFF7B0FFF5
:10109000012802D021E0304640E6174DA86920B172
:1010A000144804F11801143815E0E06A2968C96A87
:1010B000884201D3012600E00026201DFFF76BF9CE
:1010C000E06A2969884200D928610C4900EB800058
:1010D00001EB8000211DFFF738F9FFF7B8F8DAE7D8
:1010E000054810B50468FFF793F9248EFFF798F9C7
:1010F000204610BD4C2C100004281000E42A1000DB
:1011000049444C4500000000D50D0000F0B5844670
:10111000002004460C4F14E05CF824600323DD003B
:1011200046FA05F280EA02600825002802DA87EA1A
:10113000400000E040006D1E002DF6DC5B1EEED589
:10114000641C8C42E8DBF0BD1B0000800D4880472A
:101150000D480047FEE7FEE7FEE7FEE7FEE7FEE795
:10116000FEE7FEE7FEE7FEE7FEE7FEE7FEE7FEE757
:10117000FEE7FEE7FEE7FEE7FEE7FEE7FEE7FEE747
:10118000FEE7FEE799110000C50000004FF0005196
:1011900091F8210010F00C0008D0042808D008288D
:1011A00008D0782001F8280F087070470F20F9E761
:1011B0001E20F7E73C20F5E77047000010B508490E
:1011C000042001240023C1F8FC00064A14601360C7
:1011D000054BA0221A70C1F8FC01C86710BD0000C1
:1011E00084E000E0D403002202E400E010B5042013
:1011F00000F0D6F8052000F0D3F8062000F0D0F873
:10120000072000F0CDF8082000F0CAF87649002049
:10121000086075492031086074490880724A121DBF
:101220001060714A2432106088806F4A0832106062
:101230006D4A2832106008816B4A0C3210606A4A8D
:101240002C3210608881684A10321060664A303251
:10125000106008820621042000F0BAF8062105205B
:1012600000F0B6F80621084600F0B2F80621072083
:1012700000F0AEF80421082000F0AAF8042000F0E5
:101280009BF8052000F098F8062000F095F807205C
:1012900000F092F8082000F08FF8042000F074F8B5
:1012A000052000F071F8062000F06EF8072000F02D
:1012B0006BF8BDE81040082000F066B800EB800035
:1012C0004FF6FF7101EA4001474800220260C20662
:1012D0001186012101607047434900200860704772
:1012E00000EB80004FF6FF7101EA40013E4800220A
:1012F000001D02604FF0005291860121016070478D
:1013000039490020091D0860704700EB80004FF646
:10131000FF7101EA400134480022083002604FF0BA
:10132000005211870121016070472F4900200831C8
:101330000860704700EB80004FF6FF7101EA400142
:10134000294800220C3002604FF0005291870121A1
:1013500001607047244900200C310860704700EBA1
:1013600080004FF6FF7101EA40011F480022103053
:1013700002601E4A0E3211800121016070471A4935
:10138000002010310860704700F01F0201219140D9
:1013900040094FF0E02202EB8000C0F800117047D6
:1013A00000F01F020121914040094FF0E02202EBC2
:1013B0008000C0F88011704700F01F0201219140A9
:1013C00040094FF0E02202EB8000C0F88012704725
:1013D0004907090E002803DA00F00F00044A00E074
:1013E000044A815470470000240500223200002086
:1013F00014ED00E000E400E0594801210160002103
:101400000160704757480121016000210160704769
:1014100010B5002000F08BF8534800220260FFF75F
:10142000F1FFFFF7E9FF514802605149A020087021
:10143000002000F088F8BDE81040002000F06BB8F4
:101440004A4801211C38016000210160704710B535
:101450000446002000F06BF8434841490460012035
:101460000860002000F06FF8BDE81040002000F098
:1014700052B830B53C4889B00468002C11D0202106
:1014800068460DF0C4FD3B4800783A4B00216A469F
:101490005B1C02E0CD5C5554491C8142FADB1146CD
:1014A000A04709B030BD2E4901201C3908607047A3
:1014B0003048203000782F4921310978401A00F057
:1014C0003F0070472C4902780A7042784A7082784F
:1014D0008A70C278CA7002790A7142794A71827937
:1014E0008A71C079C8717047244800684178827851
:1014F0004FF00050437A0374214B1B7843744389A7
:101500001B0A83744389C37401754275C17981755F
:10151000017AC175704700F01F0201219140400916
:101520004FF0E02202EB8000C0F80011704700F09D
:101530001F020121914040094FF0E02202EB8000A0
:10154000C0F88011704700F01F020121914040094E
:101550004FF0E02202EB8000C0F8801270470000DC
:101560005C840022A00000223C2810007C040022A1
:1015700000E400E000040020000200204C281000DD
:10158000A428100010B5092000F02AF80A2000F065
:1015900027F8092000F030F80A2000F02DF8052186
:1015A000092000F035F805210A2000F031F81E4826
:1015B0007F21417081700171002100F848191B4999
:1015C000096891F8C810CA0709D08A0707D510F82A
:1015D0004A2FC1F38203012199408A43027010BD52
:1015E00000F01F020121914040094FF0E02202EB80
:1015F0008000C0F88011704700F01F020121914067
:1016000040094FF0E02202EB8000C0F880127047E2
:101610004907090E002803DA00F00F00044A00E031
:10162000044A815470470000480000204C281000F4
:1016300014ED00E000E400E0704710B5A44C072072
:1016400060700020207044F2C000608000BF00BFC6
:1016500000BF4CF2C000608000BF00BF00BF4CF272
:10166000E00060800920FEF7FDFD44F2E0006080AC
:1016700000BF00BF00BF4FF48040608010BDF0B5D8
:1016800000252E464FF00054E02716E0883401F084
:101690003F0160702170678000BF00BF00BFD4F8B9
:1016A00008C043F825C06680883C00BF6D1C521EF0
:1016B000491C3F2901D9401CC0B2002AE6DCF0BD1C
:1016C0002DE9F047824C0026A41C05462680DFF851
:1016D00004920121C9F880104FF4C058A4F800808A
:1016E00000BF00BF00BF00BF00BF4FF4805727807E
:1016F0003520FEF7B7FD2680FFF79FFF00F0A9F821
:101700005C2000F0B7F82B46012202210720FFF7EA
:10171000B6FF2B1D012203210620FFF7B0FF05F1C4
:101720000803012204210520FFF7A9FF05F10C039E
:10173000012203210720FFF7A2FF05F11003012278
:1017400004210720FFF79BFF00F083F8FFF775FFE8
:10175000278000BF00BF00BF00BF00BF00BF00BFA9
:1017600000BF00BF00BFA4F8008000BF00BF00BFE3
:1017700000BF00BF4FF440602080C9F88060BDE822
:10178000F0872DE9F0439946079B002603B1802698
:101790000023504C1F4665044FF001081DE000BFB8
:1017A00085F8890001F03F0C4CEA060C85F888C0EA
:1017B00059F823C0C5F88CC0C4F8B080C4F8B07024
:1017C000491CC9B2402902D3401CC0B20021D4F840
:1017D000C0C0BCF1000FFAD15B1C9342E0DBBDE856
:1017E000F0834FF0005282F88900002319B1802065
:1017F00082F8880001E082F8883036480121C0F87C
:10180000AC10C0F8AC3000BFD0F8C0100029FBD13C
:10181000704738B50C4605460021F820FFF7E1FF78
:101820000020014600902B462246F820FFF7A9FF32
:1018300038BD38B50C46054601210020FFF7D1FF21
:101840000120002100902B4622460846FFF799FF11
:1018500038BD10B51E4C4FF48040A41C20800420DD
:10186000FEF700FD0020208000BF00BF00BF00BFCA
:1018700000BF10BD70B5164C2126A41C268000BFE9
:1018800000BF00BF00BF00BF40F02105258000BFA2
:1018900000BF00BF00BF00BF44F221010843208009
:1018A0000420FEF7DFFC258000BF00BF00BF00BFA3
:1018B00000BF268000BF00BF00BF00BF00BF0020E8
:1018C000208000BF00BF00BF00BF00BF70BD000090
:1018D0008800002000100022F8B5FD4C0026354697
:1018E00026700120A66000F050FC0E2000F04DFC98
:1018F0000D2000F04AFC0C2000F047FC032000F013
:1019000044FC012000F04DFC0E2000F04AFC0D20AC
:1019100000F047FC0C2000F044FC032000F041FCE8
:1019200000F074FD6A460221EA4800F0E0FEEA4950
:101930009DF8010008709DF80000422800D00326A1
:101940000521012000F039FC05210E2000F035FCB6
:1019500005210D2000F031FC05210C2000F02DFCAC
:101960000621032000F029FC012000F002FC0E20DB
:1019700000F0FFFB0D2000F0FCFB032000F0F9FB62
:10198000A57065703046F8BD70B5D14BD888C0F3EE
:101990008001C0F34016C0F300247140C0F3C022A0
:1019A0006140C0F3803551406940400840EAC13091
:1019B000D88070BD38B520F040400D4600901446E8
:1019C0000421684601F04EFAC4494978C90602D597
:1019D000062D00D1401C0099616484F8420038BD96
:1019E000906470472DE9F047BD4D0646BB4C286812
:1019F00090F83404800718D5607840F0800060705B
:101A0000FFF7C2FF296800F00700084490F835048A
:101A100084F83100FFF7B8FF2968C0F302100844CA
:101A200090F83504800084F83000002084F83A00F3
:101A3000AC484FF0E908C0F30E074FF00109042E3F
:101A400006D0032E1AD0022E37D0052E4CD072E0CD
:101A5000A24A3146606AFFF7ADFFA06AA064A7877B
:101A6000607880060028286890F88B0701DA40F03B
:101A7000060084F8410084F83E805CE0974A3146D5
:101A8000606AFFF797FFA06AA0649448042124309D
:101A900001F0E8F9934901EB8000C0F30E00A08744
:101AA000607880060028286890F88B0701DA40F0FB
:101AB000060084F84100ED2013E0884A3146606A50
:101AC000FFF778FFA06AA064A787607880060028E7
:101AD000286890F88B0701DA40F0060084F841008E
:101AE000E52084F83E0026E06078800623D528684B
:101AF000243400F2C930794A0178A173C178217485
:101B00004178E1748078207584F816903146206819
:101B1000FFF750FF7348C830C0F30E0020832868D9
:101B200090F88B0720F0060040F00200607784F800
:101B30001A80A4F12404286890F87A17C90708D0FD
:101B40006949C1F8009014F8400F40F0030020707C
:101B500008E0617890F8BA07890701D520F0030002
:101B600084F840005A484670BDE8F0475B4800F0F2
:101B7000EFBC2DE9F047594C4FF00009584E84F85E
:101B80003A90E123054684F83E303068DFF860C1C2
:101B90004F4F90F8881784F83F1090F87A175FEA53
:101BA000C1785249C1F30E022146497801D0012D76
:101BB00002D0062D1FD03AE0A37CFB7039710A23B6
:101BC000A37441F001016170A28790F8AD279CF8E1
:101BD000003002F0F00203F00F031A43227690F86F
:101BE000B4076076C80602D5F12084F83E003B4A6F
:101BF0002946012017E0A28790F8AD279CF800C085
:101C000002F0F0020CF00F0C42EA0C02227690F87F
:101C1000B4076076C80603D543F0100084F83E0090
:101C20002E4A2946A068FFF7C5FEE068A0646078E8
:101C3000410794F83F1002D521F0020105E0326817
:101C400092F8882702F00202114384F83F10C1077E
:101C500005D094F83E1041F0020184F83E1031683E
:101C600091F87A27D20716D0062D04D0072D02D07E
:101C7000012D05D017E014F8400F20F0030008E014
:101C80001949C1F8009014F8400F20F0030000F14A
:101C90000200207007E0800791F8BA0701D520F014
:101CA000030084F840007D70BDE8F0470B4800F069
:101CB0000BBC06281ED007281CD001281AD00428E7
:101CC00005D0032803D0052801D0022813D189E6C6
:101CD0004028100004100020A4281000742C1000CC
:101CE0004C28100080840120280A00220080012056
:101CF000F60710003DE770472DE9F843F94D81469E
:101D0000012901D1002068716C79F84F641CF64EEE
:101D1000A7F124080FE0306890F87A07C00702D0D6
:101D200057F8242001E058F8242069464846904797
:101D3000012805D0641C082CEDD90020BDE8F883EB
:101D40006C719DF80000F9E770B5017800292CD07E
:101D500001464C22E64801F051FBE34E306890F812
:101D60007A07C0070AD0E248017811F0760F05D053
:101D70004278920702D441F080010170D94D687811
:101D8000002812D10121DA48FFF7B6FF04000CD079
:101D9000306890F81801000708D500F09AFC01207F
:101DA000A8700A2000F082FB6C7070BD00202870C3
:101DB0002046BDE870407CE70020704782689200B2
:101DC00005D00078000602D5012008707047002079
:101DD00070478268920006D00078C00703D00620C2
:101DE00008700120704700207047C269920006D039
:101DF0000078000703D507200870012070470020F5
:101E00007047426A920008D0826A32B10078800638
:101E100003D5022008700120704700207047426AF5
:101E2000920006D00078C00603D505200870012076
:101E3000704700207047426A920006D00078800701
:101E400003D5042008700120704700207047826A83
:101E500032B10078400703D5032008700120704795
:101E60000020704700200870012070471FB500F067
:101E70009AFA01208DF800009E48019000F59060CC
:101E80000290C83003909A484168684688471FBD51
:101E90002DE9F05FDFF850A2974E0025DAF8000038
:101EA0004FF0010B90F87017C9073AD090493531BF
:101EB0000A784F78B2FBF7F807B90127894CDFF8A9
:101EC00038926178042907D1407D2225420009EB30
:101ED00040018A4801F092FA6078032813D18448BF
:101EE00040250421243000F0BDFFDAF8002009EB82
:101EF0008006107D527D00EB420209EB4201420058
:101F00007F4801F07BFA20466478022C0AD0052C29
:101F10000BD0042C10D0032C0ED0022C0CD0052C8E
:101F20000AD096E06225744E06E0DAF80010724E90
:101F3000222591F87187C83681688946414575DC4C
:101F4000B9F1000F04D14FF4C8716E480DF05FF87D
:101F5000644A6C48042C03D0032C01D0022C0BD112
:101F6000002107E050F8213036F911C0634440F8F1
:101F70002130491CA942F5DB052C0BD1002107E0DB
:101F800050F8213036F911C0634440F82130491C23
:101F9000A942F5DB09F101019160414554DB0021C3
:101FA0009160042C03D0032C01D0022C38D1DAF834
:101FB00000105346D1F8744700212FE0D3F800C039
:101FC0009CF851815FEAC86819D5DFF83C8198F820
:101FD0000080B8F1010F12D192F80180B8F1040F1E
:101FE0000DD19CF815C08C4509DD8C4430F821805A
:101FF00030F82CC0C444DFF8148128F811C030F840
:1020000021C0DFF80C810CFB07FCACEB040C26F8BC
:1020100011C050F821C048F821C0491CA942CDDBAD
:102020005178052915D100213A4A0AE011E000BF94
:1020300030F8213026F8113050F8213042F82130A4
:10204000491CA942F4DB04E02046FFF732FE4FF0C2
:10205000000B5846BDE8F09F2DE9FF41244D6878FC
:10206000400603D4FFF714FF002816D01E4F1D4C66
:10207000386890F87A07C00708D06078012805D141
:10208000E078A8742079687007F006FA00211848F3
:10209000FFF732FE18B1FFF70CFEBDE8FF81002606
:1020A0006670386890F87A17C90701D01A490E602F
:1020B0001A4AA421117390F81801000702D5A670DE
:1020C00000F002FB207801282AD08DF80060094832
:1020D000019009480290C8300390696868468847B3
:1020E000DBE70000402810004C281000A8F3000097
:1020F000742C10000080012080840120461A0120E9
:102100006A1A01209085012063281000B41D012067
:1021100020870120B0880120280A0022001000201A
:1021200002208DF80000D2E7294810B500684FF072
:10213000000290F818010107264806D58178012988
:1021400007D002290ED0032912D18270BDE81040B9
:102150008CE60221817000F0C1FABDE81040322007
:1021600000F0A4B9032181704078BDE81040A0E5DB
:1021700010BD00F01F020121914040094FF0E02204
:1021800002EB8000C0F80011704700F01F0201212F
:10219000914040094FF0E02202EB8000C0F880112E
:1021A000704700F01F020121914040094FF0E022EA
:1021B00002EB8000C0F8801270474907090E002822
:1021C00003DA00F00F00044A00E0044A815470472B
:1021D0004C2810004028100014ED00E000E400E05E
:1021E000F0B53A2500224FF480141146FE4B002032
:1021F000A65CC718521C401C87F860600C28F7DBEF
:1022000001F03F0040F0800083F83500491CA942EE
:10221000EDDBF0BD2DE9F0430024F34E8146254669
:10222000274600209C4206DA00EB060819F804C095
:1022300088F860C003E000EB060C8CF86070641C4A
:10224000401C0C28EEDB501900F03F00084340F022
:10225000800086F835006D1C032DE2DBBDE8F083BD
:1022600000B514233A220021E048FFF7D3FFDF48EE
:1022700020233D22002114305DF804EBCAE7DC483E
:102280000168D94801F29971183011F8122C00F840
:10229000112C11F8112C00F8102C11F8102C00F84A
:1022A0000F2C11F80F2C00F80E2C11F80E2C00F842
:1022B0000D2C0A7842704A7882708A78C270CA7887
:1022C00002710A7942714A7982718A79C271CA7936
:1022D00002720A7A42724A7A82728A7AC272C54A53
:1022E000127802730A7B42734A7B82738A7BC273C1
:1022F000CA7B0274BF4A521C127842744A7C8274B0
:102300008A7CC274CA7C0275BA4B0A7DDB1E02F05D
:10231000F0021B7803F00F031A4342754A7D827561
:102320008A7DC275CA7D02760A7E4276B14A921EC5
:1023300012788276AF4A521E1278C276CA7E02772F
:102340004A7F82778A7FC277CA7F80F8202091F8FF
:10235000202080F8212091F8212080F8222091F877
:10236000222080F8232091F8232080F8242091F85F
:10237000242080F8252091F8252080F8262091F847
:10238000262080F8272091F82F209B490A701E22D2
:102390000270332048740B20887470479748016896
:1023A0000029FCD1704796480022026094481C38EE
:1023B00002609448026101210161826081600260D3
:1023C000016002608D49A0F574700B68002BFCD190
:1023D00085490B7B43F020030B730B7B23F04003F9
:1023E0000B730B7B23F080030B730B7B23F0200319
:1023F0000B73C0F8D823C0F8E023834802707047FD
:102400007E48183001680029FCD1704730B57D48FE
:102410000024743004607B48803004607948C460D4
:102420000121C160C460046001600460724D20201D
:10243000AD1D287068706C49593D0873A42008735D
:102440006E48183001680029FCD1FFF7ACFFFFF798
:1024500016FFFFF705FFFFF7C3FE6C4804606B48EB
:1024600020300460AC8530BD5F49426C4A73130A6A
:102470008B73130CCB73130E0B7492FAA2F2B2FA95
:1024800082F24A7490F842208A74806CC874020AFE
:102490000A75020C4A75020E8A75820F81F8402077
:1024A00090FAA0F0B0FA80F0C87570475749002242
:1024B0000A600A0690850120086070474F48001F97
:1024C00001680129FCD1704710B50446FFF7CCFF25
:1024D0004948A18F401C0180434994F8402019319C
:1024E00081F82120424A126802F2997253784B70A7
:1024F00093788B70237CCB70238A1B0A0B71A37C8F
:102500008B77E37C8B74637D4B77237D00F8013CF4
:10251000A37DCB77E37DCB74237E0B7512780A7095
:1025200094F83E20427394F83F20543801F8112C5F
:10253000627ECA76314A1939121F1368012BFCD109
:1025400090F861000873BDE8104041F28830ADE7B3
:1025500070B50446FFF788FF4FF00053A08FA3F833
:1025600054002348016891F87A07C2071E4854D0E6
:102570006578B1F87D272D0691F8AA5709D594F80A
:102580003160354480F82A5094F830502A4492B291
:1025900001E080F82A508276120AC276193014F8C7
:1025A0002C2FC2712288120A0272A27802736288EA
:1025B000120A4273A2798277E27983F85320E27A91
:1025C000C277227B4275627BC275A27C83F8612050
:1025D000627D00F80E2C91F8992722F0070200F88E
:1025E0001929A27B2C3C13E000100020B802100037
:1025F0004C281000F907100053000020040B0022A3
:102600001C0C0022D00300224128100020050022CB
:10261000D20708D091F8CE1707E091F89A27827672
:1026200091F89B27B9E794F8341080F83610504998
:102630000A68012AFCD194F8401080F83A1093F807
:1026400061100173BDE8704041F288302EE74949BE
:10265000494B0A6892F8892702700A68B2F89E27E7
:10266000428009681B7801F2A27103F00F03CA7A55
:1026700002F0F0021A4302710A88C280B1F8052004
:1026800002814A7B8272CA7BC272897C0173704765
:102690003A49027801F80C2C82784A724288120A70
:1026A0008A7202790A7682794A73C288120A8A7318
:1026B000027A8A740289120ACA74827A8A76C27A83
:1026C0000A77007BC87770472C49042015390873B6
:1026D00070472A4920201539087370472749C020C0
:1026E000153908737047264900200860704770B597
:1026F0001F4C1C342368002BFCD11D4603E0C61878
:102700005B1C86F880508B42F9D32368002BFCD1E8
:1027100002E0C45CD4545B1C8B42FAD370BD10B58C
:10272000002000F004FF16490020086015480078DA
:10273000002810D00E48001D01680029FCD10F4868
:102740001538C078400602D50F4901200870BDE851
:102750001040FFF781BC10BD10B5002000F0E7FE6F
:10276000074900200860BDE81040FFF7DDBC00000D
:10277000000B00224C281000F60710001510002056
:10278000200500224128100040281000FEE70446E2
:10279000012006F0B1FF00210F20226806F0C1FFE2
:1027A00001210F20626806F0BCFF02210F20A26801
:1027B00006F0B7FF03210F20E26806F0B2FF0C21FC
:1027C0000F20226906F0ADFF0E210F20626906F08E
:1027D000A8FF0F210846A26906F0A3FF20210F20C1
:1027E000E26906F09EFF3948026821210F2006F0B9
:1027F00098FF36481038026822210F2006F091FF1A
:1028000032480C38026823210F2006F08AFF2F4837
:102810000838026824210F2006F083FF2B48001D92
:10282000026825210F2006F07CFF28483438026812
:1028300026210F2006F075FF24481438026827214E
:102840000F2006F06EFF224800683021C06AC0F1F8
:1028500006020F2006F065FFFEE710B5012805D03F
:10286000022805D0032809D0032102E0012100E05D
:102870000221BDE81040032006F03EBF00210320E6
:1028800006F03AFFFEE710B504460146042006F0C4
:1028900033FF012C00D1FEE710BD0146082006F0F1
:1028A0002BBF0146062006F027BF10B5044601469F
:1028B000072006F021FF24B1012C03D0022C02D105
:1028C000FEE7FEE7FEE710BD0220EEE738ED00E090
:1028D0000428100010B5002000F029FEBDE81040CB
:1028E000FDF776BC704710B5002000F020FEBDE873
:1028F0001040FDF787BCFDF79BBD1A4810B5016875
:1029000021F004010160002000F011FEBDE810403C
:10291000FEF7AFBD70470CF04EBA10B5002000F0C6
:1029200006FEBDE8104006F098BD10B5002000F08E
:10293000FEFDBDE8104007F01AB910B5002000F008
:10294000F6FD0948006890F82901800703D5BDE825
:10295000104006F096BD10BD704770477047704735
:102960007047704710ED00E04C28100010B5422170
:1029700090480CF02AFB8F488F49904A0180428092
:102980008F4981808F4BC3808F4C04818F4C448151
:102990008F4C84818F4CC4818F4C04828F4C448235
:1029A0008F4C84828F4CC4828F4C04838F4C448321
:1029B0008F4C84838F4CC4838F4C04848F4C44840D
:1029C0008F4C84848F4CC4848F4C0485C38742878A
:1029D00081878E49A0F840108D4801688B48B1F876
:1029E0009C274280B1F8A027C280B1F8A5170181C9
:1029F00010BDF0B585B0FF22142168460CF0DDFA59
:102A00006846FEF75DFE039803250127072645F279
:102A1000AA54A04202D00498A04239D1DDE90001B5
:102A2000884206D00299884203D00198884208D192
:102A300000900498A0420FD10098000E012804D005
:102A400006E00020FFF72DFF0FE00098C0F30137EC
:102A50000098C0F3032602E00120FFF722FF03984D
:102A6000A04213D1009800F007056A49887920F048
:102A7000F30207F0030040EA06101043887166482D
:102A8000017865F30201017005B0F0BD0220D9E7BD
:102A90000120FFF706FFF9E72DE9F0414FF000565E
:102AA0003F2086F82100FEF771FBFEF7B1FC584D80
:102AB00028680078A52802D00120FFF7E4FE5748D7
:102AC000006810B10020FFF7DEFE28684FF0000715
:102AD0004FF0010490F829118A074FF0085104D5EE
:102AE000C1F89873C1F8804301E0C1F8984390F8A9
:102AF00028114B4A01F00101116090F82811121DB4
:102B0000C1F34001116047490C60091F0C60091FA7
:102B10000C6090F8C800C1070AD0810708D5C0F33F
:102B20008200012804D116F8510F20F00700307000
:102B3000FEF782FDFEF75AFBFEF7CEFE032802D118
:102B40000020FFF78AFEFEF7CFFCFEF737FBFEF70B
:102B500019FDFFF74EFF286890F8290181073248D8
:102B600001D5046000E007600460BDE8F08110B5A5
:102B70004FF000514FF475704881FFF78DFFFFF75C
:102B8000F5FE2A493F2008602949002008602A48AC
:102B90002849016001F5AA6028490860FDF750FB4B
:102BA00000F04EF800F062F8FDF751FBFEF72BF94C
:102BB000012010BD000001200080012074A301202D
:102BC000F4A701204200012080840120E2190120A5
:102BD000061A0120DC1B0120001C01207C200120A2
:102BE000A0200120C2160120E6160120461A01206D
:102BF0006A1A01202C1D0120FC1D0120501D0120FE
:102C0000741D01207E190120A2190120FC3710003B
:102C10004C2810000010002020000020C8100022C6
:102C200088040022280A00227C040022AC1A012019
:102C3000A0281000C02C10007C2810008028100054
:102C400070B5454D002400210120FDF705FC45F835
:102C5000240020B1FDF7F4FC55F8240010B9002041
:102C6000FFF723FE641C072CEDDB70BD1FB53A484F
:102C7000012100240091001FCDE9010423464022D8
:102C800036A138480394FDF709FE012802D001203F
:102C9000FFF70BFE3048062100911838CDE90104FA
:102CA0000023402230A132480394FDF7F7FD0128AC
:102CB00002D00120FFF7F9FD2748052100911438C3
:102CC000CDE9010400234FF480722AA12C4803941B
:102CD000FDF7E4FD012802D00120FFF7E6FD1E48C4
:102CE000022100910838CDE901040023B42225A176
:102CF00026480394FDF7D2FD012802D00120FFF7FA
:102D0000D4FD1548042100911038CDE901040023B9
:102D10004FF4C8721EA121480394FDF7BFFD01289E
:102D200002D00120FFF7C1FD0B48032100910C38B0
:102D3000CDE9010400234FF4007219A11A4803944D
:102D4000FDF7ACFD012805D004B00120BDE810401E
:102D5000FFF7ABBD1FBD00002038100054736B5F40
:102D6000436D6400CDED000054736B5F52707400CE
:102D7000B59A000054736B5F5353797300000000E1
:102D80004D60000054736B5F53530000FB870000DD
:102D900054736B5F5363616E00000000C9930000C1
:102DA00054736B5F4D740000C3CE00002DE9F047F3
:102DB0009246012547F6F87256429946AC460024E1
:102DC000089F16E030F8143031F81480A8EB0303A4
:102DD0001BB29A4200DD1A469E4200DA1E46002BC4
:102DE00002DA4FF0000502E001DD4FF0000C04F1C3
:102DF0000104BC42E6DB55EA0C0306D0012D01D0EC
:102E00002DB108E0BCF1010F05D1002203E0BCF1B7
:102E1000010F00D1324600252C462B4611E000BFA1
:102E200030F8136031F813C01644ACEB060636B226
:102E30004E4505DAC9F1000C664501DD3544641CD8
:102E40005B1CBB42ECDB95FBF4F10A44002105E07E
:102E500030F8113013442AF81130491CB942F7DB1D
:102E6000BDE8F08770B5034600200246FE4C09E03D
:102E70009D5C521C05F00F0604EB1515A65D2D7820
:102E8000304428448A42F3DB70BD884200D30846B0
:102E90007047884200D808467047884200D30846E9
:102EA000904200D3104670472DE9F047D0F810C08B
:102EB0000568046A85FB0C12A1FB04124269436891
:102EC000914683FB02628269E246A6FB026776189E
:102ED000D0E9021781FB07C8C069ACFB00C81CEB36
:102EE000060682FB0A2CA2FB011280FB0902A0FB52
:102EF0000502401884FB0712A1FB03120818301AC0
:102F00004FEAE071ACE72DE9F04389B00446006870
:102F100000906068019020690290606803902069C9
:102F20000490A069059020690690A0690790E06967
:102F300008900D466846FFF7B7FF8046A0680190ED
:102F4000E06804906069079089466846FFF7ACFF27
:102F5000064660680190A068029020690490E068CD
:102F60000590A0690790606908900F466846FFF7D2
:102F70009BFFC5E90401C5E90267C5E9008909B0FD
:102F8000BDE8F0832DE9FF4F4FF0000A89B09B4662
:102F90005746D146D04656465546544620216846A7
:102FA0000CF035F80B9810E00999824431F91020A3
:102FB00000FB00F102FB01668844414302FB0099DB
:102FC00001FB004417440D44401C5845ECDD0B99AF
:102FD000ABEB0100401CCDE9000ACDE90654CDE978
:102FE0000486CDE9027968460A99FFF78CFF0DB097
:102FF000BDE8F08F9D480068017B427B41EA0221D9
:10300000827BC07B41EA024141EA00604000704798
:10301000964800680179427941EA02218279C079B3
:1030200041EA024141EA0060704700B5FFF7E2FF64
:103030004008400000BDF8B50E460446FFF7F5FF16
:103040000090FFF7D7FF054604216846FFF70AFF07
:1030500004EB400700240099204623464FF0010C62
:103060000CFA03F20A4207D02A4204D037F81020A3
:1030700026F81420641C401C5B1C122BF0DBF8BDEE
:10308000C6E7FCB50E460746FFF7CFFF0190FFF7F6
:10309000BFFF0090FFF7BCFF0546042101A8FFF722
:1030A000E1FE044604216846FFF7DCFE00EB440025
:1030B00007EB400700200099044603464FF0010C3F
:1030C0000CFA03F20A4207D02A4204D037F814203F
:1030D00026F81020401C641C5B1C202BF0DBFCBD80
:1030E00000B5FFF787FF40F0010000BD90E7604AA0
:1030F000520102EB810101F108510860704701EBB8
:103100004010801001EB41014900182291FBF2F3BD
:1031100000EB400000F5801002FB1311006820F066
:103120007F40C84000F03F00704701EB4010801026
:1031300010B501EB41014900182391FBF3F403FBA7
:10314000141300EB400000F580103F2401689C4000
:10315000A1439A400A430270110A4170110C817018
:1031600010BD2DE9F14FFFF7BBFF8046FFF750FF81
:1031700000258446A946AB46AA462F46012000FA00
:1031800007F111EA0C0F36D00024012D32DB37494C
:103190000968097D491EA9422CDD00260120B040A6
:1031A00010EA080F23D039463046FFF7A8FFE4B1F4
:1031B000022C1ADB2D4909684A7D521EA24214DDF9
:1031C000484512D0097D009A04FB015332F91330AF
:1031D00004F1010202FB0152009931F91210591A4F
:1031E00000D549428B440AF1010A8146641C761CD1
:1031F0001D2ED3DB6D1C7F1C202FBFDB9BFBFAF049
:10320000BDE8F88F2DE9F74F184B4FF0000B91B048
:1032100018681646DA4690F8770000F00F08C8F1F3
:103220001009FFF75DFF1090FFF7F2FE0025AC4696
:1032300003950F9001200F9A00FA0CF111427DD0F6
:10324000002106910C460591012D78DB074909689C
:10325000097D491EA94272DD002701201099B8405E
:10326000084270D0614605E0CCF300004C28100005
:10327000AC1A01203846FFF742FF0146F4B3022C96
:103280005BDBD6480068427D521EA24255DD039AA0
:10329000914290F87A201DD1007DBA4204FB005380
:1032A000119A0BDD32F91320631C03FB00531198B4
:1032B00030F91300101A23E0404223E032F91330B2
:1032C000621C02FB0052119830F91200181A2FE00C
:1032D00040422FE0BA4219DD007D119A04FB0053F1
:1032E00032F9132004F1010303FB0053119830F964
:1032F0001300101A00D54042129A00E01DE0801A17
:103300000028D9DB069A1044069016E0027D119839
:1033100004FB025330F9133004F1010000FB0252A8
:10332000119830F91200181A00D54042129A801AEA
:103330000028CDDB059A1044059002E01AE018E061
:1033400001E0641C03917F1C1D2F86DB022D0CDB2A
:1033500006990D98401A01D5C0F1000083440599E3
:103360000C98401A00D54042824406980D9005986A
:103370000C906D1C9948006890F87B00604518DD42
:10338000316801FB08F109FB0B104FEAE07100EB1B
:1033900011704FEA20103060B06800FB08F009FBA4
:1033A0000A004FEAE07100EB11704FEA2010B060A4
:1033B0001CE003D14FF0000BDA4617E0706800FB09
:1033C00008F009FB0B004FEAE07100EB11704FEAC7
:1033D00020107060F26802FB08F209FB0A204FEA35
:1033E000E07100EB11704FEA2010F0600CF1010C5D
:1033F000BCF1200FFFF61EAF14B0F9E504E000BFEA
:1034000011F8013B00F8013B521EF9D270477CB520
:103410000D460446FFF709FE0090FFF7F9FD019005
:1034200000980421400800906846FFF71BFD0646FF
:10343000042101A8FFF716FD3044820021462846EA
:10344000FFF7DCFF7CBD0B46644909684A7D097DB6
:10345000521C4A43014652001846CFE770B5044655
:103460004C210BF0D4FD00235C4D23706370286861
:1034700090F8CD0700F0010043EA40106070296821
:1034800091F88C17C1F3001140EA0110607063607D
:10349000FFF726FEA060FFF7BBFD514EE06070888D
:1034A0002082286800F2AC70C17AA174017F217576
:1034B000817A6175017BA1750178E1754949407890
:1034C000097800F0F00001F00F0108432076FFF7C3
:1034D000ACFD6062FFF79CFDA062F088A085E085EE
:1034E000286800F2AD70017F84F83210817F84F883
:1034F0003310C17F84F8341010F83B1C84F8351069
:10350000012184F83610417F84F83710417884F81F
:103510003810C17884F8391010F8021CE174407B2F
:1035200084F8400084F8313084F8303070BD10B534
:103530000446FCF785FE4FF00051012C09D12748C5
:10354000006890F81801400703D52748007805283F
:103550000CD091F821003F2804D03F2081F82100B1
:10356000FDF714FEBDE81040FCF771BE91F8210094
:103570003128F7D03120F1E7184B10B51A68947E46
:10358000640704D5D28A0468A2EB040202601A68B8
:10359000947EA40703D5128B0C68121B0A60026884
:1035A000002A00DA002202601C68E48AA24200DDE0
:1035B000224602600A68002A00DA00220A601C68BB
:1035C000248BA24200DD22460A601B689B7EDB073B
:1035D00002D003680B60026010BD00004C28100090
:1035E000FC371000F60710009428100010B50146B3
:1035F0001022FA48FFF702FFF94841684FF40060D3
:10360000FDF736FD002803D0BDE81040FCF7FABEF8
:1036100010BD70B594B006460D4614466846FFF7D7
:103620001DFF14F0050F02D001208DF8000040F6B8
:10363000E250044221D0EB48026892F85001C007E2
:103640000ED192F8020258B992F8E002C00707D1F1
:1036500092F86002C00703D192F8B001C0070CD005
:1036600092F87A07C0079DF8000002D040F00600EB
:1036700001E040F020008DF80000ADF82E50ADF8CC
:103680001060ADF82C50AFF29B00D44D03244FF4E2
:10369000006601906846FEF757FB00213046FDF7B3
:1036A00067FC00213046FDF791FC2878002804D003
:1036B000FFF7D3F8641E002CECDC14B070BD10B51D
:1036C0000446C00709D04FF49061C7480BF07DFC59
:1036D0004FF49051C5480BF078FC14F0420F07D01E
:1036E0002421C3480BF071FC4021C2480BF06DFC53
:1036F000A0060AD59021C0480BF067FCBDE8104039
:103700004FF48071BD480BF060BC10BD2DE9F04155
:103710000746B448006890F82010490710D590F883
:1037200021000125C0F3011085400024B44E05E0BE
:10373000F18870883A46FFF76CFF641CAC42F7DBF7
:10374000BDE8F0812DE9FF4F83B08046FFF7CEFC46
:103750000190FFF7C5FC009004216846FFF782FB4B
:103760000446042101A8FFF77DFB44439D48012640
:103770004FF42A61006890F8210000F00707BE406E
:10378000A0480BF044FC0025DFF87892DFF870A227
:10379000DFF848B21DE000BFBAF8061042460498B0
:1037A000FFF737FF18F0050F12D09749DBF8040038
:1037B00005F0A3F9944A0020494607E051F820306B
:1037C00032F910C0634441F82030401CA042F5DBC0
:1037D0006D1CB542E0DB18F0050F0CD00020494607
:1037E00007E000BF51F82020059B3A4123F8102044
:1037F000401CA042F6DB07B0BDE8F08F2DE9F74F83
:10380000784C84B092462068B0F83B100391B0F831
:103810003D10029190F85011C9070ED190F8021294
:1038200059B990F8E012C90707D190F86012C9079A
:1038300003D190F8B001C0077CD0FFF7F6FB0090F1
:10384000FFF71EFC019004216846FFF70BFB814641
:10385000042101A8FFF706FB484445002068A04664
:10386000264690F82100012400F00707BC40A9007B
:1038700064480BF0CCFB316891F8F002C20706D027
:10388000800704D491F8F102044405F0DAFD002623
:10389000C34630E05A48DDE904214088FFF7B9FE0D
:1038A000DBF800004D4990F8CD07D1F80880C0073B
:1038B00004D04246C968104605F0A6F8DBF80000BF
:1038C00090F8F002C10708D0800706D44F4940465F
:1038D00005F00AF870B1DFF834810020494907E0AB
:1038E00051F8203038F910201A4441F82020401CAB
:1038F000A842F5DB761CA642CCDB424C00215A469E
:103900001EE04048136850F8210093F8F06240FA36
:1039100007F05FEAC67C08D0B60706D593F8F162D7
:10392000761C4643B3F8F202301AB1EB490F02DAC3
:10393000039B01E01DE0029B184424F81100491C80
:10394000A942DEDB106890F85011C90703D190F846
:10395000B001C0070DD0049810F0220F09D0204606
:10396000DAF80010FFF767FB2046DAF80410FFF7DB
:1039700088FB40E72DE9F0479A461A4B894600211B
:1039800001251D4E1C681AE032F8113030F8117014
:10399000DB1B1FB200230AE003EBC30C06EB8C0C0D
:1039A0005B1C3CF811801BB2B8442CF8118094F8D1
:1039B00080C305EB9C1C9C45EEDC491C09B2637D71
:1039C0008B42E1DC00200D4A33E000BF3AF81030B2
:1039D00039F81010591A0BB2002122E0A03810005B
:1039E000083810004C28100042000120C2040120B9
:1039F000C2160120E61601208A1701203E18012078
:103A0000FC371000C02C100040890120C08D01201F
:103A100002EB8116491C36F8107009B21F4426F8D3
:103A2000107094F8806305EB96168E42F0DC401C13
:103A300000B2217D8142C9DCBDE8F0872DE9F0416B
:103A4000064610F00C0F17D0FE4D286890F8D000F5
:103A5000400711D5FC4F00242868002300EB4400E8
:103A6000B0F8021104EBC40007EBC0123046FFF7B8
:103A700069FE641C042CEFDB62E62DE9F047F14C93
:103A8000824686B0216800F4126091F880134907DD
:103A90003AD5002838D00025DFF8B083DFF8B0939E
:103AA000012615E000EB45001421B0F8B27368461A
:103AB0000BF0ADFA05EBC50108EB8100009009EBB6
:103AC000851001906A4639465046FFF797FE6D1CF7
:103AD000206890F8801306EB9111A942E2DC90F87F
:103AE0005011C90710D090F8911109060CD5407DEE
:103AF000D6494200D748FFF781FC2068D449007DB1
:103B00004200D548FFF77AFC06B095E7F0B540F2E1
:103B1000824185B010EA010532D000F41263C94831
:103B2000CE4A00240068D688012190F8802301EB5A
:103B3000921106E000EB4407B7F8B273BE4202D020
:103B4000641CA142F6DCA1421CDD51071AD5CBB1A1
:103B500090F85011C90703D190F8B001C0070FD0F9
:103B6000BA4904EBC40001EB80012422BC48FFF7F2
:103B700045FCB748402200EB8411BA48FFF73EFCF1
:103B800005B0F0BD142168460BF041FAB44800902E
:103B9000B44801906A4631462846FFF72FFEEFE70A
:103BA0002DE9F047A74C0125DFF8BC92206800F210
:103BB00056400188828811444F084188C0880844D3
:103BC00046080020014618E039F91130B2F8528455
:103BD000434503DBB2F84E8443450DDDB2F84E2475
:103BE0000025934208DD4FEA4C029F499F48FFF7AA
:103BF00005FC21680120497D491C226892F815C006
:103C00008C45E1D80022DFF8689218E039F91230CB
:103C1000B1F85484434503DBB1F8508443450DDDCE
:103C2000B1F8501400258B4208DD4FEA4C02904950
:103C30009048FFF7E3FB216801200A7D521C2168B0
:103C400091F814C09445E1D891F84924520701D560
:103C500001280AD0012D09D0242187480BF0B5F99D
:103C6000402186480BF0B1F90020E5E600207C4CAD
:103C7000814D024611E000BF34F91030B1F85AC44A
:103C8000634503DBB1F856C4634503DDFB1A25F831
:103C9000103001E025F81020401C4B7D8342EBD80A
:103CA0000020704D754C10E035F91030B1F85C749F
:103CB000BB4203DBB1F85874BB4203DDF31A24F8AE
:103CC000103001E024F81020401C0B7D8342EBD81B
:103CD000CAE72DE9F041804669480026374600785A
:103CE000800628D5002504E0012C02D14046FFF7CC
:103CF0000DFFFFF755FF0446012806D101F079F9C1
:103D000001266D1C032DEFDB17B1012E0CD00FE047
:103D10000120FEF7C2FD242157480BF056F940213F
:103D200056480BF052F906E056490878401C0870D6
:103D3000C22005F072FD434C01234F492068427DAB
:103D4000474804F0A5FB206801234C49027DBDE8EB
:103D5000F041444804F09CBBF0B53A480068437D0C
:103D6000017DB0F84C44B0F84A6447484B4300EB3F
:103D7000410500210A4608460AE000BF35F91070E7
:103D8000A74201DD491C02E0B74200DA521C401C88
:103D90009842F3DB914201DD0120F0BD0020F0BD2F
:103DA0002DE9F0418046394800252E4600788006EE
:103DB00023D50024294F0AE0012808D100F037FC60
:103DC000012579880023304A4046FFF7BBFCFFF706
:103DD000C3FF48B1641C032CEEDB012E04D0BDE808
:103DE000F0410020FEF759BDC12005F016FD012D60
:103DF00003D124490878401C0870A1E42DE9F04162
:103E0000234D002307465C1E224619462868FCF70E
:103E10005FFC002322461946E868FCF759FC17F0BE
:103E200040040AD024220E491A48FFF7E7FA19483D
:103E300040220C492430FFF7E1FA3846FFF73FFCF7
:103E400015482BE04C281000C20401208A170120DD
:103E50003E1801201A1801203E190120FC371000DD
:103E6000C2160120E6160120461A01202C1D012051
:103E70006A1A0120FC1D0120888E0120AC8E0120D1
:103E80005C281000A52810004200012058281000CE
:103E9000203810003C381000542810000178012907
:103EA00004D1002101703846FFF730FC3846FFF797
:103EB000C5FD3846FFF7E1FD17F0010606D08D4835
:103EC00000238D4A41883046FFF73CFCF0078B4EBB
:103ED00016D0306890F82000000709D58648FFF713
:103EE00040F98749874A086001468348FFF78AF905
:103EF000306890F84904C00702D03846FFF750FFF9
:103F00003846FFF703FE306890F84904800702D571
:103F10003846FFF7DEFE5CB1306890F8800340075A
:103F200006D57B49784B794AA1F12400FFF722FDA1
:103F30007849012008707849087005F077FA2868F8
:103F4000FCF77EFBE868BDE8F041FCF779BBF0B414
:103F50006A490022714C0B68B3F80211814214D2F5
:103F6000B3F80811814201D803220EE05FF001018D
:103F700003EB4105B5F80251A84201D10A4602E01F
:103F80000DD2A1F101028A420DD102EBC20004EB75
:103F9000C011F0BC4FF490625748FFF72FBA491C8C
:103FA0000429E5DBF1E703EB4103534DB3F80021AE
:103FB000B3F80231801A00029A1A90FBF2F301EB77
:103FC000C10100204FF4107604EBC11101EB400257
:103FD000A2F5906231F91040B2F90020A41A5C43B6
:103FE00002EB242225F81020401CB042EEDBF0BC8E
:103FF00070472DE9F04141490025494A0968494E79
:10400000B1F8B23383421AD291F880339C0901EBA4
:104010004407B7F8B27387420AD9012404EB93131B
:1040200013E000BF01EB4407B7F8B273B84201D107
:10403000254602E008D2A4F10105A5421CD191F861
:104040005001C00708D103E0641CA342EADCF6E794
:1040500091F8B001C0074CD005EBC50002EB800120
:1040600024222A48FFF7CAF906EB8511BDE8F04182
:1040700040222548FFF7C2B901EB4405B5F8B0333B
:10408000B5F8B253C01A0002EB1A90FBF3F391F8A3
:104090005001C00703D191F8B001C00729D01B4DD2
:1040A00004EBC401002002EB810100BF01EB4002E0
:1040B00031F9107032F9242CBF1A5F4302EB27222A
:1040C00025F81020401C1228F0DB0F4D002006EBD5
:1040D000841100BF01EB400231F9104032F9402C4D
:1040E000A41A5C4302EB242225F81020401C20284F
:1040F000F0DBC1E4FC371000420001204C28100026
:104100008428100060371000E6160120C216012036
:1041100060381000622810008F281000C2040120AF
:104120008A1701203E1801202DE9FC5F0024A146DA
:10413000A646A3460226FE4A1268537D127D5B1EE8
:10414000951E2EE002FB06F701EB470C00EB47073C
:10415000BCF902C0B7F90270009702271EE000BF49
:1041600006FB0278CDF8048031F918A030F91880E8
:10417000CDF80480E2450BD0DDE9008CBCEB080CE7
:1041800001D5CCF1000C644409F1010C1FFA8CF943
:10419000DDF80480D4467F1CCDF80080BD42DFDA14
:1041A000761CB342CEDAB9F1000F01D0B4FBF9F4BA
:1041B000022639E002FB06F701EB470C00EB47074C
:1041C000BCF902C0B7F9027000974FF0020728E06F
:1041D00006FB027931F919A030F91990BAEB0C0CF1
:1041E00001D5CCF1000C0FFA8CFCDDF80080BCF19D
:1041F000000FA9EB080C06D0BCF1000F01DACCF1DE
:10420000000CACEB040CBCF1000F01DACCF1000C9B
:104210001FFA8CFCF44500D9E646D4467F1CCDF845
:104220000090BD42D4DA761CB342C3DA012635E0F1
:1042300006EB420731F917C030F9177000974FF0BD
:10424000030728E007FB026931F919A030F919903A
:10425000BAEB0C0C01D5CCF1000C0FFA8CFCDDF89C
:104260000080BCF1000FA9EB080C06D0BCF1000FD8
:1042700001DACCF1000CACEB040CBCF1000F01DA5C
:10428000CCF1000C1FFA8CFCDC4500D9E346D44687
:104290007F1CCDF80090BB42D4DA761CB542C7DA59
:1042A00002B05A467146BDE8F05F032005F0F8BA47
:1042B0000388934200D902800888904200D20A8085
:1042C0007047F0B587B00646002047F6FF71ADF89D
:1042D0000810ADF80400ADF81010ADF81400022776
:1042E000934C10E0012508E007FB005001A936F8C7
:1042F000102002A8FFF7DCFF6D1C2068007D411E26
:10430000A942F1DC7F1C2068407DB842EADC002530
:1043100012E0284405A936F8102004A8FFF7C8FFCA
:104320002068417D007D01FB005005A936F8102072
:1043300004A8FFF7BDFF6D1C2068007DA842E8DCE3
:10434000012514E0007D05A9684336F8102004A873
:10435000FFF7AEFF2068691C007D484306EB400074
:1043600005A930F8022C04A8FFF7A2FF6D1C2068F5
:10437000417D491CA942E5DCBDF80420BDF80810C8
:10438000012005F08DFABDF81420BDF810100220B0
:1043900005F086FA07B0F0BD70B50C460546FFF78C
:1043A00090FF21462846BDE87040BDE610B50146A5
:1043B00010226048FFF722F85F4841688020FCF730
:1043C00057FE002803D0BDE81040FCF71BB810BD15
:1043D00030B593B004466846FFF740F80021012C41
:1043E00002D0022C08D016E001208DF800008DF8D4
:1043F00015108DF814100EE04D48006890F87A07FB
:10440000C00701D0062000E020208DF800008DF8C4
:1044100034108DF833109DF80100AFF26F0140F0B9
:104420004C00444D01918DF8010003246846FDF7CE
:104430008BFC00218020FCF79BFD00218020FCF7F5
:10444000C5FD2878002804D0FEF707FA641E002C6A
:10445000ECDC13B030BD02461621012000FA01F356
:10446000134201D1491EF9D5491C884010437047B9
:104470002DE9F05FFEF734FE0546FEF737FE2C4CC3
:104480000746206890F88C07C00603D52846FFF73A
:10449000E2FF05464FEA55094FF4906127480AF0BC
:1044A00094FD4FF01D084FF0000A0120FFF790FF28
:1044B00020480026D0F804B01D480068047D34E090
:1044C000012000FA06F111EA090F2DD00025012084
:1044D000A840384225D029463046FEF710FE144940
:1044E000DFF858C009683CF91430B1F83421991A42
:1044F0003BF91430A3EB020200D54942002A00DA4E
:104500005242914204DD0E492CF8143021F8140077
:104510003F2805D2401CC2B229463046FEF705FEB0
:10452000641C6D1C202DD2DB761C4645C8DB09E0DF
:104530004C281000B03810000838100074A3012077
:10454000F4A70120FDF74CFE0AF1010ABAF1400F71
:10455000ABDB0120FFF73CFFF848DFF8E4B30025B0
:1045600000684FF0010A067D0AFA05F111EA090F09
:104570000FD000240AFA04F0384207D01BF81600C6
:104580002146C2B22846FEF7D0FD761C641C202CC2
:10459000F0DB6D1C4545E7DBFDF722FE0120FFF750
:1045A00017FFE848E6494068BDE8F05FF4E62DE90A
:1045B000F05FE24A116891F83001C407E2480378DD
:1045C00003F0F00514D0057000264B7D0C7DDFF85C
:1045D00074A35B1CB046914604FB03F7834601209D
:1045E000FFF7F6FE2046DAF80420D9F800100EE0B6
:1045F00091F83E1101F00F0129430170BDE8F09FD1
:1046000032F91030B1F832C16345F7DB401C874204
:10461000F6DC0F2EF2D2761CF6B245EA060108F15E
:1046200001088BF80010B8F1100FD8DBE6E710B5E1
:104630004FF42E714FF480100AF0E9FCFDF7D0FD25
:10464000FFF7B5FFFFF714FFBC4ABF481268401DD3
:10465000017892F8FB2701F0F00102F00F021143FC
:104660000170BDE81040012005F0D7B82DE9F043F6
:104670008DB000214FF6FF70ADF82C10DFF8CCC2E2
:10468000ADF82800ADF80400DFF8C082B04FDFF8C5
:10469000AC92ADF80810ADF81800ADF80C10ADF8FC
:1046A0001000ADF814100CF1140C0D460E46012448
:1046B000B96804FA06F0084213D0002D0ADBD9F8D5
:1046C0000000007D801EA84204DB1CF805200BA919
:1046D0000AA803E01CF8052002A901A8FFF7E8FDDD
:1046E0006D1C761C202EE3D300252E464FEA090CC4
:1046F000796804FA06F0084213D0002D0ADBDCF8D2
:104700000000407D801EA84204DB18F8052003A9A4
:1047100006A803E018F8052005A904A8FFF7C8FDBE
:104720006D1C761C202EE3D38748BDF82C20801CFE
:10473000BDF828100078024492B2ADF82C20BDF8E4
:10474000043001440344ADF80430BDF8083089B2A8
:104750001844ADF808007C48ADF82810401CBDF89E
:10476000183000780344ADF81830BDF80C3003441D
:10477000ADF80C30BDF810300344ADF81030BDF882
:1047800014301844ADF81400042005F089F8BDF881
:104790000C20BDF81810052005F082F8BDF808209F
:1047A000BDF80410062005F07BF8BDF81420BDF814
:1047B0001010072005F074F80DB0BDE8F0832DE966
:1047C000F04763485D4B002446694568D3F80030E4
:1047D0002246012140F6FF7901FA02F72F421FD04D
:1047E00036F91480B8F1000F05D0C84507D1076825
:1047F00047F0100712E0076847F020070EE0B3F813
:1048000036C1B3F84171E246BC44C44503DBAAEBB0
:104810000707474503DD076847F040070760641C4A
:10482000521C202AD8D300248769D0F80860224679
:1048300001FA02F535421DD037F914502DB14D451E
:1048400007D1056845F0100512E0056845F0200520
:104850000EE0B3F83AC1B3F843A10CEB0A08A8453F
:1048600003DBACEB0A0CAC4503DD056845F0400505
:104870000560641C521C202ADAD3BDE8F0872DE9BC
:10488000F05F334C0020314F666801460346012239
:1048900002FA03F5354203D0FD5C854200D9284673
:1048A0005B1C202BF4D3294ED4F808701436002357
:1048B00002FA03F53D4203D0F55C8D4200D929464A
:1048C0005B1C202BF4D3DFF880801C4D08F103081B
:1048D00008F1010988F8000089F800102A68A8F199
:1048E000020AA8F1010B92F87A37DE077ED09B0707
:1048F0007CD502F28B72537D947D157E03EB0423ED
:104900009CB2D37DD67E03EB05239DB2937E577F69
:1049100003EB06239EB2137F127803EB07239FB2AB
:10492000520617D5631900EB43009AF80020F319DB
:1049300010449BF8002001EB430118E04C281000C4
:10494000F4A70120B0381000F6071000B8021000DC
:10495000A82810006219520002EB40029AF80000E9
:104960001044F219520002EB41029BF8001011446E
:10497000FEF78FFAFE49096801F27B72B1F87B37C6
:10498000834201D2A1F87B0791F87A07400736D518
:1049900091F88B07400617D5600040426B4291F8B2
:1049A0007B1700EB430001449AF80000091A88F8CD
:1049B000001070004042794200EB41001178014440
:1049C0009BF80000081A38E09AF8000063191844B0
:1049D000B1F87B17404201EB4000C0F3470188F873
:1049E00000109BF80000F119084400E008E011886D
:1049F000404201EB4000C0F3470189F80010FDE59B
:104A0000DC4D9AF800209BF800302D6802440B44DE
:104A1000FF2645F080059A4209D2991A0844FF28DA
:104A200002D888F80000E9E588F800600AE09342BF
:104A3000E5D2D01A0844FF2802D889F80000DDE545
:104A400089F800602560D9E52DE9F84FDFF820935B
:104A5000C94DC948D9F800101435DFF818B391F8DA
:104A60003011044649064FF0010A7DD534210AF081
:104A7000CEFAFFF704FFFDF702FCFDF7F1FB04207F
:104A800003264FF0000800900220FFF7A1FCF0077A
:104A900029D04FF0000E724670464F464FEA0B0386
:104AA0000AFA00F1D3F804C011EA0C0F13D05969C7
:104AB000D7F800C031F91210BCF838C1614509DAE5
:104AC000215CDDF800C04FF0010E6144FF2900DDDC
:104AD000FF212154521C401C2028E1D3BEF1000FBD
:104AE00001D126F00106B00729D54FF0000E72461D
:104AF00070464F464FEA0B030AFA00F1D3F808C09C
:104B000011EA0C0F13D09969D7F800C031F91210CF
:104B1000BCF83CC1614509DA295CDDF800C04FF002
:104B2000010E6144FF2900DDFF212954521C401C65
:104B30002028E1D3BEF1000F01D126F0020656B1C4
:104B4000FFF79DFEFDF79BFBFDF78AFB08F10108CF
:104B5000B8F1640F98DB0326002000900220FFF7D5
:104B600037FCF00722D000E053E0002739463846F2
:104B7000CC465A460AFA00F3D2F8048013EA080F2A
:104B80000ED05369DCF8008033F91130B8F8388161
:104B9000434504DD235C13B101275B1E2354491CEC
:104BA000401C2028E6D30FB926F00106B00721D516
:104BB000002739463846CC464FEA0B020AFA00F382
:104BC000D2F8088013EA080F0ED09369DCF8008051
:104BD00033F91130B8F83C81434504DD2B5C13B147
:104BE00001275B1E2B54491C401C2028E6D30FB91B
:104BF00026F00206002E0AD0FFF741FEFDF73FFB2C
:104C0000FDF72EFB0098401C00906428A6DBBDE851
:104C1000F88F7F2234210AF0D0F9FFF730FEFDF73C
:104C20002EFBFDF71DFB40260327002000900220ED
:104C3000FFF7CEFBF80731D04FF00008434640465F
:104C40004FEA0B010AFA00F2D1F804C012EA0C0F85
:104C50001CD04A6940F6FF7C32F91320624506DB1E
:104C6000012E04DD225C4FF00108921B0CE0D9F804
:104C700000C0BCF838C1624507DA225C4FF0010879
:104C80003244FF2A00DDFF2222545B1C401C2028F6
:104C9000D8D3B8F1000F01D127F00107B80731D5FB
:104CA0004FF00008434640464FEA0B010AFA00F273
:104CB000D1F808C012EA0C0F1CD08A6940F6FF7CBC
:104CC00032F91320624506DB012E04DD2A5C4FF029
:104CD0000108921B0CE0D9F800C0BCF83CC1624549
:104CE00007DA2A5C4FF001083244FF2A00DDFF2278
:104CF0002A545B1C401C2028D8D3B8F1000F01D1E6
:104D000027F002076FB1FFF7BAFDFDF7B8FAFDF71C
:104D1000A7FA002E05DD00987610401C009064284C
:104D200085DB0326002000900220FFF751FBF007EF
:104D300027D0002739463846CC465A460AFA00F3AF
:104D4000D2F8048013EA080F0ED05369DCF8008013
:104D500033F91130B8F83881434504DD235C13B1D1
:104D600001275B1E2354491C401C2028E6D305E084
:104D70004C281000A8281000B80210000FB926F027
:104D80000106B00720D5002739463846CC465A469A
:104D90000AFA00F3D2F8088013EA080F0ED09369DC
:104DA000DCF8008033F91130B8F83C81434504DD6C
:104DB0002B5C13B101275B1E2B54491C401C20287F
:104DC000E6D30FB926F00206002E3FF420AFFFF71E
:104DD00056FDFDF754FAFDF743FA0098401C009089
:104DE0006428A1DB13E72DE9F05FA54E0024A54D53
:104DF00030684FF07F03224690F830118F0706D5B8
:104E00000124490601D42B7004E02A7002E090F8D6
:104E10003F11297090F83011DFF86C824F0709D5E7
:104E200044F00204480602D488F8003006E088F80E
:104E3000002003E090F8401188F80010002C77D093
:104E4000342192480AF0E3F88F49FF20891C08704A
:104E5000491E0870FDF704FAFDF711FA3068DFF813
:104E60003092B24690F83001400662D54FF0100BF8
:104E700000260220FFF7ACFAE00723D0D9E904238B
:104E80000020014606E000BF33F91170874200DDC3
:104E90003846491C9142F7DBDAF80010B1F83621A8
:104EA000824202DA2878401E08E0B1F84B118142B4
:104EB00006DB28785844FF2800DDFF20287001E039
:104EC00024F00104A0072AD500200146D9F80C706F
:104ED000D9F8183006E000BF33F91120824200DD16
:104EE0001046491CB942F7DBDAF80010B1F83A2154
:104EF000824205DA98F80010491E88F800100EE08A
:104F0000B1F84B11814208DB98F800005844FF28A3
:104F100000DDFF2088F8000001E024F00204002CEE
:104F200006D0FFF7ACFCFDF7AAF9761C202EA0DB1B
:104F300065E5402600270220FFF74AFAE0071AD06D
:104F4000D9E9042C0020014606E000BF3CF91130ED
:104F5000834200DD1846491C9142F7DBDAF8001065
:104F6000B1F83611814203DA2878A0EB060010E090
:104F700050B124F00104A00725D500200146D9F83E
:104F80001830D9F80C200DE028783044FF2800DDD7
:104F9000FF202870EFE700BF33F911C0844500DD22
:104FA0006046491C9142F7DBDAF80010B1F83A117B
:104FB000814205DA98F80010891B88F8001002E099
:104FC00070B124F00204002CB2D0012E00DD761066
:104FD000FFF755FCFDF753F97F1C202FABDB0EE5E7
:104FE00098F800003044FF2800DDFF2088F800001A
:104FF000E9E770B5264C00202060FEF716F86060E7
:10500000FEF73EF8A0606068042140086060201D43
:10501000FDF728FF2061042104F10800FDF722FFBD
:10502000E0600220FFF7D4F91A482169806800EB9C
:1050300041026261E26802EB410100EB4100A061C4
:10504000FFF7D1FE0E4D286890F83001800601D59B
:10505000FFF7FAFCFFF7B3FBFFF708FBFDF70FF9CB
:1050600009482968C01C027891F8FB1762F3030114
:1050700001702068BDE8704040F0020004F0CDBB34
:105080004C281000F7071000F8071000B8021000B5
:10509000A8281000B038100010B50146102298481A
:1050A000FEF7ACF9974841688020FBF7E1FF002844
:1050B00003D0BDE81040FBF7A5B910BDF0B5924D87
:1050C00006460C4628684FF0FF3193B090F8B100C7
:1050D00000F00F00401C8140CF436846FEF7BEF948
:1050E00001208DF800008DF80140286800F58670D9
:1050F00001788DF8121044F005018DF80110029727
:10510000ADF81060AFF26F01019141788DF8161083
:1051100080787B4D8DF8170003246846FCF714FE59
:1051200000218020FBF724FF00218020FBF74EFFA9
:105130002878002804D0FDF790FB641E002CECDCDE
:1051400013B0F0BD2DE9F0476F4D4FF00009DFF8C7
:10515000B081286800F570700478467887781AE086
:1051600049462046FFF7AAFFD8F8040007F007FDDC
:105170000146286890F80B2112F00F0000D10120A1
:1051800012094A43B2FBF0F082B22146302004F00B
:10519000B1FBE01984B2B442E2DDBDE8F0872DE94D
:1051A000FF5F4FF6FF764FF0000A93460F468046AA
:1051B00034465546DFF850911CE000BF38F8150022
:1051C0005146FFF77BFF4E48406807F0D8FCD9F8FE
:1051D000001091F80B2112F00F0100D101211209EA
:1051E0004243B2FBF1F080B2A04202D238F815601F
:1051F00004466D1CBD42E1DBABF8006003980480FF
:10520000BDE8FF9F2DE9F0413F4D044688462868E0
:1052100088B000F1D20690F8D10006AB00F00F0183
:10522000491C05AA3046FFF7BAFF2A6892F8D00059
:10523000800721D5BDF814600121ADF8006002F1AE
:10524000F20500234FF4803C6F4607E0E8563044F7
:10525000604502D227F81100491C5B1C92F8D1006E
:10526000C0F30210401C9842F0DC002904DD06ABBC
:1052700005AA3846FFF793FFBDF814002080BDF85B
:105280001810A8F8001008B0BDE8F0812DE9FC4125
:105290001E4E00235A1E19463068FBF719FA1C4CA3
:1052A00001A968466588FFF7ADFF174F3868B0F869
:1052B000FA10BDF80400814201D9218000E020806D
:1052C000BDF8000060803068FBF7BAF9BDF8000057
:1052D000854207D0386890F8D000400702D5608832
:1052E000FEF735FE0B49012008700B490870BDF828
:1052F00000202946092004F0B6FABDE8FC81000030
:10530000C0381000083810004C2810002038100059
:10531000FC371000622810008F2810002DE9F0479C
:105320000178FE4C01B1217001461022FC48FEF7C5
:1053300065F8FC4B186890F8CD17CA07F84901D0FA
:10534000CD6800E08D68427D6068F74E42430020E2
:1053500014E000BF97F8F0125FEAC17C08D089071B
:1053600006D597F8F17235F810107F1C794301E0EB
:1053700035F810101718401C26F817101F68797D93
:105380008142E7DC60684FF0000200F101006060DC
:10539000797D01FB00F71BE090F8F0C25FEACC7862
:1053A0000ED05FEA8C7C0BD501EB020C90F8F10279
:1053B00035F81CC0401C0CFB00FCB81826F810C0C7
:1053C000881807EB020C35F8100026F81C00521C58
:1053D000186890F815C09445DEDC61684FF001084C
:1053E00001F10101616090F8B12008EB121490F80E
:1053F000F022D50705D0950703D490F8F1522C443C
:10540000E4B2A14223DA90F87A27D20719D090F8B3
:10541000CD378AB2DB0701D0C1F34F0290F8BA034F
:1054200000F00F00B2FBF0F100FB1121BC484C383A
:105430000029417802D041F0020101E021F002018F
:105440004170BDE8F047B6484C38FCF77DBCD10749
:105450002FD091072DD4B0F8F2A2002522E0407D94
:10546000B149684301EB40018946002015E000BFC7
:1054700094F8F142012231F91060641C06E000BF8B
:1054800002FB070C521C31F91CC066449442F7DC45
:10549000A6EB0A0229F81020401C1C68677D874291
:1054A000E6DC6D1C186890F8B11008EB1111A942E8
:1054B000D5DC9E4841688020FBF7DAFD002803D048
:1054C000BDE8F047FAF79EBFBDE8F0872DE9FF5F22
:1054D000DFF84CB24FF6FF7400258A46A046ABF1C8
:1054E0004C0BA9468D4E5BE08D484C38FDF7B6FF5E
:1054F0008C4A116891F8CD07C00701D0102300E055
:1055000002238BF80030009830F81530ABF82C30BF
:105510009BF8013043F004038BF80130AFF2032312
:1055200001F2C931CBF804300A788BF83220CA78FE
:105530008BF834204A788BF8372089788BF838102C
:105540000327C6F8049000BF754886F800904C38D1
:10555000FCF7FAFB00218020FBF70AFD00218020E8
:10556000FBF734FD307820B1FDF777F97F1E002F6F
:10557000EADC6D4802F0ADFB6A49096891F8C8237E
:1055800012F00F0100D101211209424390B2B0FB89
:10559000F1F0A04203D20099044631F815806D1C49
:1055A0005545A1DB0299A1F8008003980480BDE86D
:1055B000FF9F2DE9F04105465A4888468CB00068A7
:1055C0000AAB00F2823C90F8812300F2A23490F8FA
:1055D000800302F00F01C2F30216C0F3400709AACC
:1055E000491C6046FFF772FFDFB1BDF8243001218E
:1055F0000020ADF800304FF4803C6F46761C07E089
:1056000022561A44624502D227F81120491C401C38
:10561000B042F5DB012904DD0AAB09AA3846FFF7E1
:1056200055FFBDF824002880BDF82810A8F8001008
:105630000CB0BDE8F0817CB53D4E00235A1E1946E2
:105640003068FBF745F83B4C01A96846E588FFF751
:10565000B0FF34480168BDF80400B1F8AC238242C1
:1056600001D9A28000E0A080BDF80000E080208188
:10567000854205D091F88013490701D5FEF7B9FCA2
:105680002D49012008702D4908702D49002008601F
:105690002C4908703068FAF7D3FFBDF8002029467E
:1056A0000A2004F0E0F87CBD2DE9F047DFF87480B3
:1056B000DFF86C900025D8F80000A9F14C0900F241
:1056C000C33004884688077950E015484C38FDF708
:1056D000C5FED8F8000090F8CD07C00701D0102112
:1056E00000E0022189F80010A9F82C4099F8011077
:1056F00041F0040189F80110AFF2DF31C9F804105C
:1057000006490020486006484C38FCF71DFB002184
:105710008020FBF72DFC0021802015E0C42810001C
:105720001C3910004C281000B498012008381000D3
:1057300020381000FC371000622810008F2810005D
:10574000E4291000DA291000FBF740FC094802F0B8
:10575000C0FA0246962D03DA074820F815206D1C82
:105760002146312004F0C6F8E01984B2B442ACDD21
:10577000AAE60000B4980120B01A01202DE9F041FA
:10578000174604460D46002609E0E00703D03146DF
:10579000384603F0E6FF761C6D084FEA340454EAFD
:1057A0000500F2D1BDE8F08130B5034600204FF08E
:1057B000FF32012505FA00F40C4202D0521C9A4235
:1057C00003D0401C2028F5D3002030BDF0B50E4694
:1057D0000125074605FA06F2FE4C0F2FD4E91510F5
:1057E00065D2DFE807F064434B081064641921298F
:1057F000323A54585C003046FFF7D6FF8540A06A25
:105800000543A56253E001463046FFF7CDFF8540D2
:10581000206C054325644AE03046FFF7C5FF85400C
:10582000E06A0543E56242E03046FFF7BDFF854090
:10583000206B054325633AE001463046FFF7B4FF8D
:105840008540A06C0543A56431E03046FFF7ACFF0E
:105850008540606B0543656329E001463046FFF7EC
:10586000A3FF8540E06C0543E56420E03046FFF788
:105870009BFF8540606A0543656218E0014630463B
:10588000FFF792FF8540E06B0543E5630FE0A06BF7
:105890000243A2630BE0206D0243226507E001464C
:1058A0003046FFF781FF8540606C054365642068E2
:1058B000401C2060F0BD10B501461022C648FDF71F
:1058C0009DFDC64841688020FBF7D2FB002803D02D
:1058D000BDE81040FAF796BD10BDFDF799BB10B5B5
:1058E000FDF788FB4008400010BD2DE9F0478946D0
:1058F00005464FF0FF34FDF78BFBB64F00231946EA
:10590000D7F804604FF0010C0CFA01F2024200D00B
:10591000641CAC4206D1B9F1010F0AD020EA02039F
:105920000E462021491C2029EED318467E60BDE892
:10593000F0871346F4E72DE9F047894605464FF016
:10594000FF34FFF7CCFFA34F024600207B680146DF
:105950004FF0010C0CFA01F6164200D0641CAC4268
:1059600006D1B9F1010F08D022EA06000B46122138
:10597000491C1229EED37B60D9E73046F6E72DE9C2
:10598000F04198B0044688466846FDF767FD13A8C5
:10599000FCF75DFEFFF7A3FF8E4F40087865FDF72B
:1059A00037FB20268E4DB865012C0AD0022C22D060
:1059B000032C26D0042C29D0052C30D0062C4ED018
:1059C00064E0FDF78DFB0290FDF790FB0390012052
:1059D0008DF800000C20ADF8100040208DF812006A
:1059E0008DF8166091208DF81700029840087865B0
:1059F0000398B8654AE0FFF772FF0990FDF708FBCE
:105A000014E0FDF705FB01210A9003E0FDF700FB20
:105A100000210A904046FFF78EFF099007E0FFF74C
:105A20005EFF099001214046FFF75FFF0A908DF865
:105A30000060286800F55A7081788DF83210C178BE
:105A40008DF8371001788DF8381041788DF83910BD
:105A50008188ADF82C100089ADF82E0016E0FFF714
:105A60003EFF0990FDF7D4FA0A908DF8006028688F
:105A700000F2613081788DF83210C1788DF83710DE
:105A800001788DF8381040788DF8390000209DF8A5
:105A900001108DF8140021F030018DF8150041F04F
:105AA0004A018DF834008DF833008DF80110AFF203
:105AB000F91103260191012C13D0092C27D00A2CAF
:105AC00025D000BF8DF856008DF858008DF857008E
:105AD000022C13D0032C11D0042C0FD0052C0DD088
