:100000005555AAAA80010000000000000000000071
:100010001502000000000000000000008384FF4A79
:1000200000091000E5070000690200007F020000DF
:1000300095020000AB020000C102000000000000B9
:10004000000000000000000000000000211F000070
:10005000251F000000000000D7020000271F00003D
:10006000291F00002D1D0000411F0000A51D0000DC
:10007000431F0000451F0000531F0000611F0000C8
:10008000E90200007D1F00007F1F0000811F0000AB
:10009000831F0000851F0000871F00000000000074
:1000A0000000000000000000000000000000000050
:1000B0000000000000000000000000000000000040
:1000C0000000000000000000000000000000000030
:1000D0000000000000000000000000000000000020
:1000E0008001000000F002F800F04AF80AA090E851
:1000F000000C82448344AAF10107DA4501D100F0E3
:100100003FF8AFF2090EBAE80F0013F0010F18BF65
:10011000FB1A43F001031847E0BB000000BC0000DD
:100120000A4410F8014B14F00F0508BF10F8015BEA
:10013000240908BF10F8014B6D1E05D010F8013BD3
:100140006D1E01F8013BF9D1641E03D0641E01F855
:10015000015BFBD19142E4D37047000000230024EF
:1001600000250026103A28BF78C1FBD8520728BFC7
:1001700030C148BF0B6070471FB51FBD10B510BD23
:10018000DFF80CD0FFF7F8FF02F004F80BF001FCE9
:100190000009100003B4FFF7F1FF03BC0BF000FCF3
:1001A0000A484FF0FF0101704FF0000080F3118802
:1001B0004FF0000080F3098805484FF002010170FC
:1001C00062B604484FF080510160704722ED00E0B4
:1001D0000009100004ED00E002484FF0805101607A
:1001E0007047000004ED00E04FF0200080F311881C
:1001F000EFF3098098B112480068124909688842F3
:1002000017D0EFF309800E49096820E9F00F8860E4
:1002100000B50B48006800F0F2F85DF804EB084800
:1002200008490A68026000688168B1E8F00F81F34C
:1002300009884EF0040E4FF0000080F311887047DB
:100240000409100008091000EFF311804FF020019D
:1002500081F31188704700004FF0000080F311888F
:100260007047000062B6704772B6704740BA704778
:10027000C0BA7047401E0028FCDC704700BE7047C3
:1002800040BA7047C0BA70471EF0040F0CBFEFF3BE
:100290000880EFF309804FF0010101F0B2BD1EF0BC
:1002A000040F0CBFEFF30880EFF309804FF0020159
:1002B00001F0A7BD1EF0040F0CBFEFF30880EFF3B1
:1002C00009804FF0030101F09CBD1EF0040F0CBF2C
:1002D000EFF30880EFF309804FF0040101F091BDC6
:1002E0001EF0040F0CBFEFF30880EFF309804FF00E
:1002F000050101F086BD4FF0000000B502F053FC8F
:100300005DF804EBFFF770BF1EF0040F0CBFEFF3B6
:100310000880EFF309804FF0000101F072BD00008A
:10032000194910B5012008701849002008601849C3
:100330000860184908601849086000F0B9F900F031
:100340004BF900F063F8002010BD10B5114800F023
:100350002AF90F4908600D490968884207D00A4800
:100360000078022803D1BDE81040FFF735BF10BD6B
:1003700010B5FFF7EAFF044902200870FFF710FFED
:100380004FF0FF3010BD00000009100004091000FC
:10039000080910000C0910001009100070B50D4676
:1003A0000446C1698068CC220BF028FAE169A06894
:1003B000084440384FF08071C163216A8163002195
:1003C00041630163C1628162C0E908514FF00B31A2
:1003D000C1614FF00A3181614FF0093141614FF045
:1003E000083101614FF00731C1604FF00631816083
:1003F0004FF0053141604FF00431016070BD8269FA
:100400008168914201D801F05EBF704710B54FF48A
:10041000B4714F480BF01CFA002010BD70B50546B2
:1004200000EBC5014A4800EB8104FFF70DFF0646CB
:10043000207828B13046FFF70FFF6FF0010070BD44
:100440000320207000206560206204F11C0000F091
:1004500083F83046FFF700FF002070BD2DE9F04122
:100460000F463B49002500EBC00001EB80042E46FF
:10047000FFF7EAFE8046206A3843206204F11C0040
:10048000074600F090F80CE0216A026C114203D09C
:1004900000F066F9012600E06D1C2946384600F0A0
:1004A00078F80028F0D1012E01D1FFF74EFF404629
:1004B000FFF7D2FE0020BDE8F08170B50D4624495B
:1004C00000EBC00001EB8004FFF7BEFE216AA943E8
:1004D0002162FFF7C1FE002070BD70B50C461C49BB
:1004E00000EBC00001EB800500202060FFF7ACFEB0
:1004F000296A2160FFF7B0FE002070BD2DE9F041B0
:100500000D46134900EBC0001E46904601EB8004E7
:10051000FFF79AFE07460F4800680564216A2942E2
:1005200003D104F11C0100F02DF93846FFF794FEC9
:10053000FFF78AFE216A29403160B8F1010F02D12C
:10054000216AA9432162FFF787FE0020B3E700007C
:10055000F00A1000040910000021016008467047ED
:1005600030B50A6812B10B46C46B09E0002208607E
:10057000C0E903210BE000BF02F10C03D26812B105
:10058000D56BA542F8DC1A68C0E903211860002089
:1005900030BD0068002201E0C068521C8A4201D0D0
:1005A0000028F9D170470068704702690AB11168E4
:1005B00031B96FF00400704701F10C02C96839B11C
:1005C0008142F9D1C9681160002101610846704774
:1005D0006FF003007047000010B54FF4C871324847
:1005E0000BF036F9002010BD2DE9F0418846054694
:1005F0002D4900EB8500174601EBC004FFF724FEF0
:100600000646207830B13046FFF726FE6FF0010035
:10061000BDE8F08102202070E7611422414604F118
:10062000080065600BF073F80020206204F12400DC
:10063000FFF792FF3046FFF70FFE0020E8E770B5A6
:10064000194900EB800001EBC004FFF7FDFD0546F2
:10065000D4E90701814205DB144804F12401006854
:1006600000F090F8206A401C20622846FFF7F4FD55
:10067000002070BD70B50C4900EB800001EBC00498
:10068000FFF7E2FD0546206A08B1401E206204F132
:100690002400FFF788FF10B1606A00F011F82846C7
:1006A000FFF7DAFD002070BD580C1000040910009F
:1006B00010B54FF42A7140480BF0CAF8002010BD65
:1006C00010B5044690F8380002280BD02046FFF7FA
:1006D0006CFF022084F8380038492046FFF740FFBD
:1006E000FFF733FE002010BD2DE9F05F8B46064674
:1006F000314900EB06109046DDE90AA911F82020E7
:100700001D461AB16FF00100BDE8F09F01EB8004B7
:10071000FFF79AFD074601202070C4E90165C4E98E
:100720000585C4E907A91422594604F124000AF0FA
:10073000EEFF002084F8370084F838006169E0603B
:100740002061C4E90F1020460C99FFF727FEA06036
:100750002046FFF7B5FF3846FFF77EFD0020D3E7C0
:1007600010B5044690F83800022809D02046FFF75B
:100770001CFF022084F8380010492046FFF7F0FEE5
:10078000002010BD70B5044690F838000D460228D0
:100790000BD12046FFF709FF032084F838002946D3
:1007A0002046FFF7DDFEFFF7D0FD002070BD0448B6
:1007B0000068406870470000E80D10000C09100048
:1007C00004091000F0B58446002004460C4F14E0E4
:1007D0005CF824600323DD0046FA05F280EA02603B
:1007E0000825002802DA87EA400000E040006D1E7C
:1007F000002DF6DC5B1EEED5641C8C42E8DBF0BD00
:100800001B0000800D4880470D480047FEE7FEE7CB
:10081000FEE7FEE7FEE7FEE7FEE7FEE7FEE7FEE7B0
:10082000FEE7FEE7FEE7FEE7FEE7FEE7FEE7FEE7A0
:10083000FEE7FEE7FEE7FEE7FEE7FEE753080000FF
:10084000C50000004FF0005191F8210010F00C009D
:1008500009D0042809D0082809D07820401E01F8C2
:10086000280F087070470F20F8E71E20F6E73C209D
:10087000F4E7704707493F200870E3E70549332054
:100880000870DFE7034800783F2801D00020704758
:10089000012070472100002010B5084904200124E0
:1008A0000023C1F8FC00064A14601360054BA02227
:1008B0001A70C1F8FC01C86710BD000084E000E0B8
:1008C000D403002202E400E010B5042000F0D6F8C2
:1008D000052000F0D3F8062000F0D0F8072000F043
:1008E000CDF8082000F0CAF8764900200860754964
:1008F0002031086074490880724A121D1060714AE4
:100900002432106088806F4A083210606D4A2832A5
:10091000106008816B4A0C3210606A4A2C321060F9
:100920008881684A10321060664A3032106008824E
:100930000621042000F0BAF80621052000F0B6F8E0
:100940000621084600F0B2F80621072000F0AEF8B4
:100950000421082000F0AAF8042000F09BF80520EC
:1009600000F098F8062000F095F8072000F092F8C3
:10097000082000F08FF8042000F074F8052000F043
:1009800071F8062000F06EF8072000F06BF8BDE863
:100990001040082000F066B800EB80004FF6FF71B1
:1009A00001EA4001474800220260C2061186012187
:1009B00001607047434900200860704700EB8000E9
:1009C0004FF6FF7101EA40013E480022001D02601F
:1009D0004FF0005291860121016070473949002093
:1009E000091D0860704700EB80004FF6FF7101EAB7
:1009F000400134480022083002604FF00052118755
:100A00000121016070472F490020083108607047BC
:100A100000EB80004FF6FF7101EA400129480022F7
:100A20000C3002604FF00052918701210160704745
:100A3000244900200C310860704700EB80004FF61D
:100A4000FF7101EA40011F480022103002601E4A77
:100A50000E3211800121016070471A4900201031C7
:100A60000860704700F01F020121914040094FF0DB
:100A7000E02202EB8000C0F80011704700F01F0276
:100A80000121914040094FF0E02202EB8000C0F8C4
:100A90008011704700F01F020121914040094FF082
:100AA000E02202EB8000C0F8801270474907090E6F
:100AB000002803DA00F00F00044A00E0044A8154E1
:100AC00070470000240500223200002014ED00E0F1
:100AD00000E400E0594801210160002101607047F5
:100AE00057480121016000210160704710B50020C6
:100AF00000F08BF8534800220260FFF7F1FFFFF788
:100B0000E9FF514802605149A0200870002000F020
:100B100088F8BDE81040002000F06BB84A48012179
:100B20001C38016000210160704710B504460020A8
:100B300000F06BF843484149046001200860002040
:100B400000F06FF8BDE81040002000F052B830B55A
:100B50003C4889B00468002C11D0202168460AF076
:100B600077FE3B4800783A4B00216A465B1C02E066
:100B7000CD5C5554491C8142FADB1146A04709B0AF
:100B800030BD2E4901201C390860704730482030A4
:100B900000782F4921310978401A00F03F00704752
:100BA0002C4902780A7042784A7082788A70C2783A
:100BB000CA7002790A7142794A7182798A71C07960
:100BC000C871704724480068417882784FF000501F
:100BD000437A0374214B1B78437443891B0A837443
:100BE0004389C37401754275C1798175017AC175F4
:100BF000704700F01F020121914040094FF0E022B0
:100C000002EB8000C0F80011704700F01F020121C4
:100C1000914040094FF0E02202EB8000C0F88011C3
:100C2000704700F01F020121914040094FF0E0227F
:100C300002EB8000C0F88012704700005C84002244
:100C4000A0000022140910007C04002200E400E04F
:100C50000004002000020020200910007409100088
:100C600010B5092000F02AF80A2000F027F8092022
:100C700000F030F80A2000F02DF80521092000F0DE
:100C800035F805210A2000F031F81E487F21417017
:100C900081700171002100F848191B49096891F819
:100CA000C810CA0709D08A0707D510F84A2FC1F320
:100CB0008203012199408A43027010BD00F01F0297
:100CC0000121914040094FF0E02202EB8000C0F882
:100CD0008011704700F01F020121914040094FF040
:100CE000E02202EB8000C0F8801270474907090E2D
:100CF000002803DA00F00F00044A00E0044A81549F
:100D000070470000480000202009100014ED00E0AA
:100D100000E400E07047C9484FF48051018000BFF3
:100D200000BF00BF00BF00BF00BF00BF00BF00BFCB
:100D300000BF4FF4C051018000BF00BF00BF00BF23
:100D400000BF4FF440610180704710B5BB4C0720D5
:100D5000A41E60700020207044F2C000608000BFBC
:100D600000BF00BF4CF2C000608000BF00BF00BFEA
:100D70004CF2E00060800920FFF77CFA44F2E000CA
:100D8000608000BF00BF00BF4FF48040608010BD96
:100D9000F0B500252E464FF00054E02717E000BFC5
:100DA000883401F03F0160702170678000BF00BF90
:100DB00000BFD4F808C043F825C06680883C00BF57
:100DC0006D1C521E491C3F2901D9401CC0B2002A8B
:100DD000E6DCF0BD70B5994C2126268000BF00BF2F
:100DE00000BF00BF00BF40F02105258000BF00BF4D
:100DF00000BF00BF00BF44F221010843208004204F
:100E0000FFF738FA258000BF00BF00BF00BF00BF5A
:100E1000268000BF00BF00BF00BF00BF00202080B1
:100E200000BF00BF00BF00BF00BF70BD70B504466B
:100E3000824800250580824E0120306000F0EBF8EA
:100E4000FFF783FF00F0D7F85C20FFF7C3FF2346CE
:100E5000012202210720FFF79BFF231D012203210E
:100E60000620FFF795FF04F1080301220421052065
:100E7000FFF78EFF04F10C03012203210720FFF787
:100E800087FF04F11003012204210720FFF780FFF0
:100E900000F0B1F8FFF759FFFFF73DFF356070BD77
:100EA00070B50446654800250580654E0120306018
:100EB00000F0B1F8FFF749FF00F09DF85C20FFF764
:100EC00089FF2346012208210020FFF761FF231D2F
:100ED000012209210020FFF75BFF04F10803012232
:100EE0000A210020FFF754FF04F10C0301220B211B
:100EF0000020FFF74DFF04F1100301220C21002018
:100F0000FFF746FF04F1140301220D210020FFF733
:100F10003FFF00F070F8FFF718FFFFF7FCFE3560A9
:100F200070BD2DE9F0439946079B002603B180264A
:100F3000434C0023803CC0B21F4665044FF00108BB
:100F40001DE000BF85F8890001F03F0C4CEA060C5B
:100F500085F888C059F823C0C5F88CC0C4F8B080A3
:100F6000C4F8B070491CC9B2402902D3401CC0B2B9
:100F70000021D4F8C0C0BCF1000FFAD15B1C934231
:100F8000E0DBBDE8F0834FF0005282F889000023D7
:100F900019B1802082F8880001E082F88830284862
:100FA00001218038C0F8AC10C0F8AC30D0F8C010C7
:100FB0000029FBD1704738B50C4605460021F820C2
:100FC000FFF7E1FF0020014600902B462246F82063
:100FD000FFF7A7FF38BD38B50C46054601210020B4
:100FE000FFF7D1FF0120002100902B462246084642
:100FF000FFF797FF38BD10B5104C4FF480402080AC
:101000000420FFF737F90020208000BF00BF00BF99
:1010100000BF00BF10BD10B5084C4FF4C050208079
:1010200000BF00BF00BF00BF00BF4FF48050208052
:101030003520FFF71FF90020208010BD8A00002016
:10104000801000222DE9F843FF4D002634462E7013
:101050006E70012000F093FB0E2000F090FB0D203D
:1010600000F08DFB0C2000F08AFB032000F087FBD2
:10107000012000F090FB0E2000F08DFB0D2000F011
:101080008AFB0C2000F087FB032000F084FB00F0BB
:10109000A4FCDFF8B88300236A460221404600F032
:1010A00037FEEB4F9DF8010038709DF80000402896
:1010B00000D0032601236A460221404600F028FEA4
:1010C0009DF80100397841EA001038709DF8000061
:1010D000402800D003260521012000F068FB0521EF
:1010E0000E2000F064FB05210D2000F060FB0521BF
:1010F0000C2000F05CFB0621032000F058FB0120CF
:1011000000F031FB0E2000F02EFB0D2000F02BFB39
:10111000032000F028FBEC70AC702C713046BDE869
:10112000F883F8B50901840F44EA91041E4620F0C3
:1011300040450094032A01D0042A08D13DB934B1B6
:1011400025460421684601F021F9BF49087100983D
:10115000C6E91A50F8BD7FB582B0144602981E4603
:10116000C0F31201012A19D0032C17D00398C0062E
:10117000820B029842EAD0404200022C10D0042C8C
:101180000ED0052C18D141EAC07145080091042108
:10119000684601F0FBF8052C05D008E0009100E05E
:1011A00000920025F3E7082102A801F0EFF886F885
:1011B0005A000098C6E9180506B070BD70B506461D
:1011C000A44C0020A44D84F8520021462868052E26
:1011D00090F8880784F85700D1E90E0102D0062E56
:1011E00015D031E09B4B3246FFF7B5FF4034994BA9
:1011F000D4E900013246FFF794FF9848C0F30E008F
:10120000A082286890F88B076076E9201AE0914B5D
:101210003246FFF7A0FF40348E4BD4E9000132463E
:10122000FFF77FFF8B480821383001F0AFF88B497A
:1012300001EB8000C0F30E00A082286890F88B07B5
:101240006076ED20A075403CA078800700282868D3
:1012500090F8BA0701DA20F0030084F8580014F877
:10126000570F20F00200207077488670BDE870406C
:10127000784800F067BC78487649006890F800220A
:1012800081F8222090F801220A774A88D20504D4F6
:1012900090F8022202F00F028A7700F203201A313E
:1012A000027802F03F024A71B0F801200A80C27849
:1012B0008A716B4A0079127800F0F00040EA12104F
:1012C000C87170472DE9FC4705460020614CCDE907
:1012D00000005234064620705F4FE12020713968CB
:1012E000DFF87C9191F888076071523C012D06D09F
:1012F000032D2ED0022D42D0042D7DD0D8E0A06841
:10130000C0F31200CDE9000646083146002000F087
:10131000B6FC3146012000F0B2FC94F8570020F0F2
:10132000080084F857004F48C0F30E00A4F854009A
:10133000386899F8002090F8AD1702F00F0201F01C
:10134000F001114384F8211090F8B40784F82200CA
:1013500058E0A06AC0F31200CDE900064608314605
:10136000002000F08CFC3146012000F088FC94F84D
:10137000570020F0080084F857003B4886E0227BA5
:10138000A06802F01F02C00C40EA4230D20CCDE946
:101390000002804691F8B40784F8220041460220FA
:1013A00000F06DFC4146032000F069FC94F8570002
:1013B000082140F0080084F857002648103000F05B
:1013C000E5FF8046A0680821C0F31200CDE90006C1
:1013D000684600F0DBFF234900FB08F001EB40000A
:1013E000C0F30E00A4F85400386899F8001090F883
:1013F000AD0700F0F00000E00FE001F00F0108433E
:1014000084F82100D4E90201124B2A46FFF7A3FE1B
:10141000D4E904010F4B2A4648E094F82C10A06A46
:1014200001F01F01C00C40EA4130C90CCDE90001B8
:1014300080464146022000F022FC4146032000F095
:101440001EFC94F8570011E0180910000410002049
:10145000740910009010100020091000B88B0120B2
:10146000F607100000800120008D012040F00800E8
:1014700084F85700A06A0821C0F31200CDE90006E5
:10148000684600F083FFCF4901EB4000C0F30E0037
:10149000A4F85400FFF7EFFED4E90A01CA4B2A462C
:1014A000FFF759FED4E90C01C74B2A46FFF739FE76
:1014B0006088410794F8571002D521F0020105E039
:1014C0003A6892F8882702F00202114384F8571014
:1014D000C10705D094F8561041F0020184F8561067
:1014E000800710D4022D0ED0042D0CD0386890F84F
:1014F000BA0700BF84F85800B4488570B24800F0BD
:10150000D9FABDE8FC87386890F8BA0720F00300E4
:10151000F0E701280AD0022808D0032806D00428C2
:1015200004D0052801D0062801D147E6CAE6704755
:10153000F8B5A64D0746012901D1002068716C79E4
:10154000A34E641C08E000BF56F8242069463846C4
:101550009047012804D0641C072CF5D90020F8BD61
:101560006C719DF80000F8BD70B5017800291FD09E
:101570000146702294480AF00FF9944CA078002894
:1015800016D101219048FFF7D3FF050010D00020AD
:10159000207060708F48006890F81801400708D5E7
:1015A00000F0A8FB0120E0700A2000F075FAA57099
:1015B00070BD2846BDE87040ABE7002070478268E8
:1015C000520305D00078C00702D001200870704790
:1015D00000207047826A520306D00078000703D5C6
:1015E000032008700120704700207047037B826849
:1015F00003F01F036FF312021A4306D00078C007EE
:1016000003D002200870012070470020704790F836
:101610002C30826A03F01F036FF312021A4306D0C4
:101620000078000703D504200870012070470020CF
:10163000704790F83C30826B03F01F031A4306D0CA
:101640000078800703D5052008700120704700202E
:101650007047D0E9102323F070431A4306D0007876
:10166000400703D50620087001207047002070470E
:1016700000200870012070471FB500F07BF90120A1
:101680008DF800005448019000F6B83002904F48A1
:101690004C49027901EB42010391002101714A4852
:1016A0004168684688471FBD7FB500214648FFF75F
:1016B0003FFF10B1FFF72DFF7FBD444C0025474988
:1016C000A570A420087343483F4E006890F81801A5
:1016D000400705D5B078000702D5E57000F0FBFAA9
:1016E0002078012813D06078012812D08DF800509E
:1016F0003948019000F6B83002903248217900EB69
:101700004100039025717168684688477FBD0220BB
:1017100001E0657004208DF80000E9E72D4810B560
:1017200000684FF0000290F818014107274806D5DD
:10173000C178012907D002290ED0032912D1C27025
:10174000BDE8104098E70221C17000F0D8FABDE86A
:101750001040322000F0A0B90321C1708078BDE8AC
:101760001040D6E610BD00F01F0201219140400953
:101770004FF0E02202EB8000C0F80011704700F04B
:101780001F020121914040094FF0E02202EB80004E
:10179000C0F88011704700F01F02012191404009FC
:1017A0004FF0E02202EB8000C0F88012704749073A
:1017B000090E002803DA00F00F00094A00E0094A88
:1017C00081547047008D01209010100018091000FE
:1017D0008CB90000200910000080012000100020BA
:1017E00014ED00E000E400E02DE9F0430024FE4E9B
:1017F00081462546274600209C4206DA00EB060873
:1018000019F804C088F860C003E000EB060C8CF8FF
:101810006070641C401C0F28EEDB501900F01F00A4
:10182000084340F0800086F835006D1C022DE2DB95
:10183000BDE8F08300B512231C220021EB48FFF71E
:10184000D3FFEA481E231A4600212430FFF7CCFFBD
:10185000E64812231C2240211230FFF7C5FF1E2349
:10186000E24840211A4642305DF804EBBCE7E0480C
:101870000168DD4801F2877118300A7800F8112CF0
:101880004A7800F8102C8A7800F80F2CCA7800F8F3
:101890000E2C0A7900F80D2C8A7C4270CA7C82706A
:1018A0000A7DC2704A7D02718A7D4271CA7D827151
:1018B0000A7EC2714A7E02728A7E4272CA7E827239
:1018C0000A7FC272CB4A127802738A7F4273CA7F40
:1018D000827391F82020C27391F821200274C54AC6
:1018E000521C127842745522827400F8132F11F89A
:1018F000252F4270BF4B4A78DB1E02F0F0021B78A6
:1019000003F00F031A4382708A78C270CA7802719A
:101910000A7942714A798271B64A921E1278C2716E
:10192000B44A521E127802720A7A42728A7AC272DB
:10193000CA7A02730A7B42734A7B82738A7BC273C0
:10194000CA7B02740A7C42744A7C82748A7CC274A8
:10195000CA7C02750A7FA8490A701E2200F8132C5F
:10196000332048740B2088747047A448016800290C
:10197000FCD17047A24800220260A1481C380260D6
:10198000A048026101210161826081600260016002
:1019900002609A49A0F574700B68002BFCD1924943
:1019A0000B7B43F020030B730B7B23F040030B7383
:1019B0000B7B23F080030B730B7B23F020030B7353
:1019C000C0F8D823C0F8E0238F48027070478B48D6
:1019D000183001680029FCD1704710B589480024EF
:1019E000743004608748803004608648C4600121F8
:1019F000C160C4600460016004607B4801720172D0
:101A000020210173A42101737C481830016800294A
:101A1000FCD1FFF7AFFFFFF72AFFFFF70BFF7B4873
:101A200004607A48203004604FF00050848510BD77
:101A30006D49026E4A73130A8B73130CCB73130E2A
:101A40000B7492FAA2F2B2FA82F24A74426E81F8F0
:101A50004420130A81F84530120C81F8462090F892
:101A60005A208A74826ECA74130A0B75130C4B7554
:101A7000130E8B7592FAA2F2B2FA82F2CA75C06E98
:101A800081F84000020A81F84120020C81F84220CE
:101A9000000E81F8430070475C4900220A600A0684
:101AA00090850120086070475448001F0168012993
:101AB000FCD1704710B50446FFF7BAFF4E48183402
:101AC000401CA18F0180484994F84020193181F8C9
:101AD0002120474A126802F2997253784B7093782A
:101AE0008B702378CB7023881B0A0B71A3784B7102
:101AF00063881B0A8B7123798B77A3794B77637982
:101B000000F8013CE379CB77237ACB74637A0B75C9
:101B100012780A7094F83E20427394F83F205438AB
:101B200001F8112CA27ACA76344A1939121F1368A7
:101B3000012BFCD190F861000873BDE8104041F220
:101B40008830A9E710B50446FFF772FF2A494834E8
:101B5000491CA08908802448E27B0272244A12684A
:101B600092F89A378376193092F89B3783702378EE
:101B7000C37123881B0A0372A378037363881B0A4B
:101B8000437323798377637901F8013CE379C37761
:101B9000237A4375637AC375A37B4B73637C543993
:101BA00000F80E3C92F8993723F0070300F8193932
:101BB000A37A483CDB0702D092F8CE2701E094F8E4
:101BC0004E2080F836200D4A121F1368012BFCD1DD
:101BD00094F8582080F83A2091F861100173BDE81C
:101BE000104041F2883057E7001000203804100000
:101BF00020091000F907100053000020040B0022F8
:101C00001C0C0022D00300221A091000200500221B
:101C10007149724B0A6892F8892702700A681B782A
:101C200092F8AD2703F00F0302F0F0021A4342705E
:101C30000A68B2F8A2274280096801F2A7710A88EF
:101C400082800A7A82718A7AC271497B01727047F6
:101C50006349027801F80C2C42780A7682784A733C
:101C60004288120A8A7302798A748288120ACA74B4
:101C700082798A76C2790A77007AC8777047F0B598
:101C8000122628B1012806D002280AD0554803E0C0
:101C90004FF4801007E05448C024514D0023153DF7
:101CA00003E050480F388024F7E7CA070DD0002220
:101CB00002EB050C875C8CF86070521C0F2AF7DB76
:101CC00003F01F02224385F835201E3049085B1CB3
:101CD000B342EADBF0BD42481538017B21F04001F8
:101CE0000173017B21F080010173017B21F0200150
:101CF000017370473A4920201539087370473849F5
:101D0000C0201539087370473849002008607047B3
:101D100070B5374C2568002DFCD1354E1C361BB1F3
:101D200001233360002305E03560FBE7C6185B1C28
:101D300086F880508B42F9D32368002BFCD102E057
:101D4000C45CD4545B1C8B42FAD370BDF8B500F070
:101D50004AFF26490020086026480078002830D035
:101D60002348183801680029FCD11D4C153CE07847
:101D70004FF00105400601D51F480570E0780023AB
:101D80006A460121FFF7C4FF9DF800001B4E0007C3
:101D900005D500220121AE2003F056FF3570E07812
:101DA00001236A461946FFF7B3FF9DF800000007BC
:101DB00005D500220221AE2003F046FF3570FFF763
:101DC00073FCF8BD10B500F00EFF08490020086054
:101DD000BDE81040FFF7A2BC20091000F607100074
:101DE000151000202B0210000F001000200500220B
:101DF0001C0B00221A091000180910001909100004
:101E0000FEE70446012003F00AFF00210F202268AC
:101E100003F01AFF01210F20626803F015FF022171
:101E20000F20A26803F010FF03210F20E26803F0E7
:101E30000BFF0C210F20226903F006FF0E210F205B
:101E4000626903F001FF0F210846A26903F0FCFE5E
:101E500020210F20E26903F0F7FE384802682121B3
:101E60000F2003F0F1FE35481038026822210F20C0
:101E700003F0EAFE31480C38026823210F2003F0FA
:101E8000E3FE2E480838026824210F2003F0DCFE10
:101E90002A48001D026825210F2003F0D5FE27489F
:101EA0003438026826210F2003F0CEFE2348143870
:101EB000026827210F2003F0C7FEFEF778FC0246D8
:101EC00030210F2003F0C0FEFEE710B5012805D039
:101ED000022805D0032809D0032102E0012100E0F7
:101EE0000221BDE81040032003F099BE0021032029
:101EF00003F095FEFEE710B504460146042003F00A
:101F00008EFE012C00D1FEE710BD0146082003F033
:101F100086BE0146062003F082BE10B50446014687
:101F2000072003F07CFE24B1012C03D0022C02D147
:101F3000FEE7FEE7FEE710BD0220EEE738ED00E029
:101F400000F051BE704770471D4810B5016821F080
:101F50000401016000F047FEBDE81040FEF7F7BD48
:101F60007047704710B500F03EFEBDE8104003F02A
:101F700061BD10B500F037FEBDE8104004F0A4B814
:101F800010B500F030FE0F48006890F82901800776
:101F900003D5BDE8104003F05BBD10BD704770472E
:101FA0007047704770477047704770477047704779
:101FB0007047704770477047704770477047000020
:101FC00010ED00E02009100010B54221834809F00F
:101FD0001DFC82488249834A018042808249818077
:101FE000824BC380824C0481824C8481824C048267
:101FF000824C4486824C8486824CC486824C048700
:10200000C387428781878149A0F8401080480068D3
:10201000B0F89C274A80B0F8A027CA80B0F8A5077E
:10202000088110BDF0B585B0FF221421684609F083
:10203000E5FB6846FEF7FAFE03980325012707260D
:1020400045F2AA54A04202D00498A0423AD1DDE958
:102050000001884206D00299884203D00198884244
:1020600008D100900498A04210D10098000E0128D9
:1020700005D007E05FF00000FFF74BFF0FE000988E
:10208000C0F301370098C0F3032602E00120FFF7F8
:1020900040FF0398A04213D1009800F007055D4966
:1020A000887920F0F30207F0030040EA061010439D
:1020B00088715948017865F30201017005B0F0BDDF
:1020C0000220D9E70120FFF724FFF9E770B5FEF7FA
:1020D000D1FBFEF70BFD4E4D28680078A52802D0F5
:1020E0000120FFF708FF4D48006810B10020FFF7FE
:1020F00002FF28684FF000064FF0010490F8291104
:102100008A074FF0085104D5C1F89863C1F880439D
:1021100001E0C1F8984390F82811414A01F001010B
:10212000116090F82811121DC1F3400111603D4962
:102130000C60091F0C60091F0C6090F8C800C107F3
:102140000BD0810709D5C0F38200012805D13248A0
:102150003130017821F007010170FEF7DBFDFEF759
:10216000B3FBFEF76FFF032801D1FFF7AEFEFEF7CA
:1021700029FDFEF791FBFEF773FDFFF753FF28687B
:1021800090F829018107284801D5046000E0066025
:10219000046070BD10B54FF000514FF4C07048811D
:1021A000FFF794FFFFF710FF20493F200860204908
:1021B0000020086020481F49016001F550601F4958
:1021C00008601F4800F00FFBFEF74EF800F03AF8E9
:1021D000FEF748F8FEF7CCF8012010BD0000012002
:1021E00000800120688E0120209A012042000120F9
:1021F000B88B0120D60C01203A0D0120CC0C012017
:10220000548E01205E8E0120FA0B0120443810000C
:10221000200910000010002020000020C81000221B
:1022200088040022280A00227C040022A00D01203C
:1022300070091000B81C10004C0910005009100063
:10224000B83610007FB5FEF76BF8204D002400BFB4
:1022500005EB441000F11002017F4CCACDE9026188
:10226000CDE900230FC8FEF73FFA10B10120FFF7B8
:1022700054FE641C072CEBDB144D002415F1E00523
:1022800004EB440005EB8001091D55F8200006C948
:10229000FEF7AAF910B10120FFF73FFE641C072CDE
:1022A000EEDB0B4D002400BF05EBC400416855F880
:1022B0003400FEF7B3F810B10120FFF72EFE641CC6
:1022C000062CF1DB7FBD4068FFF736BEACB90000DD
:1022D000E0BA00002DE9F0479246012547F6F87272
:1022E00056429946AC460024089F16E030F8143058
:1022F00031F81480A8EB03031BB29A4200DD1A46A2
:102300009E4200DA1E46002B02DA4FF0000502E082
:1023100001DD4FF0000C04F10104BC42E6DB55EA9C
:102320000C0306D0012D01D02DB108E0BCF1010F46
:1023300005D1002203E0BCF1010F00D13246002597
:102340002C462B4611E000BF30F8136031F813C063
:102350001644ACEB060636B24E4505DAC9F1000C60
:10236000664501DD3544641C5B1CBB42ECDB95FB20
:10237000F4F10A44002105E030F8113013442AF842
:102380001130491CB942F7DBBDE8F08770B5034650
:1023900000200246F84C09E09D5C521C05F00F0637
:1023A00004EB1515A65D2D78304428448A42F3DBF2
:1023B00070BD884200D308467047884200D808465E
:1023C0007047884200D30846904200D310467047B9
:1023D0002DE9F047D0F810C00568046A85FB0C129F
:1023E000A1FB041242694368914683FB0262826941
:1023F000E246A6FB02677618D0E9021781FB07C800
:10240000C069ACFB00C81CEB060682FB0A2CA2FBD1
:10241000011280FB0902A0FB0502401884FB071291
:10242000A1FB03120818301A4FEAE071ACE72DE95E
:10243000F04389B00446006800906068019020690C
:1024400002906068039020690490A069059020695B
:102450000690A0690790E06908900D466846FFF76E
:10246000B7FF8046A0680190E0680490606907901B
:1024700089466846FFF7ACFF064660680190A06891
:10248000029020690490E0680590A0690790606957
:1024900008900F466846FFF79BFFC5E90401C5E9B0
:1024A0000267C5E9008909B0BDE8F0832DE9FF4F57
:1024B0004FF0000A89B09B465746D146D046564653
:1024C000554654462021684609F0C2F90B9810E0A1
:1024D0000999824431F9102000FB00F102FB0166EA
:1024E0008844414302FB009901FB004417440D441A
:1024F000401C5845ECDD0B99ABEB0100401CCDE9CD
:10250000000ACDE90654CDE90486CDE90279684692
:102510000A99FFF78CFF0DB0BDE8F08F974801686E
:10252000087B4A7B40EA02208A7B40EA0240CA7B61
:10253000097C40EA02600018494170478F480168F1
:1025400008794A794B7A40EA02208A7940EA0240C7
:10255000CA7940EA02600A7A42EA03228B7AC97A8F
:1025600042EA034242EA0161704700B5FFF7D6FF35
:1025700049084FEA30000018494100BD2DE9F34FEA
:1025800083B00446FFF7F1FFCDE90001FFF7C6FF76
:1025900081468A4608216846FFF7F8FE4FF000089A
:1025A000DDE9006704EB400B454644462246012026
:1025B000002109F075F803460A46304039400843C7
:1025C0000DD003EA090302EA0A02134306D0049875
:1025D0003BF8152020F8182008F101086D1C641C38
:1025E0001E2CE3DB05B097E7A8E72DE9F34F85B094
:1025F0000446FFF7BAFFCDE90201FFF7F5FFCDE989
:102600000001FFF79BFF81468A46082102A8FFF7D9
:10261000BDFE054608216846FFF7B8FE00EB450001
:102620004FF00008DDE9006704EB400B45464446E7
:1026300022460120002109F033F802460B463040C3
:10264000394008430DD002EA090203EA0A031A439B
:1026500006D006983BF8152020F8182008F101084C
:102660006D1C641C322CE3DB07B055E77FB50D46CB
:102670000446082102A8FFF789FE4149420008707C
:1026800004EB4001284609F042F87FBD2DE9F047F0
:102690003A4800252C46006800F5F57890F8E87176
:1026A000AFB190F8E611C90715D000264FF0010927
:1026B00009FA06F0074207D018F806200120002189
:1026C00008F0EEFF05430C43761C052EF0DB68197D
:1026D00044EB040158E690F8E9210120002108F0BC
:1026E000DFFF05460C46F2E72DE9F04723480024BA
:1026F0002546006800F5F57890F8E871FFB190F88C
:10270000E611C90708D090F8E9210120002108F05E
:10271000C7FF04460D4612E000264FF0010900BF36
:1027200009FA06F0074207D018F806200120002118
:1027300008F0B6FF04430D43761C052EF0DB20465F
:10274000294621E670B500220C4C012303FA02F65B
:10275000256895F8E851354203D030F8125021F839
:102760001250521C052AF1DB70BD00B5FFF7D6FEF2
:1027700040F0010000BD000010BB00002009100067
:1027800068091000DAE6FE4A520102EB810101F10C
:10279000085108607047CA0700D00422C0EB00103F
:1027A00001EB800000EBD0704FF4801101EB600072
:1027B0000078D04000F00F00704710B5CB0700D074
:1027C0000423C0EB001001EB800000EBD0704FF44D
:1027D000801101EB60010F2408789C40A0439A40CF
:1027E0001043087010BD2DE9F14F82B0F02102981E
:1027F00009F02EF8FFF7B9FF5FEA51094FEA3008F8
:10280000FFF7C0FF4FF0000A8B46554600902A465E
:102810000120002108F044FF009A01EA0B0110405A
:10282000084323D0002601273446224601200021F8
:1028300008F036FF00EA080001EA0901084310D059
:1028400029462046FFF7A7FFB04208D0029901238E
:1028500001EBC70603FA0AF332681A4332600646F0
:102860007F1C641C242CE0DB0AF1010A6D1C3C2D4A
:10287000CDDBBDE8FE8F2DE9F0478246C14800263A
:102880000121D0F80090324699F814305C1E1FE008
:10289000032099F8158018E0BB4D012707FA01F7CE
:1028A00055F830503D402D000ED0A0F1010500FB41
:1028B000031705FB031C3AF917703AF91C507D1BEE
:1028C00000D56D422E44521C401C8045E4DC491C5E
:1028D0008C42DDDC02B9012296FBF2F054E52DE9D1
:1028E000FF4F85B00021A74C039102910191009107
:1028F0002168012B91F8775005F00F0700D10027D0
:102900004E7D91F87A10C7F1100BB14200D20E46FD
:1029100000210123049186E04FF00009C8460324FA
:1029200022E099494FF0010C0CFA03FC51F83410E5
:1029300001EA0C01090004FB053130F911C0A4F1D2
:10294000010101FB053130F91110ACEB010106D09A
:10295000002900DA4942DDF818C0A1EB0C0100297A
:1029600000DA49428944641CB442DADB31469EF8FD
:1029700015A022E0844C4FF0010C0CFA03FC54F833
:10298000314004EA0C04240001FB053430F914C082
:10299000A1F1010404FB053430F91440ACEB04044C
:1029A00006D0002C00DA6442DDF818C0A4EB0C0459
:1029B000002C00DA6442A044491C8A45DADC049900
:1029C000012910D10199B1EB090101D5C1F1000133
:1029D000039C214403910099B1EB080100D54942C1
:1029E000029C21440291CDE900899EF87B10994216
:1029F00016D11168039D79430BFB0511CC1701EB30
:102A00001471091111609168029D79430BFB051146
:102A1000CC1701EB1471091191600021039102910F
:102A200001215B1C04915749D1F800E09EF8145035
:102A3000691E99423FF770AF5068039B78430BFBC8
:102A40000300C11700EB117000115060D068029BA9
:102A500078430BFB0300C11700EB11700011D0602D
:102A600009B059E57FB50E460446FFF77EFDCDE976
:102A70000001FFF7B9FDCDE90201DDE900014908D8
:102A80004FEA3000CDE900014FF008016846FFF73A
:102A90007DFC0546082102A8FFF778FC2844820047
:102AA0002146304608F033FE7FBD0B4635490968A4
:102AB0004A7D097D521C4A4301465200184608F0DF
:102AC00026BE03E011F8013B00F8013B521EF9D28B
:102AD000704770B50446702108F0BAFE00202070DF
:102AE00060806060FFF741FEC4E90201FFF74AFE23
:102AF000264DC4E90401234E68882083306800F223
:102B00009E7001886183417E217790F82A10617759
:102B1000017EA177817EE177817B84F820101C49BA
:102B2000C07B097800F0F00001F00F01084384F841
:102B30002100FFF7ABFDC4E90A01FFF7D5FDC4E9A9
:102B40000C01FFF712FDC4E90E01FFF74DFDC4E9CA
:102B50001001E888A4F84800A4F84A00306800F2A0
:102B6000AE70C17E84F84C10417F84F84D10817F97
:102B700084F84E10017F84F84F1001780AE00000BD
:102B8000A00D012020091000B836100044381000B4
:102B9000F607100084F85010817884F85110007BFB
:102BA00084F8580070BD10B50446FDF75DFB012C9C
:102BB00009D16C48006890F81801800703D56A486D
:102BC0000078052803D0FDF75DFE30B107E0FDF782
:102BD00059FE20B1FDF752FE01E0FDF74BFEBDE8C6
:102BE0001040FDF73FBB0020DDE75E4B10B51A68D3
:102BF000947E640704D5D28A0468A2EB04020260C2
:102C00001A68947EA40703D5128B0C68121B0A6005
:102C10000268002A00DA002202601C68E48AA242EC
:102C200000DD224602600A68002A00DA00220A60FB
:102C30001C68248BA24200DD22460A601B689B7E32
:102C4000DB0702D003680B60026010BDF0B5002501
:102C50002C46059E0AE000BF31F9147030F914C00B
:102C6000A7EB0C07974200DD6D1C641C9C42F3DB54
:102C7000B54201D90120F0BD0020F0BD2DE9F04F93
:102C80009246DDE909B7012547F6F87256429946A2
:102C9000AC46002417E000BF30F8143031F814803F
:102CA000A8EB03031BB29A4200DD1A469E4200DAEB
:102CB0001E46002B02DA4FF0000502E001DD4FF066
:102CC000000C04F10104BC42E6DB55EA0C0306D01B
:102CD000012D01D02DB108E0BCF1010F05D100227A
:102CE00003E0BCF1010F00D1324600252C462B46F3
:102CF00011E000BF30F8136031F813C01644ACEB9C
:102D0000060636B24E4505DACBF1000C664501DD0C
:102D10003544641C5B1CBB42ECDB95FBF4F10A44BC
:102D2000002105E030F8113013442AF81130491C15
:102D3000B942F7DBBDE8F08FF0B506460020044647
:102D40000546521C059F09E036F911C09C4504DD7B
:102D5000A44502DD64460D460120491C9142F3DB87
:102D60003D60F0BD200910005E09100030B490E80D
:102D70001C00EA49C068C1E90240C1E9002330BC37
:102D80004FF400610120FDF769BB70B59EB00646A7
:102D90000D4614466846FFF79CFE14F0050F02D05E
:102DA00001208DF80000DE49E00609D5086890F89A
:102DB000E80128B19DF8000040F008008DF80000FF
:102DC00014F4F17F11D0086890F85011C90706D1AA
:102DD00090F8041319B990F8B001C00705D09DF818
:102DE000000040F006008DF80000ADF84A50ADF844
:102DF0001860ADF84850AFF28B00C84D03244FF473
:102E0000006601906846FEF7AFFB1CAB002231461E
:102E10000120FDF773FB31460120FDF74EFB2878BA
:102E2000002804D0FFF751F8641E002CEADC1EB025
:102E300070BD10B5C00709D040F6B831B94808F0E8
:102E4000E5FCB948002101604160018110BD2DE918
:102E5000F0410746B248006890F82010490710D5A5
:102E600090F821000125C0F3011085400024AF4EE9
:102E700005E0F18870883A46FFF787FF641CAC4292
:102E8000F7DBBDE8F0812DE9FF4F8BB00446FFF77B
:102E900079FCCDE90801FFF768FCCDE906010821BE
:102EA00006A8FFF773FA0546082108A8FFF76EFA8F
:102EB000DFF86CB245434FF0010ADBF800004FF435
:102EC000D05190F8210000F007070AFA07F9984856
:102ED00008F0BEFC1421684608F0BAFC002639E070
:102EE00092482246C1880C98FFF74FFF14F0050F57
:102EF00012D08A488F49406802F082F98D4A00203A
:102F00008B4907E051F8203032F910C0634441F892
:102F10002030401CA842F5DBE0061AD57F488649E0
:102F2000C068FFF70FFCDBF80010834B002091F81E
:102F3000E82169460AFA00FC12EA0C0F06D051F8A3
:102F400020C033F91080C44441F820C0401C05283B
:102F5000F0DB761C4E45C3DB14F0050F0BD00020D0
:102F6000734A06E052F820100D9B394123F81010E7
:102F7000401CA842F6DBE00613D500205A46514615
:102F80006C46136893F8E85101FA00F31D4205D02E
:102F900054F820300E9D3B4125F81030401C052888
:102FA000EFDB0FB0BDE8F08F2DE9F74F5C4D8346A6
:102FB00084B0286890F85011C90706D190F804131E
:102FC00019B990F8B001C0074CD0FFF7CEFACDE99F
:102FD0000001FFF709FBCDE9020108216846FFF770
:102FE000D5F90446082102A8FFF7D0F9204444008F
:102FF0002868012690F8210000F00707BE40A100D4
:103000004B4808F025FC0025DFF82481DFF81C91EF
:10301000DFF808A117E000BFB9F802005A46059989
:10302000FFF7B3FE00204146DAF8082008E000BFB1
:1030300051F8203032F910C0634441F82030401C70
:10304000A042F5DB6D1CB542E6DB394A0020434661
:1030500006E000BF53F82010394122F81010401C40
:10306000A042F7DB07B09DE70EB510F0820008D054
:1030700000210091019102912C496A46C988FFF70D
:1030800093FF0EBD70B505460020FDF7D8FA03206A
:10309000FDF7D5FA2846FFF7CCFE2848017801292C
:1030A00004D1002101702846FFF7D1FE15F011046C
:1030B00006D01E481C4B1B4A41882046FFF7E3FE02
:1030C000E00718D0164C206890F8200000070AD5B9
:1030D0001448FFF7D0FB1A4901231A4A0860014639
:1030E0001048FFF7FCFB206890F84904C00702D0A5
:1030F000284601F0D5FD15F0820F02D02846FFF7D3
:10310000B3FF11490120087002F084FC0020FDF794
:10311000B1FABDE870400320FDF7ACBAF44F1000DF
:103120002009100042000120FA0B01204438100051
:10313000B81C100000111000CC0C01202809100050
:1031400054091000A83710003609100030B490E878
:103150001C00FD49C068C1E90240C1E9002380218B
:1031600030BC0120FDF77AB930B59DB00446684601
:10317000FFF7AFFC0021012C04D0032C04D0022C5B
:103180000AD01BE0012000E008208DF81E108DF809
:1031900000008DF81D1011E006208DF80000EB48AE
:1031A0008DF84E108DF84D10D0E906219218494146
:1031B000CDE90E21D0E90810CDE91010AFF273006F
:1031C0000190BDF80200E04D40F48270ADF80200BD
:1031D00003246846FEF7C8F91CAB002280210120B9
:1031E000FDF78CF980210120FDF767F92878002888
:1031F00004D0FEF76AFE641E002CEADC1DB030BD70
:103200002DE9FC5F00200090FFF740FA04460D46D0
:10321000FFF76AFA8846CE4907464FF0000008607B
:1032200048600881CB495FEA550B4FEA340A0860D1
:10323000486008814FEA00094FF00300FFF794FF50
:10324000C14800242646C068019032460120002172
:1032500008F026FA00EA0A0001EA0B0108433CD014
:1032600000252A460120002108F01AFA384001EA18
:10327000080108432ED0B848006890F8E8110120F2
:10328000A040014226D029463046FFF784FAB249D1
:10329000DFF8BCC209683CF91430B1F83421991A3E
:1032A000019B33F91430A3EB020200D54942002AF6
:1032B00000DA5242914204DBA6492CF8143021F87E
:1032C00014000F2805D2401CC2B229463046FFF731
:1032D00074FA641C6D1C3C2DC3DB761C242EB4DBFD
:1032E00009F10109B9F1100FA6DB4FF00109032024
:1032F000FFF73AFF002635462A460120002108F054
:10330000CFF900EA0A0001EA0B01084324D00024A7
:1033100022460120002108F0C3F9384001EA0801E3
:10332000084316D08C48006890F8E8110120B0409E
:1033300001420ED08748214610F81600019002463F
:103340002846FFF73AFA01980F2801D34FF00009F9
:10335000761C641C3C2CDBDB6D1C242DCCDBB9F112
:10336000000F02D10520FEF7D0FD0320FFF7FCFE81
:1033700075487A49C068FFF7E5F977490020774B2F
:103380000968012240F6FF7591F8E81102FA00F48D
:10339000214209D033F91040002C01DDAC4203DB9F
:1033A00001200090BDE8FC9F401C0528EEDB009842
:1033B000F8E72DE9F05F68490A6892F830010506E0
:1033C0006748037803F00F0407D492F83E1121F008
:1033D0000F0121430170BDE8F09F0025DFF868A1CF
:1033E000834604702E46012789460320FFF7BCFE62
:1033F0005A49DAF80C00FFF7A5F9D9F80020574B25
:10340000002092F8E81100BF07FA00FC11EA0C0F47
:1034100005D033F910C0B2F84D81C445DBDB401C48
:103420000528F1DB0F2D08D26D1CEDB244EA051022
:10343000761C8BF80000102ED7DBBDE8F05F04206F
:10344000FEF763BD2DE9FC5FFFF78FF904460D46DB
:10345000FFF798F9074688465FEA550B4FEA340AAA
:1034600040F6B8313F4808F0D1F900204FF0240968
:1034700000900120FFF778FE334800264068019055
:1034800035480068057D40E032460120002108F003
:1034900007F900EA0A0001EA0B01084334D00024CE
:1034A00022460120002108F0FBF8384001EA08011B
:1034B000084326D021463046FFF76DF92649DFF84C
:1034C000A4C009683CF91530B1F83421991A019B60
:1034D00033F91530A3EB020200D54942002A00DA85
:1034E0005242914204DB20492CF8153021F8150096
:1034F0000F2805D2401CC2B221463046FFF75DF9C5
:103500006D1C641C3C2CCBDB761C4E45BCDB009850
:10351000401C00901028ACDB01200090FFF724FE37
:103520000D4800250068067D2A460120002108F08C
:10353000B7F800EA0A0001EA0B0108432FD0002483
:1035400001202246002111E00450100080091000E3
:10355000548E01205E8E012020091000CC0C012029
:10356000F6071000688E0120209A012008F098F8D4
:10357000384001EA080108430ED0FE48214610F801
:103580001600019002462846FFF717F901980F2808
:1035900001D300200090761C641C3C2CD0DB6D1CF9
:1035A0004D45C1DB009810B90320FEF7AEFCBDE825
:1035B000FC5F0120D8E52DE9F05FEF4A116891F832
:1035C0003001C407ED48037803F0F00514D005700E
:1035D00000264B7D0C7DDFF8A8A35B1CB04691460E
:1035E00004FB03F783460120FFF7BEFD2046DAF80F
:1035F0000420D9F800100EE091F83E1101F00F01FF
:1036000029430170E7E600BF32F91030B1F832C14A
:103610006345F7DB401C8742F6DC0F2E0AD2761C8E
:10362000F6B245EA060108F101088BF80010B8F17E
:10363000100FD8DBBDE8F05F0220FEF766BC10B5C6
:103640004FF487614FF4801008F002F9FFF7B3FFE1
:10365000FFF7F8FEC84C206890F8E80118B1FFF7B2
:10366000A8FEFFF7CDFDC5482268401D017892F8FD
:10367000FB2701F0F00102F00F0211430170C14875
:10368000FFF7B1F8BDE81040012002F09FBB2DE923
:10369000F047FEF7FBFF81468846FFF725F8064610
:1036A0000F4600252A460120002107F0F9FF00EA15
:1036B000090001EA0801084311D000242246012034
:1036C000002107F0EDFF30403940084304D00022CC
:1036D00021462846FFF771F8641C3C2CEEDB6D1C7C
:1036E000242DDFDBBDE8F08710B5D124FFF7CFFF35
:1036F000A148006890F8E80128B1FFF75AFEFFF7EB
:103700007FFD44EA00442046BDE8104002F05EBB65
:103710002DE9F05FDFF8708297480025D8F80CA0FB
:10372000D8E90667D0F800902C4640F6FF7B224689
:103730000120002107F0B4FF3040394043460843E0
:103740001CD03AF9150028B1584507D1186840F047
:10375000100011E0186840F020000DE0B9F83621A3
:10376000B9F8411102EB010C844502DB511A814288
:1037700003DD186840F0400018606D1C641C402C8C
:10378000D5D300251E6AD8F810A0D8F824702C468E
:1037900022460120002107F083FF30403940424695
:1037A00008431DD03AF9150028B1584507D11068D3
:1037B00040F0100011E0106840F020000DE0B9F872
:1037C0003A11B9F8433101EB030C844502DBC91A05
:1037D000814204DD106840F04000C8F800006D1C14
:1037E000641C402CD4D3F6E52DE9F047DFF898911E
:1037F0000024DFF898A1D9E9067825462646324606
:103800000120002107F04CFF384001EA08014A4638
:10381000084304D01AF80600A04200D90446761CDA
:10382000402EECD3DFF864A1D2F82080D9F82470C0
:103830000AF1240A002632460120002107F030FF59
:1038400000EA08003940084304D01AF80600A842EC
:1038500000D90546761C402EEDD3484E4A4BF61C47
:10386000721C3470D01E157000781B680119901EF0
:10387000FF27007843F080032844814207D2401A92
:103880002044FF2801D830702CE7377008E08842C8
:10389000FAD2081A2844FF2801D8107022E71770BE
:1038A000C9F800301EE72DE9F84F3848DFF8DC9002
:1038B000804609F12409602107F0CAFFFFF794FF51
:1038C000FDF7D5FFFDF7B6FF04200324DFF8B8B0FD
:1038D000002600900220FFF747FCE0072DD04FF0B4
:1038E000000A574655462A460120002107F0D8FE17
:1038F000DBE9063C184001EA0C01084315D0DBF86F
:103900000C0030F917101C480068B0F838018142EB
:103910000ADA18F8050000994FF0010A0844FF2858
:1039200000DDFF2008F805007F1C6D1C402DDAD358
:10393000BAF1000F01D124F00104A0073CD54FF0EB
:10394000000A574655462A460120002107F0A8FEE6
:10395000DBE9083C184001EA0C01084324D0DBF8FD
:10396000100030F9171004480068B0F83C0181429B
:1039700019DA0DE0209A012020091000F607100046
:1039800004501000B83610008009100038041000F0
:1039900019F8050000994FF0010A0844FF2800DDDE
:1039A000FF2009F805007F1C6D1C402DCBD3BAF118
:1039B000000F01D124F0020444B1FFF715FFFDF719
:1039C00056FFFDF737FF761C642E83DB03240026A9
:1039D0000220FFF7C9FBE0072AD04FF0000A574644
:1039E00055462A460120002107F05AFEDBE9063C35
:1039F000184001EA0C01084312D0DBF80C0030F942
:103A0000171098480068B0F83801814207DD18F8AF
:103A1000050020B1401E4FF0010A08F805007F1C88
:103A20006D1C402DDDD3BAF1000F01D124F001044B
:103A3000A0072AD54FF0000A574655462A460120CE
:103A4000002107F02DFEDBE9083C184001EA0C01DB
:103A5000084312D0DBF8100030F9171081480068D5
:103A6000B0F83C01814207DD19F8050020B1401E85
:103A70004FF0010A09F805007F1C6D1C402DDDD3B5
:103A8000BAF1000F01D124F00204002C08D0FFF796
:103A9000ABFEFDF7ECFEFDF7CDFE761C642E97DB4A
:103AA000BDE8F88F2DE9F0476E4A00246E4D10688E
:103AB00090F830118B07214602D50124297002E0CD
:103AC00090F83F312B70914690F83021674E5207A5
:103AD00003D544F00204317002E090F840013070E8
:103AE000002C6CD06021624807F0B2FE5F49FF20D5
:103AF000891C0870491E0870FDF79CFEFDF7B7FE93
:103B0000DFF870814FF0100A00270220FFF72CFB2E
:103B1000E00723D0D8E902C30020014606E000BF39
:103B200033F91120824200DD1046491C6145F7DB64
:103B3000D9F80010B1F83621824202DA2878401E06
:103B400008E0B1F84B11814206DB28785044FF2889
:103B500000DDFF20287001E024F00104A00725D536
:103B600000200146D8F804C0D8F8103006E000BFA5
:103B700033F91120824200DD1046491C6145F7DB14
:103B8000D9F80010B1F83A21824202DA3078401EAA
:103B900008E0B1F84B11814206DB30785044FF2831
:103BA00000DDFF20307001E024F00204002C06D07C
:103BB000FFF71AFEFDF75BFE7F1C202FA5DB91E5CA
:103BC00070B52C4C00202060FEF7CFFCC4E9060144
:103BD000FEF70AFDC4E90801FEF758FDD4E9062303
:103BE0001943104349084FEA3000C4E906014FF079
:103BF000080104F11800FEF7C9FBA060082104F1D8
:103C00002000FEF7C3FB60600220FFF7ADFA1A4800
:103C1000A168806800EB4102E260626802EB41014A
:103C200000EB41002061FFF73DFF0E4D286890F842
:103C30003001800601D5FFF736FEFFF769FDFDF77D
:103C400016FE0A482968C01C027891F8FB1762F337
:103C5000030101702068BDE8704040F0020002F0EE
:103C6000B5B8000020091000F7071000F807100091
:103C700038041000800910000450100030B490E89F
:103C80001C009149C068C1E90240C1E900238021BC
:103C900030BC0120FCF7E2BB2DE9F0418B4D8046A2
:103CA0000C4628689EB090F8B10000F00F024FF06B
:103CB000FF30521C014607F0F3FCC643CF43684671
:103CC000FEF707FF01208DF80000ADF802402868DC
:103CD00000F5867001788DF81C1044F00101ADF8F4
:103CE0000210CDE90267ADF81880AFF26F010191C3
:103CF00041788DF81F108078734D8DF820000324D3
:103D00006846FDF731FC1CAB002280210120FCF746
:103D1000F5FB80210120FCF7D0FB2878002804D097
:103D2000FEF7D3F8641E002CEADC1EB0BDE8F0817B
:103D30002DE9F047654D4FF00009DFF88C812868C8
:103D400000F570700478467887781AE04946204676
:103D5000FFF7A2FFD8F8040005F09CFC0146286894
:103D600090F80B2112F00F0000D1012012094A43F4
:103D7000B2FBF0F082B22146302002F06AF8E0197E
:103D800084B2B442E2DDBDE8F0872DE9FF5F4FF673
:103D9000FF764FF0000A93460F468046344655465C
:103DA000DFF828911CE000BF38F815005146FFF7F6
:103DB00073FF4548406805F06DFCD9F8001091F894
:103DC0000B2112F00F0100D1012112094243B2FB75
:103DD000F1F080B2A04202D238F8156004466D1CA2
:103DE000BD42E1DBABF8006003980480BDE8FF9FB3
:103DF0002DE9F041354E05468846306888B090F888
:103E0000D12002F00F01C2F30214491C641C0A29DC
:103E100000DD0A21022C00DD0224D23006AB05AA07
:103E2000FFF7B3FF326892F8D00080071BD5BDF8CA
:103E300014600121E632ADF8006000204FF4803CB0
:103E40006F4607E013563344634502D227F811301A
:103E5000491C401CA042F5DB002904DD06AB05AA85
:103E60003846FFF792FFBDF814002880BDF81810FF
:103E7000A8F8001008B059E77CB50020FCF7DFFB7C
:103E8000134C01A968466588FFF7B2FF0F48006828
:103E9000B0F8FA10BDF80400814201D9218000E099
:103EA0002080BDF8000060800020FCF7E3FB09499A
:103EB0000120087008490870BDF800202946092033
:103EC00001F0AAFF7CBD0000145010002009100072
:103ED0004438100036091000760910002DE9F04131
:103EE000174604460D46002609E0E00703D0314698
:103EF000384601F0C9FE761C6D084FEA340454EAD6
:103F00000500F2D1BDE8F0812DE9F04116461F46CB
:103F100080464FF0FF35002422460120002107F0A3
:103F2000BFFB30403940084304D06D1C454501D1EA
:103F30002046E7E7641C402CEED30020E2E72DE9A1
:103F4000F0410F4606460A46F44D0120002107F0D5
:103F5000A7FBA5F180040F2E19D2DFE806F0BF7F82
:103F6000900819BFBF2A3B4C5D6EA1A8AF00D5E9F0
:103F700002233846FFF7C8FF02460120002107F060
:103F80008FFBD4E90C2310431943C4E90C01A5E0CD
:103F9000D5E904233846FFF7B7FF02460120002188
:103FA00007F07EFBD4E9182310431943C4E9180134
:103FB00094E0D5E902233846FFF7A6FF0246012028
:103FC000002107F06DFBD4E90E2310431943C4E927
:103FD0000E0183E0D5E902233846FFF795FF02463C
:103FE0000120002107F05CFBD4E9102310431943A2
:103FF000C4E9100172E0D5E904233846FFF784FFD5
:1040000002460120002107F04BFBD4E91C2310439A
:104010001943C4E91C0161E0D5E902233846FFF7E2
:1040200073FF02460120002107F03AFBD4E9122376
:1040300010431943C4E9120150E0D5E9042338467E
:10404000FFF762FF02460120002107F029FBD4E9B7
:104050001E2310431943C4E91E013FE0D5E90223A2
:104060003846FFF751FF02460120002107F018FBF8
:10407000D4E90A2310431943C4E90A012EE0D5E923
:1040800004233846FFF740FF02460120002107F0D5
:1040900007FBD4E9162310431943C4E916011DE0B8
:1040A000D4E9142310431943C4E9140116E0D5E9F7
:1040B000002310431943C5E900010FE0D5E90423AB
:1040C0003846FFF721FF02460120002107F0E8FAF9
:1040D000D4E91A2310431943C4E91A012068401C8B
:1040E00020600FE730B490E81C008D49C068C1E93A
:1040F0000240C1E90023802130BC0120FCF7AEB9A9
:1041000070B5FEF71BFA04460D46FEF7EDFA2043A4
:10411000294370BD70B5FEF701FA4D084FEA30042F
:10412000FEF7B4FA49084FEA300040EA040041EAD9
:1041300005010018494170BD2DE9F35F83464FF03A
:10414000FF37FFF7E7FF8146744800248038884630
:10415000D0F804A02546264632460120002107F06B
:104160009FFA02460B4600EA090001EA08010843EB
:1041700000D07F1C5F4514D1019801281CD029EA8A
:10418000020428EA0305122E09D9A6F11202012021
:10419000002107F085FA29EA000428EA0105B24661
:1041A0001E26761C1E2ED7D35C4829468038C0F8C0
:1041B00004A02046BDE8FC9F14461D46122EEED9F1
:1041C000A6F112020120002107F06AFA04430D4310
:1041D000E5E72DE9F34FA1B004466846FEF779FC08
:1041E0001CA8FDF715FDFFF795FF4C4E49084FEA57
:1041F0003000C6E90201FFF783FF4A4D4FF00C087B
:104200004FF020094FF0400A4FF0910B012CC6E906
:1042100004010DD00627022C2AD0032C31D0042C07
:1042200035D00A2C55D0062C5ED0082C7DD08FE0DE
:10423000FEF79BFACDE90201FEF7A4FA0122CDE9CF
:1042400004018DF80020ADF818808DF81F903C22F5
:104250008DF81CA08DF820B0ADF81A20DDE90223FE
:104260005B084FEA3202C6E90401C6E902236FE0A7
:10427000FFF750FFCDE90E01FFF742FFCDE9100136
:104280000FE0FFF73DFFCDE91001012104E0FFF74A
:1042900037FFCDE9100100212298FFF74DFFCDE94E
:1042A0000E018DF80070286800F55A7081788DF83D
:1042B0004C10C1788DF84F1001788DF8501041786E
:1042C0008DF851108188ADF848100089ADF84A008A
:1042D0003EE0FFF71FFFCDE90E01FFF711FFCDE92B
:1042E00010018DF8007033E0FFF714FFCDE90E01E7
:1042F000FFF706FFCDE910018DF80070286800F285
:10430000613081788DF84C10C1788DF84F100178AC
:104310008DF8501040788DF8510019E0280A1000EF
:104320002450100020091000FFE708208DF800003D
:10433000ADF81880DDE90A018DF81F908DF81CA0FA
:104340008DF820B0C6E90201DDE90C01C6E90401DF
:1043500000208DF84E008DF81D008DF84D008DF871
:104360001E00AFF27F2103260191012C13D0092CEE
:1043700024D00A2C22D000BF8DF876008DF878006A
:104380008DF87700022C10D0032C0ED0042C0CD00A
:10439000052C0AD012E0296891F8891741F0030131
:1043A0008DF870108DF87100E6E72868B0F86E138C
:1043B000ADF87210B0F87203ADF874001CA8FDF7E8
:1043C00047FCFE4C6846FDF7CFF81FAB002280216A
:1043D0000120FCF793F880210120FCF76EF820788B
:1043E000002804D0FDF771FD761E002EEADC23B014
:1043F000BDE8F08F2DE9FF5F00210120FFF7E9FE06
:10440000EE48D0F80490FEF7B0F9CDE90201FEF7CE
:10441000B9F9CDE90001082102A8FDF7B7FF074669
:1044200008216846FDF7B2FF06460020CDE90000EE
:104430000546DFF88CB358E0E2484FF00008C2466A
:10444000D0E904232846FFF75FFD02460120002142
:1044500007F026F9DB4A803AD2E91C3218401140B5
:10446000084341D1012430E004FB0651DBF8000091
:1044700039F9112090F86703B2EB001F24DA08F134
:104480000108BAF1000F00D1A2467A1E94421BD156
:10449000B8F1010F18D1721E954204D1611E01209E
:1044A000FFF74DFD0EE009EB4101B1F90220B2EB3F
:1044B000001F05DB35B131F9021CB1EB001F01DA39
:1044C000002000E002208046641CBC42CCDBA7EB4D
:1044D0000A01414508D829460220FFF730FD012096
:1044E000009AA840104300906D1CB542A4DB012542
:1044F00051E000BF4FF0000A544642E0DFF8C482AA
:104500000021A8F18008D8E91C02D8E918C340EAC4
:104510000C001A4310431FD0AA48D0E904232046B8
:10452000FFF7F2FC02460120002107F0B9F84346EC
:104530000246D3E91C8C8E4600EA080001EA0C0111
:10454000084306D1D3E9181C0A400EEA0C000243C6
:1045500001D0012100E0002105FB0642DBF800004C
:1045600039F9122090F86703B2EB001F08DA39B965
:104570000120009AA0401040000001D10AF1010A78
:10458000641CB442BADBBAF1000F03D0691E0120EB
:10459000FFF7D5FC6D1CBD42ACDBBDE8FF9F2DE9EC
:1045A000F04781468748DFF820824FF0FF35D0E999
:1045B0000467002422460120002107F071F83040F2
:1045C0003940084307D06D1C4D4504D118F804004C
:1045D000103008F80400641C402CEBD3BDE8F04711
:1045E000FDF728B92DE9F04781467648DFF8D881F4
:1045F0004FF0FF35D0E90467002422460120002156
:1046000007F04EF830403940084307D06D1C4D4547
:1046100004D118F80400103808F80400641C402C79
:10462000EBD3BDE8F047FDF705B92DE9F041654C46
:104630000020803CA061FFF76DFD644DC5E90001DD
:10464000FFF75EFD624AC2E90001D5E900014908B1
:104650004FEA3000C5E900014FF008012846FDF798
:1046600095FE5C4D082128605948FDF78FFE5A4E93
:1046700030600220FEF778FD5848594A2968806862
:1046800000EB410313603368564A03EB410100EB32
:1046900041001060FFF706FAFFF705F9FDF7E7F8AC
:1046A000022001F093FB50480178EF2902D9002144
:1046B000102016E010310170FDF7D9F800210A2012
:1046C000FFF787FD3D4F00204FF47A68BA68A36872
:1046D00061690BE01D1832F91550454505DD0021D3
:1046E0000F20BDE8F04101F0CFBA401C8842F1DB59
:1046F00000253BE02846FFF752FF002D02DD681E33
:10470000FFF770FF00210A20FFF763FD0026B8685D
:1047100028E0AE4225D0A168314430F9111041455E
:104720001FDD2846FFF75EFF3046FFF738FF002108
:104730000A20FFF74EFDA168B868294430F911003E
:10474000404503DD31460E20FFF7F9FB3046FFF709
:1047500049FF2846FFF723FF00210A20FFF739FD14
:10476000B868761C61698E42D3DB6D1C8D42C1DB5B
:10477000B7E42DE9F04700252E4629460820FFF72B
:1047800028FD0E480E4C0021C76820684FF0010834
:1047900000F5F57990F8E82108FA01F31A4208D0FB
:1047A00037F9113090F87DC3B3EB0C1F00DA6D1CA4
:1047B000761C491C0529EFDBB54217E02450100098
:1047C00020091000280A10005C041000980910004D
:1047D000A00910008809100084091000045010007E
:1047E0008C09100090091000FA0710000CD190F805
:1047F000E611C90790F8E91101D00D2000E00C2066
:10480000BDE8F047FFF79BBB002D1CD000252068BA
:1048100008FA05F290F8E811114211D037F9151095
:1048200090F87D23B1EB021F0ADA90F8E60119F83F
:104830000510C00701D00C2000E00D20FFF77FFB22
:104840006D1C052DE3DBBDE8F0872DE9F04100216B
:104850000620FFF7BEFCF1480025F14EF14C8768B9
:104860000EE0E0683168284437F9100091F86513CC
:10487000B0EB011F03DD29460A20FFF760FB6D1C2A
:1048800020698542EDDB00250EE0A06831682844F0
:1048900037F9100091F86613B0EB011F03DD2946CC
:1048A0000B20FFF74CFB6D1C60698542EDDB18E4C3
:1048B0002DE9F041DB4D0020064628623EE03146FE
:1048C0000420FFF786FCD5480024876832E000BF4B
:1048D000FFF716FC02460B462046FFF715FB024683
:1048E0000120002106F0DCFED5E918231040194014
:1048F00008431ED1CA49A8682044096807EB400054
:1049000030F9040C91F87813B0EB011F07D9314648
:104910000820FFF714FB21460920FFF710FBA868C9
:10492000296A204407EB400030F9040C884200DD7E
:104930002862641C68698442CAD3761C286986424E
:10494000BDD315E72DE9F047B64C00200546DFF84A
:10495000CC82DFF8CC92E06121E029460320FFF70A
:1049600038FC6068D8F80870122801D9032600E0E6
:10497000012637F91610D9F8000090F87603B1EB4C
:10498000001F03D929460720FFF7D9FA37F9160087
:10499000E169884202DD37F91600E0616D1C20698B
:1049A0008542DAD34FE72DE9F04100210220FFF7DD
:1049B00010FC9A489A4D9B4C8768286890F86003D1
:1049C000000713D500260EE0E0682968304437F967
:1049D000100091F87413B0EB011F03D93146032086
:1049E000FFF7ADFA761C20698642EDDB286890F867
:1049F0006003C00613D500260EE0A0682968304485
:104A000037F9100091F87513B0EB011F03D9314647
:104A10000420FFF794FA761C60698642EDDBA7E676
:104A20002DE9F04F89B00020FBF709FE4FF480100C
:104A3000411206F0EBFEFCF71AFFFCF7FBFE794C87
:104A400000202060FFF766FBCDE90401FFF758FB6B
:104A5000CDE90601082104A8FDF798FC05460821C8
:104A600006A8FDF793FC014600EB4500C4E90205EA
:104A7000C4E904516A4D286890F86003010701D425
:104A8000C00601D5FFF78FFF286890F86003800605
:104A900001D5FFF757FF286890F86003000601D59D
:104AA000FFF706FF286890F86003C00701D0FFF702
:104AB000CCFE286890F86013490704D590F8E80107
:104AC00008B1FFF756FE286890F86003400601D54C
:104AD000FFF7ABFD286890F86003800701D5FFF76A
:104AE00089FC206800287DD004F1300393E8C810C9
:104AF0009F432CEA060CC4E90E7CD4E90A0121EAA2
:104B00000609D4E91821D4E9168598438E468D43C9
:104B1000B84329EA0C01C4E90A01CDE90201D4E94C
:104B20001AA928EA020828EA0A0825EA0905C4E9B8
:104B300016859346D4E914129943B243CDE9001285
:104B4000DDE90012374DB943803522EA0C02D5E980
:104B50000008D4E910C721EA0C01BA43C4E91412D1
:104B6000D4E91C2120EA0B0028EA0E0820EA0A00FA
:104B700028EA0908904328EA0108C5E9000823EA61
:104B80000C03BE43C4E90C36DDE902010122FFF744
:104B9000A5F9D4E916010222FFF7A0F9D4E90C0126
:104BA0000322FFF79BF9D4E918010422FFF796F9D5
:104BB000D4E90E010722FFF791F9D4E91001082288
:104BC000FFF78CF9D4E91C010922FFF787F9D4E932
:104BD00012010A22FFF782F9D4E91E010B22FFF726
:104BE0007DF900E014E0D4E914010C22FFF776F916
:104BF000D5E900010D22FFF771F9D4E91A010E225F
:104C0000FFF76CF90020FBF735FD09B0BDE8F08F28
:104C10000021084601F038F8F4E7000024501000A5
:104C200020091000A8091000F0B535480068437D40
:104C3000017DB0F84C44B0F84A6432484B4300EB75
:104C4000410500210A4608460AE000BF35F9107008
:104C5000A74201DD491C02E0B74200DA521C401CA9
:104C60009842F3DB914201DD0120F0BD0020F0BD50
:104C700010B5FFF7D9FF044601280FD1224801687B
:104C800041F0050101602148016841F02001016007
:104C90001F49012008708102FBF7E0FB204610BD90
:104CA0002DE9F0418046194800252E4600788006FF
:104CB00023D50024174F0AE0012808D1FEF7BFFCD6
:104CC0000125798800230F4A4046FEF7DCF8FFF7FC
:104CD000ABFF48B1641C032CEEDB012E04D0BDE811
:104CE000F0410020FDF711B9C12001F06FF8012D4E
:104CF00003D1BDE8F04106F021BCBDE8F081000021
:104D00002009100042000120240910002C09100085
:104D1000280910004438100008B5584D584E00249A
:104D2000287880B10128FBD16B46002241F27D71C9
:104D3000FBF7E4FB0098C1071ED001210846FBF7F2
:104D4000BCFB2C70ECE701210020FDF71CFD6B463D
:104D5000002202210120FBF7D1FB01210846FDF7CB
:104D600012FD00988007DBD541F27F710120FBF72F
:104D7000A4FB01202870D3E701070CD508210120EE
:104D8000FBF79BFB0020FBF75AFC0620FBF757FCC8
:104D9000FEF755FC1DE041070CD504210120FBF76F
:104DA0008CFB0020FBF74BFC0620FBF748FCFEF7D2
:104DB00007FF0EE0C10413D54FF480510120FBF72B
:104DC0007CFB0020FBF73BFC0620FBF738FCFEF7E2
:104DD0008BFC0620FBF74EFC0020FBF74BFC9FE70B
:104DE000C10606D510210120FBF767FBFFF744F849
:104DF00096E7810601D520210DE0C10507D54FF4C6
:104E000080710120FBF759FBFEF792FF88E78105CF
:104E100005D54FF400710120FBF74FFB80E74106F9
:104E200006D540210120FBF748FBFFF7F9FD77E7A6
:104E3000400587D54FF480610120FBF73EFB114808
:104E400004601148076804603846FEF71BF9A7F5AF
:104E50004070B73801D1052009E0F80701D01520CE
:104E600005E017F0420F04D0306840F0060000F073
:104E7000ADFF06480460346052E70000400A1000AD
:104E8000300910005C0A1000240910002C091000E1
:104E90000E490020486008600D49087070470D48B1
:104EA00010B5006890F82000C0070DD00A480B49E3
:104EB00000780978084307D10320FBF7C0FBBDE861
:104EC00010400320FBF7D6BB10BD0000440A1000C1
:104ED00075091000200910003D0910004309100059
:104EE000F0B40C460146DDE90460F51A012801D052
:104EF000002011E02046F0BC520006F008BC00BFC4
:104F000034F9107031F910C05F430CFB057797FB43
:104F1000F6F724F81070401C9042F1DBF0BC7047AB
:104F20007CB52648264D0022017802702868254C61
:104F300090F86322CDE9002190F86232227822496C
:104F40002248FFF7CDFF207820494200204806F094
:104F5000DEFB20781C4942001E4806F0D8FB28687A
:104F600090F864120091B0F960222378164917482E
:104F7000FDF76CFE012800D000207CBD38B5164935
:104F8000D1E900231149FDF771FBFFF7C9FF134C6D
:104F90000028207011D1009009480A4A0B4D016881
:104FA0001278487D131AB1F96022074901EB4001DC
:104FB00005EB4000FDF74AFE207038BD45091000A2
:104FC0002009100068091000680C0120040C012061
:104FD000D60C01203A0D0120600910004209100092
:104FE0003A483B4A00685168414000D050607047E1
:104FF000704710B536480021364C0170364920689C
:10500000084214D035480078002810D10620FBF75C
:1050100016FB0620FBF72EFB31480078052802D14D
:105020002068002803DABDE81040FFF738BF10BD44
:10503000274900204860FFF72BBF254C08B5002505
:105040006570FFF7F5FF4FF6FF76607820B3012813
:10505000FBD16B46002215210420FBF74FFA009884
:10506000C00706D031460420FBF727FAFFF7E0FF20
:1050700065700098400705D504210846FBF71DFA26
:10508000FFF7B7FF0098C006DFD510210420FBF71B
:1050900014FAFFF7A5FFD8E704210020FDF773FB02
:1050A0006B46002202210420FBF728FA042101208C
:1050B000FDF769FB00988007C7D531460420FBF750
:1050C000FCF9FFF7B5FF01206070BEE7E40A1000AD
:1050D0004C0A100058091000140200803D0910000D
:1050E0005E091000FF4910B500204861FE4B886141
:1050F0000122C8611A70FD4BC86008611870FC4B32
:10510000FE4C1870FB4B08701870FB4B5B882380BB
:10511000FB4C2380FB4BFC4C1A700022C4E900229C
:10512000FA4A1070FA4A10708870C87010BD08B53D
:1051300002210020FDF727FB6B4600224FF480710F
:105140000220FBF7DBF902210120FDF71CFB009890
:10515000C00509D5FFF7C6FF4FF6FF710220FBF728
:10516000ACF9E0490120087108BD00EB80004FF662
:10517000FF7101EA4000FBF721BCFBF72FBC2DE9D2
:10518000FF4115460E460746FDF7EFF9CDE9000150
:10519000FDF72AFACDE90201DDE9000149084FEAED
:1051A0003000CDE900014FF008016846FDF7EEF848
:1051B0000446082102A8FDF7E9F800EB440C07EBD0
:1051C000440207EB4C03014606EB440706EB4C0692
:1051D000002006E032F810C00CFB05FC27F810C0D8
:1051E000401CA042F6DB002006E000BF33F8102090
:1051F0006A4326F81020401C8842F7DBBDE8FF8197
:10520000FDF753BCC348006890F829010106C24865
:1052100002D50188491C01E0B249C9880180704764
:105220002DE9F84FBB4DBD48002629680278374666
:1052300091F8C8104FF00109CB07B24618D08B0780
:1052400016D5B74B1B78C1F3820409FA04F449461A
:10525000234202D080F8009002E0514680F800A07E
:10526000C8B2824204D0012812D0CD2000F0AEFD99
:10527000DFF8B0829B4C98F8000058B1042878D031
:10528000022876D0FCF721FEC4F818A0BDE8F88FFC
:10529000CC20EBE7FFF7B6FF934800780128F3D066
:1052A0000620FBF7CCF9207EC0071BD0954981F87A
:1052B00000909D49D8F80400FFF7A2FF022000905B
:1052C0002868012690F814C0417DB0F96E219748F6
:1052D0000CFB01F300EB4C01934800EB4C00FDF795
:1052E000B5FC2070286890F8E80140B1207E800766
:1052F00005D58F49D8F80C00FDF724FA0126208B3C
:1053000010F4CA7F1ED08749D8F808001031FDF785
:10531000A9FB207E000608D52868824990F8CC2792
:105320001031521C0846FFF72AFF7E488149103091
:10533000FDF798FB7F48FFF721FE7F4800780128A2
:1053400000D101270620FBF795F97C49A069012EC1
:10535000086003D104210320FBF780F8012F93D1CB
:10536000FBF73CFB01210220FBF778F8012014E059
:10537000FFE701460022AD2000F066FCFBF72EFBA4
:1053800001210220FBF76AF82968012091F8F0104A
:1053900001B108465D4A82F80090FFF7E6FE73E728
:1053A00030B490E81C005F49C068C1E90240C1E91F
:1053B0000023022130BC0846FBF750B870B59CB002
:1053C00004466846FDF785FB46484D494B4B8461D2
:1053D0000A881A80484A52880A804E49E2071BD040
:1053E0009DF8002042F001028DF800200A6892F832
:1053F0002031DB0710D03C4B1B78032B0CD0002C4A
:105400000ADB92F822318DF81C3092F821218DF8B8
:10541000202044F480628261A20709D50A6892F8CC
:10542000E8212AB19DF8002042F008028DF8002002
:1054300014F48A7F18D0002C16DB9DF8002042F06F
:1054400002028DF80020DDE90E32DDE90A562B4319
:1054500032432D4DCDE90E32C5E90032BDF80220B0
:1054600042F00802ADF80220E2051DD5344A127858
:10547000012A03D0334A1278012A15D1096891F81C
:10548000B021120710D500228DF84E2091F8CD17CB
:10549000C90705D09DF8001021F010018DF800100B
:1054A000816941F080018161AFF20B100190684683
:1054B000FCF75AF81CB070BD70B50B48027815485F
:1054C000052A016843D0204891F81A410022037848
:1054D0000448DBB30E4D2B78012B3ED08078012899
:1054E00044D045E0540A10005E091000370910004E
:1054F00038091000760910004438100078091000AF
:105500007A091000450910006009100046091000D2
:1055100047091000200910006A091000480910000E
:105520004B000020345010000011100042000120F8
:10553000CC0C0120148D01204209100058091000E4
:105540003F0910003E0910003D09100002E091F8EB
:105550001D410DE00A21C17003E0C3781BB15B1E41
:10556000C370827004E0012383702A7091F81B419C
:1055700004B91424FBF70AFB002801DD04EB8404C2
:10558000204670BD30B5FF49054600200B6893F8F2
:105590002010C90712D0FC490A78FC49052A0ED010
:1055A00093F83920FA4C24781CB193F84944E40765
:1055B00002D0F84C24785CB152428A6030BD4C78FD
:1055C00093F83A20032CEDD2641C4C708A60E9E712
:1055D0008C68641C8C609442F0DD0020886093F835
:1055E000E811012001B10320284040F0004030BD07
:1055F0002DE9F05FE849DFF89493E34F0A78E44936
:1056000000264C46D9F814303D78097894F800A06B
:1056100030465FEAC37C34460FD0DFF88083012A2E
:1056200008D039B998F800C0BCF1010F02D0BAF126
:10563000010F02D188F8004001205FEA837C07D582
:10564000DFF850C39CF800C0BCF1010F00D101206D
:10565000CB46DFF84C83DFF84C935B0600D559B995
:10566000012809D0C7498BF8024058460968032D24
:105670000BD0022D19D040E0052D03D15146AB20AF
:1056800000F0E2FA032558464EE0C46089F8004075
:1056900088F800400269521C026191F85D11914244
:1056A0002BDA0225CBF810402AE0BF4A1278012AF3
:1056B0003AD0BE4A1278012A36D0BD4A1278012A61
:1056C00032D091F81821D20717D00461C268521C59
:1056D000C26091F8191101EBC10303EB0111B2EBA8
:1056E000810F0AD30120CBF80C4089F8000000227A
:1056F00005251146AA2000F0A7FA3878854201D086
:10570000AB480470032D17D0022D17D0052D19D0EA
:1057100001203870DBF814005D460640CBF81C60B1
:1057200099F80010E9B11DE00461CBF80C4089F84C
:10573000004088F80040E0E7032000E002203870D5
:105740000326E7E7052038709BF81400400704D5CE
:105750000426012088F80000DCE7172688F80040BE
:10576000D8E76C70FFF70EFFE9690843E861BDE810
:10577000F09F08B50020FAF762FFFFF739FF8D4967
:105780000868002809DD824A127832B9401E086094
:1057900003D102210520FAF761FEFFF78DFEFFF726
:1057A000E4FC7A48C069FFF709FE02216B4600223B
:1057B0000846FAF7A3FE02210846FAF77EFEFFF735
:1057C0002FFD0020FAF756FF08BD10B50121022079
:1057D000FAF773FEBDE81040CBE72DE9F05F002734
:1057E00004210220FAF769FE7348DFF8A0810668F9
:1057F000D8F8141091EA0605B9D0DFF8A8A1DFF8AF
:10580000A09135424FF6FF7B3C4623D011BB6B483D
:105810000127594604600220FAF74FFEC8F81840E5
:10582000C8F81C40C8F80C40C8F81040C8F8084038
:105830008AF80040534989F8004088F80040096818
:1058400091F82911890705D55D48A8F8064004801C
:105850005C480480042D01D189F800404A4D40463F
:10586000C8F8146076B10221012F15D02A78052AD4
:1058700007D1C460C8F810408AF8004089F8004099
:10588000297074E7FBF7AAF8012028705946BDE893
:10589000F05F0220FAF711BEF00702D00320287053
:1058A00000E02970BDE8F05F63E710B51021022029
:1058B000FAF703FE3448017801290AD00521017066
:1058C00032490020374A0861C8600121117034490B
:1058D000087010BD10B508210220FAF7EEFD2A4825
:1058E0000178052910D1294A00212E4B1161D16080
:1058F00019702B4B19705169CA0701D0032102E0BE
:105900004A0702D50221017010BD8905FCD504218A
:10591000F9E708B56B4600229D210220FAF7EEFD5B
:105920000098010702D5FFF7D5FF0DE0C10602D5AB
:10593000FFF7BBFF08E0410702D5FFF74EFF03E08A
:10594000C00701D0FFF741FF0098000607D50F49B7
:10595000002008714FF6FF710220FAF7AEFD08BD76
:1059600008B502210020FCF70EFF6B4600228421BF
:105970000220FAF7C3FD02210120FCF704FF009882
:10598000400721E0200910005E091000540A1000B1
:105990003D091000430910004009100042091000A1
:1059A00038091000370910005C0910005D0910006B
:1059B00075091000E00A1000E40A100058091000F0
:1059C0006A0910006C09100001D5FFF706FF009866
:1059D000000607D52449002008714FF6FF71022008
:1059E000FAF76BFD08BD204D0020204C28710BE01C
:1059F000287948B10128FBD12078012807D0052853
:105A0000F6D8FFF786FFF3E7FFF791FBF0E7FFF724
:105A1000A7FFEDE7144900200861C8601449087029
:105A200014490870704710B5FBF7A4FF0E49002019
:105A3000886110BD10B5FAF7D1FF0121BDE8104013
:105A40000220FAF70BBD80B2FAF7E2BFFAF7F0BF17
:105A500010B5FAF7EDFF0448C188491CC180BDE8C4
:105A600010400120EFE70000540A10005E0910000A
:105A7000370910003809100010B504460220FAF763
:105A8000DEFD2046FBF78CF8BDE810400220FAF757
:105A9000F1BDFBF785B81CB500210091019102789A
:105AA0009DF8001062F303018DF80010427862F354
:105AB00007118DF800104289BDF8011062F30B0147
:105AC000ADF801100289BDF8021062F30F11ADF8B4
:105AD000021081798DF80410C1798DF805100179D3
