:100000005555AAAA101400000000000000000000CE
:10001000198200000000000000000000903AC704B0
:100020000009100005080000890200009F0200007E
:10003000B5020000CB020000E10200000000000059
:10004000000000000000000000000000512500003A
:100050005525000000000000F702000057250000B1
:10006000592500007D23000071250000B323000006
:1000700073250000752500008325000087250000FA
:10008000090300008D2500008F250000AD2500002C
:10009000AF250000B1250000B325000000000000DE
:1000A0000000000000000000000000000000000050
:1000B0000000000000000000000000000000000040
:1000C0000000000000000000000000000000000030
:1000D0000000000000000000000000000000000020
:1000E0001014000000F002F800F05AF80AA090E89E
:1000F000000C82448344AAF10107DA4501D100F0E3
:100100004FF8AFF2090EBAE80F0013F0010F18BF55
:10011000FB1A43F00103184774F0000094F000004C
:100120000A444FF0000C10F8013B13F0070408BF1D
:1001300010F8014B1D1108BF10F8015B641E05D0BB
:1001400010F8016B641E01F8016BF9D113F0080F70
:100150001EBF10F8014BAD1C0C1B09D16D1E58BF02
:1001600001F801CBFAD505E014F8016B01F8016B39
:100170006D1EF9D59142D6D37047000000230024AC
:1001800000250026103A28BF78C1FBD8520728BFA7
:1001900030C148BF0B6070471FB51FBD10B510BD03
:1001A000DFF80CD0FFF7F8FF02F02DFB0EF0E4FDB6
:1001B0000009100003B4FFF7F1FF03BC0EF0E4FDEB
:1001C0000A484FF0FF0101704FF0000080F31188E2
:1001D0004FF0000080F3098805484FF002010170DC
:1001E00062B604484FF080510160704722ED00E094
:1001F0000009100004ED00E002484FF0805101605A
:100200007047000004ED00E04FF0200080F31188FB
:10021000EFF3098098B112480068124909688842D2
:1002200017D0EFF309800E49096820E9F00F8860C4
:1002300000B50B48006800F0F2F85DF804EB0848E0
:1002400008490A68026000688168B1E8F00F81F32C
:1002500009884EF0040E4FF0000080F311887047BB
:100260000409100008091000EFF311804FF020017D
:1002700081F31188704700004FF0000080F311886F
:100280007047000062B6704772B6704740BA704758
:10029000C0BA7047401E0028FCDC704700BE7047A3
:1002A00040BA7047C0BA70471EF0040F0CBFEFF39E
:1002B0000880EFF309804FF0010102F0AEB81EF0A4
:1002C000040F0CBFEFF30880EFF309804FF0020139
:1002D00002F0A3B81EF0040F0CBFEFF30880EFF399
:1002E00009804FF0030102F098B81EF0040F0CBF14
:1002F000EFF30880EFF309804FF0040102F08DB8AE
:100300001EF0040F0CBFEFF30880EFF309804FF0ED
:10031000050102F082B84FF0000000B502F04BFF7B
:100320005DF804EBFFF770BF1EF0040F0CBFEFF396
:100330000880EFF309804FF0000102F06EB8000072
:10034000194910B5012008701849002008601849A3
:100350000860184908601849086000F0B9F900F011
:100360004BF900F063F8002010BD10B5114800F003
:100370002AF90F4908600D490968884207D00A48E0
:100380000078022803D1BDE81040FFF735BF10BD4B
:1003900010B5FFF7EAFF044902200870FFF710FFCD
:1003A0004FF0FF3010BD00000009100004091000DC
:1003B000080910000C0910001009100070B50D4656
:1003C0000446C1698068CC220EF0D9FBE169A068BF
:1003D000084440384FF08071C163216A8163002175
:1003E00041630163C1628162C0E908514FF00B3182
:1003F000C1614FF00A3181614FF0093141614FF025
:10040000083101614FF00731C1604FF00631816062
:100410004FF0053141604FF00431016070BD8269D9
:100420008168914201D802F08CBA704710B54FF440
:10043000B4714F480EF0CDFB002010BD70B50546DD
:1004400000EBC5014A4800EB8104FFF70DFF0646AB
:10045000207828B13046FFF70FFF6FF0010070BD24
:100460000320207000206560206204F11C0000F071
:1004700083F83046FFF700FF002070BD2DE9F04102
:100480000F463B49002500EBC00001EB80042E46DF
:10049000FFF7EAFE8046206A3843206204F11C0020
:1004A000074600F090F80CE0216A026C114203D07C
:1004B00000F066F9012600E06D1C2946384600F080
:1004C00078F80028F0D1012E01D1FFF74EFF404609
:1004D000FFF7D2FE0020BDE8F08170B50D4624493B
:1004E00000EBC00001EB8004FFF7BEFE216AA943C8
:1004F0002162FFF7C1FE002070BD70B50C461C499B
:1005000000EBC00001EB800500202060FFF7ACFE8F
:10051000296A2160FFF7B0FE002070BD2DE9F0418F
:100520000D46134900EBC0001E46904601EB8004C7
:10053000FFF79AFE07460F4800680564216A2942C2
:1005400003D104F11C0100F02DF93846FFF794FEA9
:10055000FFF78AFE216A29403160B8F1010F02D10C
:10056000216AA9432162FFF787FE0020B3E700005C
:10057000440B100004091000002101600846704778
:1005800030B50A6812B10B46C46B09E0002208605E
:10059000C0E903210BE000BF02F10C03D26812B1E5
:1005A000D56BA542F8DC1A68C0E903211860002069
:1005B00030BD0068002201E0C068521C8A4201D0B0
:1005C0000028F9D170470068704702690AB11168C4
:1005D00031B96FF00400704701F10C02C96839B1FC
:1005E0008142F9D1C9681160002101610846704754
:1005F0006FF003007047000010B54FF4C871324827
:100600000EF0E7FA002010BD2DE9F04188460546BE
:100610002D4900EB8500174601EBC004FFF724FECF
:100620000646207830B13046FFF726FE6FF0010015
:10063000BDE8F08102202070E7611422414604F1F8
:10064000080065600EF056FA0020206204F12400D4
:10065000FFF792FF3046FFF70FFE0020E8E770B586
:10066000194900EB800001EBC004FFF7FDFD0546D2
:10067000D4E90701814205DB144804F12401006834
:1006800000F090F8206A401C20622846FFF7F4FD35
:10069000002070BD70B50C4900EB800001EBC00478
:1006A000FFF7E2FD0546206A08B1401E206204F112
:1006B0002400FFF788FF10B1606A00F011F82846A7
:1006C000FFF7DAFD002070BDAC0C1000040910002B
:1006D00010B54FF42A7140480EF07BFA002010BD8F
:1006E00010B5044690F8380002280BD02046FFF7DA
:1006F0006CFF022084F8380038492046FFF740FF9D
:10070000FFF733FE002010BD2DE9F05F8B46064653
:10071000314900EB06109046DDE90AA911F82020C6
:100720001D461AB16FF00100BDE8F09F01EB800497
:10073000FFF79AFD074601202070C4E90165C4E96E
:100740000585C4E907A91422594604F124000EF0D6
:10075000D1F9002084F8370084F838006169E0603E
:100760002061C4E90F1020460C99FFF727FEA06016
:100770002046FFF7B5FF3846FFF77EFD0020D3E7A0
:1007800010B5044690F83800022809D02046FFF73B
:100790001CFF022084F8380010492046FFF7F0FEC5
:1007A000002010BD70B5044690F838000D460228B0
:1007B0000BD12046FFF709FF032084F838002946B3
:1007C0002046FFF7DDFEFFF7D0FD002070BD044896
:1007D00000684068704700003C0E10000C091000D3
:1007E00004091000F0B58446002004460C4F14E0C4
:1007F0005CF824600323DD0046FA05F280EA02601B
:100800000825002802DA87EA400000E040006D1E5B
:10081000002DF6DC5B1EEED5641C8C42E8DBF0BDDF
:100820001B0000800D4880470D480047FEE7FEE7AB
:10083000FEE7FEE7FEE7FEE7FEE7FEE7FEE7FEE790
:10084000FEE7FEE7FEE7FEE7FEE7FEE7FEE7FEE780
:10085000FEE7FEE7FEE7FEE7FEE7FEE78D080000A5
:10086000C50000004FF0005292F8210010F00C007B
:100870000BD004280BD008280BD07820411E02F89A
:10088000281F11701349087070470F20F6E71E20CB
:10089000F4E73C20F2E70F49097848436421B0FBB4
:1008A000F1F00D49401E08700870704770470A4902
:1008B0003F20C91F0870D5E707493320C91F0870BA
:1008C000D0E70548C01F00783F2801D000207047BE
:1008D00001207047140910002800002010B50849B5
:1008E000042001240023C1F8FC00064A14601360B0
:1008F000054BA0221A70C1F8FC01C86710BD0000AA
:1009000084E000E0D403002202E400E010B50420FB
:1009100000F0F7F8052000F0F4F8062000F0F1F8F8
:10092000072000F0EEF8082000F0EBF886490020E0
:10093000086085492031086084490880824A121D78
:100940001060814A2432106088807F4A083210602B
:100950007D4A2832106008817B4A0C3210607A4A46
:100960002C3210608881784A10321060764A30321A
:10097000106008827649086048600621042000F073
:10098000D8F80621052000F0D4F80621084600F02A
:10099000D0F80621072000F0CCF80421082000F050
:1009A000C8F8042000F0B9F8052000F0B6F80620D9
:1009B00000F0B3F8072000F0B0F8082000F0ADF820
:1009C000042000F092F8052000F08FF8062000F0D7
:1009D0008CF8072000F089F8BDE81040082000F0EE
:1009E00084B800EB80004FF6FF7101EA40015648E1
:1009F00000220260C206118601210160704752493F
:100A000000200860704700EB80004FF6FF7101EA9C
:100A100040014D480022001D02604FF000529186B7
:100A200001210160704748490020091D0860704796
:100A300000EB80004FF6FF7101EA400142480022BE
:100A4000083002604FF000521187012101607047A9
:100A50003D49002008310860704700EB80004FF6E8
:100A6000FF7101EA4001384800220C3002604FF06B
:100A700000529187012101607047334900200C31F9
:100A8000086070473349097848430A21B0FBF1F107
:100A90003148491E80F86010442181761121C176C9
:100AA000042280F8602048228276C17670472A4866
:100AB000002180F86010482181761121C1767047AD
:100AC00000EB80004FF6FF7101EA40011E48002252
:100AD000103002601D4A0E32118001210160704702
:100AE0001949002010310860704700F01F020121F1
:100AF000914040094FF0E02202EB8000C0F8001165
:100B0000704700F01F020121914040094FF0E022A0
:100B100002EB8000C0F88011704700F01F02012135
:100B2000914040094FF0E02202EB8000C0F88012B3
:100B300070474907090E002803DA00F00F00074A42
:100B400000E0074A8154704724050022320000204B
:100B500084000022850910000010002014ED00E040
:100B600000E400E049480121016000210160704774
:100B700047480121016000210160704710B5002045
:100B800000F06BF8FFF7F4FFFFF7ECFF414900209E
:100B900008604149A0200870002000F06AF8BDE814
:100BA0001040002000F04DB83A4801211C38016087
:100BB00000210160704710B5002000F04EF8334965
:100BC00001200860002000F054F8BDE8104000202B
:100BD00000F037B82D4901201C39086070472F48B4
:100BE00000782E49491C0978401A00F03F007047F0
:100BF0002B4902780A7042784A7082788A70C278EB
:100C0000CA7002790A7142794A7182798A71C0790F
:100C1000C871704723480068417882784FF00050CF
:100C2000437A0374204B1B78437443891B0A8374F3
:100C30004389C37401754275C1798175017AC175A3
:100C4000704700F01F020121914040094FF0E0225F
:100C500002EB8000C0F80011704700F01F02012174
:100C6000914040094FF0E02202EB8000C0F8801173
:100C7000704700F01F020121914040094FF0E0222F
:100C800002EB8000C0F88012704700005C840022F4
:100C9000A00000227C04002200E400E020040020E8
:100CA000000200202C0910007C09100010B509205A
:100CB00000F053F80A2000F050F8092000F059F82D
:100CC0000A2000F056F80521092000F05EF8052101
:100CD0000A2000F05AF832487F214170817001717A
:100CE000002100F848192F490A684FF0010192F8D5
:100CF000C830DC070AD09C0708D590F84A40C3F3F7
:100D0000820301FA03F39C4380F84A4092F81F31B2
:100D1000DC0721D0C3F34203012B03D0224B4FF455
:100D200080641C604830837802F21F121478C4F388
:100D3000420401FA04F4A343837003791478C4F3E2
:100D4000420401FA04F42343037103781278C2F3D6
:100D5000420291400B43037010BD00F01F020121BD
:100D6000914040094FF0E02202EB8000C0F8801172
:100D7000704700F01F020121914040094FF0E0222E
:100D800002EB8000C0F8801270474907090E002866
:100D900003DA00F00F00054A00E0054A815470476D
:100DA000480000202C09100000E100E014ED00E0F4
:100DB00000E400E07047C9484FF48051018000BF53
:100DC00000BF00BF00BF00BF00BF00BF00BF00BF2B
:100DD00000BF4FF4C051018000BF00BF00BF00BF83
:100DE00000BF4FF440610180704710B5BB4C072035
:100DF000A41E60700020207044F2C000608000BF1C
:100E000000BF00BF4CF2C000608000BF00BF00BF49
:100E10004CF2E00060800920FFF73CFA44F2E00069
:100E2000608000BF00BF00BF4FF48040608010BDF5
:100E3000F0B500252E464FF00054E02717E000BF24
:100E4000883401F03F0160702170678000BF00BFEF
:100E500000BFD4F808C043F825C06680883C00BFB6
:100E60006D1C521E491C3F2901D9401CC0B2002AEA
:100E7000E6DCF0BD70B5994C2126268000BF00BF8E
:100E800000BF00BF00BF40F02105258000BF00BFAC
:100E900000BF00BF00BF44F22101084320800420AE
:100EA000FFF7F8F9258000BF00BF00BF00BF00BFFB
:100EB000268000BF00BF00BF00BF00BF0020208011
:100EC00000BF00BF00BF00BF00BF70BD70B50446CB
:100ED000824800250580824E0120306000F0EBF84A
:100EE000FFF783FF00F0D7F85C20FFF7C3FF23462E
:100EF000012202210720FFF79BFF231D012203216E
:100F00000620FFF795FF04F10803012204210520C4
:100F1000FFF78EFF04F10C03012203210720FFF7E6
:100F200087FF04F11003012204210720FFF780FF4F
:100F300000F0B1F8FFF759FFFFF73DFF356070BDD6
:100F400070B50446654800250580654E0120306077
:100F500000F0B1F8FFF749FF00F09DF85C20FFF7C3
:100F600089FF2346012208210020FFF761FF231D8E
:100F7000012209210020FFF75BFF04F10803012291
:100F80000A210020FFF754FF04F10C0301220B217A
:100F90000020FFF74DFF04F1100301220C21002077
:100FA000FFF746FF04F1140301220D210020FFF793
:100FB0003FFF00F070F8FFF718FFFFF7FCFE356009
:100FC00070BD2DE9F0439946079B002603B18026AA
:100FD000434C0023803CC0B21F4665044FF001081B
:100FE0001DE000BF85F8890001F03F0C4CEA060CBB
:100FF00085F888C059F823C0C5F88CC0C4F8B08003
:10100000C4F8B070491CC9B2402902D3401CC0B218
:101010000021D4F8C0C0BCF1000FFAD15B1C934290
:10102000E0DBBDE8F0834FF0005282F88900002336
:1010300019B1802082F8880001E082F888302848C1
:1010400001218038C0F8AC10C0F8AC30D0F8C01026
:101050000029FBD1704738B50C4605460021F82021
:10106000FFF7E1FF0020014600902B462246F820C2
:10107000FFF7A7FF38BD38B50C4605460121002013
:10108000FFF7D1FF0120002100902B4622460846A1
:10109000FFF797FF38BD10B5104C4FF4804020800B
:1010A0000420FFF7F7F80020208000BF00BF00BF3A
:1010B00000BF00BF10BD10B5084C4FF4C0502080D9
:1010C00000BF00BF00BF00BF00BF4FF480502080B2
:1010D0003520FFF7DFF80020208010BD8A000020B7
:1010E00080100022F8B5F84C002635462670A66020
:1010F000E6600120266100F099FD0E2000F096FDCB
:101100000D2000F093FD0C2000F090FD032000F076
:101110008DFD012000F096FD0E2000F093FD0D20C6
:1011200000F090FD0C2000F08DFD032000F08AFD02
:1011300000F047FF6A460221E44801F017F9E4494C
:101140009DF8010008709DF80000432800D0032698
:101150000521012000F082FD05210E2000F07EFD1A
:1011600005210D2000F07AFD05210C2000F076FD10
:101170000621032000F072FD012000F04BFD0E203F
:1011800000F048FD0D2000F045FD032000F042FD79
:10119000A57065703046F8BD70B5CB4BD888C0F3EC
:1011A0008001C0F34016C0F300247140C0F3C02298
:1011B0006140C0F3803551406940400840EAC13089
:1011C000D88070BD08B58DF80000000A8DF80100C8
:1011D000684601F008F908BD38B50D460090144680
:1011E0000421684601F010FCBA498978C90602D585
:1011F000062D00D1401C0099A16484F8460038BD3A
:10120000106570472DE9F047B34D0646B14C28688C
:1012100090F83404C00718D0608840F080006080E7
:10122000FFF7BAFF296800F00700084490F835047A
:1012300084F83500FFF7B0FF2968C0F302100844B6
:1012400090F83504800084F83400002084F83F00D2
:1012500028684FF002084FF0E90990F845176174CB
:101260009E494FF0010AC1F30E07042E06D0032E4B
:101270001FD0022E41D0052E5CD083E0954A314626
:10128000A06AFFF7A9FFE06A2065A4F84070A07883
:1012900080060028286890F8590703DA20F0060035
:1012A00040F0040084F8440084F8458084F84290BB
:1012B00068E0884A3146A06AFFF78EFFE06A206541
:1012C00084480421283001F09FFB844901EB800011
:1012D000C0F30E00A4F84000A0788006002828681B
:1012E00090F8590703DA20F0060040F0040084F873
:1012F000440084F84580ED2019E0764A3146A06A22
:10130000FFF76AFFE06A2065A4F84070A0788006C5
:101310000028286890F8590703DA20F0060040F00A
:10132000040084F84400042084F84500E52084F893
:10133000420027E0A178890624D500F2C93028347C
:101340000178A173C1782174417821758078607526
:1013500084F817A05F4A31462068FFF73DFF5F48D9
:10136000DC30C0F30E002083286890F8590720F085
:10137000060040F00200207784F81D8084F81A905F
:10138000A4F12804286890F80A17C90708D054491E
:10139000C1F800A014F8430F40F00300207008E0EB
:1013A000A17890F86C07890701D520F0030084F834
:1013B000430045484670BDE8F047464800F0D9BEB6
:1013C0002DE9F047434C05464FF0000ADFF808913D
:1013D00084F83FA0E12084F84200D9F800002246BA
:1013E000394E90F84517617490F80A17D77C5FEA78
:1013F000C1783C495288C1F30E0C3B49D3B242F04C
:10140000010201D0012D04D0072D0AD0062D39D0BC
:1014100022E0F77033710A23E3746280A4F840C0BD
:1014200007E0F77033716280304AC2F30E02A4F80D
:10143000402090F85327097802F0F00201F00F01E4
:101440000A43E27690F855076077224A2946012040
:10145000FFF7C2FEE06820656188C80705D094F8F0
:10146000420040F0020084F84200D9F8000090F8F1
:101470000A27D2073CD0062D16D0082D14D0012DF6
:1014800017D03DE0A4F840C090F85327097802F047
:10149000F00201F00F010A43E27690F855076077F9
:1014A0000C4A2946A068D3E714F8430F20F0030044
:1014B00008E00B49C1F800A014F8430F20F0030026
:1014C00000F1020020701BE0180910000410002039
:1014D0007C091000E41010002C091000C0850120C8
:1014E000280A002200800120F60710004083012016
:1014F00090F86C07890701D520F0030084F84300B9
:101500007570BDE8F047F84800F0EBBD06280ED036
:1015100008280CD001280AD0072808D0042805D0B4
:10152000032803D0052801D0022801D16AE647E745
:1015300070472DE9F843ED4D8146012901D1002086
:1015400068716C79EB4F641CE94EA7F128080FE035
:10155000306890F80A07C00702D057F8242001E04D
:1015600058F82420694648469047012805D0641C55
:10157000092CEDD90020BDE8F8836C719DF80000BE
:10158000F9E770B50188002932D001465822D648C3
:1015900001F06FFDD64D286890F80A07C0070AD001
:1015A000D148018811F0760F05D08278920702D4D5
:1015B00041F080010180CD4E7078002818D10121C2
:1015C000C948FFF7B6FF040012D0286890F8181138
:1015D00049070ED590F8430780070AD400F0BAFEF9
:1015E0000220B07000F0BAFE192000F06DFD74709A
:1015F00070BD002030702046BDE8704086E70020B6
:1016000070478268120006D00088C00503D5072005
:10161000087001207047002070478268120006D0D1
:101620000078C00703D00620087001207047002012
:101630007047026A120006D00078000703D5082020
:10164000087001207047002070478268120005D0A2
:101650000078000602D5012008707047002070470E
:10166000826A120008D0C26A32B10078800603D5BF
:10167000022008700120704700207047826A120023
:1016800006D00078C00603D50520087001207047F9
:1016900000207047826A120006D00078800703D5C8
:1016A000042008700120704700207047C26A32B1E0
:1016B0000078400703D50320087001207047002000
:1016C000704700200870012070472DE9F0418648DE
:1016D0000421283001F098F90446834804212C3075
:1016E00001F092F9814F0546DFF8FC817878824E4F
:1016F000042801D002280CD198F80200800602D5F7
:10170000A2007D4902E0620006EB44017B4801F043
:10171000B0FC7878032801D0022811D198F8020093
:10172000800603D5AA0006EB840104E005EB440023
:101730006A0006EB4001BDE8F041714801F099BC38
:10174000BDE8F0811FB56A48674C006800F20A7175
:1017500090F80A07C2070BD06288920508D4634A42
:101760005278012A04D120F00100087007F0F2FA43
:1017700000F0F4FB01208DF80000624801905E4803
:101780000290DC3003906168684688471FBD2DE9F0
:10179000F84FDFF85CA101200090DAF80000002685
:1017A000554C90F800073546C0072BD04E4890F8AE
:1017B0003A7007B901274C48DFF8308190F83900BA
:1017C00090FBF7F00FFA80F998F80100042802D096
:1017D000032802D00AE01E261CE0434834260421D8
:1017E000283001F011F9444901EB800498F8010018
:1017F000052808D004280DD003280BD0022809D0D2
:10180000052807D08EE1DAF800003B4C2C2690F832
:101810000197DC34D8F80880C845F3DCB8F1000F34
:1018200004D14FF4DC7138480DF0D3F92F48002172
:10183000DFF8D8E04078DFF8D0B02DE05BF8213059
:1018400034F911C0042863444BF8213002D0032836
:1018500032D020E0B8F1000F08D12C4B0022683BB9
:1018600023F8112047F6FF722EF81120DFF89CC0F4
:1018700034F91130ACF1680C3CF91120934231DCA1
:101880002CF8112034F911203EF911309A4200DB76
:101890001A462EF81120491CB142CFDB134A08F139
:1018A0000101494591606EDB002391469360042855
:1018B0002ED0032868D01DE1B8F1000F08D1134BDA
:1018C0000022683B23F8112047F6FF722EF8112002
:1018D000DFF838C034F91120ACF1680C3CF9113054
:1018E0009A42CDDC1A46CBE7E4101000180910002C
:1018F0002C0910009CED0000C0850120DE92012023
:101900003A93012000800120F8860120888B012075
:10191000D8490020A1F1D0023EF8108032F810C062
:101920000EEB4003ACEB080C02EB4008DB8BB8F885
:101930001E80A8EB030363441BB221F81030F0B102
:10194000AB4200DA1D46401C0F28E5DB5FF00000CB
:1019500031F81020521B21F81020401C0F28F7DB13
:10196000C54890F83B0028B11E21C44801F012FD83
:10197000C9F80C000020C24AD9F80C303DE0B1F99A
:1019800000500120C8E7C9E03AE000BF3BF8201052
:10199000B94D7943C91A09B224F8101095F83B5093
:1019A000C5B1DAF8008001F1320CB8F95654AC45F3
:1019B00002DD491B32310BE0B8F95A54A1F1320C67
:1019C000AC4504DAA1EB0501A1F1320100E00021F0
:1019D00022F81010DAF8001091F84914890706D59A
:1019E00034F8101032F81050491B24F81010A54993
:1019F0005BF8205041F82050401CB042C6DB79E033
:101A00009C49002073461E319A4A33F81080D03A20
:101A100032F810C002EB4002ACEB080C03EB4008BC
:101A2000928EB8F83480A2EB0802624412B221F818
:101A30001020E8B1AA4200DA1546401C1A28E3DB60
:101A40005FF0000031F81020521B21F81020401CDC
:101A50001A28F7DB884890F83B0068B134218748A2
:101A600001F098FCC9F8100080460020864A3FE04B
:101A7000B1F900500120C7E7D9F81000F4E700BF22
:101A80003BF820107C4B7943A1EB080109B224F804
:101A9000101093F83B30C3B1DAF8003001F1320C8A
:101AA000B3F95854AC4502DD491B32310BE0B3F9B0
:101AB0005C34A1F132059D4204DAA1EB0301A1F1EE
:101AC000320100E0002122F81010DAF8001091F83D
:101AD0004914890706D534F8101032F81030C91AA5
:101AE00024F8101067495BF8203041F82030401C82
:101AF000B042C5DB99F80100052813D100205946F2
:101B0000624A08E031F8203024F8103051F82030D3
:101B100042F82030401CB042F4DB03E0FFF7F6FC53
:101B2000002000900098BDE8F88F2DE9FF41FFF7F5
:101B3000CCFD514DA878400603D4FFF728FE0028BD
:101B400016D0534F534C386890F80A07C00708D096
:101B50006078012805D1E078E8742079688007F082
:101B6000F9F800214448FFF7E4FC18B1FFF7CEFC78
:101B7000BDE8FF8100266670386890F80A17C9072B
:101B800001D045490E60454AA421117390F818010F
:101B9000400702D5A67000F0D9FB207801280CD0B0
:101BA0008DF800603E48019000F5B8600290DC308E
:101BB0000390696868468847DAE702208DF80000DC
:101BC000F0E7334810B501684FF0000291F81801B2
:101BD000430730480AD591F84317890706D481781E
:101BE000012907D002290ED0032912D18270BDE845
:101BF0001040A7E50221817000F0B0FBBDE8104065
:101C0000322000F061BA032181704078BDE81040B5
:101C10007CE410BD00F01F020121914040094FF00B
:101C2000E02202EB8000C0F80011704700F01F02B4
:101C30000121914040094FF0E02202EB8000C0F802
:101C40008011704700F01F020121914040094FF0C0
:101C5000E02202EB8000C0F8801270474907090EAD
:101C6000002803DA00F00F000E4A00E00E4A81540B
:101C700070470000F08B0120E4101000F88601206E
:101C80007A990120B0880120B6990120688A012044
:101C90002C09100018091000280A0022001000204A
:101CA0000080012014ED00E000E400E0FC48016841
:101CB0000029FCD17047F0B527260022F84DF948DD
:101CC0004FF480115C270C465FF0000303EB000E1D
:101CD00011F803C05B1C8EF860C00C2BF6DB2B6880
:101CE000002BFCD18276C77604F10C0103EB000EC9
:101CF00011F803C05B1C8EF860C00C2BF6DB296862
:101D00000029FCD1511C8176C776921C04F12D016B
:101D1000B242D8DBF0BD2DE9F0479246089E5B1E2B
:101D2000C6F108010022DF4C01F0FF0C154600212E
:101D300089469A420BDA00EB0208875C98F801802A
:101D400027FA06F708FA0CF847EA080703E007D174
:101D5000875C27FA06F701EB040888F8607003E057
:101D600001EB040888F8609001F1010102F1010221
:101D70000C29DEDBCA490F68002FFCD10AEB0501F4
:101D8000A1765C21E1766D1C022DD0DBBDE8F087E9
:101D900018B5002411235C222146C3480094FFF7A4
:101DA000BAFFC1481823622200211E300094FFF7B9
:101DB000B2FF18BD2DE9F0470024DFF8E482B949ED
:101DC0008246254626464FF05C0900209C4206DAF2
:101DD00000EB010C1AF804708CF8607002E04718F0
:101DE00087F86060641C401C0C28EFDBD8F800000A
:101DF0000028FBD15019887681F81B906D1C032DAB
:101E0000E3DBC3E7A84800B516235E22002164384F
:101E1000FFF7D0FFA4482023642200213C385DF85E
:101E200004EBC7E770B500239E4C05E0CD5C1E199E
:101E30005B1C86F860505BB29342F7DB98490B68F5
:101E4000002BFCD1A07642F01000E07670BD30B5DA
:101E5000964C07220220216801F24271FFF7E2FF4F
:101E60002168022201F24A710920FFF7DBFF216895
:101E7000012201F24C710B20FFF7D4FF21680622EA
:101E800001F24D710C20FFF7CDFF874920688A31A0
:101E9000874D90F85307097800F0F00001F00F012A
:101EA00008432870012229461220FFF7BBFF216852
:101EB000072201F254711320FFF7B4FF7A48012280
:101EC0008930007800F00F01206890F85B0761F31B
:101ED0001F10287029461A20FFF7A4FF216804224A
:101EE00001F25C711B20FFF79DFF6F4802228D30CD
:101EF0002946007828706C488B30007868701F2065
:101F0000FFF790FF2168062201F262712120FFF79E
:101F100089FF654802228E30294600782870624881
:101F20008C30007868702720FFF77CFF2168022240
:101F300001F26A712920FFF775FF2168072201F27B
:101F40006C713D20FFF76EFF206890F8C01759486C
:101F50000170332141740B21817430BD5648002239
:101F6000026055481C380260544802610121016139
:101F7000826081600260016002604949A0F574706E
:101F80000B68002BFCD147490B7B43F020030B73FC
:101F90000B7B23F040030B730B7B23F080030B734D
:101FA0000B7B23F020030B73C0F8D823C0F8E02389
:101FB0004348027070473A48183001680029FCD144
:101FC000704730B53D480024743004603B48803091
:101FD00004603A48C4600121C160C46004600160CB
:101FE0000460344D2020AD1D287068702E49593D85
:101FF00082310A883AB12D4B1B6883F87027098813
:10200000090A83F8711727490873A4200873244824
:10201000183001680029FCD1FFF7A0FFFFF717FF78
:10202000FFF7F0FEFFF7B4FEFFF745FE254804601A
:10203000244820300460AC8530BD38B50546194CC5
:10204000806C00906073010AA173010CE173000EB3
:102050002074042269462B20FFF7E4FE012205F1DB
:1020600046012F20FFF7DEFE95F84600A074286D8C
:102070000090E074010A2175010C6175000EA075D5
:10208000042269463520FFF7CDFE0098800F84F8C2
:1020900040000749012208703920FFF7C3FE38BD10
:1020A000040B0022001000206C0710002C09100007
:1020B0003C111000530000201C0C0022D003002211
:1020C0001909100020050022C94900220A600A06E9
:1020D0009085012008607047C64801680129FCD13D
:1020E000704770B50446FFF7A8FFC348B4F8401026
:1020F0000180217C00F8011C94F842104173BF4D0F
:10210000A07C85F83600042204F111010520FFF7B8
:1021100089FEBB4E02220920316801F24A71FFF7A5
:1021200081FE022204F116010D20FFF77BFE022240
:1021300004F118010F20FFF775FE3068052204F145
:102140001A0190F8540720771120FFF76BFE012247
:1021500004F143013D20FFF765FEA648016801290F
:10216000FCD194F842002873BDE8704041F28830F9
:10217000AAE77CB50446FFF760FF9F48B4F840101B
:10218000018094F8371000F8011C94F84210417354
:102190009B4D296891F80A07C00767D099480688BF
:1021A000B1F87007A178090603D594F835100844F2
:1021B00080B28DF80400000A8DF80500022201A902
:1021C0004120FFF72FFE300A8DF800608DF80100E6
:1021D000022269460920FFF725FE022204F13001A0
:1021E0001B20FFF71FFE022204F132012320FFF71C
:1021F00019FE012204F136010720FFF713FE012228
:1022000004F13C010820FFF70DFE012204F13D011D
:102210002120FFF707FE012204F13E012920FFF7EC
:1022200001FE012204F144011820FFF7FBFD012209
:1022300004F145011920FFF7F5FD286872490122D4
:1022400090F8540720F0F00008701320FFF7EAFD23
:1022500094F83F00694EC0070CD0286800F2C671A0
:1022600090F8C60786F8360001220AE0022201F241
:102270004A71AFE794F8380086F83600012204F17D
:1022800038010620FFF7CEFD012204F143013D2075
:10229000FFF7C8FD574801680129FCD114F8420F27
:1022A0003073608ABDE87C400EE75549554B0A689B
:1022B0000A3392F84D2702700A68B2F8502742801C
:1022C00009681B7801F2547103F00F0311F8012C17
:1022D00002F0F0021A4302714A89C2804A8A0281DE
:1022E000CA7B8272CA7DC27249780173704710B589
:1022F0000446014601220C20FFF794FD0222A11C96
:102300000F20FFF78FFD0122211D1220FFF78AFD0C
:102310000222A11D1D20FFF785FD022204F1080104
:102320002520FFF77FFD012204F10A012220FFF79B
:1023300079FD012204F10B012A20FFF773FD04F15E
:102340000C010122BDE8104014206BE52B4904204C
:102350000873704729492020087370472749C02017
:1023600008737047224900200860704770B5214CFF
:102370001C342368002BFCD11D4603E0C6185B1CEF
:1023800086F880508B42F9D32368002BFCD102E001
:10239000C45CD4545B1C8B42FAD370BD10B500F002
:1023A00025FF1349002008601848007800280FD046
:1023B0001048001D01680029FCD11048C078400673
:1023C00002D5134901200870BDE81040FFF7ADBBEE
:1023D00010BD10B500F00AFF054900200860BDE8F7
:1023E0001040FFF7EEBB022201463F201AE5000035
:1023F00020050022000B00225400002000100020C5
:102400002C091000EC0710003C11100019091000F5
:1024100018091000FEF764FBFEE70446012006F0F1
:10242000AFFD00210F20226806F0BFFD01210F2023
:10243000626806F0BAFD02210F20A26806F0B5FD21
:1024400003210F20E26806F0B0FD0C210F20226965
:1024500006F0ABFD0E210F20626906F0A6FD0F21EC
:102460000846A26906F0A1FD20210F20E26906F0CE
:102470009CFD3E48026821210F2006F096FD3B4856
:102480001038026822210F2006F08FFD37480C38E3
:10249000026823210F2006F088FD344808380268BE
:1024A00024210F2006F081FD3048001D02682521FF
:1024B0000F2006F07AFD2D483438026826210F20BF
:1024C00006F073FD29481438026827210F2006F012
:1024D0006CFDFEF77CF9024630210F2006F065FD09
:1024E000FEF7FEFAFEE710B5012805D0022805D058
:1024F000032809D0032102E0012100E00221BDE808
:102500001040032006F03CBD0021032006F038FDFA
:10251000FEF7E6FAFEE710B504460146042006F091
:102520002FFD012C02D1FEF7DBFAFEE710BD0146BC
:10253000082006F025BD0146062006F021BD10B595
:1025400004460146072006F01BFD34B1012C07D0DC
:10255000022C08D1FEF7C4FAFEE7FEF7C1FAFEE747
:10256000FEF7BEFAFEE710BD0220E8E738ED00E016
:1025700000F03CBE704770471C4810B5016821F060
:102580000401016000F032FEBDE810400CF004BA16
:102590007047704710B500F029FEBDE8104006F006
:1025A000D0BB00F023BE00F021BE7047704710B5CD
:1025B00000F01CFE0E480078012803D0BDE8104052
:1025C00006F0CDBBBDE8104001F099BB70477047E5
:1025D0007047704770477047704770477047704743
:1025E00000F004BE00F002BE7047704710ED00E03E
:1025F0008409100010B54E2194480CF0C8FA934895
:102600009349944A0180428093498180934BC380CF
:10261000934C0481934C4481934C8481934CC481AA
:10262000934C0482934C4482934C8482934CC48296
:10263000934C0483C387428781879249A0F8401056
:1026400091490968B1F86220A0F84220B1F8C6218A
:10265000A0F84420B1F8A120A0F84620B1F8F0215C
:10266000A0F84820B1F85421A0F84A20B1F852212E
:10267000A0F84C208348B1F84E274280B1F85C277F
:10268000C280B1F86417018110BD8048017880488C
:10269000552901D0132102E07C49491C09780170B9
:1026A0007047F0B585B0FF22142168460CF067FA38
:1026B0006846FEF70BFC039803250127072645F221
:1026C000AA54A04202D00498A0423AD1DDE9000108
:1026D000884206D00299884203D00198884208D1E6
:1026E00000900498A0420FD10098000E012804D059
:1026F00006E00020FFF71FFF0FE00098C0F301374E
:102700000098C0F3032602E00120FFF714FF0398AE
:10271000A04214D1009800F007055E4907F00300BD
:1027200040EA061081F86000012088761120C87602
:102730005948017865F30201017005B0F0BD02202F
:10274000D8E70120FFF7F7FEF9E770B5FEF7AFF81D
:10275000FEF714FA4C4D28680078A52802D0012015
:10276000FFF7D9FE4D48006810B10020FFF7D3FEF7
:102770004FF008500124C0F898432868484A90F860
:10278000281101F00101116090F82811121DC1F308
:102790004001116043490C600A1F1460111F0C6056
:1027A00090F8C830DD070ED09D070CD513F01C0F34
:1027B0004FF0000300D1136090F8C800C0F382000E
:1027C000012800D10B60FEF7F5FAFEF79FF8FEF73F
:1027D00089FC032801D1FFF786FEFEF71BFAFEF7FE
:1027E0007DF8FEF763FA2B48802180F86010042101
:1027F00081761121C176FFF754FFFFF746FF284885
:102800000C38046070BD41F2104010B5410648819B
:10281000FFF79BFFFFF7EEFE23493F2008602349A7
:102820000020086023482249016001F2A460224987
:102830000860224800F09BFAFDF726FD00F040F802
:10284000FDF720FDFDF7A4FD012010BD00000120D3
:1028500000800120FEA00120BEA601204E00012024
:10286000C0850120DA200120082101204C2101200F
:102870007A210120A8220120D62201200E1D01204C
:102880003C1D0120981F10002C091000F2071000B9
:10289000850910000010002020000020C810002230
:1028A00088040022280A002248210120780910000B
:1028B0004C111000580910005C091000941E100003
:1028C0007FB5FDF73DFD204D002400BF05EB441012
:1028D00000F11002017F4CCACDE90261CDE900236D
:1028E0000FC8FDF711FF10B10120FFF728FE641C8F
:1028F000072CEBDB144D002415F1E00504EB44003C
:1029000005EB8001091D55F8200006C9FDF77CFE86
:1029100010B10120FFF713FE641C072CEEDB0B4DFA
:10292000002400BF05EBC400416855F83400FDF7F2
:1029300085FD10B10120FFF702FE641C062CF1DBBF
:102940007FBD4068FFF710BEC4ED0000F8EE000048
:102950002DE9F0479246012547F6F872564299460E
:10296000AC460024089F16E030F8143031F814808B
:10297000A8EB03031BB29A4200DD1A469E4200DA1E
:102980001E46002B02DA4FF0000502E001DD4FF099
:10299000000C04F10104BC42E6DB55EA0C0306D04E
:1029A000012D01D02DB108E0BCF1010F05D10022AD
:1029B00003E0BCF1010F00D1324600252C462B4626
:1029C00011E000BF30F8136031F813C01644ACEBCF
:1029D000060636B24E4505DAC9F1000C664501DD42
:1029E0003544641C5B1CBB42ECDB95FBF4F10A44F0
:1029F000002105E030F8113013442AF81130491C49
:102A0000B942F7DBBDE8F08770B503460020024607
:102A1000FE4C09E09D5C521C05F00F0604EB1515F9
:102A2000A65D2D78304428448A42F3DB70BD88428D
:102A300000D308467047884200D80846704788424D
:102A400000D30846904200D3104670472DE9F04766
:102A5000D0F810C00568046A85FB0C12A1FB0412B3
:102A600042694368914683FB02628269E246A6FBA3
:102A700002677618D0E9021781FB07C8C069ACFB72
:102A800000C81CEB060682FB0A2CA2FB011280FB8D
:102A90000902A0FB0502401884FB0712A1FB0312E8
:102AA0000818301A4FEAE071ACE72DE9F04389B01D
:102AB0000446006800906068019020690290606898
:102AC000039020690490A069059020690690A06990
:102AD0000790E06908900D466846FFF7B7FF80460B
:102AE000A0680190E0680490606907908946684694
:102AF000FFF7ACFF064660680190A068029020696D
:102B00000490E0680590A0690790606908900F46FE
:102B10006846FFF79BFFC5E90401C5E90267C5E9FF
:102B2000008909B0BDE8F0832DE9FF4F4FF0000A9E
:102B300089B09B465746D146D046564655465446E0
:102B4000202168460CF045F80B9810E00999824462
:102B500031F9102000FB00F102FB0166884441437B
:102B600002FB009901FB004417440D44401C5845EA
:102B7000ECDD0B99ABEB0100401CCDE9000ACDE97F
:102B80000654CDE90486CDE9027968460A99FFF733
:102B90008CFF0DB0BDE8F08F9D480068017B427B43
:102BA00041EA0221827BC07B41EA024141EA0060A6
:102BB00040007047964800680179427941EA022155
:102BC0008279C07941EA024141EA0060704700B56C
:102BD000FFF7E2FF4008400000BDF8B50E4604468E
:102BE000FFF7F5FF0090FFF7D7FF05460421684681
:102BF000FFF70AFF04EB4007002400992046234614
:102C00004FF0010C0CFA03F20A4207D02A4204D01A
:102C100037F8102026F81420641C401C5B1C172B6E
:102C2000F0DBF8BDC6E7FCB50E460746FFF7CFFF61
:102C30000190FFF7BFFF0090FFF7BCFF054604219E
:102C400001A8FFF7E1FE044604216846FFF7DCFE19
:102C500000EB440007EB40070020009904460346C0
:102C60004FF0010C0CFA03F20A4207D02A4204D0BA
:102C700037F8142026F81020401C641C5B1C202B05
:102C8000F0DBFCBD00B5FFF787FF40F0010000BDA1
:102C900090E7604A520102EB810101F1085108609E
:102CA0007047C0EB001001EB8000801001EB410188
:102CB0004900182291FBF2F300EB400000F5801070
:102CC00002FB1311006820F07F40C84000F03F0075
:102CD0007047C0EB001001EB8000801010B501EBD5
:102CE00041014900182391FBF3F403FB141300EB9B
:102CF000400000F580103F2401689C40A1439A40A9
:102D00000A430270110A4170110C817010BD8210CB
:102D100002EB4202114400EB40004000182290FBFD
:102D2000F2F301F5801102FB1302086820F07F40E6
:102D3000D04000F03F007047831003EB43031A4478
:102D400010B500EB40004000182390FBF3F403FBA8
:102D5000140302F580123F2410689C40A043994060
:102D600001431170080A5070080C907010BD2DE9D5
:102D7000F14F5C2100980BF02CFFFFF783FF4FEA27
:102D80005008FFF717FF4FF0000C814666464FF0E2
:102D9000010A00BF0AFA06F111EA090F1ED0002449
:102DA000012725460AFA0CFB0AFA05F010EA080F7B
:102DB0000FD031462846FFF774FFA04207D0009994
:102DC000009A51F8271041EA0B0142F827100446F7
:102DD0007F1C6D1C272DE7DB0CF1010C761C202ECF
:102DE000D8DBBDE8F88F2DE9F043002501220A4F1A
:102DF0002B469146032109FA02F400BF57F82160DF
:102E0000264221D001EB810608E0000028EF0000F7
:102E10002C09100048210120941E100006EBC10669
:102E200002EB460630F916C0A1F1010606EB860852
:102E300008EBC60602EB460630F91660BCEB060648
:102E400000D5764235445B1C491C0F29D6DB521C49
:102E5000192ACFDB03B9012395FBF3F062E62DE9D4
:102E6000FF4F83B091464FF0000BFF4ACDF804B0FE
:102E7000CDF800B01168DE46012B91F8774004F0E0
:102E80000F0600D1002691F87A100F27C6F1100A1C
:102E90000F2900D20F4600210122029100252C4665
:102EA000032327E0F14951F823C0012191401CEA96
:102EB000010F03EB830101EBC30102EB410130F988
:102EC00011C0A3F1010101EB810808EBC10102EB84
:102ED000410130F91110ACEB010106D0002900DAF4
:102EE0004942DDF810C0A1EB0C01002900DA49428B
:102EF0000D445B1CBB42D5DB394627E0DB4B53F866
:102F000021C0012393401CEA030F01EB810303EB73
:102F1000C10302EB430330F913C0A1F1010303EB3A
:102F2000830808EBC30302EB430330F91330ACEB27
:102F3000030306D0002B00DA5B42DDF810C0A3EBE0
:102F40000C03002B00DA5B421C44491C0F29D5DB23
:102F5000029901290AD10199491B01D5C1F100014A
:102F60008B440099091B00D549428E44BE49CDE9E6
:102F70000045096891F87B10914218D1D9F80010EA
:102F800071430AFB0B11CB1701EB13710B11C9F83D
:102F90000030D9F808104FF0000B71430AFB0E11F6
:102FA000CB1701EB13710B11DE46C9F80830012174
:102FB000521C0291192AFFF671AFD9F80400704330
:102FC0000AFB0B00C11700EB11700011C9F80400D7
:102FD000D9F80C0070430AFB0E00C11700EB11700A
:102FE0000111C9F80C1007B0D4E52DE9F04F9E4946
:102FF00000231846096801F24941B1F81CB0B1F844
:103000001EA00978C1F3C001C1F11A0727E003220D
:10301000DFF858920125964E05FA01F559F822403D
:103020002C4216D102EB820404EBC20401EB4404EF
:1030300036F914C0A2F1010404EB840808EBC404BF
:1030400001EB440436F91440BCEB040400D564429F
:103050002344521CD2B20F2AE0D3491CC9B28F427A
:10306000D5DC84499B450B6002D2534500D2012038
:1030700090E503E011F8013B00F8013B521EF9D244
:1030800070477CB50D460446FFF7A1FD0090FFF7A1
:1030900091FD019000980421400800906846FFF7D8
:1030A000B3FC0646042101A8FFF7AEFC30448200C1
:1030B00021462846FFF7DDFF7CBD0B4601464FF455
:1030C00050721846D5E770B5044658210BF081FDC3
:1030D0000023654D23806380286890F8C50700F0C1
:1030E000010043EA40106080296891F84517C9093A
:1030F00040EA011060806360FFF7C4FDA060FFF745
:1031000059FD5D4EE0607088E082286800F24670EC
:10311000C27A817A02F03F0241EA0221218341789A
:10312000E17490F87A1021740178A1748178217586
:10313000017BA1765149407B097800F0F00001F055
:103140000F010843E076FFF742FDA062FFF732FD72
:10315000E062F08820866086286800F2C1700178FD
:1031600084F83610817884F83710C17884F83810E4
:1031700010F8BF1C84F83910012184F83A1084F843
:103180003B30417884F83C1010F85F1C84F83D1007
:1031900010F8571C84F83E1010F86B1CA17710F83B
:1031A000550C84F8430084F8353004F8343F41F27C
:1031B0008830208470BD10B50446FDF765F8012CF9
:1031C0000BD12948006890F81801800705D5FDF754
:1031D00078FB38B1FDF770FB04E0FDF772FB08B92E
:1031E000FDF765FBBDE81040FDF74CB8244810B56D
:1031F000006818B941F27070FDF762FCBDE810403C
:103200000020D8E7184B10B51A68947E640704D5DF
:10321000D28A0468A2EB040202601A68947EA407B2
:1032200003D5128B0C68121B0A600268002A00DAB0
:10323000002202601C68E48AA24200DD224602608D
:103240000A68002A00DA00220A601C68248BA24265
:1032500000DD22460A601B689B7EDB0702D0036804
:103260000B60026010BD00002C091000941E1000BD
:10327000428C012064091000981F1000F60710000E
:1032800034050022F0B500252C4608E031F9146021
:1032900030F91470F61B964200DD6D1C641C9C42D4
:1032A000F4DB022D01D90120F0BD0020F0BD2DE995
:1032B000F04F9246DDE909B7012547F6F87256420C
:1032C0009946AC46002416E030F8143031F81480EA
:1032D000A8EB03031BB29A4200DD1A469E4200DAB5
:1032E0001E46002B02DA4FF0000502E001DD4FF030
:1032F000000C04F10104BC42E6DB55EA0C0306D0E5
:10330000012D01D02DB108E0BCF1010F05D1002243
:1033100003E0BCF1010F00D1324600252C462B46BC
:1033200011E000BF30F8136031F813C01644ACEB65
:10333000060636B24E4505DACBF1000C664501DDD6
:103340003544641C5B1CBB42ECDB95FBF4F10A4486
:10335000002105E030F8113013442AF81130491CDF
:10336000B942F7DB16E4F0B50646002004460546F0
:10337000521C059F0AE000BF36F911C09C4504DDD0
:10338000A44502DD64460D460120491C9142F3DB51
:103390003D60F0BD30B50268002513460AE000BF6D
:1033A00050F82540944201DD224602E09C4200DABA
:1033B00023466D1C8D42F3DBD01800EBD07040101B
:1033C00030BD70B54FF4D0745FF01A0332F813506B
:1033D00030F81360AD1B21F813505B1CA342F5DBE2
:1033E00070BD000010B501461022FB48FFF741FEFA
:1033F000BDE810404FF400610120FDF73FB870B503
:1034000098B006460D4614466846FFF75CFE14F079
:10341000050F4FF0010001D0ADF8000014F4F17F6A
:1034200030D0EE490B6893F85011C90706D193F8D4
:10343000041319B993F8B011C90723D093F80A17E8
:1034400014F0050F4FEAC171BDF8001041F00601FC
:10345000ADF8001010D1BDF8001003F2211341F0B7
:103460000101ADF8001059788DF8131019788DF816
:103470001A1099788DF81E10D9490978890601D556
:103480008DF83B00ADF83250ADF81660ADF8305015
:10349000AFF2AF00D04E03244FF4006501906846B0
:1034A000FEF76FF816AB002229460120FDF736F82B
:1034B00029460120FDF711F83078002804D0FFF7E5
:1034C00012F8641E002CEADC18B070BD10B504467A
:1034D000C00709D04FF4B861C2480BF058FB4FF455
:1034E000B851C1480BF053FB14F0420F07D02E2106
:1034F000BE480BF04CFB4021BD480BF048FBA0063A
:103500000AD5B821BB480BF042FBBDE810404FF490
:103510008071B9480BF03BBB10BD2DE9F041074667
:10352000AE48006890F82010490710D590F82100A7
:103530000125C0F3011085400024B04E05E0F1885C
:1035400070883A46FFF75BFF641CAC42F7DBBDE8CE
:10355000F0812DE9FF4F83B08046FFF799FB019082
:10356000FFF790FB009004216846FFF74DFA0446F0
:10357000042101A8FFF748FA44439848012640F681
:103580004851006890F8210000F00707BE409C48B1
:103590000BF01FFB0025DFF86892DFF860A2DFF870
:1035A00038B21CE0BAF8061042460498FFF727FF2D
:1035B00018F0050F12D09349DBF8040004F053FF14
:1035C000904A0020494607E051F8203032F910C0F7
:1035D000634441F82030401CA042F5DB6D1CB5422D
:1035E000E0DB18F0050F0CD00020494607E000BFD3
:1035F00051F82020059B3A4123F81020401CA0429E
:10360000F6DB07B0BDE8F08F2DE9F74F734C84B0BF
:1036100092462068B0F83B100391B0F83D1002913B
:1036200090F85011C90706D190F8041319B990F811
:10363000B001C0077CD0FFF7CAFA0090FFF7F2FA9A
:10364000019004216846FFF7DFF98146042101A8B3
:10365000FFF7DAF9484445002068A046264690F86E
:103660002100012400F00707BC40A90064480BF0CA
:10367000B0FA316891F8F002C20706D0800704D48E
:1036800091F8F102044404F01FFD0026C34630E027
:103690005A48DDE904214088FFF7B1FEDBF800104D
:1036A0004D4891F8C517D0F80880C90704D0C16803
:1036B0004246404604F0AAFDDBF8000090F8F00214
:1036C000C10708D0800706D44F49404604F00DFDDD
:1036D00070B1DFF834810020494907E051F820300B
:1036E00038F910201A4441F82020401CA842F5DB8C
:1036F000761CA642CCDB424C00215A461EE04048D4
:10370000166850F8210096F8F03240FA07F05FEAA8
:10371000C37C08D09B0706D596F8F1325B1C434367
:10372000B6F8F202181AB1EB490F02DA039B01E076
:103730001DE0029B184424F81100491CA942DEDB5D
:10374000106890F85011C90703D190F8B001C00774
:103750000DD0049810F0220F09D02046DAF800109E
:10376000FFF73BFA2046DAF80410FFF75CFA48E767
:103770002DE9F047194C91469A4600221D4ED4F887
:103780000040012339F8125030F81270ED1B2FB2AF
:1037900000250CE0C5EBC50C0CEB051C06EB4C0C36
:1037A0006D1C3CF812802DB2B8442CF8128094F8AD
:1037B00080C303EB9C1CAC45ECDC521C12B20F2AFC
:1037C000E0DB0D4D002000BF3AF8102031F810600A
:1037D000921B16B2002222E0B83710002C0910000C
:1037E0003C0910004E0001200E0601200E1D012094
:1037F0003C1D0120581E01203E1F0120981F100073
:103800004C111000428C01200292012005EB82171E
:10381000521C37F810C012B2B44427F810C094F804
:10382000807303EB97179742F0DC401C00B21A2814
:10383000CADBBDE8F0872DE9F041FF4DFF4E07469A
:1038400000242868002300EB4400B0F8EF10C4EB1C
:10385000C40000EB041006EB80123846FFF779FE37
:10386000641C042CEDDB72E62DE9FE4FF24D82461E
:1038700000F49070296891F88013490737D5002823
:1038800035D000242746DFF8B883DFF8B893012647
:1038900014E000BF00EB4400B0F8B213C4EBC40066
:1038A00000EB041208EB4200009009EB8410CDE914
:1038B00001076A465046FFF7A7FE641C286890F887
:1038C000801306EB9111A142E4DC90F85011C90776
:1038D0000DD090F89101000609D51E22D849DA488A
:1038E000FFF7C7FB3422D749D848FFF7C2FBBDE832
:1038F000FE8FFEB5014610F0820035D0CE4A01F4AD
:103900009076D34912680024012392F88053C98825
:1039100003EB951307E000BF02EB4407B7F8B2735F
:10392000B94202D0641CA342F6DCA3421DDD6B0742
:103930001BD5D6B192F85001C00703D192F8B0015F
:10394000C00711D0C4EBC400BD4900EB041001EB6B
:1039500040012E22BF48FFF78CFBBA48402200EB03
:103960008411BD48FFF785FBFEBD00220292B94AD3
:103970000092B94A01926A46FFF746FEFEBD2DE964
:10398000F04105460020FCF76AFE0320FCF767FEC5
:1039900015F040060AD02E22AE49B048FFF769FB69
:1039A000AE484022AC492E30FFF763FB2846FFF7B4
:1039B0008DFDAB490020401C8842FCD3A94801780A
:1039C000012904D1002101702846FFF7A6FD9A4C79
:1039D00005F00400216891F8D010490703D510B113
:1039E0002846FFF728FF216805F4907091F88013AE
:1039F000490703D510B12846FFF736FF15F0010738
:103A000006D093480023984A41883846FFF7A1FD25
:103A1000F80717D0206890F8200000070AD59248D0
:103A2000FFF7E1F991490123914A086001468E4868
:103A3000FFF715FA206890F84904C00702D028461D
:103A400002F004F915F0820F0AD02846FFF751FF63
:103A5000206890F84904800702D5284602F066F9EC
:103A60005EB1206890F88003400706D57B497A4B09
:103A7000784A2E317948FFF77BFE7E490120087095
:103A80007D49087005F054F90020FCF703FEBDE8FD
:103A9000F0410320FCF7FEBDF0B467490022674CFB
:103AA0000B68B3F8EF10814213D2B3F8F5108142DE
:103AB00001D803220DE0012103EB4105B5F8EF50D9
:103AC000A84201D10A4602E00FD2A1F101028A42C6
:103AD0000FD1C2EBC20000EB021004EB8011F0BC6E
:103AE0004FF4B8626048FFF7C4BA491C0429E3DB0D
:103AF000EFE703EB41035C4D33F8ED2F4FF43876DD
:103B00005B88801A00029A1A90FBF2F3C1EBC102A3
:103B100002EB0111002004EB811100BF01EB400218
:103B2000A2F5B86231F91040B2F90020A41A5C4342
:103B300002EB242225F81020401CB042EEDBF0BC42
:103B400070472DE9F0413C4900253D4A09683D4E4A
:103B5000B1F8B23383421AD291F880339C0901EB59
:103B60004407B7F8B27387420AD9012404EB9313D0
:103B700013E000BF01EB4407B7F8B273B84201D1BC
:103B8000254602E008D2A4F10105A5421ED191F814
:103B90005001C00708D103E0641CA342EADCF6E749
:103BA00091F8B001C00746D0C5EBC50000EB051089
:103BB00002EB40012E222748FFF75BFA06EB851146
:103BC000BDE8F04140222448FFF753BA01EB440519
:103BD000B5F8B033B5F8B253C01A0002EB1A90FB37
:103BE000F3F391F85001C00703D191F8B001C00779
:103BF00021D0C4EBC401174D01EB0411002002EBEE
:103C0000410100BF01EB400231F9107032F92E2C56
:103C1000BF1A5F4302EB272225F81020401C17280B
:103C2000F0DB0D4D002006EB841200BF02EB4001DB
:103C300031F9401C22E02CE02C0910000E06012076
:103C4000581E01203E1F0120101F01203E20012090
:103C5000981F10000E1D01203C1D01204837100048
:103C600020A10700340910004E0001206009100057
:103C7000F01E1000420910007109100032F91040C6
:103C8000641A5C4301EB242125F81010401C202805
:103C9000CCDB5CE470B53448012303703348017F0A
:103CA00041F0040101773249096891F81F214FF072
:103CB0000001D4070CD0C2F34202012A08D12D4AD8
:103CC0001160121F11602C4AC414C2F8FC41D46761
:103CD00080F86010482484761122C27680F8603023
:103CE00044258576C276254D2960FF215607318609
:103CF000042180F860108476C2762B6070BD1B486A
:103D000010B5017F41F0040101771949096891F864
:103D10001F214FF00001D3070BD0C2F34202012A4A
:103D200007D1154BC414FC331C60124B1A601B1FC7
:103D30001A604FF00052538E104C216080F86010D2
:103D4000482484761124C476108E4FF4FA42C01AA7
:103D500080B2B2FBF0F00A4A000910705520521EE2
:103D600010700148017010BD84091000001000207F
:103D70002C091000240A002284E000E0240500221F
:103D8000F307100010B501461022D648FFF771F96D
:103D90008021BDE810400120FCF770BB30B597B022
:103DA00004466846FFF78FF9012C07D10120ADF8D2
:103DB000000000208DF812008DF81000BDF8020000
:103DC000AFF23F0140F4A670C64D0191ADF802007C
:103DD00003246846FDF7D5FB16AB002280210120A5
:103DE000FCF79CFB80210120FCF777FB287800285A
:103DF00004D0FEF778FB641E002CEADC17B030BD5F
:103E00002DE9F04100240120FFF7C8FFB548B64A6C
:103E100043681A20102100FB01F51DE033F9101052
:103E2000002902DC44F0200415E040F6FF76B142A0
:103E300002DB44F010040EE01668B6F83471B6F8F0
:103E4000BE6107EB060C8C4505DABF1B8F4202DD15
:103E50000EB144F04004401C8542DFDC2046BDE842
:103E6000F08102461821012000FA01F3134201D12A
:103E7000491EF9D5491C8840104370472DE9FE4F73
:103E8000FEF700FF0446FEF703FF0746964800686A
:103E900090F84507000603D52046FFF7E2FF0446E9
:103EA0004FEA540B4FF4B86190480AF070FE8D4809
:103EB0004FF02709642110300AF08BFE002001909A
:103EC0000120FFF76BFF87481A25D0F804A00120D6
:103ED000002402905FE0012000FA04F111EA0B0FC8
:103EE00058D00026012000FA06F818EA070F46D03D
:103EF0007C48103050F8240010EA080F3ED13146BB
:103F00002046FEF7CEFE009077483AF9151000687B
:103F1000B0F83401814225DC744B33F91520121AB4
:103F2000A1EB000000D55242002800DA4042824254
:103F300009DC00983146401EC0B20246009020467F
:103F4000FEF7C7FE01E023F815106948009920F834
:103F500015106448103050F8241041EA080140F868
:103F600024100BE000983146401CC2B22046FEF7F8
:103F7000B0FE5E483AF8151020F815106D1C761C3E
:103F8000202EAFDB5748103050F82400B84201D043
:103F900000200290641C4C459DDB029830B9FDF76F
:103FA0008AFE0198401C0190402889DB1A264FF0B8
:103FB000010A00251DE0012000FA05F111EA0B0FAE
:103FC00016D000240120A04038420ED04848214697
:103FD00010F81600804602462846FEF77AFEB8F131
:103FE0003F0F01D34FF0000A761C641C202CE9DB44
:103FF0006D1C4D45DFDBBAF1000F02D10320FEF747
:1040000096FAFDF758FE0120FFF7C8FEBDE8FE4F07
:10401000F6E62DE9F05F344A116891F83001C407E3
:104020003448037803F0F00513D000261A24DFF893
:10403000B4A010210570B046914604FB01F78346F9
:104040000120FFF7ABFE2046DAF80410D9F8002073
:104050000FE091F83E1101F00F0129430170BDE816
:10406000F09F00BF31F91030B2F832C16345F6DB82
:10407000401C8742F6DC0F2E0AD2761CF6B245EAC7
:10408000060008F101088BF80000B8F1100FD7DB2B
:10409000BDE8F05F0220FEF74ABA10B501244FF4E4
:1040A000E16120050AF095FDFDF705FEFFF7B1FF80
:1040B000FFF7E4FE0C4A44EA00640E481268401D13
:1040C000017892F8FB2701F0F00102F00F02114392
:1040D00001700948FEF74BFE2046BDE8104005F090
:1040E00026B80000C83710002C091000FEA00120DF
:1040F000BEA60120F6071000941E100010B5014660
:104100001022FE48FEF7B5FF8021BDE810400120D7
:10411000FCF7B4B92DE9F04FF94A9BB0F94F07CA43
:104120008DE807003868BDF800104FF00008B0F8BF
:104130001157B0F80F972E4601EB090084B203A87F
:10414000FEF7C1FF4FF4FA60ADF860000220ADF851
:104150000C0000208DF844008DF84300BDF80E00DF
:10416000AFF2670140F453700491ADF80E00BB4606
:1041700041E02046FDF726F8DBF8000090F80A073A
:10418000000604D522460021FF2004F00EFFDFF8D0
:104190006CA3022703A8FDF7F4F919AB00228021D4
:1041A0000120FCF7BBF980210120FCF796F99AF871
:1041B0000000C0B14C4514D9B8F1040F09D23DF844
:1041C0001800A4EB000084B208F1010000F0FF0821
:1041D0000DE00CD1BDF80800A4EB000085B2344618
:1041E00005E02546FBE7A7F10107002FD2DC3DF8EB
:1041F0001800204484B2B442BBD3DBF800005C4614
:10420000B0F86E07FCF7DEFF2068B0F80F17A94280
:1042100002D140F6CE7008E0B0F81107A84201D1F3
:10422000B94802E0CE2040EA054004F080FF1BB010
:104230002846BDE8F08F2DE9F041B44C0020206005
:10424000FEF7C5FC6060FEF7EDFCA060606804212D
:1042500040086060201DFEF7D7FB2061042104F1B7
:104260000800FEF7D1FBE060FFF754FF054600EBC6
:1042700085004FEAC00140F26128A24FB1FBF8F679
:104280003868A34A00F20A70C178A6EB01011180D8
:104290004178A6EB01018CB202F102010C8080F89A
:1042A00066404FEA142180F86710007800060ED5AA
:1042B0002A460121FF2004F078FE32460221FF2029
:1042C00004F073FE22460321FF2004F06EFE05EB8E
:1042D00085004FEA4011B1FBF8F1386890F80C27DF
:1042E000A1EB02018AB28B490A8090F80A07000606
:1042F00005D5BDE8F0410421FF2004F056BEBDE81D
:10430000F0812DE9F04781497E4C00204E68D4F8B9
:10431000004005460346012240F6FF7902FA03F702
:1043200037421CD04F6937F91580B8F1000F02DC15
:1043300040F0200012E0C84502DB40F010000DE024
:10434000B4F836C1B4F84171E246BC44C44503DB5D
:10435000AAEB0707474501DD40F040006D1C5B1CE0
:10436000202BDBD30025D1F808702B4602FA03F688
:104370003E421BD08E6936F91560002E02DC40F0FB
:10438000200012E04E4502DB40F010000DE0B4F8D2
:104390003AC1B4F843A10CEB0A08B04503DBACEB1F
:1043A0000A0CB44501DD40F040006D1C5B1C202B65
:1043B000DCD3BDE8F08730B597B06846FEF783FEE2
:1043C0005048006890F80A07C1070620ADF80000C1
:1043D00000208DF838008DF837004C4841684900BE
:1043E0000A9180680B90BDF80200AFF2EF2140F413
:1043F000A670424D0191ADF8020002246846FDF717
:10440000C0F816AB002280210120FCF787F880213C
:104410000120FCF762F82878002804D0FEF763F842
:10442000641E002CEADC17B030BD2DE9F84F384887
:104430001E2180380AF0CDFB35482D2162380AF064
:10444000A6FBFDF704FDFDF7A3FC042003254FF0B8
:1044500000084FF001092D4CDFF8A8A0CDF80000AE
:10446000FFF7A9FFE8072BD04FF0000B5F465E4631
:10447000616809FA06F008421AD040F26C713046C1
:10448000FEF745FC616931F91720DAF80010B1F840
:1044900045118A420BDA3F2809D200994FF0010BEF
:1044A0000844C1B240F26C723046FEF745FC7F1CF6
:1044B000761C202EDCD3BBF1000F01D125F00105C5
:1044C000A8073AD54FF0000B5F465E46A16809FA8F
:1044D00006F0084229D040F28A713046FEF717FCF8
:1044E000A16931F91720DAF80010B1F847118A42B2
:1044F0001ADA3F2818D24FF0010B0DE03C381000BB
:1045000038EF00002C091000CE0F010088091000C0
:10451000EC071000F0071000009940F28A7208447E
:10452000C1B23046FEF708FC7F1C761C202ECDD38E
:10453000BBF1000F01D125F0020545B1FDF787FC65
:10454000FDF726FC08F10108B8F1640F88DB0325AC
:104550004FF00008FFF72FFFE80729D04FF0000BBE
:104560005F465E46616809FA06F0084218D040F2DC
:104570006C713046FEF7CBFB616931F91720DAF830
:104580000010B1F845118A4209DD40B1401EC1B2A8
:104590004FF0010B40F26C723046FEF7CDFB7F1CF2
:1045A000761C202EDED3BBF1000F01D125F00105D2
:1045B000A80729D54FF0000B5F465E46A16809FAAF
:1045C00006F0084218D040F28A713046FEF79FFB91
:1045D000A16931F91720DAF80010B1F847118A42C1
:1045E00009DD40B1401EC1B24FF0010B40F28A72AA
:1045F0003046FEF7A1FB7F1C761C202EDED3BBF1DC
:10460000000F01D125F00205002D08D0FDF71FFC99
:10461000FDF7BEFB08F10108B8F1640F9ADBBDE8B5
:10462000F88F2DE9F041FF4D00201E212870FD4834
:1046300089380AF0CEFAFB482D216B380AF0A7FA28
:10464000FDF7A6FBFDF703FC0027F74EFFF7B3FECF
:10465000D6E904320024204606E000BF32F91010EB
:10466000A14200DD0C46401C9842F7DB0020F368B5
:10467000B26905E032F91010A14200DD0C46401C81
:104680009842F7DB002C09DC28780F2803D8401C5F
:104690002870FDF7DCFB7F1C202FD7DB40F6FE7077
:1046A000844206DD2878401E2870BDE8F041FDF701
:1046B000CEBB24E62DE9F05FDB4C0020D94F6668C5
:1046C000ED3F01460346012202FA03F5354203D0CD
:1046D000FD5C854200D928465B1C202BF4D3D14ECB
:1046E000D4F80870C53E002302FA03F53D4203D01A
:1046F000F55C8D4200D929465B1C202BF4D3DFF8F2
:104700002483CA4D08F1040808F1010988F8000063
:1047100089F800102A68A8F1020AA8F1010B92F8A2
:104720000A37DE077AD09B0778D502F259721479DE
:10473000D37804F03F0403EB04249579537905F012
:104740003F0503EB0525167BD37A06F03F0603EB06
:104750000626977B537B127807F03F0703EB07276A
:1047600052060BD5631900EB43009AF80020F319A9
:1047700010449BF8002001EB43010CE06219520049
:1047800002EB40029AF800001044F219520002EBCA
:1047900041029BF800101144FEF74DF9A149491F51
:1047A0000A88824200D20880A048006890F80A2750
:1047B000520730D590F85907400615D560004042A1
:1047C0006A4200EB420208789AF800100244511A3B
:1047D00088F80010710049427A4201EB420101441D
:1047E0009BF80000081A36E09AF80000621910449D
:1047F0004242088800EB4201C1F3470288F80020DA
:104800009BF80010F2191144494200EB4100C0F33B
:10481000470189F80010BDE8F09FFFE7824D9AF844
:1048200000209BF800302D6802440B44FF2645F021
:1048300080059A4209D2991A0844FF2802D888F8BC
:104840000000E8E788F800600AE09342E3D2D01A5B
:104850000844FF2802D889F80000DCE789F80060E6
:104860002560D8E72DE9F0416E4C0020ED3C6E4B01
:104870006E4A01214FEA00055F6801FA00F63E42E8
:1048800009D01768265C97F84A71BE4202D9F61B18
:10489000265400E02554401C2028EDD3614CC53C33
:1048A0005FF000009F6801FA00F63E4209D01768E9
:1048B000265C97F84A71BE4202D9F61B265400E0E6
:1048C0002554401C2028EDD3FFF7F4FEBDE8F0414D
:1048D000FDF798BA2DE9F84F5248524DED3806468B
:1048E000C53D28210AF075F93C2128460AF071F9E6
:1048F000FFF7E0FEFDF7ABFAFDF784FA042003248E
:1049000000274FF00109DFF820A1DFF820B1009067
:10491000FFF751FDE00728D04FF0000C62466046DB
:104920004FEA0A0309FA00F1D3F8048011EA080FEC
:1049300013D0596931F91280DBF80010B1F8381141
:10494000884509DA315CDDF800804FF0010C414404
:10495000FF2900DDFF213154521C401C2028E1D3E7
:10496000BCF1000F01D124F00104A00727D54FF0BE
:10497000000C62466046534609FA00F1D3F80880FD
:1049800011EA080F13D0996931F91280DBF8001091
:10499000B1F83C11884509DA295CDDF800804FF058
:1049A000010C4144FF2900DDFF212954521C401C09
:1049B0002028E1D3BCF1000F01D124F0020444B15E
:1049C000FFF778FEFDF743FAFDF71CFA7F1C642F12
:1049D0009EDB03245FF00007FFF7EDFCE0072CD01F
:1049E0004FF0000E714670465246DC46D2F8048005
:1049F00009FA00F313EA080F0FD05369DCF80080BE
:104A000033F91130B8F83881434505DD335C1BB10B
:104A10005B1E4FF0010E3354491C401C2028E5D387
:104A200006E00000F5071000880910002C091000AE
:104A3000BEF1000F01D124F00104A00725D54FF0ED
:104A4000000E7146704652464FEA0B0CD2F80880B1
:104A500009FA00F313EA080F0FD09369DCF800801D
:104A600033F91130B8F83C81434505DD2B5C1BB1AF
:104A70005B1E4FF0010E2B54491C401C2028E5D32F
:104A8000BEF1000F01D124F00204002C08D0FFF782
:104A900011FEFDF7DCF9FDF7B5F97F1C642F9BDBF8
:104AA000BDE59B4930B409680020034691F83021E8
:104AB00092070BD5974A91F8494101201578A542F4
:104AC00003D9A5EB0404147000E0137091F83021B1
:104AD00052070CD58F4A91F84911521C40F0020040
:104AE00014788C4202D9611A117000E0137000280A
:104AF00001D030BCDEE530BC70472DE9F047844979
:104B00000024844D0868274690F83021920702D58A
:104B100001242F7002E090F83F212A70894690F816
:104B200030117D4E490703D544F00204377002E08E
:104B300090F840013070002C76D076482821EF386C
:104B40000AF047F873483C21C7380AF042F8714828
:104B50001E21801E07706F488B380AF03AF86D48A6
:104B60002D216D380AF013F86B49FF20891C08705D
:104B7000491E0870FDF746F9FDF70AF9FDF767F9D8
:104B8000DFF898814FF0100A002700BFFFF713FCF1
:104B9000E00723D0D8E9043C0020014606E000BF2E
:104BA0003CF91120824200DD1046491C9942F7DB96
:104BB000D9F80010B1F83621824202DA2878401E76
:104BC00008E0B1F84B11814206DB28785044FF28F9
:104BD00000DDFF20287001E024F00104A00726D5A5
:104BE00000200146D8F80CC0D8F8183006E000BF05
:104BF00033F91120824200DD1046491C6145F7DB84
:104C0000D9F80010B1F83A21824202DA3078401E19
:104C100008E0B1F84B11814207DB30785044FF289F
:104C200000DDFF20307002E00AE024F00204002CD6
:104C300006D0FFF73FFDFDF70AF97F1C202FA5DB0B
:104C4000BDE8F08770B5354C00202060FDF7BFFF50
:104C50006060FDF7E7FFA0606068042140086060C5
:104C6000201DFDF7D1FE2061042104F10800FDF7AD
:104C7000CBFEE060FFF79FFB294E2169B06800EB97
:104C800041026261E26802EB410100EB4100A06178
:104C9000FFF733FFFFF705FF1D4D286890F830013F
:104CA000800603D5FFF716FEFFF7DCFD286890F8B5
:104CB0003001000701D5FFF7B4FC286890F83001F7
:104CC000C00601D5FFF7B1FBFDF7C1F8FFF773FB95
:104CD000B068216900EB41026261E26802EB4101C8
:104CE00000EB4100A061FFF70CFB216801430A487B
:104CF00021602A68C01C037892F8FB2763F3030243
:104D00000270BDE8704041F0020004F010BA0000EB
:104D10002C091000F7071000F80710008809100090
:104D20003C38100010B5014610227D48FEF7A1F96D
:104D30008021BDE810400120FBF7A0BBF0B5794D04
:104D400006460C4628684FF0FF3197B090F8B10046
:104D500000F00F00401C8140CF436846FEF7B3F9D6
:104D60000120ADF80000ADF80240286810F8F91FE6
:104D70008DF8131044F00501ADF802100297ADF85C
:104D80001660AFF25F01019141788DF814108078C0
:104D9000634D8DF81A0003246846FCF7F2FB16AB4E
:104DA000002280210120FBF7B9FB80210120FBF7C5
:104DB00094FB2878002804D0FDF795FB641E002C96
:104DC000EADC17B0F0BD2DE9FF5F4FF6FF764FF03C
:104DD000000A93460F46804634465546DFF8449114
:104DE0001CE000BF38F815005146FFF7A7FF4C48FC
:104DF000406807F0D1F9D9F8001091F8F82012F0C6
:104E00000F0100D1012112094243B2FBF1F080B23F
:104E1000A04202D238F8156004466D1CBD42E1DBA9
:104E2000ABF8006003980480BDE8FF9F2DE9F041D6
:104E30003C4E05468846306888B090F8D12002F094
:104E40000F01C2F30214491C641C0A2900DD0A2167
:104E5000022C00DD0224D23006AB05AAFFF7B3FF17
:104E6000326892F8D00080071BD5BDF8146001218C
:104E7000E632ADF8006000204FF4803C6F4607E05A
:104E800013563344634502D227F81130491C401CA5
:104E9000A042F5DB002904DD06AB05AA3846FFF782
:104EA00092FFBDF814002880BDF81810A8F8001073
:104EB00008B0BDE8F0817CB50020FBF7D0FB1A4CB0
:104EC00001A968466588FFF7B1FF164E3068B0F853
:104ED000E810BDF80400814201D9218000E0208063
:104EE000BDF8000060800020FBF7D4FBBDF8000097
:104EF000854207D0306890F8D000400702D560881E
:104F0000FEF7CAFD094901200870094908700949DE
:104F10000870BDF800202946092004F032F97CBD54
:104F20004C3810002C091000981F10004209100086
:104F3000710910007E091000E148E24A0068B0F8EB
:104F4000AC139180E04990F8B103488070472DE997
:104F5000F0470178DC4C01B1217001461022DB489A
:104F6000FEF787F8D64B186890F8C507C107D748F1
:104F700001D0C26800E082686068D549C0EB0015C6
:104F80004FF000001F6897F8F0625FEAC67C08D017
:104F9000B60706D597F8F17232F810607F1C7E4391
:104FA00001E032F810602F18401C21F817600F281C
:104FB000E8DB60684FF00F0500F10100C0EB001660
:104FC00060604FF0000000BFD3F800C09CF8F072A2
:104FD0005FEAC7780ED0BF070CD52F189CF8F1C236
:104FE00032F817700CF1010C07FB0CF706EB000C04
:104FF00021F81C702F1806EB000C32F81770401CBB
:1050000021F81C700F28DFDB61684FF0010501F10A
:1050100001016160186890F8B12005EB121490F856
:10502000F022D60705D0960703D490F8F1623444F5
:10503000E4B2A1421DDA90F80A27D20713D090F803
:10504000BA0389B200F00F00B1FBF0F200FB1211BD
:105050009E4858380029418802D041F0020101E001
:1050600021F002014180BDE8F04798485838FCF72C
:1050700088BAD1072BD0910729D4B0F8F272002456
:10508000A9461DE09248C4EB041100EB4101002049
:105090001D68012231F9106095F8F1526D1C06E08F
:1050A000C2EB021C8444521C31F91CC06644954278
:1050B000F6DCF21B21F81020401C0F28E8DB641CF2
:1050C000186890F8B11009EB1110A042DADCBDE8C5
:1050D000F04780210120FBF7D1B92DE9FF4FDFF820
:1050E000ECB14FF6FF74002581B08A46A046ABF1C3
:1050F000580BA946744E5DE074485838FDF7E3FF3D
:105100006F4A116891F8C507C00701D0102300E06D
:105110000223ABF80030019830F81530ABF830308E
:10512000BBF8023043F00403ABF80230AFF2E113F6
:1051300001F2C931CBF804300A788BF83620CA78EE
:105140008BF838204A788BF83C2089788BF83D1012
:105150000327C6F8049000BF5C4886F800905838D2
:10516000FCF70FFA6B46002280210120FBF7D6F9ED
:1051700080210120FBF7B1F9307820B1FDF7B3F9B8
:105180007F1E002FE8DC524802F0D8FB4C4909682A
:1051900091F8C82312F00F0100D1012112094243F6
:1051A00090B2B0FBF1F0A04203D20199044631F86D
:1051B00015806D1C55459FDB0399A1F8008004986C
:1051C000048005B0BDE8F08F2DE9F0413C4D064666
:1051D000884628688CB000F2823C00F2963790F83E
:1051E000810300F00F01C0F30214491C641C0A295A
:1051F00000DD0A21022C00DD02240AAB09AA604668
:10520000FFF76BFF286890F8800380071AD5BDF878
:1052100024300121ADF8003000204FF4803C6D4671
:1052200007E03A561A44624502D225F81120491C7B
:10523000401CA042F5DB012904DD0AAB09AA28467F
:10524000FFF74BFFBDF824003080BDF82810A8F808
:1052500000100CB0BDE8F0817CB50020FBF7FFF931
:10526000184C01A96846E588FFF7AEFF14480168AD
:10527000BDF80400B1F8AC23824201D9A28000E05D
:10528000A080BDF80000E0802081854205D091F823
:105290008013490701D5FEF754FC0E490120087020
:1052A0000D4908700D49002008600D490870FBF792
:1052B000F1F9BDF8002029460A2003F062FF7CBD09
:1052C0002C091000981F1000A4091000B438100019
:1052D000BA9301204209100071091000A40A1000BD
:1052E0009F0A10002DE9F041174604460D4600269E
:1052F00009E0E00703D03146384603F076FE761C1D
:105300006D084FEA340454EA0500F2D1BDE8F0819B
:1053100030B5034600204FF0FF32012505FA00F4B6
:105320000C4202D0521C9A4203D0401C2028F5D3D4
:10533000002030BDF0B50E460125074605FA06F2FD
:10534000FE4C0F2FD4E9151065D2DFE807F0644357
:105350004B08106464192129323A54585C003046D5
:10536000FFF7D6FF8540A06A0543A56253E00146DA
:105370003046FFF7CDFF8540206C054325644AE0A9
:105380003046FFF7C5FF8540E06A0543E56242E02D
:105390003046FFF7BDFF8540206B054325633AE0AB
:1053A00001463046FFF7B4FF8540A06C0543A56475
:1053B00031E03046FFF7ACFF8540606B0543656325
:1053C00029E001463046FFF7A3FF8540E06C054326
:1053D000E56420E03046FFF79BFF8540606A0543A7
:1053E000656218E001463046FFF792FF8540E06BAA
:1053F0000543E5630FE0A06B0243A2630BE0206D61
:105400000243226507E001463046FFF781FF8540F1
:10541000606C054365642068401C2060F0BD10B5D9
:1054200001461022C648FDF724FE8021BDE8104049
:105430000120FBF723B8FDF7BDBB10B5FDF7ACFBB2
:105440004008400010BD2DE9F047894605464FF061
:10545000FF34FDF7AFFBB94F00231946D7F80460BE
:105460004FF0010C0CFA01F2024200D0641CAC4275
:1054700006D1B9F1010F0AD020EA02030E4620211D
:10548000491C2029EED318467E60BDE8F0871346FC
:10549000F4E72DE9F047894605464FF0FF34FFF762
:1054A000CCFFA64F024600207B6801464FF0010C5E
:1054B0000CFA01F6164200D0641CAC4206D1B9F1D8
:1054C000010F08D022EA06000B461E21491C1E29A6
:1054D000EED97B60D9E73046F6E7F0B59BB00446DD
:1054E0000F466846FDF7EFFD16A8FCF7DEFEFFF756
:1054F000A4FF924E40087065FDF75CFB914DB065CE
:10550000012C0BD00626022C26D0032C2AD0042CEA
:105510002DD0052C34D0062C52D068E0FDF7B2FB1C
:105520000290FDF7B5FB03900120ADF800000C20C0
:10553000ADF816001F208DF8140040208DF81300E0
:1055400095208DF81A003C20ADF81800029840080C
:1055500070650398B0654AE0FFF76FFF0A90FDF7AA
:1055600029FB14E0FDF726FB01210B9003E0FDF77A
:1055700021FB00210B903846FFF78BFF0A9007E0D4
:10558000FFF75BFF0A9001213846FFF75CFF0B90A5
:10559000ADF80060286800F55A7081788DF83610F3
:1055A000C1788DF83C1001788DF83D1041788DF868
:1055B0003E108188ADF830100089ADF8320016E059
:1055C000FFF73BFF0A90FDF7F5FA0B90ADF800608E
:1055D000286800F2613081788DF83610C1788DF836
:1055E0003C1001788DF83D1040788DF83E00002089
:1055F000BDF802108DF8380021F030018DF8100050
:1056000041F04A018DF837008DF81200ADF8021014
:10561000AFF2F51103260191012C12D0092C23D0F1
:105620000A2C21D08DF862008DF864008DF863009B
:10563000022C10D0032C0ED0042C0CD0052C0AD038
:1056400012E0296891F84D178DF85C0041F00301D4
:105650008DF85810E6E72868B0F86E13ADF85E10C4
:10566000B0F87203ADF8600016A8FCF740FE344CA9
:105670006846FBF786FF1AAB002280210120FAF76B
:105680004DFF80210120FAF728FF2078002804D060
:10569000FCF729FF761E002EEADC1BB0F0BD2DE9D9
:1056A000FC5F00210120FFF718FF25484768FDF740
:1056B000E9FA0190FDF7ECFA0090042101A8FDF74A
:1056C000A3F9064604216846FDF79EF984460020AA
:1056D0000546DFF868B0DFF86CA000905BE000BF23
:1056E0004FF00008C1465C462846DBF85810FFF72B
:1056F0000FFE014601208840A16C08424AD10124D6
:1057000039E000BF04FB0C51DAF8000037F9112032
:1057100090F86703B2EB001F2CDA08F10108B9F129
:10572000000F00D1A146721E944223D1B8F1010F9F
:1057300020D1ACF1010295420BD105E0AC0910007B
:10574000C43810002C091000611E0120FFF7F2FD83
:105750000EE007EB4101B1F90220B2EB001F05DBBF
:1057600035B131F9021CB1EB001F01DA002000E075
:1057700002208046641CB442C4DBA6EB090141450B
:1057800008D829460220FFF7D5FD01200099A8403E
:10579000084300906D1C6545A2DB01253BE000BF7E
:1057A0004FF0000844462CE0DBF84030DBF848209E
:1057B00000201A4311D0D9462046DBF85810FFF7D5
:1057C000A7FD014601208840D9F84810084203D1BE
:1057D000D9F84010084000D0012005FB0C4137F9F2
:1057E0001120DAF8001091F86713B2EB011F07DA05
:1057F00030B901200099A040084201D108F1010808
:10580000641C6445D0DBB8F1000F03D0691E012091
:10581000FFF790FD6D1CB542C2DBBDE8FC9F2DE992
:10582000F041E04C00200546DF4FDFF88083A061A7
:105830001EE029460520FFF750FE21690120BE68C1
:1058400000EB410C36F91C10D8F8000090F87703F3
:10585000B1EB001F03D929460E20FFF76BFD36F987
:105860001C00A169884202DD36F91C00A0616D1C94
:1058700060698542DDD349E52DE9F041002106202C
:10588000FFF72BFEC8480025C84EC64C87680EE0BF
:10589000E0683168284437F9100091F86513B0EBDF
:1058A000011F03DD29460A20FFF744FD6D1C206916
:1058B0008542EDDB00250EE0A0683168284437F909
:1058C000100091F86613B0EB011F03DD29460B2091
:1058D000FFF730FD6D1C60698542EDDB16E52DE9B3
:1058E000F041B04C00200646206237E031460420EB
:1058F000FFF7F3FDAC48002587682BE0FDF75AF968
:1059000001462846FFF704FD014601208840216C2E
:1059100008421ED1A549A0682844096807EB400049
:1059200030F9040C91F87813B0EB011F07D9314618
:105930000820FFF7FFFC29460920FFF7FBFCA068C1
:10594000216A284407EB400030F9040C884200DD4E
:1059500020626D1C60698542D0D3761C2069864226
:10596000C4D3D3E42DE9F0418E4C002005468E4F80
:10597000DFF83882E0611AE029460320FFF7ADFD29
:10598000BE68B6F90210D8F8000090F87603B1EBC3
:10599000001F03D929460720FFF7CCFCB6F9020007
:1059A000E169884202DDB6F90200E0616D1C206900
:1059B0008542E1D3AAE42DE9F04100210220FFF75E
:1059C0008CFD7948794D774C8768286890F860039A
:1059D000000713D500260EE0E0682968304437F947
:1059E000100091F87413B0EB011F03D93146032066
:1059F000FFF7A0FC761C20698642EDDB286890F852
:105A00006003C00613D500260EE0A0682968304464
:105A100037F9100091F87513B0EB011F03D9314627
:105A20000420FFF787FC761C60698642EDDB6DE49D
:105A30002DE9FC410020FAF712FE4FF480104112CC
:105A400009F0A5F8FCF703FAFCF7DCF9FCF733F9E9
:105A5000544C00202060FFF7F0FC0090FDF7AAF8FE
:105A6000019004216846FCF7CFFF0546042101A8F8
:105A7000FCF7CAFF014600EB4500C4E90205C4E992
:105A800004514A4D286890F86003010701D4C0060C
:105A900001D5FFF790FF286890F86003800601D5D4
:105AA000FFF760FF286890F86003000601D5FFF754
:105AB00016FF286890F86003C00701D0FFF7DCFEEE
:105AC000286890F86003400601D5FFF7A8FE286813
:105AD00090F86003800701D5FFF7E1FD20680028FA
