:1000000000200020F1300308B9CC0208CDCC020852
:10001000E1CC0208F5CC020809CD0208000000007E
:100020000000000000000000000000001DCD0208DC
:1000300031CD02080000000069AE000877C2000858
:10004000793303087D33030881330308D7D20208CC
:100050008933030833D4020889CF020819D1020872
:10006000A5D102089D330308A1330308A533030873
:10007000A9330308AD330308B1330308B5330308CC
:10008000B9330308BD330308C1330308C53303087C
:10009000C9330308CD330308D1330308D53303082C
:1000A000D9330308DD330308E1330308E5330308DC
:1000B000E9330308ED330308F1330308F53303088C
:1000C000F9330308FD3303080134030849CD02085E
:1000D000093403080D3403081134030815340308E8
:1000E00043D2020897D302082134030825340308B9
:1000F000293403082D340308313403083534030848
:10010000393403083D3403084134030845340308F7
:10011000493403084D3403085134030855340308A7
:10012000593403085D340308613403086534030857
:10013000693403086D340308713403087534030807
:10014000793403087D3403088134030885340308B7
:10015000893403088D340308913403089534030867
:10016000993403089D340308A1340308A534030817
:10017000A9340308AD340308B1340308B5340308C7
:10018000B9340308BD3403084843704700E000BF9A
:1001900010FB01F0704710FB01F000F5006000015A
:1001A0000014704730B5144681EA0002D50F83B0C1
:1001B000002844BFC043401C002944BFC943491C18
:1001C00000AB01AA00F017F800980199C4F12002D1
:1001D000E0409140084300900198E04002D100982F
:1001E000002802D56FF0004000902DB20098002D3D
:1001F00018BF40423EBD2DE9F0474FEA104A0F0CB0
:1002000004460D461646984639465046FFF7BCFF51
:100210008146A1B23846FFF7B7FF09EB10474FEA16
:100220000049A9B25046FFF7AFFF09EB004A07EBC0
:100230001047CA4538BF7F1CA9B2A0B2FFF7A4FF80
:100240005044504538BF7F1C3760C8F80000BDE8F7
:10025000F08700285CBF182100F0D4BBDFF8200A2B
:10026000704710B504461046FFF791FF4100204645
:10027000BDE8104002F0CEB870B5044616460D46F3
:1002800000F017F84100204602F0C4F8B542C8BF9C
:100290003546002608E000F00BF800FA86F04FF42F
:1002A000805124F81010761C36B2AE42F3DB70BDDC
:1002B000294630466BE700220280B1F90420524201
:1002C00042804A8882808A88C280002202818A5EB7
:1002D00052424281B1F90220524282810988C18191
:1002E000002101827047F8B500F0B2F900F096F9EC
:1002F00000F018F800F01BF800F00EF8206000265F
:10030000216855F8260001F039F804EB8601761CC7
:100310004860032EF4DBF1BD014618224FF08070D7
:1003200001F070BE0746A868182201463AE7B919DD
:10033000401800F180708CE7F8B50D460446296836
:10034000FFF7EBFF0646002705EB87001822406801
:100350003146FFF727FF44F827007F1C032FF3DB0C
:10036000F1BD2DE9F04F04460D4689B0296801F032
:1003700004F808901822696800F077FE07901822A8
:10038000A96800F06FFE06901822E968E068FFF7A0
:1003900009FF05901822296800F067FE696800F0DF
:1003A000EBFF04901822A968E068FFF7FBFE0390BA
:1003B0001822E96800F056FE02901822296800F021
:1003C00051FE69688046E06800F0D8FF019018226D
:1003D000A9682068FFF7E6FE00901822E96800F09F
:1003E00044FE29680746E06800F0C8FF8146696856
:1003F000A06800F0C3FF8246A968606800F0BEFFF5
:100400008346E96800F0B9FF0899079A891A069AA5
:10041000891A059A891A21600499039A8919891AF7
:10042000029A511861600199009A41445118C91B00
:10043000A160A9EB0A0159444018E06009B0BDE889
:10044000F08F2DE9F04780460868061348680713C7
:1004500088680413C868051300F06FF800F07CF892
:1004600000F067F80AEB0901A1EB000900F05EF863
:10047000A9EB0000A8F8000021B200F0B5F900F0E7
:1004800067F848444000A8F8020029B200F0ACF92F
:1004900000F05AF8A9EB00004000A8F8040021B2CF
:1004A00000F0A2F900F054F8A9EB00004000A8F811
:1004B000060000F042F800F04FF800F03AF8A9EB1F
:1004C0000A0100EB010900F031F8A9EB0000A8F8DF
:1004D000080000F0D3FD00F033F848444000A8F8CD
:1004E0000A0029B200F080F900F02EF848444000DC
:1004F000A8F80C0000F0C2FD00F022F8A9EB000003
:100500004000A8F80E0000F018F8064639B200F0D6
:100510006BF9074621B200F0B2FDF11B0E1A00F094
:1005200005F88019A8F81000BDE8F08729B228B2B4
:1005300031E6824621B220B22DE631B230B22AE64F
:10054000814639B230B226E6814621B230B222E687
:10055000814629B230B21EE6814639B238B21AE677
:10056000F8B500F075F800F059F8FFF7DBFE01462A
:10057000E868BA19561AFFF7D7FE301A206000F063
:100580005EF800F060F880194000606000F053F8F9
:10059000A96800F059F8301A4000A06000F04FF848
:1005A00000F051F8301A4000E06000F03CF80646D8
:1005B0006868FFF7B9FEFFF7B5FE0146E868F21B71
:1005C0008E18FFF7B1FE301A206100F030F869682C
:1005D00000F03AF880194000606100F02CF8A9683A
:1005E00000F032F880194000A06100F020F869683E
:1005F00000F02AF8301A4000E06100F014F80646D6
:100600006868FFF791FEFFF78DFE0146E868F21B70
:10061000551AFFF789FE40192062F1BD6968064648
:1006200018220846BEE5182228680146BAE51822B5
:10063000E968A868B6E51822E9686868B2E5182292
:10064000A9686868AEE5E968064628681822A9E541
:100650000D460446286818220146A3E5F0B50E466B
:1006600083B00446308831890818318A081800049C
:10067000811401F58060ADF8000000ADB6F900000E
:10068000BDF90070401000F58060401A68804FF09E
:10069000010CB6F90820521002F58062521AAA80A5
:1006A000B6F910305B1003F58063591AE980002316
:1006B00035F91CE07745BCBF634677460CF1010C69
:1006C000BCF1040FF4DB2BB1022B31D018D3032B78
:1006D00052D070E0BDF9000000F075F9ADF80000EF
:1006E00000F084F800F086F86880B188B08900F0E6
:1006F00084F8A880F1887088411A09B2384637E03A
:1007000000B200F060F9688000F070F800F072F854
:10071000ADF80000002805D5B5F902004042688018
:1007200000F057F800F05CF8A880B188B0891CE0B0
:1007300010B200F048F90146A9804FF4806000F043
:100740007AF90746B089B18800F057F8ADF8000093
:10075000002805D5B5F904004042A88000F039F81A
:1007600000F03EF86880F1897089091809B238B242
:10077000FFF711FDE8801EE008B200F024F9E880E0
:1007800000F034F807467088F18800F036F8ADF8CC
:100790000000002805D5B5F906004042E88000F0C9
:1007A00018F8B089B18800F01DF86880F189708967
:1007B00000F018F8A880042100A800F05CF80020E0
:1007C00035F91010090344F82010401C0428F7DB09
:1007D000F7BD7F42BDF900004042ADF80000704710
:1007E0007088F188091809B238B2D4E401464FF490
:1007F000806020E107467089F189411A09B23846C4
:10080000C9E4F8B504460D46182201F0A3FB0646DC
:10081000022E02DA00F010F80CE0002708E054F88D
:1008200027001822314601F0EDFB44F827007F1C19
:10083000AF42F4DB3046F2BDA900204601F004BE11
:10084000F8B504460D460C2201F084FB0646022E44
:1008500002DAFFF7F1FF0CE0002708E054F8270068
:100860000C22314601F0CEFB44F827007F1CAF423A
:10087000F4DB3046F2BDF8B504460D4600F023F82F
:100880000646022E04DA6900204601F0C3FD0BE0A3
:10089000002707E034F91700314600F0CCF824F8BF
:1008A00017007F1CAF42F5DB3046F2BD416849427C
:1008B0004160816849428160C1684942C1607047B6
:1008C000182201F047BBF8B504460D460026002764
:1008D00003E000F00BF886197F1CAF42F9DB3046CD
:1008E000FFF7B7FC001300F30F00F2BD34F9170057
:1008F0000146FFF74BBC2DE9F04104460D469046FA
:100900000027002603E000F023F8C719761C4645AF
:10091000F9DB38130FF2E8110FF2A4620FF228038B
:10092000B0F5004F04DB00F0FDF847F6FF7008E07B
:1009300010F5004F04DA00F0F5F8DFF8800600E06B
:1009400000B2BDE8F0810000566563446F7400009A
:1009500035F9161034F91600FFF718BCF8B504463F
:100960000D46B4F90200B5F904101646FFF70EFC67
:100970000746B5F90210B4F90400FFF707FC381A6E
:1009800000133080B5F90010B4F90400FFF7FEFB46
:10099000B5F904100746B4F90000FFF7F7FB381A61
:1009A00000137080B5F90210B4F90000FFF7EEFBF8
:1009B000B5F900100746B4F90200FFF7E7FB381A53
:1009C0000013B080F1BD10B5002848BF42F6415178
:1009D00016D4002100220D2380B2840B44EA820247
:1009E00049004C00641C92B28000A4B2A24202DB17
:1009F000121B92B2491C1C46631EA4B2002CEBD100
:100A000008B210BD10B5C1F1200149100022002329
:100A1000C1F11F01840F44EA830352005400800097
:100A2000641CA34224BF1B1B521C0C46611E002CDD
:100A3000F0D1104610BD10B5044699B90FF230033D
:100A40000FF27C520FF2440100F06CF8012C02DB33
:100A500047F6FF7010BD002C02D5DFF8600510BD11
:100A6000002010BD200390FBF1F000F0F8BA000068
:100A700053617475726174696E6746697865645014
:100A80006F696E74446976696465000044697669CB
:100A90006465206279207A65726F20282573203A78
:100AA0003A202573290D0A0010B5044699B90FF2B2
:100AB00030030FF20C520FF2480100F033F8012C12
:100AC00002DB6FF0004010BD002C02D54FF000405B
:100AD00010BD002010BD200390FBF1F010BD000000
:100AE0004669786564506F696E74457874656E64A4
:100AF0006564526573756C74446976696465000059
:100B0000464D5F4D4154485F4552525F48414E4407
:100B10004C454420282573203A3A202573290D0A94
:100B200000000000002001F0A3BCF0B5002848BF81
:100B3000404200210FF22C020FF230030FF2A80402
:100B400033F9116032F9115000B206402E4134F9E8
:100B50001660370000D03BE0491C09B20429EFDBE6
:100B60000020F0BD0C000800040000000070000F21
:100B7000F0000F00F0B5002848BF404200210FF2FE
:100B800058020FF22C030FF2600453F8216032F97F
:100B9000115006402E4136B234F91660370000D0AD
:100BA00016E0491C09B20829EFDB0020F0BD000067
:100BB000000000700000000F0000F00000000F00B7
:100BC00000F00000000F0000F00000000F00000027
:100BD000A81900B2F0BD00001C001800140010009D
:100BE0000C000800040000000000010002000200E8
:100BF00003000300030003000400040004000400D9
:100C000004000400040004002DE9F8430446012C0C
:100C100032DBFFF78AFFC0F10E052DB2012DAFBF09
:100C200004FA05F0684200B244FA00F0C0F58044CE
:100C300026464FF000080027DFF8349436B27EB124
:100C400039F917103046FFF7A1FAA8EB000821B2D6
:100C50003046FFF79BFA8613781C07B20E2FEDDBA8
:100C6000C5F1020040F6173100B2FFF78FFA00EB32
:100C7000284000F30F0001E0DFF84003BDE8F283F5
:100C8000334F500B7CB50546EC0F4DF2B820854232
:100C900002DB6FF0004076BDDFF8D803854201DA51
:100CA000002076BD14B9AE05B60D05E0E843451C3D
:100CB000A805800D401EC64331B230B2FFF766FA78
:100CC00036B206FB00F10913401040F2AA2200EBF5
:100CD00006304A4300EB223071430913AA225143E4
:100CE00000EB213000F1807303F500600001C5F3D3
:100CF0008521001449B364B10FF2500050F821105F
:100D00001E221846FFF74EFA00F50060000100149D
:100D100076BD35290FDB72B60FF23010DFF858437D
:100D20000FF2341300F009FC40F2044000F00FFC15
:100D300000F008FCFEE70FF23C1353F8211002B05C
:100D4000BDE870400C22FFF72DBA76BD00000040D0
:100D50003DDFD731F965D126EC403B1E36568B1767
:100D600037185612B9C3470EBF1C1F0B5255A9089E
:100D700064DCBE0670E14005E26417041AB62F0376
:100D8000D1467B0202C1EE01935081015C152C011A
:100D900089B4E9008202B600D7BF8D0000656E00FD
:100DA000B0F9550029F542008D253400A49C280097
:100DB000E9A01F00E2A11800062F1300B6F00E00F4
:100DC000B0A20B00CE0F0900AA0E0700087F050095
:100DD000CC47040068550300A39802009E0502005A
:100DE0001F930100F439010081F400006CBE000083
:100DF0004D9400007F730000F35900000D46000081
:100E00008E3600007D2A000017210000C519000061
:100E100012140000A10F00002C0C00007B09000040
:100E200062070000C00500007A0400007D03000096
:100E3000B70200001E020000A601000048010000E9
:100E400000010000C70000009B00000074656D7089
:100E5000203C2035330000004669786564506F6996
:100E60006E745131324578706F6E656E7469616C65
:100E700000000000001000008B140000611A000048
:100E8000DF2100007E2B0000D8370000B5470000AE
:100E9000135C00003A760000CE970000EBC2000021
:100EA00048FA00005E410100A59C0100D911020032
:100EB00056A8020092690300B061040046A0050034
:100EC000593907009C4609000FE90B00124B0F002F
:100ED0000DA31300DC361900356020004492290070
:100EE000F1603500218A4400AD015800AE00710068
:100EF00029199100544FBA00033AEF004D2C3301E9
:100F0000026B8A015871FA010D498A02A1FB420362
:100F1000A923300474A76005ACA8E7060BB8DD0868
:100F20007560620B44229E0EB7FEC41256BC19189F
:100F3000F218F21EAA2CBC279F5405339614834145
:100F4000577E1E5446D6026C2DE9F04104460D46EC
:100F500017464FF40060FFF7E8FD00268046A05FCB
:100F6000FFF7E3FDA95FA8EB000000B2421812B240
:100F70003B469342BCBF781A00B2DA4202DA7842AA
:100F8000401A00B2B0B100FA81F2002A03D557002E
:100F900008BF521C524293420CDB411829800126A3
:100FA000B4F90010002846BF404241FA00F001FAAF
:100FB00000F020803046BDE8F08100000080FFFF97
:100FC000433A5C5F525645524D415F444154415C47
:100FD0004749545C73656E736F722D6875625C610E
:100FE0006C67735C7372635C636F72655C4669788F
:100FF0006564506F696E744D6174682E6300000003
:101000002DE9FE4FBDF93090BDF934A080468B46E6
:10101000002600E0761C56451FDA002716E009FB83
:10102000074038F910100AFB04603BF91000FFF785
:10103000AEF84519641C4C45F1DB019805F50062DA
:101040000AFB0761121320F811207F1CBDF908006C
:101050008742DFDA00250024EDE7BDE8F78F00F3D3
:101060000F0010BDA068FFF79DB86068FFF79AB841
:1010700004860020D46FFFFFE820012029B220B2AF
:10108000FFF789B82DE9F04F9A460027554685B0FD
:10109000804689461446002D05D5680012BF684277
:1010A000681C404200E028462646002E05D5710007
:1010B00012BF7142711C494200E0314688421BDA7E
:1010C00021465046FFF7B7FC00282146504630D550
:1010D000FFF7B1FC834621465046FFF7ACFC1BEB03
:1010E000000F2146504603D1FFF7A5FC401C01E04C
:1010F000FFF7A1FC40421EE0012751462046FFF7C2
:101100009AFC00285146204613D5FFF794FC8346ED
:1011100051462046FFF78FFC1BEB000F514620463F
:1011200003D1FFF788FC401C01E0FFF784FC444238
:1011300002E0FFF780FC044624B20FF200100FF229
:101140003C12B4F5805F09D1DFF81C15039100F162
:101150003C0A02F13C0BDFF8140522E0002C02D41B
:10116000211210290FDB72B60FF25010DFF8004584
:101170000FF2701300F0E1F940F2AC5000F0E7F923
:1011800000F0E0F9FEE7C9B202EB810B0FF2681242
:1011900052F82120039200EB810A0FF29C1050F8C4
:1011A0002100029021462046FEF7F0FF00F5006086
:1011B0000013ADF80400BDF90410BBF90000FEF700
:1011C000E5FF00902146BBF90200FEF7DFFF009922
:1011D00040180399081800F500604FEA203BBDF95C
:1011E0000410BAF90000FEF7D1FF00902146BAF9C9
:1011F0000200FEF7CBFF009940180299081800F58D
:1012000000600013002F19BFA9F800B0A8F8000073
:10121000A8F800B0A9F80000002E04D5B8F9000025
:101220004042A8F80000002D04D5B9F90000404262
:10123000A9F8000005B0BDE8F08F000041FF0410E0
:10124000CEFD32107AFC871056FBF4106DFA68114F
:10125000C4F9D1115AF9201229F94B1228F94B126D
:101260004EF91F1292F9CA11EAF952114EFABB1047
:10127000B9FA0E1025FB510F8FFB8A0E0BF80000F8
:1012800051F8F7FFD7F8D5FF91F98EFF70FA1FFFDD
:1012900062FB88FE58FCCFFD45FDFFFC21FE24FCCF
:1012A000E4FE49FB8CFF77FA1700B7F988000DF9C7
:1012B000E1007CF8250106F85701AAF774616E5425
:1012C00068657461203E3D20302026262028746108
:1012D0006E5468657461203E3E203829203C2031E0
:1012E0003600000053696E65416E64436F73467249
:1012F0006F6D5665630000000700000139050001AD
:101300002A280001699200012772010144ED0201BF
:10131000A6170501EAEE0701815B0B01BC350F0141
:10132000B24C13011C6D1701EB661B010F111F015D
:101330006D4B22015CFF24019EFFFFFFD9E7FFFFF9
:10134000F292FFFFCFEFFEFF0D09FEFFC203FDFF8C
:10135000B917FCFF4684FBFF4085FBFF874AFCFF73
:101360004EF3FDFFFD8C0000D9140400387B08000B
:101370005FA70D00307B1300064620681822FEF799
:1013800011BFF0B583B0054610F5004F08D1DFF866
:10139000AC590124680006BF681C45426D4202E05A
:1013A0000028F6D400242DB246F289418D4203DB99
:1013B00046F288402D1A08E043F245218D4204DBB5
:1013C00046F28840451B84F001042DB241F62310FB
:1013D0008542A4BF43F24420451B2DB26F120D2F4E
:1013E0000FD372B60FF25C00DFF884420FF26C0389
:1013F00000F0A3F840F24F6000F0A9F800F0A2F866
:10140000FEE70FF2680000EB87062946B6F90200F6
:10141000FEF7BCFE0FF2880151F827104718294645
:101420002846FEF7B3FEB6F900108011484307EBDB
:10143000A01000F500600001001404B1404200B2A9
:10144000FEBD0000696478203C2031332026262030
:10145000696478203E3D20300000000046697865D0
:1014600064506F696E7453696E65000081FF0610E9
:1014700083FE45108BFDC1109DFC7311BDFB531203
:10148000EDFA561332FA6F148EF98D1504F9A11680
:1014900096F8981745F8621813F8EA1801F81F191A
:1014A000F8FEFFFFA1BDFFFF6CC4FEFF5DACFCFFBB
:1014B000142BF9FFA21CF4FFDC8BEDFFC8B8E5FF8D
:1014C000D81CDDFFB36CD4FF6997CCFFF5C2C6FF13
:1014D0001046C4FF649FC6FF566ACFFF9A51E0FFD3
:1014E00000F5C8502230B0F5004FA4BFDFF86C19EA
:1014F000081800B245E7F8B50446B0F5805F02DB96
:1015000041F62210F2BDDFF85819884202DADFF8FE
:101510005409F2BD2546032628B2FFF732FF0746DD
:1015200028B2FFF7DDFF0146381B00B2FFF783FA50
:101530002D1A761EF0D128B2F2BD0FF238120190AA
:10154000C821704721460FF2AC2001F04DBE00903B
:10155000204601F05BBE2DE9F04F0B4683B04FF003
:10156000FF35002B54BF01242C46002858BF01250D
:10157000002650EA030108BF002071D0002B04D5DB
:10158000590006BF591C4B425B42002803D541005D
:1015900008BF401C4042834207DA01461822184621
:1015A00000F030FD0746012604E01822194600F03D
:1015B00029FD07463815DFF8B8800FF2B8090FF299
:1015C000CC0A10282CDB0F200FF2DC010C2212FBBE
:1015D00000100090182239463846FEF7E3FD0099C6
:1015E0000968FFF7CBFE8346009841681822384609
:1015F000FEF7D8FD0099DFF8DC2A896858440818FE
:1016000000F22B11914219D372B60FF25C100190C7
:10161000534640F20C7000F0F1F800F0E5F8FEE7F8
:101620000028D1D572B60FF2B4100190534640F2A3
:10163000037000F0E3F800F0D7F8FEE716B1DFF82A
:101640002C18081A002C08D5002D59BFDFF81818DF
:10165000081ADFF8841A081802E0002D48BF40423B
:10166000BDE8FE8F000000005CFF2401307B13000A
:10167000E82001204153534552543A202573282530
:101680006429202D205B25735D0000004669786584
:1016900064506F696E7441726354616E325072654A
:1016A0006369736500000000BC05F8FFBA320001F1
:1016B000BFFFFFFF9C6FE8FFB6230201C4EFFFFFEF
:1016C00002EAD9FFC0C10501A1B5FFFF1C09CDFF8A
:1016D00081910A012B42FFFFE335C2FFC4F50F01E0
:1016E000F495FEFFA3A8B9FF65481501A7C1FDFF4A
:1016F0001E6BB3FFFDF01901E1E2FCFF6160AFFF7B
:1017000044751D01EE1EFCFFA14FADFF89811F0135
:10171000EB9CFBFFA0EFACFFCDE91F01A180FBFF1D
:10172000ADF0ADFF83A51E01EFE6FBFF6404B0FF43
:1017300026C81B01DEE3FCFFD6E2B2FFDF7817010B
:101740004B82FEFF6A4DB6FF9DEA1101A0C4000066
:10175000FF0FBAFF7A550B0144A60300C200BEFF7B
:10176000C7F10301411D070028202828284E5450A6
:1017700052454349534529282828666D5F666C6F9A
:1017800061745F742928332E31343135393236355E
:1017900066202F20322E30662929202A2028666DC7
:1017A0005F666C6F61745F74292831554C203C3C36
:1017B00020323429202929202B2033303029203E83
:1017C0002074686574612920262620287468657451
:1017D00061203E202D33303029000000696E6465A1
:1017E00078203E3D2030000041460FF2080001F015
:1017F000FBBC000025730D0A0000000000904A4663
:10180000C821404601F002BD10B504461822214609
:10181000FEF7C8FCD0F1807048BF0020FEF719FD2C
:1018200001462046BDE8104095E62DE9FF4F81B006
:10183000BDF93C90BDF938A0002600E0761C4E456D
:1018400022DA019FDDF80C80002413E000F04CF850
:10185000009940180BEB490B6D1C2DB25545F5DB7B
:1018600000F50060001328F8160007EB4A0708EBA4
:101870004908641CBDF9100024B28442DEDADDF8A8
:1018800008B000200025E8E7FFF7D4BC2DE9FF4FA2
:1018900081B0BDF93C90BDF938A0002600E0761C6F
:1018A0004E451FDA019FDDF80C80002410E000F0A7
:1018B0001BF8009940180BEB490B6D1C2DB25545D8
:1018C000F5DB48F8260007EB4A0708EB8908641C9B
:1018D000BDF9100024B28442E1DADDF808B000203E
:1018E0000025EBE7FFF7A6BC009037F915103BF990
:1018F0001600FEF74BBC2DE9FF4F81B0BDF93C80CF
:10190000BDF938B0002600E0761C464526DA039F74
:10191000002418E0009039F914103AF91600FEF787
:1019200035FC0099401809EB4B090AEB480A6D1C7D
:101930002DB25D45EEDB00F50060001327F81600C0
:1019400007EB4807641CBDF910008442DCDADDF8BF
:101950000490DDF808A000200025E9E7FFF76ABC45
:101960002DE9FF4F81B0BDF93C90BDF938A00026AC
:1019700000E0761C4E4525DA019FDDF80C8000243E
:1019800016E00090182257F825105BF82600FEF7A5
:1019900009FC009940180BEB890B6D1C2DB25545C5
:1019A000EFDB48F8260007EB8A0708EB8908641C80
:1019B000BDF9100024B28442DBDADDF808B0002063
:1019C0000025EBE7FFF736BC2DE9F34F95B0002576
:1019D000144650E0159910FB04F001EB400939F969
:1019E0001530002B41D038F9152000A90DF1020067
:1019F000FFF748FBAA4638F91A10BDF90200FEF7B6
:101A0000C5FB39F91A1000F046F8584400F500609B
:101A10000BA9001321F81A0039F91A10BDF90200B8
:101A2000FEF7B4FB38F91A1000F035F8ABEB000004
:101A300000F5006001A9001321F81A000AF1010A5B
:101A4000A245D8DB0BA800EB45013A4608EB450060
:101A500001F0FEFB01A800EB45013A4609EB450009
:101A600001F0F6FB002029F81500761E36B230464C
:101A70008542AFDB6D1CA5420ADA159804FB05F11F
:101A800000EB4108BDF85800461E601B4700EDE71B
:101A900017B0BDE8F08F8346BDF90000FEF776BBB6
:101AA0002DE9F84FBDF92890884692469B4604469A
:101AB000002511E034F9171038F91700FEF766FB1E
:101AC00086197F1C4F45F5DB06F5006000132AF8E8
:101AD000150004EB49046D1C2DB25D4502DA0026A9
:101AE0000027EFE7BDE8F18F2DE9F44FBDF928801D
:101AF000BDF92C908A469B46044600270FE054F817
:101B000026105AF82600FFF739FC4519761C464581
:101B1000F5DB009804EB890440F827507F1C3FB2A6
:101B20005F4502DA00250026F1E7BDE8F18F2DE9D7
:101B3000FD4FBDF930908846002502E008EB4908CA
:101B40006D1CBDF93400854223DA009F019C0026FC
:101B500016E037F91B1038F91B00FEF717FB82441B
:101B60000BF1010BCB45F4DB0AF50060001324F800
:101B7000150007EB4907BDF9340004EB4004761C5F
:101B8000BDF9080036B28642D8DA4FF0000AD346D3
:101B9000E8E7BDE8F78FF0B5BDF91440002511E086
:101BA00030F8167031F816C0A7EB0C0722F8167043
:101BB000761CA642F4DB00EB440001EB440102EB8F
:101BC00044026D1C2DB29D42B8BF0026F1DBF0BD72
:101BD0002DE9FA4F83B08146924600269B460BE0E2
:101BE00000F09FF828F8160008EB4B08641C24B29C
:101BF0005445F5DB761C36B25E4537DA039D002787
:101C000013E038F9171035F91600FEF7C4FA38F862
:101C10001610081A28F8160008EB4B08641C24B2AA
:101C20005445EEDB05EB4B057F1CB74206DA35F970
:101C300016000028F6D0C8460024F0E70398BDF847
:101C4000101016FB016130F91150C84665B900F05B
:101C50006DF80FF2F463FFF770FC40F66700FFF7D2
:101C600076FCFFF76FFCFEE70024C0E7FFF7E2BA5F
:101C70002DE9FA4F83B08146BDF81000461E934609
:101C800036B21F460BE000F04CF828F8160008EBBF
:101C90004708641C24B25C45F5DB761E36B2002E84
:101CA0003DD40398711C794300EB410A701C05B2C6
:101CB00013E038F915103AF91600FEF76CFA38F807
:101CC0001610081A28F8160008EB4708641C24B2FE
:101CD0005C45EEDB0AEB470A6D1CBD4206DA3AF9B9
:101CE00016000028F6D0C8460024F0E70398BDF897
:101CF000101016FB016130F91150C846002D0CD1AF
:101D000000F014F80FF25C63FFF717FC40F6870051
:101D1000FFF71DFCFFF716FCFEE70024BAE7FFF70C
:101D200089BA38F916002946FEF785BE72B60FF259
:101D30002860DFF8A8437047000000000180FFFF23
:101D40002DE9FD4F0C9E0D9F884600253EE0029830
:101D500030F91510B8F90000FEF719FA834601248E
:101D600007EB850906EB850A0AEB440038F91410E5
:101D700030F9020CFEF70BFA8344019830F9141085
:101D800009EB440030F9020CFEF701FA641CABEBDE
:101D9000000B022CE8DB0BF500600099001300F348
:101DA0000F0021F8150036F82500AAF8020037F8D0
:101DB0002500A9F80200009830F8150027F8250042
:101DC000029830F8150026F825006D1CBDF9380082
:101DD0008542BCDBBDE8F78F2DE9F04104460D4696
:101DE00003F5006001011646091448BF0021288848
:101DF000371AB5F90200FEF7CAF92979C1F10C01C9
:101E00004AB200F50060002A46BF494288400841B6
:101E100047F6FF78B0F5004FA8BF404639B200B290
:101E2000FEF7B5F900F50060B5F90010001300FAEF
:101E300081F0B0F5004FA8BF404604DADFF8A012E9
:101E40008842B8BF084628809DF91810B5F90000EF
:101E5000012908BF301A2080BDE8F081789BFFFF80
:101E600001F0FFFFDEE6FFFF6C3F2403B61F920187
:101E7000F0B500220FE001FB04F300EB430336F959
:101E8000145033F8127026F8147023F81250641CA2
:101E90009442F0DB521C8A4205DA01FB02F300EBAC
:101EA00043060024F4E7F0BD2DE9F041BDF91840E8
:101EB000002500E06D1C9D4218DA002602E020F8A3
:101EC000028B761CA642F5DA32F916E031F915C01C
:101ED000B0F900800EFA8CF7002F47BFC7F1000C55
:101EE00048FA0CF8F44408FA0CF8E8E7BDE8F08189
:101EF000F0B5002400E0641C944211DA002502E0F1
:101F000020F8026B6D1C2DB29D42F4DA31F9147089
:101F1000B0F90060002F46BF7F423E41BE40EFE770
:101F2000F0BDF0B5002400E0641C24B2944210DA45
:101F3000002502E020F8026B6D1C9D42F4DA31F9B5
:101F40001570B0F90060002F46BF7F423E41BE4091
:101F5000F0E7F0BD2DE9F043002583B080468946C7
:101F6000144600272E460DE000AB01AA0846FEF7F6
:101F700042F900993846CF1901994D19874238BF67
:101F80006D1C761C4E4506DA58F826100029EBD554
:101F9000C843411CE8E7C4F1200127FA04F005FA20
:101FA00001F141EA000635FA04F725D03846FEF77C
:101FB000E1FD0546E80748BF6D1CC5F1200226FA81
:101FC00005F007FA02F220211043FEF71BFD01463F
:101FD00055FA84F0203800044214012A08DB6FF01F
:101FE000004020FA02F399420AD201FA02F007E017
:101FF000504221FA00F003E021463046FEF702FD90
:10200000BDE8FE837CB5134681EA0002D40F0022AE
:10201000002944BFC943491C002844BFC043401C99
:102020001D46212D0EDB72B60FF25C302B4C0FF2E9
:102030004433FFF782FA40F6C810FFF788FAFFF73B
:1020400081FAFEE70FF2483656F82550C3F1200614
:10205000054000FA03F3354108208D4224BF42F0C9
:1020600001026D1A6D00002B48BF45F001055B00B1
:1020700052008D4224BF42F001026D1A6D00002B08
:1020800048BF45F001055B0052008D4224BF42F07D
:1020900001026D1A6D00002B48BF45F001055B0081
:1020A00052008D4224BF42F001026D1A6D00002BD8
:1020B00048BF45F001055B005200401ECDD1B2F192
:1020C000004F28BF6FF000420CB1504276BD104661
:1020D00076BD00000D22920194C0DBFCE8200120B7
:1020E0000180FFFFF0B50023C55E4E1B04D57700CD
:1020F00006BF751C6E426E1A012502E0CE1B2B46F0
:102100006D1C95421DDA30F91570B1EB070E09D53B
:102110005FEA4E0412BFA7EB010C0EF1010CCCF1EB
:10212000000C00E0F44636B2B445E9DABEF1000F27
:10213000E4D55FEA4E0312BF7E1A0EF101035E4240
:10214000DDE718B2F0BD10B561B10268012305E00A
:1021500050F82340A242B8BF22465B1C8B42F7DBFB
:10216000104610BD002010BD10B569B1B0F90020B7
:10217000012305E030F91340A242B8BF22465B1CA0
:102180008B42F7DB104610BD002010BD2DE9FB4F40
:10219000804692461AFB0AF041000027404600F0B4
:1021A00039F9DDF830900D9C00251FE019F9160073
:1021B00047FA80FB38F81B00009009EB46010198B4
:1021C00091F9011047FA81F130F91110029830F9B4
:1021D0001600FDF7E0FF0099401828F81B00761C58
:1021E000A642E3DB57FA8AF7BFB26D1CEDB2554544
:1021F00038BF0026F4D3BDE8F78F2DE9F74F82B042
:1022000098460026934600E0761C464536DA039F42
:102210000298002405E0002027F81600019F00988E
:10222000641C5C45F0DA30F9141007EB480200EB4F
:102230004B00019200900029EDD037F91600FEF70F
:10224000FAFB27F81600DDF80090DDF804A0651C05
:102250009DF81000EDB28542E0D237F9161039F939
:102260001400FDF798FF3AF81610081A2AF816001D
:1022700009EB4B090AEB480A6D1CE9E7FEF7DABFE8
:102280002DE9F74F82B0814600269846009202E081
:1022900009EB4809761C0098864222DA029F039CCB
:1022A000002515E037F91B1039F91B00FDF76FFF0A
:1022B00082440BF1010BC345F4DB0AF50060001307
:1022C00024F8160007EB4807009804EB40046D1C47
:1022D0009DF810002DB28542DADA4FF0000AD3469D
:1022E000E9E7FEF7A7BF2DE9F047089CDDF824A039
:1022F0000A9E0B9D884614FB02F100EB410000EBA7
:102300004309002709E072004146484600F0A0FF5B
:1023100009EB440908EB45087F1CFFB25745F2D38F
:10232000BDE8F08710B51446FDF731FF00F50060F9
:1023300000138442B8BF204603DB61428842B8BF25
:10234000084600B210BD0000547269736F6C766568
:10235000557070657200000074656D7020213D201D
:1023600030000000547269736F6C76654C6F77654E
:10237000720000004669786564506F696E74446944
:10238000766964653332000071203C3D20333200B1
:102390000000000000000080000000C0000000E01D
:1023A000000000F0000000F8000000FC000000FE4B
:1023B000000000FF000080FF0000C0FF0000E0FF01
:1023C0000000F0FF0000F8FF0000FCFF0000FEFF2F
:1023D0000000FFFF0080FFFF00C0FFFF00E0FFFFE5
:1023E00000F0FFFF00F8FFFF00FCFFFF00FEFFFF13
:1023F00000FFFFFF80FFFFFFC0FFFFFFE0FFFFFFC9
:10240000F0FFFFFFF8FFFFFFFCFFFFFFFEFFFFFFF6
:10241000FFFFFFFF002200F067BF10B450F8041B5D
:1024200081B102681218001D50F8043BDC0744BF5C
:10243000A9F10104E31852F8044B43F8044B091FB7
:10244000F9D1EBE710BC7047002200F085BF50F8CF
:10245000041B61B150F8042BD30744BFA9F1010359
:102460009A18002342F8043B091FFAD1EFE770479E
:102470000CB480B5084601F023F8002002BC5DF8DA
:102480000CFBDFF8740B0178491C0170704701F0F8
:1024900070BD000010B52DED028B84B000A90022A4
:1024A000134614461CC102284FD19FEDBE8ADFF8A7
:1024B0001C4B94ED060AB8EEC00A20EE080A10EE96
:1024C000100A01F071FEDFF8082BDFF8303B01F055
:1024D00093FE41EC100B01F0B3FF51EC100B01F037
:1024E000D5FF4042009094ED070AB8EEC00A20EEF6
:1024F000080A10EE100A01F057FEDFF8D42ADFF8C0
:10250000FC3A01F079FE41EC100B01F099FF51EC1F
:10251000100B01F0BBFF019094ED080AB8EEC00A61
:1025200020EE080A10EE100A01F03EFEDFF8A02AA5
:10253000DFF8C83A01F060FE41EC100B01F080FFBB
:1025400051EC100B01F0A2FF029000A802F0E5F997
:10255000002004B0BDEC028B10BD80B54022DFF836
:102560006C0A02F0B9FC0220BDE8024092E70000CC
:1025700070B52DED028B86B004460D46DFF8546A27
:10258000306A844238D196F83000800634D59FED09
:10259000858A95ED040AB8EEC00A20EE080A10EE0E
:1025A000100A01F001FECDE9040195ED030AB8EE31
:1025B000C00A20EE080A10EE100A01F0F5FDCDE980
:1025C000020195ED020AB8EEC00A20EE080A10EEEC
:1025D000100A01F0E9FDCDE90001D5E9000102F0A2
:1025E00083FC0022DFF8183A02F0AAFC02460B46F0
:1025F0000FF66C2000F064FF706A844238D196F8C0
:102600003000800634D59FEDA68A95ED040AB8EE19
:10261000C00A20EE080A10EE100A01F0C5FDCDE94F
:10262000040195ED030AB8EEC00A20EE080A10EE88
:10263000100A01F0B9FDCDE9020195ED020AB8EEEC
:10264000C00A20EE080A10EE100A01F0ADFDCDE937
:102650000001D5E9000102F047FC0022DFF8A039B3
:1026600002F06EFC02460B460FF60C2000F028FF2D
:10267000B06A844238D196F83000800634D59FED98
:10268000498A95ED040AB8EEC00A20EE080A10EE59
:10269000100A01F089FDCDE9040195ED030AB8EEB9
:1026A000C00A20EE080A10EE100A01F07DFDCDE907
:1026B000020195ED020AB8EEC00A20EE080A10EEFB
:1026C000100A01F071FDCDE90001D5E9000102F029
:1026D0000BFC0022DFF8283902F032FC02460B46E0
:1026E0000FF6AC1000F0ECFE06B0BDEC028B70BD36
:1026F00010B52DED048B88B00C46DFF8D808012109
:1027000041709FED280AD4ED020AF8EEE00A20EEAF
:10271000808A80ED018AD4ED030AF8EEE00A60EECB
:10272000808AC0ED028AD4ED040AF8EEE00A60EE79
:10273000800AC0ED030A94ED051AB8EEC11A21EE25
:10274000009A80ED049A90F83000800726D510EEAC
:10275000900A01F029FDCDE9060118EE900A01F07A
:1027600023FDCDE9040118EE100A01F01DFDCDE9AD
:10277000020119EE100A01F017FDCDE90001D4E9BC
:10278000000102F0B1FB0022DFF8743802F0D8FB40
:1027900002460B460FF6101000F092FE08B0BDEC9A
:1027A000048B10BD0000803338B52DED028B86B050
:1027B0000C46DFF82058286BC00434D59FEDB58A4D
:1027C00094ED040AB8EEC00A20EE080A10EE100AD2
:1027D00001F0EAFCCDE9040194ED030AB8EEC00A69
:1027E00020EE080A10EE100A01F0DEFCCDE902012D
:1027F00094ED020AB8EEC00A20EE080A10EE100AA4
:1028000001F0D2FCCDE90001D4E9000102F06CFB3B
:102810000022DFF8EC3702F093FB02460B460FF67E
:10282000A40000F04DFE95F83000400634D59FED31
:10283000998A94ED040AB8EEC00A20EE080A10EE58
:10284000100A01F0B1FCCDE9040194ED030AB8EEE1
:10285000C00A20EE080A10EE100A01F0A5FCCDE92E
:10286000020194ED020AB8EEC00A20EE080A10EE4A
:10287000100A01F099FCCDE90001D4E9000102F051
:1028800033FB0022DFF8783702F05AFB02460B4692
:102890000FF6480000F014FE06B0BDEC028B31BD0F
:1028A0000000803938B52DED028B86B00C46DFF87C
:1028B0002457286B800434D59FEDAF8A94ED040A29
:1028C000B8EEC00A20EE080A10EE100A01F06CFC07
:1028D000CDE9040194ED030AB8EEC00A20EE080A1F
:1028E00010EE100A01F060FCCDE9020194ED020A3D
:1028F000B8EEC00A20EE080A10EE100A01F054FCEF
:10290000CDE90001D4E9000102F0EEFA0022DFF87F
:10291000F03602F015FB02460B460FF2D87000F0BD
:10292000CFFD95F83000400634D59FED938A94EDA5
:10293000040AB8EEC00A20EE080A10EE100A01F0F0
:1029400033FCCDE9040194ED030AB8EEC00A20EE91
:10295000080A10EE100A01F027FCCDE9020194EDFF
:10296000020AB8EEC00A20EE080A10EE100A01F0C2
:102970001BFCCDE90001D4E9000102F0B5FA002208
:10298000DFF87C3602F0DCFA02460B460FF27C7070
:1029900000F096FD06B0BDEC028B31BD38B52DEDD3
:1029A000028B86B00C46DFF82C56286B400434D5D9
:1029B0009FED388A94ED040AB8EEC00A20EE080AAA
:1029C00010EE100A01F0F0FBCDE9040194ED030ACA
:1029D000B8EEC00A20EE080A10EE100A01F0E4FB7F
:1029E000CDE9020194ED020AB8EEC00A20EE080A11
:1029F00010EE100A01F0D8FBCDE90001D4E9000186
:102A000002F072FA0022DFF8F83502F099FA024675
:102A10000B460FF2107000F053FD95F830004006A1
:102A200034D59FED1C8A94ED040AB8EEC00A20EE5E
:102A3000080A10EE100A01F0B7FBCDE9040194ED8D
:102A4000030AB8EEC00A20EE080A10EE100A01F0E0
:102A5000ABFBCDE9020194ED020AB8EEC00A20EE0C
:102A6000080A10EE100A01F09FFBCDE90001D4E93D
:102A7000000102F039FA0022DFF8843502F060FA32
:102A800002460B460FF2B46000F01AFD06B0BDEC32
:102A9000028B31BD0000803338B50446012904D0D3
:102AA00063D3032923D045D35FE0DFF8285595F899
:102AB0003000000708D5E0680090A36862682168CC
:102AC0000FF2906000F0FCFCE86A00EBD071491056
:102AD000B0EB41004FD12146686902F065FF002844
:102AE00049D00FF28C60BDE8324000F0E9BCDFF85D
:102AF000E45495F83000000708D5E0680090A3681A
:102B0000626821680FF2706000F0DAFCE86A411038
:102B100000EB91718910B0EB81002CD12146A8699E
:102B200002F042FF002826D00FF26860BDE8324074
:102B300000F0C6BCDFF89C5495F83000000708D5BB
:102B4000E0680090A368626821680FF2506000F0AE
:102B5000B7FC2146E86902F027FF00280BD00FF2EE
:102B60005860BDE8324000F0ABBC0FF25460BDE8E5
:102B7000324000F0A5BC31BD0000803980B5C007EF
:102B800010D522220021084603F03AFB222201211F
:102B9000002003F035FB222202210020BDE808407E
:102BA00003F02EBB22220021084603F029FB22223B
:102BB00001210020BDE8084003F022BB80B522229D
:102BC0000021012003F01CFB22220121084603F012
:102BD00017FB222202210120BDE8084003F010BBB0
:102BE0000FB438B59DF81100DFF8E8432070FFF707
:102BF000C5FFDFF810540020E86205F5827002F08E
:102C000006FD04F1140105F58A7002F026FD04F1B9
:102C1000180105F5027002F020FD04F11C012846A0
:102C200002F01BFD04F1200105F53F7002F0E2FD0A
:102C300004F1240105F5477002F0DCFD04F12801E0
:102C400005F54F7002F0D6FD05F1F40105F557705A
:102C500002F0D0FD05F1F80105F55F7002F0CAFD44
:102C600005F1FC0105F5677002F0C4FD05F5807102
:102C700005F56F7002F0BEFD002801D1012004E0CF
:102C80000FF2505000F01CFC022032BC5DF814FB27
:102C900080B5FFF793FF012002BD0000F8B52DEDD0
:102CA000028B9CB00EA81021FFF7CEFB17A81021B5
:102CB000FFF7CAFB12A81421FFF7C6FB00A80021EA
:102CC0000A4606C0C44C2768666803F095FC0546B2
:102CD00004F04EF9B869F9684118B069F2688018D3
:102CE000B1F900200792B1F902200892B1F904105D
:102CF0000991B0F90010B6F95820C2EB4101491012
:102D00000B91B0F902104942B6F95A20C2EB4101C9
:102D100049100C91B0F904004042B6F95C10C1EBC7
:102D2000400040100D904FF47A7604F0DAF97043C9
:102D30000690012106A8FFF7AFFE04F0D2F9704318
:102D40000A9002210AA8FFF7A7FEA24E3078C0071A
:102D50000BD5B5F906000390B5F908000490B5F954
:102D60000A0005906869706305E007980390089869
:102D7000049009980590A8690290032102A8FFF722
:102D80008BFE02F077FE0128FBD103F009F8012841
:102D9000FBD13078C00760D5707800285DD096ED03
:102DA000040AB5EE400AF1EE10FA15D5B1EE400A6C
:102DB00086ED040A96ED010AB1EE400A86ED010A9D
:102DC00096ED020AB1EE400A86ED020A96ED030A7C
:102DD000B1EE400A86ED030A9FED808B706801F02A
:102DE000E3F953EC182B02F0ABF801F04FFB0E9017
:102DF0000EAFB06801F0D8F953EC182B02F0A0F830
:102E000001F044FB7860F06801F0CEF953EC182B28
:102E100002F096F801F03AFBB860306901F0C4F9AD
:102E200053EC182B02F08CF801F030FBF860102204
:102E30000EA912A802F050F868698DF85800206CAD
:102E400000F10C056A7D12A9EB68C068181802F041
:102E500043F80120A87400207070307880077CD57A
:102E6000082100A805F0D9FE9FED5E0A00A881792F
:102E70009DF8072042EA012109B200EE901AF8EE0F
:102E8000E00A60EE800A9DF80010427842EA0121D3
:102E900009B201EE101AB8EEC11A21EE001A8178BB
:102EA000C27842EA012109B201EE901AF8EEE11A65
:102EB00061EE801A00799DF8051041EA002000B209
:102EC00002EE100AB8EEC22A22EE000AB5EE400A5F
:102ED000F1EE10FA07D5F1EE600AB1EE411AF1EE0B
:102EE000611AB1EE400A9FED402A60EE820AFDEEC3
:102EF000E00ACDED0E0ADFED440A21EE201ABDEE08
:102F0000C11A0EAF87ED011A61EE821AFDEEE11AC9
:102F1000C7ED021A20EE200ABDEEC00A87ED030AB3
:102F20000E98179017A880ED011AC0ED021A80EDD7
:102F3000030A102217A912A801F0CEFF00208DF875
:102F40005800E06B00F10C04627D12A9E368C068D0
:102F5000181801F0C1FF0120A07401201CB0BDECC5
:102F6000028BF2BD80B503F049F920490860204981
:102F7000C0F8601500F260501E494160234981602D
:102F80000FF20D01C1600FF2A1010161012002BD2C
:102F90001648006890F85105002801D100207047BC
:102FA00005E080B5002000F006F8012002BD1848B9
:102FB00090F900007047164908707047054908707D
:102FC00001460FF2182000F07BBA00007C3401208B
:102FD00078DED299783601200840002000000000F9
:102FE00080842E4100000038002474C9903C0120E8
:102FF000E12B0008912C0008A4800020570E233FED
:103000000000703ED8740020002474499D2C0008F4
:10301000F93C012022220221002003F0F1B82222F3
:103020000221012003F0ECB818B440F221120B7811
:1030300012FB030301241C700B7812FB03035C706A
:103040000B7812FB030322249C700B7812FB030005
:103050000022C2700878401C087011BCA1E7000073
:10306000412C252E36662C252E34662C252E3466D2
:103070002C252E34660000004D2C252E36662C257E
:103080002E34662C252E34662C252E346600000046
:10309000472C252E36662C252E34662C252E34669C
:1030A0002C252E3466000000512C252E36662C254A
:1030B0002E34662C252E34662C252E34662C252E97
:1030C0003466000053412C252E36662C252E36669C
:1030D0002C252E36662C252E3666000052412C25D6
:1030E0002E36662C252E36662C252E36662C252E61
:1030F00036660000534D2C252E36662C252E36665E
:103100002C252E36662C252E36660000524D2C2599
:103110002E36662C252E36662C252E36662C252E30
:103120003666000053472C252E36662C252E366633
:103130002C252E36662C252E3666000052472C256F
:103140002E36662C252E36662C252E36662C252E00
:10315000366600004163630925386409252B356410
:1031600009252B356409252B35640D0A0000000064
:103170004143435F4B4F00004D61670925386409A7
:10318000252B356409252B356409252B35640D0A5B
:10319000000000004D41475F4B4F00004779720926
:1031A00025386409252B356409252B356409252B21
:1031B00035640D0A000000004759524F5F4B4F0025
:1031C000414C473A20426164206D657373616765C5
:1031D0000000000052563A20532046005256206606
:1031E0006C616720256400000EB400B582B003A9AD
:1031F0000091024600AB0121034878440A3005F0F3
:103200001BFD06BC5DF810FB1701030008B400B5F8
:1032100084B005AB03930023029311B9009301938B
:1032200002E00090481E019003AB00A907487844D3
:103230001A3005F001FD009909B100220A7000283A
:1032400058BF029804B05DF808FB00BF7B00000087
:1032500062B38B0708D0521E11F8013B00F8013B06
:1032600000F024808B07F6D1830740F0208000BF58
:10327000103A07D330B4B1E83810103AA0E838104B
:10328000F9D230BC530724BFB1E80810A0E80810F9
:1032900044BF51F8043B40F8043BD20724BF31F847
:1032A000022B20F8022B44BF0B7803707047083ABA
:1032B00007D3B1E80810083A40F8043B40F804CBC3
:1032C000F7D25307E4E78268521C8260426832B149
:1032D0000268531C036011704168491E41607047C9
:1032E00062F30F2262F31F42401810F0030308D06C
:1032F000C91A1FD3DB0748BF00F8012D28BF20F8EB
:10330000022D130030B414461546103928BF20E9A9
:103310003C00FAD8490728BF20E90C0048BF40F814
:10332000042D890028BF20F8022D48BF00F8012D88
:1033300030BC7047C91818BF00F8012DCB0728BF53
:1033400000F8012D70470268531C0360117070472C
:1033500062F30F2262F31F4200B500BF13009646CE
:103360009446103928BFA0E80C50FAD85FEA417C97
:1033700028BF0CC048BF40F8042BC90728BF20F85D
:10338000022B48BF00F8012B00BD0000BFF34F8F98
:10339000DFF81C07016801F4E061DFF844271143FE
:1033A0000160BFF34F8FFEE710B5DFF838474FF4E9
:1033B0008E720021204606F00AFB204610BDDFF881
:1033C0002407704710B5FFF7EFFF044600231A46A5
:1033D0001146084600F06EFAC046C04606F002FBF1
:1033E000204600F018F806F054FD204600F0CFF912
:1033F000204600F014F8204600F01EF800F092F984
:1034000000206072A072E0722073012060730020BF
:10341000E075012010BD0021C171017231E010B5CD
:103420000446DFF8900606F089FBDFF8BC0606F0DC
:1034300085FB0120607110BD10B5044606F0E9FB64
:103440000120A07110BD38B50446012506F094FC9A
:10345000012804D12846E0700020A0700AE002286C
:1034600004D10020E0702846A07003E00020E07046
:10347000A0700546284632BD80B506F0F7FD012054
:1034800002BD10B50446E07906F01EFF012121704F
:1034900010BD70B504460025E679E171FFF7F1FF34
:1034A000002807D02046FFF7BAFF2046FFF7C4FFE9
:1034B000012503E0E6712046FFF7E3FF284670BDD3
:1034C0000EB470B5C1B0054600A84FF48071FEF788
:1034D000BBFFFFF774FF044645AB2A464FF48071EB
:1034E00000A807F075FC00A807F090FC451C00A898
:1034F0002818002100F8011CDFF8F0653078401C26
:1035000030707078F021084202D0992007F09AFCC0
:1035100007F005FD7078401C7070207E2818FF2889
:1035200010DA207E002803D0207E00190A210176BF
:103530002A4600A9207E0019193001F0CDFC207E1A
:103540002818207600A807F053FF7078F021084271
:1035500002D0992007F076FC7078401E7070C0B2DF
:10356000002801D107F0D5FC00F003FD41B070BC8C
:103570005DF810FB0428DFF8400503D8DFF83415A8
:1035800001607047DFF8601501607047DFF82C15A7
:1035900051F82000007F002807D0DFF8540501789B
:1035A0004A1C0270032900DBF0E670472DE9F8435E
:1035B00005460E4617464FF00208DFF830456078A2
:1035C000F021084202D0992007F03CFC07F0A7FC4C
:1035D0006078401C60709DF80000401E8DF800006F
:1035E00017F8019B2846FFF7C5FF00AB4A4639464E
:1035F000304606F081FF002810D06078F0210842A4
:1036000002D0992007F01EFC6078401E6070C0B2A6
:10361000002801D107F07DFC01201FE05FFA88F847
:10362000424629460FF2D440FFF74AFF4046A0F138
:1036300001080028D9D16078F021084202D09920F1
:1036400007F000FC6078401E6070C0B2002801D115
:1036500007F05FFC2846FFF799FF0020BDE8F283E2
:103660002DE9F04704460D4616461F46DFF8508404
:10367000089888F80000DFF8749499F80100F021A8
:10368000084202D0992007F0DDFB07F048FC99F8CA
:103690000100401C89F801002046FFF76BFF4FF046
:1036A000020A434632463946284606F0D5FF00282E
:1036B00013D099F80100F021084202D0992007F0B8
:1036C000C1FB99F80100401E89F80100C0B2002832
:1036D00001D107F01EFC012022E05FFA8AFA52466F
:1036E00021460FF22440FFF7EBFE5046A0F1010AFD
:1036F0000028D6D199F80100F021084202D0992083
:1037000007F0A0FB99F80100401E89F80100C0B243
:10371000002801D107F0FDFB2046FFF737FF00200E
:10372000BDE8F08708F058BCF8B50446022700252C
:10373000DFF888630DE039464F1EC9B200290AD16F
:10374000002804D120690121A94088432061022773
:103750006D1C172D10DA56F82500006E00688047A2
:103760000128E8D121690122AA401143216156F8BC
:10377000251001220A77E3E72069032803D00228F5
:1037800001D0012802D140F480502061F1BD07F042
:10379000A7B807F002B981B00022ADF80220ADF859
:1037A0000020C079042808D0062809D008280AD0AB
:1037B00009280BD00A280CD00EE04FF4C8600DE0A9
:1037C0004FF448600AE04FF4C85007E04FF4FA5055
:1037D00004E042F2107001E041F27070ADF8022096
:1037E0000DE0BDF80020521CADF80020BDF800200F
:1037F0008242F6DBBDF80220521CADF80220BDF873
:1038000002208A4203D20022ADF80020EEE701B088
:103810007047417230B589B003F0AEFB0446FFF744
:10382000CEFD054600A82421FEF70EFE0020ADF8CF
:10383000220001900A208DF8080000208DF8090070
:103840008DF80A00687A00280DD0002C18D00020CE
:103850008DF80000052001900B208DF8080000A8CD
:1038600002F0A2FD0CE0002C0AD001208DF800002F
:10387000052001900B208DF8080000A802F094FDAF
:1038800009B030BD07F0A5B807F0ADB80121084672
:10389000F8E701210846F7E702210120F2E70221BB
:1038A0000120F1E707F0AAB810B50446FFF787FD3D
:1038B000447510BD2DE9F04782B00C4615462F46E1
:1038C000264680464FF47A714FF03C0C4FF4616904
:1038D00018FB09F216FB0C22BA1801FB0232DFF8C2
:1038E000E4E19EF900A01AFB09F99EF901A01AFB78
:1038F0000C9C9EF902904CFA89FCBEF9039001FBE6
:103900000C919EF808C0BCF1000F22D144EA0001DE
:103910002943194302D001218EF808108EF80000C7
:10392000B8F1000F04D59EF8000018308EF80000A2
:103930008EF801408EF80250AEF8033000933B46FB
:1039400032469EF900100FF2F010FFF7B9FDBDE806
:10395000F38791420DD3A1EB020CACF2D17CDFF8DE
:103960009491CC45DAD30FF2AC1002B0BDE8F04729
:10397000A6E5D3D2A2EB010CACF2D179DFF874A1A9
:10398000D145CBD363460FF29C1002B0BDE8F0479F
:1039900096E510B504002FD003F0A3FB4949CA688F
:1039A000002A00D0841AB1F80320A218A1F803203D
:1039B00012B2B2F57A7F06DBA2F57A72A1F8032083
:1039C0008A78521C8A7091F902203C2A04DB3C3A26
:1039D0008A704A78521C4A7091F901203C2A04DB13
:1039E0003C3A4A700A78521C0A7091F90020182A51
:1039F00001DB00220A70C86010BD32490522FFF7C2
:103A000027BC00000FB410B52DED028B2E4C1046D4
:103A100008F0B0FB2D4A2E4B01F092FA2061616153
:103A20009FED2C8B049808F0A5FB53EC182B01F0AC
:103A300087FA20606160059808F09CFB53EC182B16
:103A400001F07EFAA060E1609DF81C00207604F190
:103A500018009DF81D1041709DF81E1081709DF892
:103A60001F10C1709DF820100171BDF8210000EEFB
:103A7000100AB8EE400A10EE100A00F095FB174A43
:103A80001D4B01F05DFA08F083FBC4F81D00BDF882
:103A90002300A4F821009DF8250084F82300BDEC44
:103AA000028B10BC5DF814FB07492422FFF7D0BB42
:103AB0000CED00E0005400402C870020084000205E
:103AC000EB3C0120683A012068380120FCA9F1D2C2
:103AD0004D62503F8DEDB5A0F7C6B03E3BDF4F8D38
:103AE0000400FA05B00F012000580040A480002017
:103AF000EA3C01205F4C2605976EA23F49574520BE
:103B000025642025640000004952452025642025B5
:103B10006400000041542D536574545331202564D2
:103B20002025640041542D5365745453322025647C
:103B3000202564202564000041542D5365745420D1
:103B400025643A25643A25642E25640038B507F0CB
:103B5000E6F9DFF830068468DFF8280600210171F5
:103B600007F0D7F9002C2CD02068002829D0607CE1
:103B70002168497CC0B2814223D1256800E00D0054
:103B80002968002903D04A7CC0B28242F7D007F0EE
:103B9000C6F9DFF8F0050069A04203D1DFF8E405BB
:103BA00021680161E06921680160C861E5612968F7
:103BB0002160002900D0CC612C6095F8410085F887
:103BC000400007F0A6F931BD10B507F0A8F9DFF8FD
:103BD000B8050468DFF8AC05006A201A012832DA5B
:103BE000DFF8A005046A04E0DFF89805046207F036
:103BF00090F9DFF898050078C00722D507F08FF913
:103C0000DFF8880500788007EED5DFF880050078BA
:103C100010F0FD00DFF87415087007F07AF9DFF88E
:103C20006405006A8442FAD0DFF858050462DFF8C0
:103C300058050068401CDFF850150860DFF844158F
:103C4000486207F06CF910BD38B504000020A0717F
:103C5000206A10F57A606062E069002802D02000D6
:103C6000E169884707F055F9E56809E0E868616AA5
:103C7000401A002801D5E868606207F04AF92D680B
:103C8000002D1AD007F04BF92069002804D0687C79
:103C90002169497C884212D3287C4007EDD5E86829
:103CA000216A401A0128E1DA280000F09EF907F0A5
:103CB00036F9287C0028D9D101E007F030F931BD70
:103CC00070B50400002060700120207008F0A8FA90
:103CD0000078C0B2CD2802D07D2007F0B3F8A068EC
:103CE00000280CD0A068406C002808D0A068406C68
:103CF00001680800002802D0A0684068884794F84E
:103D0000290000280BD0A06894F8281080F84010F3
:103D1000DFF870040079002801D0FFF717FFDFF803
:103D200070040078002823D0DFF868040068DFF80A
:103D30005414096A401A002804D5DFF854040021FD
:103D4000017015E007F0EBF808F0FAFA050007F04B
:103D5000E0F8A068002808D0A068406B2818DFF8B9
:103D600038140968401AA1684863DFF82C0405601C
:103D7000A068002808D0A068007C002804D1A068B2
:103D8000006B401CA1680863206900282BD003E069
:103D90003068206107F0BDF807F0C1F82669002EF1
:103DA00027D0357CEDB2002D23D0680710D5F06800
:103DB000216A411A012906DA300000F016F9307C38
:103DC000002805D10FE0616A411A002900D5606220
:103DD000EDB215F0FB001028DAD1B06880684068B9
:103DE000007C0028D4D107F09AF802E02000FFF709
:103DF0002BFFA0790028F9D1DFF890030078C007E5
:103E000001D5FFF7E1FE002060712069002839D05C
:103E10002069007C002805D020698068806840689F
:103E2000A06001E02069A060A06890F84C006428C0
:103E300002D0802007F006F8A068806A0078CD28BC
:103E400002D0782006F0FEFFA068406C002808D061
:103E5000A068406C41680800002802D0A068406853
:103E60008847A06890F8400084F8280084F829006A
:103E7000DFF810038068C06A401CDFF80813896807
:103E8000C8620BE0002084F82900002084F8280094
:103E90000020A0600020207007F03BF8200070BDDB
:103EA00080B508F07BFADFF8F4120978002806D014
:103EB000022810D009D3042815D010D314E000290B
:103EC00002D0A32006F0BEFF11E0002902D1A420F9
:103ED00006F0B8FF0BE0A62006F0B4FF07E0A7202D
:103EE00006F0B0FF03E002E0A82006F0ABFF01BD42
:103EF00010B508F053FA0400DFF8A002007800289B
:103F000002D0A02006F09EFF002C05D0022C08D085
:103F100003D3032C09D00CE00EE0A42006F092FF9E
:103F20000AE0A62006F08EFF06E0A72006F08AFF32
:103F300002E0A82006F086FF10BD80B508F02EFA3A
:103F4000002805D0022808D006D3032809D00CE0A9
:103F5000A32006F077FF0BE00AE0A62006F072FF30
:103F600006E0A72006F06EFF02E0A82006F06AFF38
:103F700001BD80B5DFF80C020078002802D197203F
:103F800006F060FFDFF8FC010078401EDFF8F41156
:103F90000870C0B2002827D1DFF8E8014068002887
:103FA00022D006F0BCFFDFF8DC01406800280BD00F
:103FB000DFF8D00101210170DFF8C80106F099FF98
:103FC000DFF8C00100210170DFF8B8014078F0216E
:103FD000084202D0992006F035FFDFF8A8014078AA
:103FE000002801D106F095FF01BD10B581680029B8
:103FF0000CD0DFF89011096AC16081680A684968CD
:10400000002A00D051600A6000218160017C11F01B
:1040100003010174C9B2002945D1DFF868110969AB
:10402000002929D1DFF85C110861DFF85801007818
:1040300000280CD1DFF84C0101210170DFF84401A8
:1040400006F057FFDFF83C010021017003E0DFF8C4
:10405000340101214171DFF82C014078F021084240
:1040600002D0992006F0EEFEDFF818014078002813
:1040700001D106F04EFF16E0427C4B7CD2B2934257
:10408000D0D38142D1D04B7CD2B29A420BD1030023
:10409000FFE71B68002BDED05C7CD2B2A242DAD1F3
:1040A0008B42F6D1BEE710BD10B50400627C3548E6
:1040B0000078401C33490870394800E00800016866
:1040C000002903D04B7CD2B29A42F7D32160E06141
:1040D000046000290AD0CC61487CD2B2904202D15F
:1040E00094F8410000E0002084F84000207C002883
:1040F00012D106F014FF2000FFF777FF2148407827
:10410000F021084202D0992006F09CFE1D4840781C
:10411000002801D106F0FDFEFFF72BFF10BD10B502
:104120001848047817480078401C1649087015484C
:1041300006F0DFFE1348047012484078F021084270
:1041400002D0992006F07EFE0E484078002801D16A
:1041500006F0DFFE10BD10B508F026F90948012170
:10416000017008F05DF804006846C046021B203A62
:10417000012A03DBCD21200005F029FC094801219B
:10418000017010BDA4800020C03C01200F3D012023
:10419000103D0120D83C0120C43C0120113D0120EC
:1041A000B0800020133D01205FF0FF0C1CEAD051CD
:1041B00014BF614506E0C110400721F0E04101F164
:1041C0006051704779B900F0004100020AD0B0FA9E
:1041D00080FC00FA0CF001F16051A1EB0C5101EBF5
:1041E000D0214005704741020CBF40F4E0016FF060
:1041F0000001002070470000F0B540F2FF7581EA31
:10420000030C0CF0004C15EA11541DBF15EA1357AE
:10421000AC42AF42E5E0BC41C1F31301C3F3130369
:10422000801A994143F4801304D2641E400049412E
:1042300080185941C90241EA5051B1FBF3F603FB22
:104240001611A2FB0675D7EBC020A94102D2761E3B
:1042500080185941C90241EA5051B1FBF3FE03FBFA
:104260001E11A2FB0E75D7EBC020A94103D2AEF1FF
:10427000010E80185941890241EA9051760546EABB
:104280008E2EB1FBF3F603FB1611A2FB0675D7EBDE
:104290008020A94102D2761E80185941C90241EA04
:1042A00050514EEA060EB1FBF3F603FB1611A2FBCA
:1042B0000675D7EBC020A94102D2761E801859415D
:1042C000C90241EA5051B1FBF3F703FB1711A2FBFE
:1042D0000735D3EBC020A94167F100070CBF0042AE
:1042E00047F0010766F3D5274FEA1E31B80814F5E9
:1042F000806412DDBD0775F1004250EB0E5051EBAA
:10430000045111F5801F5CBF41EA0C01F0BD4CF077
:104310007F6141F0E0410020F0BDBD076D0840EA3B
:104320000E5041F48011D4F10104B4F120060ADAF0
:10433000C4F120060200E04001FA06F3E140184310
:10434000B24015430EE0342C13DCC6F1200445EADC
:1043500040056D0820FA06F2154321FA06F0A14047
:104360000D43002175F1004250F1000051EB0C01AA
:10437000F0BD00205FEA0C01F0BDCFB992185B419F
:10438000B3FA83F704BFB2FA82F6BF190B3FB7F155
:1043900020062FBF02FA06F3BB40C7F1200622FA1F
:1043A00006F638BF3343BA401CB1E419641E33E744
:1043B0007F4231F00041B1FA81F404BFB0FA80F6D7
:1043C000A4190B3CB4F120062FBF00FA06F1A1405E
:1043D000C4F1200620FA06F638BF3143A0403C1B4A
:1043E0001AE7AC421ABF05EA1357AF4212E050EA8F
:1043F00041061CBF52EA4306BFE750EA4107304678
:1044000061461CBF41EA0551F0BD52EA430C08BFAA
:10441000C143F0BD00204FF4001616EB410F98BFCA
:1044200016EB430F08BF16EB410F24BFC14305E055
:1044300016EB430F0CBF61464CEA0551F0BD00007E
:1044400000B583B001218DED000B00A807F0D0FF6F
:10445000401E012811D9002100A807F0C9FF60B152
:104460000198DDE90023002847BF0020054900200E
:10447000054907F0FDFFCDE900019DED000B03B0FC
:1044800000BD00000000F0BF0000F03FF446400D0A
:1044900040EAC120490006D200F014F8004248BFAB
:1044A0006FF00040604700F00DF84FF00041884287
:1044B0008CBF084640426047400D40EAC120490099
:1044C00080F00D8040F00040490DA1F58061491C4D
:1044D00005D4D1F11F0154BFC840C01770474FF039
:1044E0000000704770B50546FEF769FF0646DFF825
:1044F00058492078401C20706078F021084202D092
:10450000992006F09FFC06F00AFD6078401C607060
:10451000294689B23046FFF73EF96078F02108421B
:1045200002D0992006F08EFC6078401E6070C0B208
:10453000002801D106F0EDFCBDE87040FFF719BD81
:1045400030B583B004460020ADF806008DF80400B5
:104550000146012008F012F805460120009001AB49
:104560000022B021FFF77CF8002801D100203EBDD9
:1045700000208DF806009DF8040000F0E7002043BD
:1045800040F007008DF8070002230DF10602B0216C
:104590000120FFF70BF8002801D100203EBD28467E
:1045A0003EBD10B584B00C4601A800210A4606C0E5
:1045B0000620009001AB2422B0210120FFF750F823
:1045C000002801D100200EE001A8417821709DF85B
:1045D00004106170C178A1708178E1704179217116
:1045E00000796071012004B010BD30B583B00024A3
:1045F0002046ADF804000146012007F0BFFFDFF8B8
:104600004C58012000902B462246B021FFF728F895
:10461000002832D0012000906B1C0246B021FFF729
:104620001FF8002829D001200090AB1C0222B021E5
:10463000FFF716F8002820D001200090EB1C032281
:10464000B021FFF70DF8002817D00221012007F054
:1046500095FF054600E0641C062C10DA04F11300F7
:104660008DF8040000208DF80500022301AAB02176
:104670000120FEF79BFF0028EDD100203EBD28461B
:104680003EBD70B582B00020ADF8000001460120AB
:1046900007F074FF044600208DF80000DFF8AC57E7
:1046A00000AE28787070022300AAB0210120FEF726
:1046B0007DFF002801D1002076BD01208DF800008B
:1046C00068787070022300AAB0210120FEF76EFF07
:1046D000002801D1002076BD02208DF80000A878C6
:1046E0007070022300AAB0210120FEF75FFF0028AE
:1046F00001D1002076BD03208DF80000E8787070AD
:10470000022300AAB0210120FEF750FF002801D1AA
:10471000002076BD204676BD70B582B004460020EC
:10472000ADF800000146012007F028FF05460020F3
:104730008DF8000000AE1F207070022300AAB02187
:104740000120FEF733FF002821D002208DF8000061
:10475000DFF8F806807800F0F00040F00400707098
:10476000022300AAB0210120FEF720FF00280ED06E
:1047700001208DF80000A00140F01C0070700223A1
:1047800000AAB0210120FEF711FF002801D100206E
:1047900076BD002C02D06420FFF7A4FE6420FFF752
:1047A000A1FE284676BD2DE9F043ADF5197D0446FE
:1047B0000D46164667A8C821FDF746FE35A8C82154
:1047C000FDF742FE03A8C821FDF73EFE01A8002127
:1047D0000A4606C00F4618E001A89DF8041042786A
:1047E00042EA012167AA22F817108178C27842EACA
:1047F000012135AA22F8171000799DF8091041EA25
:10480000002003A921F817007F1C642F13DA012070
:10481000FFF768FE012007F0C5FEC007F7D50620A8
:10482000009001AB2422B0210120FEF719FF0028DF
:10483000D2D100206DE00020014621606160A160BE
:1048400014E067AA32F9102001EBC201216061680F
:1048500035AA32F9102001EBC2016160A16803AAF8
:1048600032F9102001EBC201A160401C21686428CC
:10487000E7DB642091FBF0F020606068642190FB2E
:10488000F1F06060A06890FBF1F0A060002738466E
:104890000146C5E90001C5E90201C5E9040133E0AB
:1048A000D4F8008067A830F917C04FEAA80008EBD9
:1048B0005070ACEBE000D5E900234043C11710185D
:1048C0005941C5E90001D4F804E04FEAAE000EEB0F
:1048D0005070ACEBE000D5E902234043C11710183B
:1048E0005941C5E90201D4F808904FEAA90009EB43
:1048F0005070ACEBE000D5E904234043C117101819
:104900005941C5E904017F1C642FC9DB6420306074
:1049100001200DF5197DBDE8F08370B586B0DFF894
:104920003015496801AA00231C4618C21A46ADF882
:10493000002002685242ADF8042001AA43685B429D
:104940005380806840429080BDF9040000128DF8C9
:104950000C0003ACBDF804006070B2F90200031251
:10496000A370E070B2F90400031223718DF81100F6
:10497000002006E001EB400332F81050A3F8585035
:10498000401C0328F6DB0221012007F0F7FD054655
:10499000002600E0761C062E10DA06F113008DF8D2
:1049A0000000305D8DF80100022300AAB021012033
:1049B000FEF7FCFD0028EDD1002000E0284606B0FF
:1049C00070BD00002DE9F8432DED028B814688462D
:1049D00001241068D8F80010401A811000EB5170C3
:1049E000C5105068D8F80410401A811000EB5170BF
:1049F000C6109068D8F80810401A811000EB51706A
:104A0000C710B5F5166F01DB204600E0002007F067
:104A1000B1FB2246DFF83C3408F06EFA20D2704237
:104A2000B0F5166F01DB104600E0002007F0A2FB96
:104A30002246DFF8203408F05FFA11D2B7F5166F7E
:104A400001DB104600E0002007F094FB2246DFF86F
:104A5000043408F051FA03D24046FFF75EFF37E016
:104A6000B5F5166F01DB104600E0002007F082FB71
:104A70002246DFF8E03308F03FFA03D30FF2044098
:104A8000FEF71EFD7042B0F5166F01DB204600E018
:104A9000002007F06FFB2246DFF8B83308F02CFA4D
:104AA00003D30FF2EC30FEF70BFDB7F5166F01DB09
:104AB000204600E0002007F05DFB2246E54B08F0B1
:104AC0001BFA03D30FF2D430FEF7FAFC4FF0FF3499
:104AD0009FED988B284608F026FA07F041FB00224C
:104AE000DD4BFFF789FB53EC182B00F029FAFFF799
:104AF000CDFCA9F80000304608F015FA07F030FBAD
:104B00000022D54BFFF778FB53EC182B00F018FA76
:104B1000FFF7BCFCA9F80200384608F004FA07F0D9
:104B20001FFB0022CC4BFFF767FB53EC182B00F068
:104B300007FAFFF7ABFCA9F804002046BDEC028B96
:104B4000BDE8F28330B597B004460CA800210A46B0
:104B50000B460EC001A80EC010A81821FDF774FC6A
:104B600006A81821FDF770FC00A80021016004A828
:104B70000A4606C0FFF739FD002801D10020ABE04E
:104B80000020FFF7C9FD002801D10020A4E000AA01
:104B900006A901A8FFF707FE002801D100209BE02D
:104BA0000120FFF7B9FD002801D1002094E000AA00
:104BB00010A90CA8FFF7F7FD002801D100208BE019
:104BC0000CAA01A904A8FFF7FDFE0546012D03D09C
:104BD0000FF2D420FEF774FC00202070BDF8100006
:104BE0006070BDF910000012A07004A84188E17047
:104BF000B0F902100912217181886171B0F90400C5
:104C00000012A071E5710098207200980012607285
:104C100000980014A07200980016E07201982073AA
:104C200001980012607301980014A0730198001697
:104C3000E07301A8416821744168091261744168F8
:104C40000914A17441680916E174816821758168AD
:104C50000912617581680914A17580680016E075F4
:104C6000DDE906012076DDE9060100B2001260767A
:104C7000DDE906010014A076DDE906010016E07604
:104C800006AAD2E902012077D2E9020100B200129D
:104C90006077D2E902010014A077D2E90201001680
:104CA000E077D2E9040184F82000D2E9040100B2DF
:104CB000001284F82100D2E90401001484F82200D3
:104CC000D2E90401001684F82300FFF7DAFC00287B
:104CD00001D1002000E0012017B030BD30B583B015
:104CE00004460020ADF8040059484568687A002859
:104CF00007D1286E40688047FEF761FB0A21FEF766
:104D00004AFD0120009001AB3622B021FEF7A8FC3D
:104D1000002801D100203EBD9DF804002070002035
:104D20006070687A002802D1286E80688047012070
:104D30003EBD00000000000000408F4080B50178BB
:104D4000002905D1FFF7FEFE002805D0012002BD95
:104D5000FFF7C4FF0028F9D1002002BD30B583B0B1
:104D60000020ADF806008DF804000146012007F090
:104D700005FC0446012007F0EFFB002801D10020CC
:104D80003EBD0120009001AB0022B021FEF768FC7F
:104D9000002801D100203EBD0DF106059DF804005C
:104DA00000F00700072812D000208DF806009DF8BB
:104DB000040040F00700687002230DF10602B021E4
:104DC0000120FEF7F3FB002801D100203EBD0120A9
:104DD0008DF806002220687002230DF10602B02132
:104DE0000120FEF7E3FB002801D100203EBD022098
:104DF0008DF806000520687002230DF10602B0212F
:104E00000120FEF7D3FB002801D100203EBD204643
:104E10003EBD1820FFF794BB80B50020FFF790FB44
:104E2000002801D1002002BD012002BD01207047F1
:104E300080B5242201460948FFF7B3FB002801D1C1
:104E4000002002BD012002BDA4800020783C01208A
:104E500008400020004CCD40004CDD40781C012073
:104E600080B5062806D10846FFF738FF002801D193
:104E7000002002BD012002BD0FF23801012006F022
:104E80003BBF000078206661696C6564000000002B
:104E900079206661696C6564000000007A206661B3
:104EA000696C656400000000636865636B2066617F
:104EB000696C00005D4D0008134E0008194E000893
:104EC0002D4E000800000000314E000800000000D8
:104ED0003D4D0008614E000810B504002000FEF7AB
:104EE000B7F9200010BD0000094240F10B80F446E4
:104EF0004942404271F1000100F004F851F00041D4
:104F00006047000008BF07F035B902460846B0FA0E
:104F100080F150408A40C1F12001C8415040C91E73
:104F200001F58461090501EBD021400540EAD2205A
:104F3000520572F1004250F1000041F1000170474A
:104F4000B0B581EA030C0CF0004C40F2FF7515EA95
:104F500011541DBF15EA1357AC42AF4239E0E419B2
:104F600023EA455343F48013C90241F0004141EA6A
:104F7000505EC7021100A7FB020200284FF000009C
:104F8000EEFB01204FF00001E3FB072118BF42F0C8
:104F90000102401800214941E3FB0E01A4F58064A1
:104FA0000F0302D252004041494154F101046CDD2B
:104FB000470872F1004250F1000051EB0451A1F595
:104FC00080115CBF41EA0C01B0BD4CEA05510020E4
:104FD000B0BD05EA1357AC4214BFAF4241E050EAFE
:104FE000410E1CBF52EA430E02E061460020B0BDF4
:104FF00024423C441BD15FEA070EF6D0090302BFEE
:1050000001460020AEF1140EB1FA81F7AEEB0704B1
:1050100001FA07FE0C37C7F1200100FA07F7C84074
:105020004EEA000E23EA455343F48013A2E733F01F
:105030000043B3FA83F704BFB2FA82FE77440B3F12
:10504000E41BB7F1200E2FBF02FA0EF3BB40C7F1ED
:10505000200E22FA0EFE38BF43EA0E03BA40641C4B
:1050600082E750EA410E14BF52EA430E6FF000018E
:105070004FF4001717EB430F8ABF194617EB410F88
:10508000B5E74CEA05510020B0BDD4F10104B4F1FC
:1050900020070FDAC4F12007520828BF42F00102AE
:1050A00010FA07F501FA07F7E1BF2A43E040384359
:1050B000E1400FE0352C98DCC7F1200452EA4002B1
:1050C00020FA07F218BF42F0010231FA07F0A140BE
:1050D0000A43002172F1004250F1000051EB0C0133
:1050E000B0BD00000020704710B500220DE010F8A0
:1050F000014B84EA12231C0683EA14731C0384EA1E
:10510000022282EA43125A4092B20B46591E9BB2C7
:10511000002BECD1104610BD0021DFF8402902EB36
:10512000C103984201D108467047491C09B20829B9
:10513000F5DB0FE00021DFF8242952F831302BB1E4
:1051400093F90030984201D108467047491C09B2D2
:105150000829F2DB4FF0FF3070470021DFF800290B
:1051600052F831302BB193F90030984201D1084602
:105170007047491C09B22129F2DBEBE710B5044660
:1051800094F900000828BCBF94F9010002280ADA4B
:1051900094F908000728BFBF94F90900072894F97B
:1051A0000A00072802DB4FF0FF3010BDE06A48B16B
:1051B0006221FFF799FFE16AB1F86210814214BFE2
:1051C0000020012094F9001059B9216CDFF89828CB
:1051D00091421CBFDFF89428914202D06FF00F007B
:1051E00010BD08B1002010BD6FF0060010BDFEB567
:1051F00000240021DFF86C280B019D56854220D148
:1052000000259E180EE0DFF8541801EBC0008188DD
:10521000CA0705D441F0010181800120B840044350
:105220006D1C2DB23089854210DAA81990F90A70E8
:105230003846FFF77FFF10F1010FE4D14FF0FF3048
:10524000FEBD491C09B22129D6DB0EE06CB1DFF8A6
:105250002008406CC168080007D00020009002942C
:105260000220ADF8040000A888470020FEBDC01A47
:1052700000B51040012908D1C2F35E016FF0004370
:105280005940084218BF60EA02000199029A81FB66
:10529000000110F5006041F10001C2F1180207F0B1
:1052A00047FE002906DB02DCB0F1004F02D36FF0AD
:1052B000004000BD4FF0FF334FF00042994203DC45
:1052C00001DB904200D2104600BD00002DE9FC47F2
:1052D000894680469A4689F8082000251446D8F861
:1052E000000000682918002691F9081009EB8507CD
:1052F000062946D8DFE801F00428272B2A2E2D00A6
:105300000C2C18BF182C3CD1FE606D1C032DE6DB65
:10531000DAF800100A98002906D5D8F804100029F8
:1053200002D40168491C0160D8F80430CAF8003082
:105330000268DFF8040A406C0168484607F009FE7D
:105340000020BDE8F6870126002104E001260121A6
:1053500001E00126022108EB810C0C2C07D0182C4F
:105360000FD1182200F010F8F86036B9CDE70C2202
:1053700000F00AF8F860002EC7D0F8684042F860E4
:10538000C3E74FF0FF30DCE700EB850101928A694B
:105390000092CB68426890F90110DCF8080066E7DB
:1053A0002DE9F04104460D46164662213046FFF7CE
:1053B0009BFEA6F86200DFF8B87696F96000DFF889
:1053C0009C8620B101281AD0032830D047E0FFF78F
:1053D000B1FE84461CF1010F41D008EBCC000179ED
:1053E000490701D500F03DF8002006EB800107EBEE
:1053F000800289691162401C0328F6DB2FE0FFF769
:1054000099FE84461CF1010F29D008EBCC000179EC
:10541000490701D500F025F8002006EB800107EBD5
:10542000800289699163401C0328F6DB17E00220A3
:10543000FFF780FE84461CF1010F10D008EBCC0072
:105440000179490701D500F00CF8002006EB800136
:1054500007EB80028969D162401C0328F6DBBDE8B6
:10546000F081224658F83C40246B2B4631462047B9
:10547000F0B5DFF8FC15DFF8844A87B0D1E906679C
:105480000C9D012804D021D3032811D008D31DE09E
:1054900016F010061AD000F01BF8B1F902200EE049
:1054A00016F0040612D000F013F8B1F9042006E05B
:1054B00016F008060AD000F00BF8B1F9062004EB4C
:1054C000C20054F83220526800A9904707B0F0BDDE
:1054D0002868029068680390A8680490CDE90023CA
:1054E00070472DE9F04190B004460D46164601A9DB
:1054F00000A808F0FFFF304609F063FE70680490D2
:10550000B0680590F06806903068079000980890A1
:10551000079800280AD50499494204914042059908
:10552000079049420591069949420691CDE9024505
:10553000DFF83C85DFF8C479D8E9060110F00100F6
:1055400012D00DAB0CAA0EA9304609F02BFDCDE907
:105550000A450020FFF701FE024607EBC20057F89C
:10556000322052680AA99047D8E9060110F00200DB
:1055700004D00120FFF7F1FD00F017F8D8E906018B
:1055800010F0805004D01C20FFF7E7FD00F00DF86C
:10559000D8E9060110F0005004D01D20FFF7DDFD12
:1055A00000F003F810B0BDE8F081024607EBC2003E
:1055B00057F83220526802A910477FB5DFF8B0646F
:1055C00004460D46D6E9060110F0200001F0000166
:1055D0001BD0106800B101208DF8080070569DF9AD
:1055E000081088420ED00520FFF7B7FDCDE9004531
:1055F0000246DFF8083903EBC20053F83220526844
:1056000000A990479DF8080030707FBD704738B5FD
:105610000446DFF85C540020C5E906000022402162
:10562000DFF83804FDF794FEDFF8340400224FF46D
:105630008471FDF78DFE6C64606801001CBFA16879
:10564000002902D0A864A068E864A2686168DFF855
:10565000B00809F048FE002032BD70B5AAB00400C1
:105660000E4614BF002E6FF013006DD094F90000A9
:10567000FFF760FD10F1010F04D0002030606FF0E3
:105680000B0061E02046FFF779FD10F1010F08BF24
:105690006FF00D0058D010F1100F08BF6FF00F0021
:1056A00052D010F1070F0CBF002501250020DFF8B4
:1056B000AC1351F8302032B1401C00B20828F8DB9E
:1056C0006FF0120040E010F1010FF9D041F83040C6
:1056D00001EBC000002181803060615641B900F0CB
:1056E00053F80EBF41F008014FF6F7721140818068
:1056F000226B8188002A12BF41F004014FF6FB7231
:105700001140818000F022F827A894F9001000F0E1
:1057100041F8DFF8F00709F08BFDDFF8EC0709F03E
:105720008BFDE06A294609F0F7FE00F04CF800F026
:105730003DF800F042F800F021F800F019F800F010
:1057400011F800F009F800202AB070BD4FF6FE7283
:105750008188114081807047D4F8EC00279000A820
:1057600009F028BF2A4604F1D80122A8FDF780BD20
:105770002A4604F1CC011FA8FDF77ABD2A4604F1A0
:10578000C0011CA8FDF774BD226C8188DFF8D832F7
:105790009A42704719B1022905D002D370470121FE
:1057A00002E0022100E00321017170470C250C2268
:1057B00004F19C0113A8FDF75BBD182204F1A801B8
:1057C00016A8FDF755BD002000A901EB8001626A13
:1057D0000A61A26ACA6104EB8002401C526B4A60F3
:1057E0000328F1DB606C0090242204F178010AA800
:1057F000FDF73EBD2DE9F04105000E4614BF002E19
:105800006FF013000AD095F90000FFF7A6FC10F125
:10581000010F04D0002030606FF008007FE095F9A0
:1058200000002128BCBF95F90810042919DA95F960
:1058300009100629BCBF95F90A10022911DA696816
:1058400079B10B2884BFA0F10E0103290CD9C91F1F
:105850000AD0891E012907D9C91E05D0891E04292D
:1058600002D96FF011005AE000247D4FA04657F88E
:10587000381021B1641C24B2212CF7DB02E018F1AE
:10588000010F04D1002030606FF0120047E0FFF7F5
:10589000AEFC10F1010F04D1002030606FF00C005D
:1058A0003DE0734A95F90030D2E9060113B3012BAC
:1058B00037D0022B47D0032B4CD0042B53D0052BD1
:1058C00057D0062B5ED0072B5FD0082B60D00A2B59
:1058D00061D00B2B62D00E2B32D00F2B37D0102B78
:1058E0003ED01C2B20D01D2B21D01F2B22D0202BB3
:1058F00023D056E040F00100C2E9060147F83850D5
:1059000007EBC8000021818030600020DFF8FC1523
:1059100009F08AFCDFF8F00509F08EFC0020BDE8F4
:10592000F08140F00200E7E740F08050E4E740F00B
:105930000050E1E740F00040DEE741F00101DBE725
:1059400040F48040D8E7948040F00400D4E740F46D
:105950000040D1E740F00800C2E90601D480CDE75D
:1059600040F48030C8E740F01000C2E906015480DE
:10597000C4E740F02000C2E90601DFF8940509F011
:105980005FFCBBE740F04000B6E740F08000B3E7C3
:1059900040F48070B0E740F48060ADE740F4006010
:1059A000AAE76FF00200BAE72DE9F04B04465FEA80
:1059B000010808BF6FF013004DD024B1FFF7ACFB16
:1059C00010F1010F02D16FF0140044E02079C007FC
:1059D00040D5274DA86C6FF007094F468047B5F9B1
:1059E00008106889082907DA401C491C80B22981FF
:1059F000082808BF00200027688114266889CF4B3B
:105A000070431022C450C0184146001DFDF720FC11
:105A1000B5F90E10288ACB46082908DA401C491C23
:105A200080B2E981082808BF00204FF0000B2882CF
:105A30001022288ADFF8DC3470434146C450C01875
:105A4000001DFDF705FCE86C80474846874218BFFB
:105A5000834500D00020BDE8F08B000038360120DF
:105A6000CC100120947E00205C8F0200B81E05003F
:105A7000688300202DE9F04CAF4CA06CA3B08047A8
:105A80001422AE4809E089B1491E2181591CA18127
:105A900089B2082904BF0021A181A389B4F90810A3
:105AA00002FB03F52E58002EEDD011B9E06C8047B3
:105AB00039E129181AA8FDF7CBFB2089401E208167
:105AC000A089401C80B2082808BF0020A081E06C9B
:105AD00080471A98DFF8245400680FF2005790F9B5
